{
	"contracts/students.sol": {
		"myStudent": {
			"abi": [
				{
					"inputs": [
						{
							"internalType": "string",
							"name": "firstName",
							"type": "string"
						},
						{
							"internalType": "string",
							"name": "lastName",
							"type": "string"
						},
						{
							"internalType": "uint256",
							"name": "regNo",
							"type": "uint256"
						}
					],
					"name": "addStudent",
					"outputs": [],
					"stateMutability": "nonpayable",
					"type": "function"
				},
				{
					"inputs": [
						{
							"internalType": "address",
							"name": "StudentAddress",
							"type": "address"
						}
					],
					"name": "getStudent",
					"outputs": [
						{
							"internalType": "enum myStudent.Section",
							"name": "",
							"type": "uint8"
						}
					],
					"stateMutability": "view",
					"type": "function"
				},
				{
					"inputs": [],
					"name": "studentCount",
					"outputs": [
						{
							"internalType": "uint256",
							"name": "",
							"type": "uint256"
						}
					],
					"stateMutability": "view",
					"type": "function"
				},
				{
					"inputs": [
						{
							"internalType": "address",
							"name": "",
							"type": "address"
						}
					],
					"name": "students",
					"outputs": [
						{
							"internalType": "address",
							"name": "StudentAddress",
							"type": "address"
						},
						{
							"internalType": "enum myStudent.Section",
							"name": "studentSection",
							"type": "uint8"
						},
						{
							"internalType": "string",
							"name": "firstName",
							"type": "string"
						},
						{
							"internalType": "string",
							"name": "lastName",
							"type": "string"
						},
						{
							"internalType": "uint256",
							"name": "regNo",
							"type": "uint256"
						}
					],
					"stateMutability": "view",
					"type": "function"
				}
			],
			"devdoc": {
				"kind": "dev",
				"methods": {},
				"version": 1
			},
			"evm": {
				"assembly": "    /* \"contracts/students.sol\":70:784  contract myStudent{\r... */\n  mstore(0x40, 0x80)\n    /* \"contracts/students.sol\":122:123  0 */\n  0x00\n    /* \"contracts/students.sol\":95:123  uint public studentCount = 0 */\n  dup1\n  sstore\n    /* \"contracts/students.sol\":70:784  contract myStudent{\r... */\n  callvalue\n  dup1\n  iszero\n  tag_1\n  jumpi\n  0x00\n  dup1\n  revert\ntag_1:\n  pop\n  dataSize(sub_0)\n  dup1\n  dataOffset(sub_0)\n  0x00\n  codecopy\n  0x00\n  return\nstop\n\nsub_0: assembly {\n        /* \"contracts/students.sol\":70:784  contract myStudent{\r... */\n      mstore(0x40, 0x80)\n      callvalue\n      dup1\n      iszero\n      tag_1\n      jumpi\n      0x00\n      dup1\n      revert\n    tag_1:\n      pop\n      jumpi(tag_2, lt(calldatasize, 0x04))\n      shr(0xe0, calldataload(0x00))\n      dup1\n      0x6b7b44d7\n      eq\n      tag_3\n      jumpi\n      dup1\n      0x9cc8f139\n      eq\n      tag_4\n      jumpi\n      dup1\n      0xa6c807a9\n      eq\n      tag_5\n      jumpi\n      dup1\n      0xe581f9ee\n      eq\n      tag_6\n      jumpi\n    tag_2:\n      0x00\n      dup1\n      revert\n        /* \"contracts/students.sol\":638:775  function getStudent(address StudentAddress) public  view returns (Section){\r... */\n    tag_3:\n      tag_7\n      0x04\n      dup1\n      calldatasize\n      sub\n      dup2\n      add\n      swap1\n      tag_8\n      swap2\n      swap1\n      tag_9\n      jump\t// in\n    tag_8:\n      tag_10\n      jump\t// in\n    tag_7:\n      mload(0x40)\n      tag_11\n      swap2\n      swap1\n      tag_12\n      jump\t// in\n    tag_11:\n      mload(0x40)\n      dup1\n      swap2\n      sub\n      swap1\n      return\n        /* \"contracts/students.sol\":407:626  function addStudent(string memory firstName, string memory lastName, uint regNo) public {\r... */\n    tag_4:\n      tag_13\n      0x04\n      dup1\n      calldatasize\n      sub\n      dup2\n      add\n      swap1\n      tag_14\n      swap2\n      swap1\n      tag_15\n      jump\t// in\n    tag_14:\n      tag_16\n      jump\t// in\n    tag_13:\n      stop\n        /* \"contracts/students.sol\":130:174  mapping (address => Student) public students */\n    tag_5:\n      tag_17\n      0x04\n      dup1\n      calldatasize\n      sub\n      dup2\n      add\n      swap1\n      tag_18\n      swap2\n      swap1\n      tag_9\n      jump\t// in\n    tag_18:\n      tag_19\n      jump\t// in\n    tag_17:\n      mload(0x40)\n      tag_20\n      swap6\n      swap5\n      swap4\n      swap3\n      swap2\n      swap1\n      tag_21\n      jump\t// in\n    tag_20:\n      mload(0x40)\n      dup1\n      swap2\n      sub\n      swap1\n      return\n        /* \"contracts/students.sol\":95:123  uint public studentCount = 0 */\n    tag_6:\n      tag_22\n      tag_23\n      jump\t// in\n    tag_22:\n      mload(0x40)\n      tag_24\n      swap2\n      swap1\n      tag_25\n      jump\t// in\n    tag_24:\n      mload(0x40)\n      dup1\n      swap2\n      sub\n      swap1\n      return\n        /* \"contracts/students.sol\":638:775  function getStudent(address StudentAddress) public  view returns (Section){\r... */\n    tag_10:\n        /* \"contracts/students.sol\":704:711  Section */\n      0x00\n        /* \"contracts/students.sol\":728:736  students */\n      0x01\n        /* \"contracts/students.sol\":728:752  students[StudentAddress] */\n      0x00\n        /* \"contracts/students.sol\":737:751  StudentAddress */\n      dup4\n        /* \"contracts/students.sol\":728:752  students[StudentAddress] */\n      0xffffffffffffffffffffffffffffffffffffffff\n      and\n      0xffffffffffffffffffffffffffffffffffffffff\n      and\n      dup2\n      mstore\n      0x20\n      add\n      swap1\n      dup2\n      mstore\n      0x20\n      add\n      0x00\n      keccak256\n        /* \"contracts/students.sol\":728:767  students[StudentAddress].studentSection */\n      0x00\n      add\n      0x14\n      swap1\n      sload\n      swap1\n      0x0100\n      exp\n      swap1\n      div\n      0xff\n      and\n        /* \"contracts/students.sol\":721:767  return students[StudentAddress].studentSection */\n      swap1\n      pop\n        /* \"contracts/students.sol\":638:775  function getStudent(address StudentAddress) public  view returns (Section){\r... */\n      swap2\n      swap1\n      pop\n      jump\t// out\n        /* \"contracts/students.sol\":407:626  function addStudent(string memory firstName, string memory lastName, uint regNo) public {\r... */\n    tag_16:\n        /* \"contracts/students.sol\":529:590  Student(msg.sender, Section.web3, firstName, lastName, regNo) */\n      mload(0x40)\n      dup1\n      0xa0\n      add\n      0x40\n      mstore\n      dup1\n        /* \"contracts/students.sol\":537:547  msg.sender */\n      caller\n        /* \"contracts/students.sol\":529:590  Student(msg.sender, Section.web3, firstName, lastName, regNo) */\n      0xffffffffffffffffffffffffffffffffffffffff\n      and\n      dup2\n      mstore\n      0x20\n      add\n        /* \"contracts/students.sol\":549:561  Section.web3 */\n      0x01\n        /* \"contracts/students.sol\":529:590  Student(msg.sender, Section.web3, firstName, lastName, regNo) */\n      0x02\n      dup2\n      gt\n      iszero\n      tag_28\n      jumpi\n      tag_29\n      tag_30\n      jump\t// in\n    tag_29:\n    tag_28:\n      dup2\n      mstore\n      0x20\n      add\n        /* \"contracts/students.sol\":563:572  firstName */\n      dup5\n        /* \"contracts/students.sol\":529:590  Student(msg.sender, Section.web3, firstName, lastName, regNo) */\n      dup2\n      mstore\n      0x20\n      add\n        /* \"contracts/students.sol\":574:582  lastName */\n      dup4\n        /* \"contracts/students.sol\":529:590  Student(msg.sender, Section.web3, firstName, lastName, regNo) */\n      dup2\n      mstore\n      0x20\n      add\n        /* \"contracts/students.sol\":584:589  regNo */\n      dup3\n        /* \"contracts/students.sol\":529:590  Student(msg.sender, Section.web3, firstName, lastName, regNo) */\n      dup2\n      mstore\n      pop\n        /* \"contracts/students.sol\":506:514  students */\n      0x01\n        /* \"contracts/students.sol\":506:526  students[msg.sender] */\n      0x00\n        /* \"contracts/students.sol\":515:525  msg.sender */\n      caller\n        /* \"contracts/students.sol\":506:526  students[msg.sender] */\n      0xffffffffffffffffffffffffffffffffffffffff\n      and\n      0xffffffffffffffffffffffffffffffffffffffff\n      and\n      dup2\n      mstore\n      0x20\n      add\n      swap1\n      dup2\n      mstore\n      0x20\n      add\n      0x00\n      keccak256\n        /* \"contracts/students.sol\":506:590  students[msg.sender] = Student(msg.sender, Section.web3, firstName, lastName, regNo) */\n      0x00\n      dup3\n      add\n      mload\n      dup2\n      0x00\n      add\n      exp(0x0100, 0x00)\n      dup2\n      sload\n      dup2\n      0xffffffffffffffffffffffffffffffffffffffff\n      mul\n      not\n      and\n      swap1\n      dup4\n      0xffffffffffffffffffffffffffffffffffffffff\n      and\n      mul\n      or\n      swap1\n      sstore\n      pop\n      0x20\n      dup3\n      add\n      mload\n      dup2\n      0x00\n      add\n      exp(0x0100, 0x14)\n      dup2\n      sload\n      dup2\n      0xff\n      mul\n      not\n      and\n      swap1\n      dup4\n      0x02\n      dup2\n      gt\n      iszero\n      tag_31\n      jumpi\n      tag_32\n      tag_30\n      jump\t// in\n    tag_32:\n    tag_31:\n      mul\n      or\n      swap1\n      sstore\n      pop\n      0x40\n      dup3\n      add\n      mload\n      dup2\n      0x01\n      add\n      swap1\n      dup1\n      mload\n      swap1\n      0x20\n      add\n      swap1\n      tag_33\n      swap3\n      swap2\n      swap1\n      tag_34\n      jump\t// in\n    tag_33:\n      pop\n      0x60\n      dup3\n      add\n      mload\n      dup2\n      0x02\n      add\n      swap1\n      dup1\n      mload\n      swap1\n      0x20\n      add\n      swap1\n      tag_35\n      swap3\n      swap2\n      swap1\n      tag_34\n      jump\t// in\n    tag_35:\n      pop\n      0x80\n      dup3\n      add\n      mload\n      dup2\n      0x03\n      add\n      sstore\n      swap1\n      pop\n      pop\n        /* \"contracts/students.sol\":617:618  1 */\n      0x01\n        /* \"contracts/students.sol\":601:613  studentCount */\n      0x00\n      dup1\n        /* \"contracts/students.sol\":601:618  studentCount += 1 */\n      dup3\n      dup3\n      sload\n      tag_36\n      swap2\n      swap1\n      tag_37\n      jump\t// in\n    tag_36:\n      swap3\n      pop\n      pop\n      dup2\n      swap1\n      sstore\n      pop\n        /* \"contracts/students.sol\":407:626  function addStudent(string memory firstName, string memory lastName, uint regNo) public {\r... */\n      pop\n      pop\n      pop\n      jump\t// out\n        /* \"contracts/students.sol\":130:174  mapping (address => Student) public students */\n    tag_19:\n      mstore(0x20, 0x01)\n      dup1\n      0x00\n      mstore\n      keccak256(0x00, 0x40)\n      0x00\n      swap2\n      pop\n      swap1\n      pop\n      dup1\n      0x00\n      add\n      0x00\n      swap1\n      sload\n      swap1\n      0x0100\n      exp\n      swap1\n      div\n      0xffffffffffffffffffffffffffffffffffffffff\n      and\n      swap1\n      dup1\n      0x00\n      add\n      0x14\n      swap1\n      sload\n      swap1\n      0x0100\n      exp\n      swap1\n      div\n      0xff\n      and\n      swap1\n      dup1\n      0x01\n      add\n      dup1\n      sload\n      tag_38\n      swap1\n      tag_39\n      jump\t// in\n    tag_38:\n      dup1\n      0x1f\n      add\n      0x20\n      dup1\n      swap2\n      div\n      mul\n      0x20\n      add\n      mload(0x40)\n      swap1\n      dup2\n      add\n      0x40\n      mstore\n      dup1\n      swap3\n      swap2\n      swap1\n      dup2\n      dup2\n      mstore\n      0x20\n      add\n      dup3\n      dup1\n      sload\n      tag_40\n      swap1\n      tag_39\n      jump\t// in\n    tag_40:\n      dup1\n      iszero\n      tag_41\n      jumpi\n      dup1\n      0x1f\n      lt\n      tag_42\n      jumpi\n      0x0100\n      dup1\n      dup4\n      sload\n      div\n      mul\n      dup4\n      mstore\n      swap2\n      0x20\n      add\n      swap2\n      jump(tag_41)\n    tag_42:\n      dup3\n      add\n      swap2\n      swap1\n      0x00\n      mstore\n      keccak256(0x00, 0x20)\n      swap1\n    tag_43:\n      dup2\n      sload\n      dup2\n      mstore\n      swap1\n      0x01\n      add\n      swap1\n      0x20\n      add\n      dup1\n      dup4\n      gt\n      tag_43\n      jumpi\n      dup3\n      swap1\n      sub\n      0x1f\n      and\n      dup3\n      add\n      swap2\n    tag_41:\n      pop\n      pop\n      pop\n      pop\n      pop\n      swap1\n      dup1\n      0x02\n      add\n      dup1\n      sload\n      tag_44\n      swap1\n      tag_39\n      jump\t// in\n    tag_44:\n      dup1\n      0x1f\n      add\n      0x20\n      dup1\n      swap2\n      div\n      mul\n      0x20\n      add\n      mload(0x40)\n      swap1\n      dup2\n      add\n      0x40\n      mstore\n      dup1\n      swap3\n      swap2\n      swap1\n      dup2\n      dup2\n      mstore\n      0x20\n      add\n      dup3\n      dup1\n      sload\n      tag_45\n      swap1\n      tag_39\n      jump\t// in\n    tag_45:\n      dup1\n      iszero\n      tag_46\n      jumpi\n      dup1\n      0x1f\n      lt\n      tag_47\n      jumpi\n      0x0100\n      dup1\n      dup4\n      sload\n      div\n      mul\n      dup4\n      mstore\n      swap2\n      0x20\n      add\n      swap2\n      jump(tag_46)\n    tag_47:\n      dup3\n      add\n      swap2\n      swap1\n      0x00\n      mstore\n      keccak256(0x00, 0x20)\n      swap1\n    tag_48:\n      dup2\n      sload\n      dup2\n      mstore\n      swap1\n      0x01\n      add\n      swap1\n      0x20\n      add\n      dup1\n      dup4\n      gt\n      tag_48\n      jumpi\n      dup3\n      swap1\n      sub\n      0x1f\n      and\n      dup3\n      add\n      swap2\n    tag_46:\n      pop\n      pop\n      pop\n      pop\n      pop\n      swap1\n      dup1\n      0x03\n      add\n      sload\n      swap1\n      pop\n      dup6\n      jump\t// out\n        /* \"contracts/students.sol\":95:123  uint public studentCount = 0 */\n    tag_23:\n      sload(0x00)\n      dup2\n      jump\t// out\n    tag_34:\n      dup3\n      dup1\n      sload\n      tag_49\n      swap1\n      tag_39\n      jump\t// in\n    tag_49:\n      swap1\n      0x00\n      mstore\n      keccak256(0x00, 0x20)\n      swap1\n      0x1f\n      add\n      0x20\n      swap1\n      div\n      dup2\n      add\n      swap3\n      dup3\n      tag_51\n      jumpi\n      0x00\n      dup6\n      sstore\n      jump(tag_50)\n    tag_51:\n      dup3\n      0x1f\n      lt\n      tag_52\n      jumpi\n      dup1\n      mload\n      not(0xff)\n      and\n      dup4\n      dup1\n      add\n      or\n      dup6\n      sstore\n      jump(tag_50)\n    tag_52:\n      dup3\n      dup1\n      add\n      0x01\n      add\n      dup6\n      sstore\n      dup3\n      iszero\n      tag_50\n      jumpi\n      swap2\n      dup3\n      add\n    tag_53:\n      dup3\n      dup2\n      gt\n      iszero\n      tag_54\n      jumpi\n      dup3\n      mload\n      dup3\n      sstore\n      swap2\n      0x20\n      add\n      swap2\n      swap1\n      0x01\n      add\n      swap1\n      jump(tag_53)\n    tag_54:\n    tag_50:\n      pop\n      swap1\n      pop\n      tag_55\n      swap2\n      swap1\n      tag_56\n      jump\t// in\n    tag_55:\n      pop\n      swap1\n      jump\t// out\n    tag_56:\n    tag_57:\n      dup1\n      dup3\n      gt\n      iszero\n      tag_58\n      jumpi\n      0x00\n      dup2\n      0x00\n      swap1\n      sstore\n      pop\n      0x01\n      add\n      jump(tag_57)\n    tag_58:\n      pop\n      swap1\n      jump\t// out\n        /* \"#utility.yul\":7:419   */\n    tag_60:\n        /* \"#utility.yul\":85:90   */\n      0x00\n        /* \"#utility.yul\":110:176   */\n      tag_62\n        /* \"#utility.yul\":126:175   */\n      tag_63\n        /* \"#utility.yul\":168:174   */\n      dup5\n        /* \"#utility.yul\":126:175   */\n      tag_64\n      jump\t// in\n    tag_63:\n        /* \"#utility.yul\":110:176   */\n      tag_65\n      jump\t// in\n    tag_62:\n        /* \"#utility.yul\":101:176   */\n      swap1\n      pop\n        /* \"#utility.yul\":199:205   */\n      dup3\n        /* \"#utility.yul\":192:197   */\n      dup2\n        /* \"#utility.yul\":185:206   */\n      mstore\n        /* \"#utility.yul\":237:241   */\n      0x20\n        /* \"#utility.yul\":230:235   */\n      dup2\n        /* \"#utility.yul\":226:242   */\n      add\n        /* \"#utility.yul\":275:278   */\n      dup5\n        /* \"#utility.yul\":266:272   */\n      dup5\n        /* \"#utility.yul\":261:264   */\n      dup5\n        /* \"#utility.yul\":257:273   */\n      add\n        /* \"#utility.yul\":254:279   */\n      gt\n        /* \"#utility.yul\":251:363   */\n      iszero\n      tag_66\n      jumpi\n        /* \"#utility.yul\":282:361   */\n      tag_67\n      tag_68\n      jump\t// in\n    tag_67:\n        /* \"#utility.yul\":251:363   */\n    tag_66:\n        /* \"#utility.yul\":372:413   */\n      tag_69\n        /* \"#utility.yul\":406:412   */\n      dup5\n        /* \"#utility.yul\":401:404   */\n      dup3\n        /* \"#utility.yul\":396:399   */\n      dup6\n        /* \"#utility.yul\":372:413   */\n      tag_70\n      jump\t// in\n    tag_69:\n        /* \"#utility.yul\":91:419   */\n      pop\n        /* \"#utility.yul\":7:419   */\n      swap4\n      swap3\n      pop\n      pop\n      pop\n      jump\t// out\n        /* \"#utility.yul\":425:564   */\n    tag_71:\n        /* \"#utility.yul\":471:476   */\n      0x00\n        /* \"#utility.yul\":509:515   */\n      dup2\n        /* \"#utility.yul\":496:516   */\n      calldataload\n        /* \"#utility.yul\":487:516   */\n      swap1\n      pop\n        /* \"#utility.yul\":525:558   */\n      tag_73\n        /* \"#utility.yul\":552:557   */\n      dup2\n        /* \"#utility.yul\":525:558   */\n      tag_74\n      jump\t// in\n    tag_73:\n        /* \"#utility.yul\":425:564   */\n      swap3\n      swap2\n      pop\n      pop\n      jump\t// out\n        /* \"#utility.yul\":584:924   */\n    tag_75:\n        /* \"#utility.yul\":640:645   */\n      0x00\n        /* \"#utility.yul\":689:692   */\n      dup3\n        /* \"#utility.yul\":682:686   */\n      0x1f\n        /* \"#utility.yul\":674:680   */\n      dup4\n        /* \"#utility.yul\":670:687   */\n      add\n        /* \"#utility.yul\":666:693   */\n      slt\n        /* \"#utility.yul\":656:778   */\n      tag_77\n      jumpi\n        /* \"#utility.yul\":697:776   */\n      tag_78\n      tag_79\n      jump\t// in\n    tag_78:\n        /* \"#utility.yul\":656:778   */\n    tag_77:\n        /* \"#utility.yul\":814:820   */\n      dup2\n        /* \"#utility.yul\":801:821   */\n      calldataload\n        /* \"#utility.yul\":839:918   */\n      tag_80\n        /* \"#utility.yul\":914:917   */\n      dup5\n        /* \"#utility.yul\":906:912   */\n      dup3\n        /* \"#utility.yul\":899:903   */\n      0x20\n        /* \"#utility.yul\":891:897   */\n      dup7\n        /* \"#utility.yul\":887:904   */\n      add\n        /* \"#utility.yul\":839:918   */\n      tag_60\n      jump\t// in\n    tag_80:\n        /* \"#utility.yul\":830:918   */\n      swap2\n      pop\n        /* \"#utility.yul\":646:924   */\n      pop\n        /* \"#utility.yul\":584:924   */\n      swap3\n      swap2\n      pop\n      pop\n      jump\t// out\n        /* \"#utility.yul\":930:1069   */\n    tag_81:\n        /* \"#utility.yul\":976:981   */\n      0x00\n        /* \"#utility.yul\":1014:1020   */\n      dup2\n        /* \"#utility.yul\":1001:1021   */\n      calldataload\n        /* \"#utility.yul\":992:1021   */\n      swap1\n      pop\n        /* \"#utility.yul\":1030:1063   */\n      tag_83\n        /* \"#utility.yul\":1057:1062   */\n      dup2\n        /* \"#utility.yul\":1030:1063   */\n      tag_84\n      jump\t// in\n    tag_83:\n        /* \"#utility.yul\":930:1069   */\n      swap3\n      swap2\n      pop\n      pop\n      jump\t// out\n        /* \"#utility.yul\":1075:1404   */\n    tag_9:\n        /* \"#utility.yul\":1134:1140   */\n      0x00\n        /* \"#utility.yul\":1183:1185   */\n      0x20\n        /* \"#utility.yul\":1171:1180   */\n      dup3\n        /* \"#utility.yul\":1162:1169   */\n      dup5\n        /* \"#utility.yul\":1158:1181   */\n      sub\n        /* \"#utility.yul\":1154:1186   */\n      slt\n        /* \"#utility.yul\":1151:1270   */\n      iszero\n      tag_86\n      jumpi\n        /* \"#utility.yul\":1189:1268   */\n      tag_87\n      tag_88\n      jump\t// in\n    tag_87:\n        /* \"#utility.yul\":1151:1270   */\n    tag_86:\n        /* \"#utility.yul\":1309:1310   */\n      0x00\n        /* \"#utility.yul\":1334:1387   */\n      tag_89\n        /* \"#utility.yul\":1379:1386   */\n      dup5\n        /* \"#utility.yul\":1370:1376   */\n      dup3\n        /* \"#utility.yul\":1359:1368   */\n      dup6\n        /* \"#utility.yul\":1355:1377   */\n      add\n        /* \"#utility.yul\":1334:1387   */\n      tag_71\n      jump\t// in\n    tag_89:\n        /* \"#utility.yul\":1324:1387   */\n      swap2\n      pop\n        /* \"#utility.yul\":1280:1397   */\n      pop\n        /* \"#utility.yul\":1075:1404   */\n      swap3\n      swap2\n      pop\n      pop\n      jump\t// out\n        /* \"#utility.yul\":1410:2389   */\n    tag_15:\n        /* \"#utility.yul\":1507:1513   */\n      0x00\n        /* \"#utility.yul\":1515:1521   */\n      dup1\n        /* \"#utility.yul\":1523:1529   */\n      0x00\n        /* \"#utility.yul\":1572:1574   */\n      0x60\n        /* \"#utility.yul\":1560:1569   */\n      dup5\n        /* \"#utility.yul\":1551:1558   */\n      dup7\n        /* \"#utility.yul\":1547:1570   */\n      sub\n        /* \"#utility.yul\":1543:1575   */\n      slt\n        /* \"#utility.yul\":1540:1659   */\n      iszero\n      tag_91\n      jumpi\n        /* \"#utility.yul\":1578:1657   */\n      tag_92\n      tag_88\n      jump\t// in\n    tag_92:\n        /* \"#utility.yul\":1540:1659   */\n    tag_91:\n        /* \"#utility.yul\":1726:1727   */\n      0x00\n        /* \"#utility.yul\":1715:1724   */\n      dup5\n        /* \"#utility.yul\":1711:1728   */\n      add\n        /* \"#utility.yul\":1698:1729   */\n      calldataload\n        /* \"#utility.yul\":1756:1774   */\n      0xffffffffffffffff\n        /* \"#utility.yul\":1748:1754   */\n      dup2\n        /* \"#utility.yul\":1745:1775   */\n      gt\n        /* \"#utility.yul\":1742:1859   */\n      iszero\n      tag_93\n      jumpi\n        /* \"#utility.yul\":1778:1857   */\n      tag_94\n      tag_95\n      jump\t// in\n    tag_94:\n        /* \"#utility.yul\":1742:1859   */\n    tag_93:\n        /* \"#utility.yul\":1883:1946   */\n      tag_96\n        /* \"#utility.yul\":1938:1945   */\n      dup7\n        /* \"#utility.yul\":1929:1935   */\n      dup3\n        /* \"#utility.yul\":1918:1927   */\n      dup8\n        /* \"#utility.yul\":1914:1936   */\n      add\n        /* \"#utility.yul\":1883:1946   */\n      tag_75\n      jump\t// in\n    tag_96:\n        /* \"#utility.yul\":1873:1946   */\n      swap4\n      pop\n        /* \"#utility.yul\":1669:1956   */\n      pop\n        /* \"#utility.yul\":2023:2025   */\n      0x20\n        /* \"#utility.yul\":2012:2021   */\n      dup5\n        /* \"#utility.yul\":2008:2026   */\n      add\n        /* \"#utility.yul\":1995:2027   */\n      calldataload\n        /* \"#utility.yul\":2054:2072   */\n      0xffffffffffffffff\n        /* \"#utility.yul\":2046:2052   */\n      dup2\n        /* \"#utility.yul\":2043:2073   */\n      gt\n        /* \"#utility.yul\":2040:2157   */\n      iszero\n      tag_97\n      jumpi\n        /* \"#utility.yul\":2076:2155   */\n      tag_98\n      tag_95\n      jump\t// in\n    tag_98:\n        /* \"#utility.yul\":2040:2157   */\n    tag_97:\n        /* \"#utility.yul\":2181:2244   */\n      tag_99\n        /* \"#utility.yul\":2236:2243   */\n      dup7\n        /* \"#utility.yul\":2227:2233   */\n      dup3\n        /* \"#utility.yul\":2216:2225   */\n      dup8\n        /* \"#utility.yul\":2212:2234   */\n      add\n        /* \"#utility.yul\":2181:2244   */\n      tag_75\n      jump\t// in\n    tag_99:\n        /* \"#utility.yul\":2171:2244   */\n      swap3\n      pop\n        /* \"#utility.yul\":1966:2254   */\n      pop\n        /* \"#utility.yul\":2293:2295   */\n      0x40\n        /* \"#utility.yul\":2319:2372   */\n      tag_100\n        /* \"#utility.yul\":2364:2371   */\n      dup7\n        /* \"#utility.yul\":2355:2361   */\n      dup3\n        /* \"#utility.yul\":2344:2353   */\n      dup8\n        /* \"#utility.yul\":2340:2362   */\n      add\n        /* \"#utility.yul\":2319:2372   */\n      tag_81\n      jump\t// in\n    tag_100:\n        /* \"#utility.yul\":2309:2372   */\n      swap2\n      pop\n        /* \"#utility.yul\":2264:2382   */\n      pop\n        /* \"#utility.yul\":1410:2389   */\n      swap3\n      pop\n      swap3\n      pop\n      swap3\n      jump\t// out\n        /* \"#utility.yul\":2395:2513   */\n    tag_101:\n        /* \"#utility.yul\":2482:2506   */\n      tag_103\n        /* \"#utility.yul\":2500:2505   */\n      dup2\n        /* \"#utility.yul\":2482:2506   */\n      tag_104\n      jump\t// in\n    tag_103:\n        /* \"#utility.yul\":2477:2480   */\n      dup3\n        /* \"#utility.yul\":2470:2507   */\n      mstore\n        /* \"#utility.yul\":2395:2513   */\n      pop\n      pop\n      jump\t// out\n        /* \"#utility.yul\":2519:2666   */\n    tag_105:\n        /* \"#utility.yul\":2614:2659   */\n      tag_107\n        /* \"#utility.yul\":2653:2658   */\n      dup2\n        /* \"#utility.yul\":2614:2659   */\n      tag_108\n      jump\t// in\n    tag_107:\n        /* \"#utility.yul\":2609:2612   */\n      dup3\n        /* \"#utility.yul\":2602:2660   */\n      mstore\n        /* \"#utility.yul\":2519:2666   */\n      pop\n      pop\n      jump\t// out\n        /* \"#utility.yul\":2672:3036   */\n    tag_109:\n        /* \"#utility.yul\":2760:2763   */\n      0x00\n        /* \"#utility.yul\":2788:2827   */\n      tag_111\n        /* \"#utility.yul\":2821:2826   */\n      dup3\n        /* \"#utility.yul\":2788:2827   */\n      tag_112\n      jump\t// in\n    tag_111:\n        /* \"#utility.yul\":2843:2914   */\n      tag_113\n        /* \"#utility.yul\":2907:2913   */\n      dup2\n        /* \"#utility.yul\":2902:2905   */\n      dup6\n        /* \"#utility.yul\":2843:2914   */\n      tag_114\n      jump\t// in\n    tag_113:\n        /* \"#utility.yul\":2836:2914   */\n      swap4\n      pop\n        /* \"#utility.yul\":2923:2975   */\n      tag_115\n        /* \"#utility.yul\":2968:2974   */\n      dup2\n        /* \"#utility.yul\":2963:2966   */\n      dup6\n        /* \"#utility.yul\":2956:2960   */\n      0x20\n        /* \"#utility.yul\":2949:2954   */\n      dup7\n        /* \"#utility.yul\":2945:2961   */\n      add\n        /* \"#utility.yul\":2923:2975   */\n      tag_116\n      jump\t// in\n    tag_115:\n        /* \"#utility.yul\":3000:3029   */\n      tag_117\n        /* \"#utility.yul\":3022:3028   */\n      dup2\n        /* \"#utility.yul\":3000:3029   */\n      tag_118\n      jump\t// in\n    tag_117:\n        /* \"#utility.yul\":2995:2998   */\n      dup5\n        /* \"#utility.yul\":2991:3030   */\n      add\n        /* \"#utility.yul\":2984:3030   */\n      swap2\n      pop\n        /* \"#utility.yul\":2764:3036   */\n      pop\n        /* \"#utility.yul\":2672:3036   */\n      swap3\n      swap2\n      pop\n      pop\n      jump\t// out\n        /* \"#utility.yul\":3042:3160   */\n    tag_119:\n        /* \"#utility.yul\":3129:3153   */\n      tag_121\n        /* \"#utility.yul\":3147:3152   */\n      dup2\n        /* \"#utility.yul\":3129:3153   */\n      tag_122\n      jump\t// in\n    tag_121:\n        /* \"#utility.yul\":3124:3127   */\n      dup3\n        /* \"#utility.yul\":3117:3154   */\n      mstore\n        /* \"#utility.yul\":3042:3160   */\n      pop\n      pop\n      jump\t// out\n        /* \"#utility.yul\":3166:4028   */\n    tag_21:\n        /* \"#utility.yul\":3419:3423   */\n      0x00\n        /* \"#utility.yul\":3457:3460   */\n      0xa0\n        /* \"#utility.yul\":3446:3455   */\n      dup3\n        /* \"#utility.yul\":3442:3461   */\n      add\n        /* \"#utility.yul\":3434:3461   */\n      swap1\n      pop\n        /* \"#utility.yul\":3471:3542   */\n      tag_124\n        /* \"#utility.yul\":3539:3540   */\n      0x00\n        /* \"#utility.yul\":3528:3537   */\n      dup4\n        /* \"#utility.yul\":3524:3541   */\n      add\n        /* \"#utility.yul\":3515:3521   */\n      dup9\n        /* \"#utility.yul\":3471:3542   */\n      tag_101\n      jump\t// in\n    tag_124:\n        /* \"#utility.yul\":3552:3632   */\n      tag_125\n        /* \"#utility.yul\":3628:3630   */\n      0x20\n        /* \"#utility.yul\":3617:3626   */\n      dup4\n        /* \"#utility.yul\":3613:3631   */\n      add\n        /* \"#utility.yul\":3604:3610   */\n      dup8\n        /* \"#utility.yul\":3552:3632   */\n      tag_105\n      jump\t// in\n    tag_125:\n        /* \"#utility.yul\":3679:3688   */\n      dup2\n        /* \"#utility.yul\":3673:3677   */\n      dup2\n        /* \"#utility.yul\":3669:3689   */\n      sub\n        /* \"#utility.yul\":3664:3666   */\n      0x40\n        /* \"#utility.yul\":3653:3662   */\n      dup4\n        /* \"#utility.yul\":3649:3667   */\n      add\n        /* \"#utility.yul\":3642:3690   */\n      mstore\n        /* \"#utility.yul\":3707:3785   */\n      tag_126\n        /* \"#utility.yul\":3780:3784   */\n      dup2\n        /* \"#utility.yul\":3771:3777   */\n      dup7\n        /* \"#utility.yul\":3707:3785   */\n      tag_109\n      jump\t// in\n    tag_126:\n        /* \"#utility.yul\":3699:3785   */\n      swap1\n      pop\n        /* \"#utility.yul\":3832:3841   */\n      dup2\n        /* \"#utility.yul\":3826:3830   */\n      dup2\n        /* \"#utility.yul\":3822:3842   */\n      sub\n        /* \"#utility.yul\":3817:3819   */\n      0x60\n        /* \"#utility.yul\":3806:3815   */\n      dup4\n        /* \"#utility.yul\":3802:3820   */\n      add\n        /* \"#utility.yul\":3795:3843   */\n      mstore\n        /* \"#utility.yul\":3860:3938   */\n      tag_127\n        /* \"#utility.yul\":3933:3937   */\n      dup2\n        /* \"#utility.yul\":3924:3930   */\n      dup6\n        /* \"#utility.yul\":3860:3938   */\n      tag_109\n      jump\t// in\n    tag_127:\n        /* \"#utility.yul\":3852:3938   */\n      swap1\n      pop\n        /* \"#utility.yul\":3948:4021   */\n      tag_128\n        /* \"#utility.yul\":4016:4019   */\n      0x80\n        /* \"#utility.yul\":4005:4014   */\n      dup4\n        /* \"#utility.yul\":4001:4020   */\n      add\n        /* \"#utility.yul\":3992:3998   */\n      dup5\n        /* \"#utility.yul\":3948:4021   */\n      tag_119\n      jump\t// in\n    tag_128:\n        /* \"#utility.yul\":3166:4028   */\n      swap7\n      swap6\n      pop\n      pop\n      pop\n      pop\n      pop\n      pop\n      jump\t// out\n        /* \"#utility.yul\":4034:4272   */\n    tag_12:\n        /* \"#utility.yul\":4135:4139   */\n      0x00\n        /* \"#utility.yul\":4173:4175   */\n      0x20\n        /* \"#utility.yul\":4162:4171   */\n      dup3\n        /* \"#utility.yul\":4158:4176   */\n      add\n        /* \"#utility.yul\":4150:4176   */\n      swap1\n      pop\n        /* \"#utility.yul\":4186:4265   */\n      tag_130\n        /* \"#utility.yul\":4262:4263   */\n      0x00\n        /* \"#utility.yul\":4251:4260   */\n      dup4\n        /* \"#utility.yul\":4247:4264   */\n      add\n        /* \"#utility.yul\":4238:4244   */\n      dup5\n        /* \"#utility.yul\":4186:4265   */\n      tag_105\n      jump\t// in\n    tag_130:\n        /* \"#utility.yul\":4034:4272   */\n      swap3\n      swap2\n      pop\n      pop\n      jump\t// out\n        /* \"#utility.yul\":4278:4500   */\n    tag_25:\n        /* \"#utility.yul\":4371:4375   */\n      0x00\n        /* \"#utility.yul\":4409:4411   */\n      0x20\n        /* \"#utility.yul\":4398:4407   */\n      dup3\n        /* \"#utility.yul\":4394:4412   */\n      add\n        /* \"#utility.yul\":4386:4412   */\n      swap1\n      pop\n        /* \"#utility.yul\":4422:4493   */\n      tag_132\n        /* \"#utility.yul\":4490:4491   */\n      0x00\n        /* \"#utility.yul\":4479:4488   */\n      dup4\n        /* \"#utility.yul\":4475:4492   */\n      add\n        /* \"#utility.yul\":4466:4472   */\n      dup5\n        /* \"#utility.yul\":4422:4493   */\n      tag_119\n      jump\t// in\n    tag_132:\n        /* \"#utility.yul\":4278:4500   */\n      swap3\n      swap2\n      pop\n      pop\n      jump\t// out\n        /* \"#utility.yul\":4506:4635   */\n    tag_65:\n        /* \"#utility.yul\":4540:4546   */\n      0x00\n        /* \"#utility.yul\":4567:4587   */\n      tag_134\n      tag_135\n      jump\t// in\n    tag_134:\n        /* \"#utility.yul\":4557:4587   */\n      swap1\n      pop\n        /* \"#utility.yul\":4596:4629   */\n      tag_136\n        /* \"#utility.yul\":4624:4628   */\n      dup3\n        /* \"#utility.yul\":4616:4622   */\n      dup3\n        /* \"#utility.yul\":4596:4629   */\n      tag_137\n      jump\t// in\n    tag_136:\n        /* \"#utility.yul\":4506:4635   */\n      swap2\n      swap1\n      pop\n      jump\t// out\n        /* \"#utility.yul\":4641:4716   */\n    tag_135:\n        /* \"#utility.yul\":4674:4680   */\n      0x00\n        /* \"#utility.yul\":4707:4709   */\n      0x40\n        /* \"#utility.yul\":4701:4710   */\n      mload\n        /* \"#utility.yul\":4691:4710   */\n      swap1\n      pop\n        /* \"#utility.yul\":4641:4716   */\n      swap1\n      jump\t// out\n        /* \"#utility.yul\":4722:5030   */\n    tag_64:\n        /* \"#utility.yul\":4784:4788   */\n      0x00\n        /* \"#utility.yul\":4874:4892   */\n      0xffffffffffffffff\n        /* \"#utility.yul\":4866:4872   */\n      dup3\n        /* \"#utility.yul\":4863:4893   */\n      gt\n        /* \"#utility.yul\":4860:4916   */\n      iszero\n      tag_140\n      jumpi\n        /* \"#utility.yul\":4896:4914   */\n      tag_141\n      tag_142\n      jump\t// in\n    tag_141:\n        /* \"#utility.yul\":4860:4916   */\n    tag_140:\n        /* \"#utility.yul\":4934:4963   */\n      tag_143\n        /* \"#utility.yul\":4956:4962   */\n      dup3\n        /* \"#utility.yul\":4934:4963   */\n      tag_118\n      jump\t// in\n    tag_143:\n        /* \"#utility.yul\":4926:4963   */\n      swap1\n      pop\n        /* \"#utility.yul\":5018:5022   */\n      0x20\n        /* \"#utility.yul\":5012:5016   */\n      dup2\n        /* \"#utility.yul\":5008:5023   */\n      add\n        /* \"#utility.yul\":5000:5023   */\n      swap1\n      pop\n        /* \"#utility.yul\":4722:5030   */\n      swap2\n      swap1\n      pop\n      jump\t// out\n        /* \"#utility.yul\":5036:5135   */\n    tag_112:\n        /* \"#utility.yul\":5088:5094   */\n      0x00\n        /* \"#utility.yul\":5122:5127   */\n      dup2\n        /* \"#utility.yul\":5116:5128   */\n      mload\n        /* \"#utility.yul\":5106:5128   */\n      swap1\n      pop\n        /* \"#utility.yul\":5036:5135   */\n      swap2\n      swap1\n      pop\n      jump\t// out\n        /* \"#utility.yul\":5141:5310   */\n    tag_114:\n        /* \"#utility.yul\":5225:5236   */\n      0x00\n        /* \"#utility.yul\":5259:5265   */\n      dup3\n        /* \"#utility.yul\":5254:5257   */\n      dup3\n        /* \"#utility.yul\":5247:5266   */\n      mstore\n        /* \"#utility.yul\":5299:5303   */\n      0x20\n        /* \"#utility.yul\":5294:5297   */\n      dup3\n        /* \"#utility.yul\":5290:5304   */\n      add\n        /* \"#utility.yul\":5275:5304   */\n      swap1\n      pop\n        /* \"#utility.yul\":5141:5310   */\n      swap3\n      swap2\n      pop\n      pop\n      jump\t// out\n        /* \"#utility.yul\":5316:5621   */\n    tag_37:\n        /* \"#utility.yul\":5356:5359   */\n      0x00\n        /* \"#utility.yul\":5375:5395   */\n      tag_147\n        /* \"#utility.yul\":5393:5394   */\n      dup3\n        /* \"#utility.yul\":5375:5395   */\n      tag_122\n      jump\t// in\n    tag_147:\n        /* \"#utility.yul\":5370:5395   */\n      swap2\n      pop\n        /* \"#utility.yul\":5409:5429   */\n      tag_148\n        /* \"#utility.yul\":5427:5428   */\n      dup4\n        /* \"#utility.yul\":5409:5429   */\n      tag_122\n      jump\t// in\n    tag_148:\n        /* \"#utility.yul\":5404:5429   */\n      swap3\n      pop\n        /* \"#utility.yul\":5563:5564   */\n      dup3\n        /* \"#utility.yul\":5495:5561   */\n      0xffffffffffffffffffffffffffffffffffffffffffffffffffffffffffffffff\n        /* \"#utility.yul\":5491:5565   */\n      sub\n        /* \"#utility.yul\":5488:5489   */\n      dup3\n        /* \"#utility.yul\":5485:5566   */\n      gt\n        /* \"#utility.yul\":5482:5589   */\n      iszero\n      tag_149\n      jumpi\n        /* \"#utility.yul\":5569:5587   */\n      tag_150\n      tag_151\n      jump\t// in\n    tag_150:\n        /* \"#utility.yul\":5482:5589   */\n    tag_149:\n        /* \"#utility.yul\":5613:5614   */\n      dup3\n        /* \"#utility.yul\":5610:5611   */\n      dup3\n        /* \"#utility.yul\":5606:5615   */\n      add\n        /* \"#utility.yul\":5599:5615   */\n      swap1\n      pop\n        /* \"#utility.yul\":5316:5621   */\n      swap3\n      swap2\n      pop\n      pop\n      jump\t// out\n        /* \"#utility.yul\":5627:5723   */\n    tag_104:\n        /* \"#utility.yul\":5664:5671   */\n      0x00\n        /* \"#utility.yul\":5693:5717   */\n      tag_153\n        /* \"#utility.yul\":5711:5716   */\n      dup3\n        /* \"#utility.yul\":5693:5717   */\n      tag_154\n      jump\t// in\n    tag_153:\n        /* \"#utility.yul\":5682:5717   */\n      swap1\n      pop\n        /* \"#utility.yul\":5627:5723   */\n      swap2\n      swap1\n      pop\n      jump\t// out\n        /* \"#utility.yul\":5729:5860   */\n    tag_155:\n        /* \"#utility.yul\":5776:5783   */\n      0x00\n        /* \"#utility.yul\":5805:5810   */\n      dup2\n        /* \"#utility.yul\":5794:5810   */\n      swap1\n      pop\n        /* \"#utility.yul\":5811:5854   */\n      tag_157\n        /* \"#utility.yul\":5848:5853   */\n      dup3\n        /* \"#utility.yul\":5811:5854   */\n      tag_158\n      jump\t// in\n    tag_157:\n        /* \"#utility.yul\":5729:5860   */\n      swap2\n      swap1\n      pop\n      jump\t// out\n        /* \"#utility.yul\":5866:5992   */\n    tag_154:\n        /* \"#utility.yul\":5903:5910   */\n      0x00\n        /* \"#utility.yul\":5943:5985   */\n      0xffffffffffffffffffffffffffffffffffffffff\n        /* \"#utility.yul\":5936:5941   */\n      dup3\n        /* \"#utility.yul\":5932:5986   */\n      and\n        /* \"#utility.yul\":5921:5986   */\n      swap1\n      pop\n        /* \"#utility.yul\":5866:5992   */\n      swap2\n      swap1\n      pop\n      jump\t// out\n        /* \"#utility.yul\":5998:6075   */\n    tag_122:\n        /* \"#utility.yul\":6035:6042   */\n      0x00\n        /* \"#utility.yul\":6064:6069   */\n      dup2\n        /* \"#utility.yul\":6053:6069   */\n      swap1\n      pop\n        /* \"#utility.yul\":5998:6075   */\n      swap2\n      swap1\n      pop\n      jump\t// out\n        /* \"#utility.yul\":6081:6212   */\n    tag_108:\n        /* \"#utility.yul\":6139:6148   */\n      0x00\n        /* \"#utility.yul\":6172:6206   */\n      tag_162\n        /* \"#utility.yul\":6200:6205   */\n      dup3\n        /* \"#utility.yul\":6172:6206   */\n      tag_155\n      jump\t// in\n    tag_162:\n        /* \"#utility.yul\":6159:6206   */\n      swap1\n      pop\n        /* \"#utility.yul\":6081:6212   */\n      swap2\n      swap1\n      pop\n      jump\t// out\n        /* \"#utility.yul\":6218:6372   */\n    tag_70:\n        /* \"#utility.yul\":6302:6308   */\n      dup3\n        /* \"#utility.yul\":6297:6300   */\n      dup2\n        /* \"#utility.yul\":6292:6295   */\n      dup4\n        /* \"#utility.yul\":6279:6309   */\n      calldatacopy\n        /* \"#utility.yul\":6364:6365   */\n      0x00\n        /* \"#utility.yul\":6355:6361   */\n      dup4\n        /* \"#utility.yul\":6350:6353   */\n      dup4\n        /* \"#utility.yul\":6346:6362   */\n      add\n        /* \"#utility.yul\":6339:6366   */\n      mstore\n        /* \"#utility.yul\":6218:6372   */\n      pop\n      pop\n      pop\n      jump\t// out\n        /* \"#utility.yul\":6378:6685   */\n    tag_116:\n        /* \"#utility.yul\":6446:6447   */\n      0x00\n        /* \"#utility.yul\":6456:6569   */\n    tag_165:\n        /* \"#utility.yul\":6470:6476   */\n      dup4\n        /* \"#utility.yul\":6467:6468   */\n      dup2\n        /* \"#utility.yul\":6464:6477   */\n      lt\n        /* \"#utility.yul\":6456:6569   */\n      iszero\n      tag_167\n      jumpi\n        /* \"#utility.yul\":6555:6556   */\n      dup1\n        /* \"#utility.yul\":6550:6553   */\n      dup3\n        /* \"#utility.yul\":6546:6557   */\n      add\n        /* \"#utility.yul\":6540:6558   */\n      mload\n        /* \"#utility.yul\":6536:6537   */\n      dup2\n        /* \"#utility.yul\":6531:6534   */\n      dup5\n        /* \"#utility.yul\":6527:6538   */\n      add\n        /* \"#utility.yul\":6520:6559   */\n      mstore\n        /* \"#utility.yul\":6492:6494   */\n      0x20\n        /* \"#utility.yul\":6489:6490   */\n      dup2\n        /* \"#utility.yul\":6485:6495   */\n      add\n        /* \"#utility.yul\":6480:6495   */\n      swap1\n      pop\n        /* \"#utility.yul\":6456:6569   */\n      jump(tag_165)\n    tag_167:\n        /* \"#utility.yul\":6587:6593   */\n      dup4\n        /* \"#utility.yul\":6584:6585   */\n      dup2\n        /* \"#utility.yul\":6581:6594   */\n      gt\n        /* \"#utility.yul\":6578:6679   */\n      iszero\n      tag_168\n      jumpi\n        /* \"#utility.yul\":6667:6668   */\n      0x00\n        /* \"#utility.yul\":6658:6664   */\n      dup5\n        /* \"#utility.yul\":6653:6656   */\n      dup5\n        /* \"#utility.yul\":6649:6665   */\n      add\n        /* \"#utility.yul\":6642:6669   */\n      mstore\n        /* \"#utility.yul\":6578:6679   */\n    tag_168:\n        /* \"#utility.yul\":6427:6685   */\n      pop\n        /* \"#utility.yul\":6378:6685   */\n      pop\n      pop\n      pop\n      jump\t// out\n        /* \"#utility.yul\":6691:7011   */\n    tag_39:\n        /* \"#utility.yul\":6735:6741   */\n      0x00\n        /* \"#utility.yul\":6772:6773   */\n      0x02\n        /* \"#utility.yul\":6766:6770   */\n      dup3\n        /* \"#utility.yul\":6762:6774   */\n      div\n        /* \"#utility.yul\":6752:6774   */\n      swap1\n      pop\n        /* \"#utility.yul\":6819:6820   */\n      0x01\n        /* \"#utility.yul\":6813:6817   */\n      dup3\n        /* \"#utility.yul\":6809:6821   */\n      and\n        /* \"#utility.yul\":6840:6858   */\n      dup1\n        /* \"#utility.yul\":6830:6911   */\n      tag_170\n      jumpi\n        /* \"#utility.yul\":6896:6900   */\n      0x7f\n        /* \"#utility.yul\":6888:6894   */\n      dup3\n        /* \"#utility.yul\":6884:6901   */\n      and\n        /* \"#utility.yul\":6874:6901   */\n      swap2\n      pop\n        /* \"#utility.yul\":6830:6911   */\n    tag_170:\n        /* \"#utility.yul\":6958:6960   */\n      0x20\n        /* \"#utility.yul\":6950:6956   */\n      dup3\n        /* \"#utility.yul\":6947:6961   */\n      lt\n        /* \"#utility.yul\":6927:6945   */\n      dup2\n        /* \"#utility.yul\":6924:6962   */\n      eq\n        /* \"#utility.yul\":6921:7005   */\n      iszero\n      tag_171\n      jumpi\n        /* \"#utility.yul\":6977:6995   */\n      tag_172\n      tag_173\n      jump\t// in\n    tag_172:\n        /* \"#utility.yul\":6921:7005   */\n    tag_171:\n        /* \"#utility.yul\":6742:7011   */\n      pop\n        /* \"#utility.yul\":6691:7011   */\n      swap2\n      swap1\n      pop\n      jump\t// out\n        /* \"#utility.yul\":7017:7298   */\n    tag_137:\n        /* \"#utility.yul\":7100:7127   */\n      tag_175\n        /* \"#utility.yul\":7122:7126   */\n      dup3\n        /* \"#utility.yul\":7100:7127   */\n      tag_118\n      jump\t// in\n    tag_175:\n        /* \"#utility.yul\":7092:7098   */\n      dup2\n        /* \"#utility.yul\":7088:7128   */\n      add\n        /* \"#utility.yul\":7230:7236   */\n      dup2\n        /* \"#utility.yul\":7218:7228   */\n      dup2\n        /* \"#utility.yul\":7215:7237   */\n      lt\n        /* \"#utility.yul\":7194:7212   */\n      0xffffffffffffffff\n        /* \"#utility.yul\":7182:7192   */\n      dup3\n        /* \"#utility.yul\":7179:7213   */\n      gt\n        /* \"#utility.yul\":7176:7238   */\n      or\n        /* \"#utility.yul\":7173:7261   */\n      iszero\n      tag_176\n      jumpi\n        /* \"#utility.yul\":7241:7259   */\n      tag_177\n      tag_142\n      jump\t// in\n    tag_177:\n        /* \"#utility.yul\":7173:7261   */\n    tag_176:\n        /* \"#utility.yul\":7281:7291   */\n      dup1\n        /* \"#utility.yul\":7277:7279   */\n      0x40\n        /* \"#utility.yul\":7270:7292   */\n      mstore\n        /* \"#utility.yul\":7060:7298   */\n      pop\n        /* \"#utility.yul\":7017:7298   */\n      pop\n      pop\n      jump\t// out\n        /* \"#utility.yul\":7304:7484   */\n    tag_151:\n        /* \"#utility.yul\":7352:7429   */\n      0x4e487b7100000000000000000000000000000000000000000000000000000000\n        /* \"#utility.yul\":7349:7350   */\n      0x00\n        /* \"#utility.yul\":7342:7430   */\n      mstore\n        /* \"#utility.yul\":7449:7453   */\n      0x11\n        /* \"#utility.yul\":7446:7447   */\n      0x04\n        /* \"#utility.yul\":7439:7454   */\n      mstore\n        /* \"#utility.yul\":7473:7477   */\n      0x24\n        /* \"#utility.yul\":7470:7471   */\n      0x00\n        /* \"#utility.yul\":7463:7478   */\n      revert\n        /* \"#utility.yul\":7490:7670   */\n    tag_30:\n        /* \"#utility.yul\":7538:7615   */\n      0x4e487b7100000000000000000000000000000000000000000000000000000000\n        /* \"#utility.yul\":7535:7536   */\n      0x00\n        /* \"#utility.yul\":7528:7616   */\n      mstore\n        /* \"#utility.yul\":7635:7639   */\n      0x21\n        /* \"#utility.yul\":7632:7633   */\n      0x04\n        /* \"#utility.yul\":7625:7640   */\n      mstore\n        /* \"#utility.yul\":7659:7663   */\n      0x24\n        /* \"#utility.yul\":7656:7657   */\n      0x00\n        /* \"#utility.yul\":7649:7664   */\n      revert\n        /* \"#utility.yul\":7676:7856   */\n    tag_173:\n        /* \"#utility.yul\":7724:7801   */\n      0x4e487b7100000000000000000000000000000000000000000000000000000000\n        /* \"#utility.yul\":7721:7722   */\n      0x00\n        /* \"#utility.yul\":7714:7802   */\n      mstore\n        /* \"#utility.yul\":7821:7825   */\n      0x22\n        /* \"#utility.yul\":7818:7819   */\n      0x04\n        /* \"#utility.yul\":7811:7826   */\n      mstore\n        /* \"#utility.yul\":7845:7849   */\n      0x24\n        /* \"#utility.yul\":7842:7843   */\n      0x00\n        /* \"#utility.yul\":7835:7850   */\n      revert\n        /* \"#utility.yul\":7862:8042   */\n    tag_142:\n        /* \"#utility.yul\":7910:7987   */\n      0x4e487b7100000000000000000000000000000000000000000000000000000000\n        /* \"#utility.yul\":7907:7908   */\n      0x00\n        /* \"#utility.yul\":7900:7988   */\n      mstore\n        /* \"#utility.yul\":8007:8011   */\n      0x41\n        /* \"#utility.yul\":8004:8005   */\n      0x04\n        /* \"#utility.yul\":7997:8012   */\n      mstore\n        /* \"#utility.yul\":8031:8035   */\n      0x24\n        /* \"#utility.yul\":8028:8029   */\n      0x00\n        /* \"#utility.yul\":8021:8036   */\n      revert\n        /* \"#utility.yul\":8048:8165   */\n    tag_79:\n        /* \"#utility.yul\":8157:8158   */\n      0x00\n        /* \"#utility.yul\":8154:8155   */\n      dup1\n        /* \"#utility.yul\":8147:8159   */\n      revert\n        /* \"#utility.yul\":8171:8288   */\n    tag_68:\n        /* \"#utility.yul\":8280:8281   */\n      0x00\n        /* \"#utility.yul\":8277:8278   */\n      dup1\n        /* \"#utility.yul\":8270:8282   */\n      revert\n        /* \"#utility.yul\":8294:8411   */\n    tag_95:\n        /* \"#utility.yul\":8403:8404   */\n      0x00\n        /* \"#utility.yul\":8400:8401   */\n      dup1\n        /* \"#utility.yul\":8393:8405   */\n      revert\n        /* \"#utility.yul\":8417:8534   */\n    tag_88:\n        /* \"#utility.yul\":8526:8527   */\n      0x00\n        /* \"#utility.yul\":8523:8524   */\n      dup1\n        /* \"#utility.yul\":8516:8528   */\n      revert\n        /* \"#utility.yul\":8540:8642   */\n    tag_118:\n        /* \"#utility.yul\":8581:8587   */\n      0x00\n        /* \"#utility.yul\":8632:8634   */\n      0x1f\n        /* \"#utility.yul\":8628:8635   */\n      not\n        /* \"#utility.yul\":8623:8625   */\n      0x1f\n        /* \"#utility.yul\":8616:8621   */\n      dup4\n        /* \"#utility.yul\":8612:8626   */\n      add\n        /* \"#utility.yul\":8608:8636   */\n      and\n        /* \"#utility.yul\":8598:8636   */\n      swap1\n      pop\n        /* \"#utility.yul\":8540:8642   */\n      swap2\n      swap1\n      pop\n      jump\t// out\n        /* \"#utility.yul\":8648:8763   */\n    tag_158:\n        /* \"#utility.yul\":8731:8732   */\n      0x03\n        /* \"#utility.yul\":8724:8729   */\n      dup2\n        /* \"#utility.yul\":8721:8733   */\n      lt\n        /* \"#utility.yul\":8711:8757   */\n      tag_188\n      jumpi\n        /* \"#utility.yul\":8737:8755   */\n      tag_189\n      tag_30\n      jump\t// in\n    tag_189:\n        /* \"#utility.yul\":8711:8757   */\n    tag_188:\n        /* \"#utility.yul\":8648:8763   */\n      pop\n      jump\t// out\n        /* \"#utility.yul\":8769:8891   */\n    tag_74:\n        /* \"#utility.yul\":8842:8866   */\n      tag_191\n        /* \"#utility.yul\":8860:8865   */\n      dup2\n        /* \"#utility.yul\":8842:8866   */\n      tag_104\n      jump\t// in\n    tag_191:\n        /* \"#utility.yul\":8835:8840   */\n      dup2\n        /* \"#utility.yul\":8832:8867   */\n      eq\n        /* \"#utility.yul\":8822:8885   */\n      tag_192\n      jumpi\n        /* \"#utility.yul\":8881:8882   */\n      0x00\n        /* \"#utility.yul\":8878:8879   */\n      dup1\n        /* \"#utility.yul\":8871:8883   */\n      revert\n        /* \"#utility.yul\":8822:8885   */\n    tag_192:\n        /* \"#utility.yul\":8769:8891   */\n      pop\n      jump\t// out\n        /* \"#utility.yul\":8897:9019   */\n    tag_84:\n        /* \"#utility.yul\":8970:8994   */\n      tag_194\n        /* \"#utility.yul\":8988:8993   */\n      dup2\n        /* \"#utility.yul\":8970:8994   */\n      tag_122\n      jump\t// in\n    tag_194:\n        /* \"#utility.yul\":8963:8968   */\n      dup2\n        /* \"#utility.yul\":8960:8995   */\n      eq\n        /* \"#utility.yul\":8950:9013   */\n      tag_195\n      jumpi\n        /* \"#utility.yul\":9009:9010   */\n      0x00\n        /* \"#utility.yul\":9006:9007   */\n      dup1\n        /* \"#utility.yul\":8999:9011   */\n      revert\n        /* \"#utility.yul\":8950:9013   */\n    tag_195:\n        /* \"#utility.yul\":8897:9019   */\n      pop\n      jump\t// out\n\n    auxdata: 0xa264697066735822122043a9c5d1a2c6b0a45f75b58c81cc68a98da422aa7d598ef585de411d1767b56964736f6c63430008070033\n}\n",
				"bytecode": {
					"linkReferences": {},
					"object": "60806040526000805534801561001457600080fd5b50610a45806100246000396000f3fe608060405234801561001057600080fd5b506004361061004c5760003560e01c80636b7b44d7146100515780639cc8f13914610081578063a6c807a91461009d578063e581f9ee146100d1575b600080fd5b61006b60048036038101906100669190610569565b6100ef565b60405161007891906106e8565b60405180910390f35b61009b60048036038101906100969190610596565b610148565b005b6100b760048036038101906100b29190610569565b6102b3565b6040516100c8959493929190610687565b60405180910390f35b6100d9610426565b6040516100e69190610703565b60405180910390f35b6000600160008373ffffffffffffffffffffffffffffffffffffffff1673ffffffffffffffffffffffffffffffffffffffff16815260200190815260200160002060000160149054906101000a900460ff169050919050565b6040518060a001604052803373ffffffffffffffffffffffffffffffffffffffff168152602001600160028111156101835761018261091b565b5b815260200184815260200183815260200182815250600160003373ffffffffffffffffffffffffffffffffffffffff1673ffffffffffffffffffffffffffffffffffffffff16815260200190815260200160002060008201518160000160006101000a81548173ffffffffffffffffffffffffffffffffffffffff021916908373ffffffffffffffffffffffffffffffffffffffff16021790555060208201518160000160146101000a81548160ff021916908360028111156102495761024861091b565b5b0217905550604082015181600101908051906020019061026a92919061042c565b50606082015181600201908051906020019061028792919061042c565b506080820151816003015590505060016000808282546102a79190610790565b92505081905550505050565b60016020528060005260406000206000915090508060000160009054906101000a900473ffffffffffffffffffffffffffffffffffffffff16908060000160149054906101000a900460ff169080600101805461030f90610889565b80601f016020809104026020016040519081016040528092919081815260200182805461033b90610889565b80156103885780601f1061035d57610100808354040283529160200191610388565b820191906000526020600020905b81548152906001019060200180831161036b57829003601f168201915b50505050509080600201805461039d90610889565b80601f01602080910402602001604051908101604052809291908181526020018280546103c990610889565b80156104165780601f106103eb57610100808354040283529160200191610416565b820191906000526020600020905b8154815290600101906020018083116103f957829003601f168201915b5050505050908060030154905085565b60005481565b82805461043890610889565b90600052602060002090601f01602090048101928261045a57600085556104a1565b82601f1061047357805160ff19168380011785556104a1565b828001600101855582156104a1579182015b828111156104a0578251825591602001919060010190610485565b5b5090506104ae91906104b2565b5090565b5b808211156104cb5760008160009055506001016104b3565b5090565b60006104e26104dd84610743565b61071e565b9050828152602081018484840111156104fe576104fd6109ad565b5b610509848285610847565b509392505050565b600081359050610520816109e1565b92915050565b600082601f83011261053b5761053a6109a8565b5b813561054b8482602086016104cf565b91505092915050565b600081359050610563816109f8565b92915050565b60006020828403121561057f5761057e6109b7565b5b600061058d84828501610511565b91505092915050565b6000806000606084860312156105af576105ae6109b7565b5b600084013567ffffffffffffffff8111156105cd576105cc6109b2565b5b6105d986828701610526565b935050602084013567ffffffffffffffff8111156105fa576105f96109b2565b5b61060686828701610526565b925050604061061786828701610554565b9150509250925092565b61062a816107e6565b82525050565b61063981610835565b82525050565b600061064a82610774565b610654818561077f565b9350610664818560208601610856565b61066d816109bc565b840191505092915050565b6106818161082b565b82525050565b600060a08201905061069c6000830188610621565b6106a96020830187610630565b81810360408301526106bb818661063f565b905081810360608301526106cf818561063f565b90506106de6080830184610678565b9695505050505050565b60006020820190506106fd6000830184610630565b92915050565b60006020820190506107186000830184610678565b92915050565b6000610728610739565b905061073482826108bb565b919050565b6000604051905090565b600067ffffffffffffffff82111561075e5761075d610979565b5b610767826109bc565b9050602081019050919050565b600081519050919050565b600082825260208201905092915050565b600061079b8261082b565b91506107a68361082b565b9250827fffffffffffffffffffffffffffffffffffffffffffffffffffffffffffffffff038211156107db576107da6108ec565b5b828201905092915050565b60006107f18261080b565b9050919050565b6000819050610806826109cd565b919050565b600073ffffffffffffffffffffffffffffffffffffffff82169050919050565b6000819050919050565b6000610840826107f8565b9050919050565b82818337600083830152505050565b60005b83811015610874578082015181840152602081019050610859565b83811115610883576000848401525b50505050565b600060028204905060018216806108a157607f821691505b602082108114156108b5576108b461094a565b5b50919050565b6108c4826109bc565b810181811067ffffffffffffffff821117156108e3576108e2610979565b5b80604052505050565b7f4e487b7100000000000000000000000000000000000000000000000000000000600052601160045260246000fd5b7f4e487b7100000000000000000000000000000000000000000000000000000000600052602160045260246000fd5b7f4e487b7100000000000000000000000000000000000000000000000000000000600052602260045260246000fd5b7f4e487b7100000000000000000000000000000000000000000000000000000000600052604160045260246000fd5b600080fd5b600080fd5b600080fd5b600080fd5b6000601f19601f8301169050919050565b600381106109de576109dd61091b565b5b50565b6109ea816107e6565b81146109f557600080fd5b50565b610a018161082b565b8114610a0c57600080fd5b5056fea264697066735822122043a9c5d1a2c6b0a45f75b58c81cc68a98da422aa7d598ef585de411d1767b56964736f6c63430008070033",
					"opcodes": "PUSH1 0x80 PUSH1 0x40 MSTORE PUSH1 0x0 DUP1 SSTORE CALLVALUE DUP1 ISZERO PUSH2 0x14 JUMPI PUSH1 0x0 DUP1 REVERT JUMPDEST POP PUSH2 0xA45 DUP1 PUSH2 0x24 PUSH1 0x0 CODECOPY PUSH1 0x0 RETURN INVALID PUSH1 0x80 PUSH1 0x40 MSTORE CALLVALUE DUP1 ISZERO PUSH2 0x10 JUMPI PUSH1 0x0 DUP1 REVERT JUMPDEST POP PUSH1 0x4 CALLDATASIZE LT PUSH2 0x4C JUMPI PUSH1 0x0 CALLDATALOAD PUSH1 0xE0 SHR DUP1 PUSH4 0x6B7B44D7 EQ PUSH2 0x51 JUMPI DUP1 PUSH4 0x9CC8F139 EQ PUSH2 0x81 JUMPI DUP1 PUSH4 0xA6C807A9 EQ PUSH2 0x9D JUMPI DUP1 PUSH4 0xE581F9EE EQ PUSH2 0xD1 JUMPI JUMPDEST PUSH1 0x0 DUP1 REVERT JUMPDEST PUSH2 0x6B PUSH1 0x4 DUP1 CALLDATASIZE SUB DUP2 ADD SWAP1 PUSH2 0x66 SWAP2 SWAP1 PUSH2 0x569 JUMP JUMPDEST PUSH2 0xEF JUMP JUMPDEST PUSH1 0x40 MLOAD PUSH2 0x78 SWAP2 SWAP1 PUSH2 0x6E8 JUMP JUMPDEST PUSH1 0x40 MLOAD DUP1 SWAP2 SUB SWAP1 RETURN JUMPDEST PUSH2 0x9B PUSH1 0x4 DUP1 CALLDATASIZE SUB DUP2 ADD SWAP1 PUSH2 0x96 SWAP2 SWAP1 PUSH2 0x596 JUMP JUMPDEST PUSH2 0x148 JUMP JUMPDEST STOP JUMPDEST PUSH2 0xB7 PUSH1 0x4 DUP1 CALLDATASIZE SUB DUP2 ADD SWAP1 PUSH2 0xB2 SWAP2 SWAP1 PUSH2 0x569 JUMP JUMPDEST PUSH2 0x2B3 JUMP JUMPDEST PUSH1 0x40 MLOAD PUSH2 0xC8 SWAP6 SWAP5 SWAP4 SWAP3 SWAP2 SWAP1 PUSH2 0x687 JUMP JUMPDEST PUSH1 0x40 MLOAD DUP1 SWAP2 SUB SWAP1 RETURN JUMPDEST PUSH2 0xD9 PUSH2 0x426 JUMP JUMPDEST PUSH1 0x40 MLOAD PUSH2 0xE6 SWAP2 SWAP1 PUSH2 0x703 JUMP JUMPDEST PUSH1 0x40 MLOAD DUP1 SWAP2 SUB SWAP1 RETURN JUMPDEST PUSH1 0x0 PUSH1 0x1 PUSH1 0x0 DUP4 PUSH20 0xFFFFFFFFFFFFFFFFFFFFFFFFFFFFFFFFFFFFFFFF AND PUSH20 0xFFFFFFFFFFFFFFFFFFFFFFFFFFFFFFFFFFFFFFFF AND DUP2 MSTORE PUSH1 0x20 ADD SWAP1 DUP2 MSTORE PUSH1 0x20 ADD PUSH1 0x0 KECCAK256 PUSH1 0x0 ADD PUSH1 0x14 SWAP1 SLOAD SWAP1 PUSH2 0x100 EXP SWAP1 DIV PUSH1 0xFF AND SWAP1 POP SWAP2 SWAP1 POP JUMP JUMPDEST PUSH1 0x40 MLOAD DUP1 PUSH1 0xA0 ADD PUSH1 0x40 MSTORE DUP1 CALLER PUSH20 0xFFFFFFFFFFFFFFFFFFFFFFFFFFFFFFFFFFFFFFFF AND DUP2 MSTORE PUSH1 0x20 ADD PUSH1 0x1 PUSH1 0x2 DUP2 GT ISZERO PUSH2 0x183 JUMPI PUSH2 0x182 PUSH2 0x91B JUMP JUMPDEST JUMPDEST DUP2 MSTORE PUSH1 0x20 ADD DUP5 DUP2 MSTORE PUSH1 0x20 ADD DUP4 DUP2 MSTORE PUSH1 0x20 ADD DUP3 DUP2 MSTORE POP PUSH1 0x1 PUSH1 0x0 CALLER PUSH20 0xFFFFFFFFFFFFFFFFFFFFFFFFFFFFFFFFFFFFFFFF AND PUSH20 0xFFFFFFFFFFFFFFFFFFFFFFFFFFFFFFFFFFFFFFFF AND DUP2 MSTORE PUSH1 0x20 ADD SWAP1 DUP2 MSTORE PUSH1 0x20 ADD PUSH1 0x0 KECCAK256 PUSH1 0x0 DUP3 ADD MLOAD DUP2 PUSH1 0x0 ADD PUSH1 0x0 PUSH2 0x100 EXP DUP2 SLOAD DUP2 PUSH20 0xFFFFFFFFFFFFFFFFFFFFFFFFFFFFFFFFFFFFFFFF MUL NOT AND SWAP1 DUP4 PUSH20 0xFFFFFFFFFFFFFFFFFFFFFFFFFFFFFFFFFFFFFFFF AND MUL OR SWAP1 SSTORE POP PUSH1 0x20 DUP3 ADD MLOAD DUP2 PUSH1 0x0 ADD PUSH1 0x14 PUSH2 0x100 EXP DUP2 SLOAD DUP2 PUSH1 0xFF MUL NOT AND SWAP1 DUP4 PUSH1 0x2 DUP2 GT ISZERO PUSH2 0x249 JUMPI PUSH2 0x248 PUSH2 0x91B JUMP JUMPDEST JUMPDEST MUL OR SWAP1 SSTORE POP PUSH1 0x40 DUP3 ADD MLOAD DUP2 PUSH1 0x1 ADD SWAP1 DUP1 MLOAD SWAP1 PUSH1 0x20 ADD SWAP1 PUSH2 0x26A SWAP3 SWAP2 SWAP1 PUSH2 0x42C JUMP JUMPDEST POP PUSH1 0x60 DUP3 ADD MLOAD DUP2 PUSH1 0x2 ADD SWAP1 DUP1 MLOAD SWAP1 PUSH1 0x20 ADD SWAP1 PUSH2 0x287 SWAP3 SWAP2 SWAP1 PUSH2 0x42C JUMP JUMPDEST POP PUSH1 0x80 DUP3 ADD MLOAD DUP2 PUSH1 0x3 ADD SSTORE SWAP1 POP POP PUSH1 0x1 PUSH1 0x0 DUP1 DUP3 DUP3 SLOAD PUSH2 0x2A7 SWAP2 SWAP1 PUSH2 0x790 JUMP JUMPDEST SWAP3 POP POP DUP2 SWAP1 SSTORE POP POP POP POP JUMP JUMPDEST PUSH1 0x1 PUSH1 0x20 MSTORE DUP1 PUSH1 0x0 MSTORE PUSH1 0x40 PUSH1 0x0 KECCAK256 PUSH1 0x0 SWAP2 POP SWAP1 POP DUP1 PUSH1 0x0 ADD PUSH1 0x0 SWAP1 SLOAD SWAP1 PUSH2 0x100 EXP SWAP1 DIV PUSH20 0xFFFFFFFFFFFFFFFFFFFFFFFFFFFFFFFFFFFFFFFF AND SWAP1 DUP1 PUSH1 0x0 ADD PUSH1 0x14 SWAP1 SLOAD SWAP1 PUSH2 0x100 EXP SWAP1 DIV PUSH1 0xFF AND SWAP1 DUP1 PUSH1 0x1 ADD DUP1 SLOAD PUSH2 0x30F SWAP1 PUSH2 0x889 JUMP JUMPDEST DUP1 PUSH1 0x1F ADD PUSH1 0x20 DUP1 SWAP2 DIV MUL PUSH1 0x20 ADD PUSH1 0x40 MLOAD SWAP1 DUP2 ADD PUSH1 0x40 MSTORE DUP1 SWAP3 SWAP2 SWAP1 DUP2 DUP2 MSTORE PUSH1 0x20 ADD DUP3 DUP1 SLOAD PUSH2 0x33B SWAP1 PUSH2 0x889 JUMP JUMPDEST DUP1 ISZERO PUSH2 0x388 JUMPI DUP1 PUSH1 0x1F LT PUSH2 0x35D JUMPI PUSH2 0x100 DUP1 DUP4 SLOAD DIV MUL DUP4 MSTORE SWAP2 PUSH1 0x20 ADD SWAP2 PUSH2 0x388 JUMP JUMPDEST DUP3 ADD SWAP2 SWAP1 PUSH1 0x0 MSTORE PUSH1 0x20 PUSH1 0x0 KECCAK256 SWAP1 JUMPDEST DUP2 SLOAD DUP2 MSTORE SWAP1 PUSH1 0x1 ADD SWAP1 PUSH1 0x20 ADD DUP1 DUP4 GT PUSH2 0x36B JUMPI DUP3 SWAP1 SUB PUSH1 0x1F AND DUP3 ADD SWAP2 JUMPDEST POP POP POP POP POP SWAP1 DUP1 PUSH1 0x2 ADD DUP1 SLOAD PUSH2 0x39D SWAP1 PUSH2 0x889 JUMP JUMPDEST DUP1 PUSH1 0x1F ADD PUSH1 0x20 DUP1 SWAP2 DIV MUL PUSH1 0x20 ADD PUSH1 0x40 MLOAD SWAP1 DUP2 ADD PUSH1 0x40 MSTORE DUP1 SWAP3 SWAP2 SWAP1 DUP2 DUP2 MSTORE PUSH1 0x20 ADD DUP3 DUP1 SLOAD PUSH2 0x3C9 SWAP1 PUSH2 0x889 JUMP JUMPDEST DUP1 ISZERO PUSH2 0x416 JUMPI DUP1 PUSH1 0x1F LT PUSH2 0x3EB JUMPI PUSH2 0x100 DUP1 DUP4 SLOAD DIV MUL DUP4 MSTORE SWAP2 PUSH1 0x20 ADD SWAP2 PUSH2 0x416 JUMP JUMPDEST DUP3 ADD SWAP2 SWAP1 PUSH1 0x0 MSTORE PUSH1 0x20 PUSH1 0x0 KECCAK256 SWAP1 JUMPDEST DUP2 SLOAD DUP2 MSTORE SWAP1 PUSH1 0x1 ADD SWAP1 PUSH1 0x20 ADD DUP1 DUP4 GT PUSH2 0x3F9 JUMPI DUP3 SWAP1 SUB PUSH1 0x1F AND DUP3 ADD SWAP2 JUMPDEST POP POP POP POP POP SWAP1 DUP1 PUSH1 0x3 ADD SLOAD SWAP1 POP DUP6 JUMP JUMPDEST PUSH1 0x0 SLOAD DUP2 JUMP JUMPDEST DUP3 DUP1 SLOAD PUSH2 0x438 SWAP1 PUSH2 0x889 JUMP JUMPDEST SWAP1 PUSH1 0x0 MSTORE PUSH1 0x20 PUSH1 0x0 KECCAK256 SWAP1 PUSH1 0x1F ADD PUSH1 0x20 SWAP1 DIV DUP2 ADD SWAP3 DUP3 PUSH2 0x45A JUMPI PUSH1 0x0 DUP6 SSTORE PUSH2 0x4A1 JUMP JUMPDEST DUP3 PUSH1 0x1F LT PUSH2 0x473 JUMPI DUP1 MLOAD PUSH1 0xFF NOT AND DUP4 DUP1 ADD OR DUP6 SSTORE PUSH2 0x4A1 JUMP JUMPDEST DUP3 DUP1 ADD PUSH1 0x1 ADD DUP6 SSTORE DUP3 ISZERO PUSH2 0x4A1 JUMPI SWAP2 DUP3 ADD JUMPDEST DUP3 DUP2 GT ISZERO PUSH2 0x4A0 JUMPI DUP3 MLOAD DUP3 SSTORE SWAP2 PUSH1 0x20 ADD SWAP2 SWAP1 PUSH1 0x1 ADD SWAP1 PUSH2 0x485 JUMP JUMPDEST JUMPDEST POP SWAP1 POP PUSH2 0x4AE SWAP2 SWAP1 PUSH2 0x4B2 JUMP JUMPDEST POP SWAP1 JUMP JUMPDEST JUMPDEST DUP1 DUP3 GT ISZERO PUSH2 0x4CB JUMPI PUSH1 0x0 DUP2 PUSH1 0x0 SWAP1 SSTORE POP PUSH1 0x1 ADD PUSH2 0x4B3 JUMP JUMPDEST POP SWAP1 JUMP JUMPDEST PUSH1 0x0 PUSH2 0x4E2 PUSH2 0x4DD DUP5 PUSH2 0x743 JUMP JUMPDEST PUSH2 0x71E JUMP JUMPDEST SWAP1 POP DUP3 DUP2 MSTORE PUSH1 0x20 DUP2 ADD DUP5 DUP5 DUP5 ADD GT ISZERO PUSH2 0x4FE JUMPI PUSH2 0x4FD PUSH2 0x9AD JUMP JUMPDEST JUMPDEST PUSH2 0x509 DUP5 DUP3 DUP6 PUSH2 0x847 JUMP JUMPDEST POP SWAP4 SWAP3 POP POP POP JUMP JUMPDEST PUSH1 0x0 DUP2 CALLDATALOAD SWAP1 POP PUSH2 0x520 DUP2 PUSH2 0x9E1 JUMP JUMPDEST SWAP3 SWAP2 POP POP JUMP JUMPDEST PUSH1 0x0 DUP3 PUSH1 0x1F DUP4 ADD SLT PUSH2 0x53B JUMPI PUSH2 0x53A PUSH2 0x9A8 JUMP JUMPDEST JUMPDEST DUP2 CALLDATALOAD PUSH2 0x54B DUP5 DUP3 PUSH1 0x20 DUP7 ADD PUSH2 0x4CF JUMP JUMPDEST SWAP2 POP POP SWAP3 SWAP2 POP POP JUMP JUMPDEST PUSH1 0x0 DUP2 CALLDATALOAD SWAP1 POP PUSH2 0x563 DUP2 PUSH2 0x9F8 JUMP JUMPDEST SWAP3 SWAP2 POP POP JUMP JUMPDEST PUSH1 0x0 PUSH1 0x20 DUP3 DUP5 SUB SLT ISZERO PUSH2 0x57F JUMPI PUSH2 0x57E PUSH2 0x9B7 JUMP JUMPDEST JUMPDEST PUSH1 0x0 PUSH2 0x58D DUP5 DUP3 DUP6 ADD PUSH2 0x511 JUMP JUMPDEST SWAP2 POP POP SWAP3 SWAP2 POP POP JUMP JUMPDEST PUSH1 0x0 DUP1 PUSH1 0x0 PUSH1 0x60 DUP5 DUP7 SUB SLT ISZERO PUSH2 0x5AF JUMPI PUSH2 0x5AE PUSH2 0x9B7 JUMP JUMPDEST JUMPDEST PUSH1 0x0 DUP5 ADD CALLDATALOAD PUSH8 0xFFFFFFFFFFFFFFFF DUP2 GT ISZERO PUSH2 0x5CD JUMPI PUSH2 0x5CC PUSH2 0x9B2 JUMP JUMPDEST JUMPDEST PUSH2 0x5D9 DUP7 DUP3 DUP8 ADD PUSH2 0x526 JUMP JUMPDEST SWAP4 POP POP PUSH1 0x20 DUP5 ADD CALLDATALOAD PUSH8 0xFFFFFFFFFFFFFFFF DUP2 GT ISZERO PUSH2 0x5FA JUMPI PUSH2 0x5F9 PUSH2 0x9B2 JUMP JUMPDEST JUMPDEST PUSH2 0x606 DUP7 DUP3 DUP8 ADD PUSH2 0x526 JUMP JUMPDEST SWAP3 POP POP PUSH1 0x40 PUSH2 0x617 DUP7 DUP3 DUP8 ADD PUSH2 0x554 JUMP JUMPDEST SWAP2 POP POP SWAP3 POP SWAP3 POP SWAP3 JUMP JUMPDEST PUSH2 0x62A DUP2 PUSH2 0x7E6 JUMP JUMPDEST DUP3 MSTORE POP POP JUMP JUMPDEST PUSH2 0x639 DUP2 PUSH2 0x835 JUMP JUMPDEST DUP3 MSTORE POP POP JUMP JUMPDEST PUSH1 0x0 PUSH2 0x64A DUP3 PUSH2 0x774 JUMP JUMPDEST PUSH2 0x654 DUP2 DUP6 PUSH2 0x77F JUMP JUMPDEST SWAP4 POP PUSH2 0x664 DUP2 DUP6 PUSH1 0x20 DUP7 ADD PUSH2 0x856 JUMP JUMPDEST PUSH2 0x66D DUP2 PUSH2 0x9BC JUMP JUMPDEST DUP5 ADD SWAP2 POP POP SWAP3 SWAP2 POP POP JUMP JUMPDEST PUSH2 0x681 DUP2 PUSH2 0x82B JUMP JUMPDEST DUP3 MSTORE POP POP JUMP JUMPDEST PUSH1 0x0 PUSH1 0xA0 DUP3 ADD SWAP1 POP PUSH2 0x69C PUSH1 0x0 DUP4 ADD DUP9 PUSH2 0x621 JUMP JUMPDEST PUSH2 0x6A9 PUSH1 0x20 DUP4 ADD DUP8 PUSH2 0x630 JUMP JUMPDEST DUP2 DUP2 SUB PUSH1 0x40 DUP4 ADD MSTORE PUSH2 0x6BB DUP2 DUP7 PUSH2 0x63F JUMP JUMPDEST SWAP1 POP DUP2 DUP2 SUB PUSH1 0x60 DUP4 ADD MSTORE PUSH2 0x6CF DUP2 DUP6 PUSH2 0x63F JUMP JUMPDEST SWAP1 POP PUSH2 0x6DE PUSH1 0x80 DUP4 ADD DUP5 PUSH2 0x678 JUMP JUMPDEST SWAP7 SWAP6 POP POP POP POP POP POP JUMP JUMPDEST PUSH1 0x0 PUSH1 0x20 DUP3 ADD SWAP1 POP PUSH2 0x6FD PUSH1 0x0 DUP4 ADD DUP5 PUSH2 0x630 JUMP JUMPDEST SWAP3 SWAP2 POP POP JUMP JUMPDEST PUSH1 0x0 PUSH1 0x20 DUP3 ADD SWAP1 POP PUSH2 0x718 PUSH1 0x0 DUP4 ADD DUP5 PUSH2 0x678 JUMP JUMPDEST SWAP3 SWAP2 POP POP JUMP JUMPDEST PUSH1 0x0 PUSH2 0x728 PUSH2 0x739 JUMP JUMPDEST SWAP1 POP PUSH2 0x734 DUP3 DUP3 PUSH2 0x8BB JUMP JUMPDEST SWAP2 SWAP1 POP JUMP JUMPDEST PUSH1 0x0 PUSH1 0x40 MLOAD SWAP1 POP SWAP1 JUMP JUMPDEST PUSH1 0x0 PUSH8 0xFFFFFFFFFFFFFFFF DUP3 GT ISZERO PUSH2 0x75E JUMPI PUSH2 0x75D PUSH2 0x979 JUMP JUMPDEST JUMPDEST PUSH2 0x767 DUP3 PUSH2 0x9BC JUMP JUMPDEST SWAP1 POP PUSH1 0x20 DUP2 ADD SWAP1 POP SWAP2 SWAP1 POP JUMP JUMPDEST PUSH1 0x0 DUP2 MLOAD SWAP1 POP SWAP2 SWAP1 POP JUMP JUMPDEST PUSH1 0x0 DUP3 DUP3 MSTORE PUSH1 0x20 DUP3 ADD SWAP1 POP SWAP3 SWAP2 POP POP JUMP JUMPDEST PUSH1 0x0 PUSH2 0x79B DUP3 PUSH2 0x82B JUMP JUMPDEST SWAP2 POP PUSH2 0x7A6 DUP4 PUSH2 0x82B JUMP JUMPDEST SWAP3 POP DUP3 PUSH32 0xFFFFFFFFFFFFFFFFFFFFFFFFFFFFFFFFFFFFFFFFFFFFFFFFFFFFFFFFFFFFFFFF SUB DUP3 GT ISZERO PUSH2 0x7DB JUMPI PUSH2 0x7DA PUSH2 0x8EC JUMP JUMPDEST JUMPDEST DUP3 DUP3 ADD SWAP1 POP SWAP3 SWAP2 POP POP JUMP JUMPDEST PUSH1 0x0 PUSH2 0x7F1 DUP3 PUSH2 0x80B JUMP JUMPDEST SWAP1 POP SWAP2 SWAP1 POP JUMP JUMPDEST PUSH1 0x0 DUP2 SWAP1 POP PUSH2 0x806 DUP3 PUSH2 0x9CD JUMP JUMPDEST SWAP2 SWAP1 POP JUMP JUMPDEST PUSH1 0x0 PUSH20 0xFFFFFFFFFFFFFFFFFFFFFFFFFFFFFFFFFFFFFFFF DUP3 AND SWAP1 POP SWAP2 SWAP1 POP JUMP JUMPDEST PUSH1 0x0 DUP2 SWAP1 POP SWAP2 SWAP1 POP JUMP JUMPDEST PUSH1 0x0 PUSH2 0x840 DUP3 PUSH2 0x7F8 JUMP JUMPDEST SWAP1 POP SWAP2 SWAP1 POP JUMP JUMPDEST DUP3 DUP2 DUP4 CALLDATACOPY PUSH1 0x0 DUP4 DUP4 ADD MSTORE POP POP POP JUMP JUMPDEST PUSH1 0x0 JUMPDEST DUP4 DUP2 LT ISZERO PUSH2 0x874 JUMPI DUP1 DUP3 ADD MLOAD DUP2 DUP5 ADD MSTORE PUSH1 0x20 DUP2 ADD SWAP1 POP PUSH2 0x859 JUMP JUMPDEST DUP4 DUP2 GT ISZERO PUSH2 0x883 JUMPI PUSH1 0x0 DUP5 DUP5 ADD MSTORE JUMPDEST POP POP POP POP JUMP JUMPDEST PUSH1 0x0 PUSH1 0x2 DUP3 DIV SWAP1 POP PUSH1 0x1 DUP3 AND DUP1 PUSH2 0x8A1 JUMPI PUSH1 0x7F DUP3 AND SWAP2 POP JUMPDEST PUSH1 0x20 DUP3 LT DUP2 EQ ISZERO PUSH2 0x8B5 JUMPI PUSH2 0x8B4 PUSH2 0x94A JUMP JUMPDEST JUMPDEST POP SWAP2 SWAP1 POP JUMP JUMPDEST PUSH2 0x8C4 DUP3 PUSH2 0x9BC JUMP JUMPDEST DUP2 ADD DUP2 DUP2 LT PUSH8 0xFFFFFFFFFFFFFFFF DUP3 GT OR ISZERO PUSH2 0x8E3 JUMPI PUSH2 0x8E2 PUSH2 0x979 JUMP JUMPDEST JUMPDEST DUP1 PUSH1 0x40 MSTORE POP POP POP JUMP JUMPDEST PUSH32 0x4E487B7100000000000000000000000000000000000000000000000000000000 PUSH1 0x0 MSTORE PUSH1 0x11 PUSH1 0x4 MSTORE PUSH1 0x24 PUSH1 0x0 REVERT JUMPDEST PUSH32 0x4E487B7100000000000000000000000000000000000000000000000000000000 PUSH1 0x0 MSTORE PUSH1 0x21 PUSH1 0x4 MSTORE PUSH1 0x24 PUSH1 0x0 REVERT JUMPDEST PUSH32 0x4E487B7100000000000000000000000000000000000000000000000000000000 PUSH1 0x0 MSTORE PUSH1 0x22 PUSH1 0x4 MSTORE PUSH1 0x24 PUSH1 0x0 REVERT JUMPDEST PUSH32 0x4E487B7100000000000000000000000000000000000000000000000000000000 PUSH1 0x0 MSTORE PUSH1 0x41 PUSH1 0x4 MSTORE PUSH1 0x24 PUSH1 0x0 REVERT JUMPDEST PUSH1 0x0 DUP1 REVERT JUMPDEST PUSH1 0x0 DUP1 REVERT JUMPDEST PUSH1 0x0 DUP1 REVERT JUMPDEST PUSH1 0x0 DUP1 REVERT JUMPDEST PUSH1 0x0 PUSH1 0x1F NOT PUSH1 0x1F DUP4 ADD AND SWAP1 POP SWAP2 SWAP1 POP JUMP JUMPDEST PUSH1 0x3 DUP2 LT PUSH2 0x9DE JUMPI PUSH2 0x9DD PUSH2 0x91B JUMP JUMPDEST JUMPDEST POP JUMP JUMPDEST PUSH2 0x9EA DUP2 PUSH2 0x7E6 JUMP JUMPDEST DUP2 EQ PUSH2 0x9F5 JUMPI PUSH1 0x0 DUP1 REVERT JUMPDEST POP JUMP JUMPDEST PUSH2 0xA01 DUP2 PUSH2 0x82B JUMP JUMPDEST DUP2 EQ PUSH2 0xA0C JUMPI PUSH1 0x0 DUP1 REVERT JUMPDEST POP JUMP INVALID LOG2 PUSH5 0x6970667358 0x22 SLT KECCAK256 NUMBER 0xA9 0xC5 0xD1 LOG2 0xC6 0xB0 LOG4 0x5F PUSH22 0xB58C81CC68A98DA422AA7D598EF585DE411D1767B569 PUSH5 0x736F6C6343 STOP ADDMOD SMOD STOP CALLER "
				},
				"gasEstimates": {
					"creation": {
						"codeDepositCost": "525800",
						"executionCost": "5568",
						"totalCost": "531368"
					},
					"external": {
						"addStudent(string,string,uint256)": "infinite",
						"getStudent(address)": "3006",
						"studentCount()": "2473",
						"students(address)": "infinite"
					}
				},
				"methodIdentifiers": {
					"addStudent(string,string,uint256)": "9cc8f139",
					"getStudent(address)": "6b7b44d7",
					"studentCount()": "e581f9ee",
					"students(address)": "a6c807a9"
				}
			},
			"storageLayout": {
				"storage": [
					{
						"astId": 4,
						"contract": "contracts/students.sol:myStudent",
						"label": "studentCount",
						"offset": 0,
						"slot": "0",
						"type": "t_uint256"
					},
					{
						"astId": 9,
						"contract": "contracts/students.sol:myStudent",
						"label": "students",
						"offset": 0,
						"slot": "1",
						"type": "t_mapping(t_address,t_struct(Student)25_storage)"
					}
				],
				"types": {
					"t_address": {
						"encoding": "inplace",
						"label": "address",
						"numberOfBytes": "20"
					},
					"t_enum(Section)13": {
						"encoding": "inplace",
						"label": "enum myStudent.Section",
						"numberOfBytes": "1"
					},
					"t_mapping(t_address,t_struct(Student)25_storage)": {
						"encoding": "mapping",
						"key": "t_address",
						"label": "mapping(address => struct myStudent.Student)",
						"numberOfBytes": "32",
						"value": "t_struct(Student)25_storage"
					},
					"t_string_storage": {
						"encoding": "bytes",
						"label": "string",
						"numberOfBytes": "32"
					},
					"t_struct(Student)25_storage": {
						"encoding": "inplace",
						"label": "struct myStudent.Student",
						"members": [
							{
								"astId": 15,
								"contract": "contracts/students.sol:myStudent",
								"label": "StudentAddress",
								"offset": 0,
								"slot": "0",
								"type": "t_address"
							},
							{
								"astId": 18,
								"contract": "contracts/students.sol:myStudent",
								"label": "studentSection",
								"offset": 20,
								"slot": "0",
								"type": "t_enum(Section)13"
							},
							{
								"astId": 20,
								"contract": "contracts/students.sol:myStudent",
								"label": "firstName",
								"offset": 0,
								"slot": "1",
								"type": "t_string_storage"
							},
							{
								"astId": 22,
								"contract": "contracts/students.sol:myStudent",
								"label": "lastName",
								"offset": 0,
								"slot": "2",
								"type": "t_string_storage"
							},
							{
								"astId": 24,
								"contract": "contracts/students.sol:myStudent",
								"label": "regNo",
								"offset": 0,
								"slot": "3",
								"type": "t_uint256"
							}
						],
						"numberOfBytes": "128"
					},
					"t_uint256": {
						"encoding": "inplace",
						"label": "uint256",
						"numberOfBytes": "32"
					}
				}
			},
			"userdoc": {
				"kind": "user",
				"methods": {},
				"version": 1
			}
		}
	}
}