{
	"contracts/students.sol": {
		"myStudent": {
			"abi": [
				{
					"inputs": [
						{
							"internalType": "string",
							"name": "firstName",
							"type": "string"
						},
						{
							"internalType": "string",
							"name": "lastName",
							"type": "string"
						},
						{
							"internalType": "uint256",
							"name": "_id",
							"type": "uint256"
						}
					],
					"name": "addStudent",
					"outputs": [],
					"stateMutability": "nonpayable",
					"type": "function"
				},
				{
					"inputs": [],
					"name": "studentCount",
					"outputs": [
						{
							"internalType": "uint256",
							"name": "",
							"type": "uint256"
						}
					],
					"stateMutability": "view",
					"type": "function"
				},
				{
					"inputs": [
						{
							"internalType": "address",
							"name": "",
							"type": "address"
						}
					],
					"name": "students",
					"outputs": [
						{
							"internalType": "string",
							"name": "firstName",
							"type": "string"
						},
						{
							"internalType": "string",
							"name": "lastName",
							"type": "string"
						},
						{
							"internalType": "uint256",
							"name": "_id",
							"type": "uint256"
						}
					],
					"stateMutability": "view",
					"type": "function"
				}
			],
			"devdoc": {
				"kind": "dev",
				"methods": {},
				"version": 1
			},
			"evm": {
				"assembly": "    /* \"contracts/students.sol\":70:478  contract myStudent{\r... */\n  mstore(0x40, 0x80)\n    /* \"contracts/students.sol\":122:123  0 */\n  0x00\n    /* \"contracts/students.sol\":95:123  uint public studentCount = 0 */\n  dup1\n  sstore\n    /* \"contracts/students.sol\":70:478  contract myStudent{\r... */\n  callvalue\n  dup1\n  iszero\n  tag_1\n  jumpi\n  0x00\n  dup1\n  revert\ntag_1:\n  pop\n  dataSize(sub_0)\n  dup1\n  dataOffset(sub_0)\n  0x00\n  codecopy\n  0x00\n  return\nstop\n\nsub_0: assembly {\n        /* \"contracts/students.sol\":70:478  contract myStudent{\r... */\n      mstore(0x40, 0x80)\n      callvalue\n      dup1\n      iszero\n      tag_1\n      jumpi\n      0x00\n      dup1\n      revert\n    tag_1:\n      pop\n      jumpi(tag_2, lt(calldatasize, 0x04))\n      shr(0xe0, calldataload(0x00))\n      dup1\n      0x9cc8f139\n      eq\n      tag_3\n      jumpi\n      dup1\n      0xa6c807a9\n      eq\n      tag_4\n      jumpi\n      dup1\n      0xe581f9ee\n      eq\n      tag_5\n      jumpi\n    tag_2:\n      0x00\n      dup1\n      revert\n        /* \"contracts/students.sol\":286:475  function addStudent(string memory firstName, string memory lastName, uint _id) public {\r... */\n    tag_3:\n      tag_6\n      0x04\n      dup1\n      calldatasize\n      sub\n      dup2\n      add\n      swap1\n      tag_7\n      swap2\n      swap1\n      tag_8\n      jump\t// in\n    tag_7:\n      tag_9\n      jump\t// in\n    tag_6:\n      stop\n        /* \"contracts/students.sol\":130:174  mapping (address => Student) public students */\n    tag_4:\n      tag_10\n      0x04\n      dup1\n      calldatasize\n      sub\n      dup2\n      add\n      swap1\n      tag_11\n      swap2\n      swap1\n      tag_12\n      jump\t// in\n    tag_11:\n      tag_13\n      jump\t// in\n    tag_10:\n      mload(0x40)\n      tag_14\n      swap4\n      swap3\n      swap2\n      swap1\n      tag_15\n      jump\t// in\n    tag_14:\n      mload(0x40)\n      dup1\n      swap2\n      sub\n      swap1\n      return\n        /* \"contracts/students.sol\":95:123  uint public studentCount = 0 */\n    tag_5:\n      tag_16\n      tag_17\n      jump\t// in\n    tag_16:\n      mload(0x40)\n      tag_18\n      swap2\n      swap1\n      tag_19\n      jump\t// in\n    tag_18:\n      mload(0x40)\n      dup1\n      swap2\n      sub\n      swap1\n      return\n        /* \"contracts/students.sol\":286:475  function addStudent(string memory firstName, string memory lastName, uint _id) public {\r... */\n    tag_9:\n        /* \"contracts/students.sol\":406:439  Student(firstName, lastName, _id) */\n      mload(0x40)\n      dup1\n      0x60\n      add\n      0x40\n      mstore\n      dup1\n        /* \"contracts/students.sol\":414:423  firstName */\n      dup5\n        /* \"contracts/students.sol\":406:439  Student(firstName, lastName, _id) */\n      dup2\n      mstore\n      0x20\n      add\n        /* \"contracts/students.sol\":425:433  lastName */\n      dup4\n        /* \"contracts/students.sol\":406:439  Student(firstName, lastName, _id) */\n      dup2\n      mstore\n      0x20\n      add\n        /* \"contracts/students.sol\":435:438  _id */\n      dup3\n        /* \"contracts/students.sol\":406:439  Student(firstName, lastName, _id) */\n      dup2\n      mstore\n      pop\n        /* \"contracts/students.sol\":383:391  students */\n      0x01\n        /* \"contracts/students.sol\":383:403  students[msg.sender] */\n      0x00\n        /* \"contracts/students.sol\":392:402  msg.sender */\n      caller\n        /* \"contracts/students.sol\":383:403  students[msg.sender] */\n      0xffffffffffffffffffffffffffffffffffffffff\n      and\n      0xffffffffffffffffffffffffffffffffffffffff\n      and\n      dup2\n      mstore\n      0x20\n      add\n      swap1\n      dup2\n      mstore\n      0x20\n      add\n      0x00\n      keccak256\n        /* \"contracts/students.sol\":383:439  students[msg.sender] = Student(firstName, lastName, _id) */\n      0x00\n      dup3\n      add\n      mload\n      dup2\n      0x00\n      add\n      swap1\n      dup1\n      mload\n      swap1\n      0x20\n      add\n      swap1\n      tag_21\n      swap3\n      swap2\n      swap1\n      tag_22\n      jump\t// in\n    tag_21:\n      pop\n      0x20\n      dup3\n      add\n      mload\n      dup2\n      0x01\n      add\n      swap1\n      dup1\n      mload\n      swap1\n      0x20\n      add\n      swap1\n      tag_23\n      swap3\n      swap2\n      swap1\n      tag_22\n      jump\t// in\n    tag_23:\n      pop\n      0x40\n      dup3\n      add\n      mload\n      dup2\n      0x02\n      add\n      sstore\n      swap1\n      pop\n      pop\n        /* \"contracts/students.sol\":466:467  1 */\n      0x01\n        /* \"contracts/students.sol\":450:462  studentCount */\n      0x00\n      dup1\n        /* \"contracts/students.sol\":450:467  studentCount += 1 */\n      dup3\n      dup3\n      sload\n      tag_24\n      swap2\n      swap1\n      tag_25\n      jump\t// in\n    tag_24:\n      swap3\n      pop\n      pop\n      dup2\n      swap1\n      sstore\n      pop\n        /* \"contracts/students.sol\":286:475  function addStudent(string memory firstName, string memory lastName, uint _id) public {\r... */\n      pop\n      pop\n      pop\n      jump\t// out\n        /* \"contracts/students.sol\":130:174  mapping (address => Student) public students */\n    tag_13:\n      mstore(0x20, 0x01)\n      dup1\n      0x00\n      mstore\n      keccak256(0x00, 0x40)\n      0x00\n      swap2\n      pop\n      swap1\n      pop\n      dup1\n      0x00\n      add\n      dup1\n      sload\n      tag_26\n      swap1\n      tag_27\n      jump\t// in\n    tag_26:\n      dup1\n      0x1f\n      add\n      0x20\n      dup1\n      swap2\n      div\n      mul\n      0x20\n      add\n      mload(0x40)\n      swap1\n      dup2\n      add\n      0x40\n      mstore\n      dup1\n      swap3\n      swap2\n      swap1\n      dup2\n      dup2\n      mstore\n      0x20\n      add\n      dup3\n      dup1\n      sload\n      tag_28\n      swap1\n      tag_27\n      jump\t// in\n    tag_28:\n      dup1\n      iszero\n      tag_29\n      jumpi\n      dup1\n      0x1f\n      lt\n      tag_30\n      jumpi\n      0x0100\n      dup1\n      dup4\n      sload\n      div\n      mul\n      dup4\n      mstore\n      swap2\n      0x20\n      add\n      swap2\n      jump(tag_29)\n    tag_30:\n      dup3\n      add\n      swap2\n      swap1\n      0x00\n      mstore\n      keccak256(0x00, 0x20)\n      swap1\n    tag_31:\n      dup2\n      sload\n      dup2\n      mstore\n      swap1\n      0x01\n      add\n      swap1\n      0x20\n      add\n      dup1\n      dup4\n      gt\n      tag_31\n      jumpi\n      dup3\n      swap1\n      sub\n      0x1f\n      and\n      dup3\n      add\n      swap2\n    tag_29:\n      pop\n      pop\n      pop\n      pop\n      pop\n      swap1\n      dup1\n      0x01\n      add\n      dup1\n      sload\n      tag_32\n      swap1\n      tag_27\n      jump\t// in\n    tag_32:\n      dup1\n      0x1f\n      add\n      0x20\n      dup1\n      swap2\n      div\n      mul\n      0x20\n      add\n      mload(0x40)\n      swap1\n      dup2\n      add\n      0x40\n      mstore\n      dup1\n      swap3\n      swap2\n      swap1\n      dup2\n      dup2\n      mstore\n      0x20\n      add\n      dup3\n      dup1\n      sload\n      tag_33\n      swap1\n      tag_27\n      jump\t// in\n    tag_33:\n      dup1\n      iszero\n      tag_34\n      jumpi\n      dup1\n      0x1f\n      lt\n      tag_35\n      jumpi\n      0x0100\n      dup1\n      dup4\n      sload\n      div\n      mul\n      dup4\n      mstore\n      swap2\n      0x20\n      add\n      swap2\n      jump(tag_34)\n    tag_35:\n      dup3\n      add\n      swap2\n      swap1\n      0x00\n      mstore\n      keccak256(0x00, 0x20)\n      swap1\n    tag_36:\n      dup2\n      sload\n      dup2\n      mstore\n      swap1\n      0x01\n      add\n      swap1\n      0x20\n      add\n      dup1\n      dup4\n      gt\n      tag_36\n      jumpi\n      dup3\n      swap1\n      sub\n      0x1f\n      and\n      dup3\n      add\n      swap2\n    tag_34:\n      pop\n      pop\n      pop\n      pop\n      pop\n      swap1\n      dup1\n      0x02\n      add\n      sload\n      swap1\n      pop\n      dup4\n      jump\t// out\n        /* \"contracts/students.sol\":95:123  uint public studentCount = 0 */\n    tag_17:\n      sload(0x00)\n      dup2\n      jump\t// out\n    tag_22:\n      dup3\n      dup1\n      sload\n      tag_37\n      swap1\n      tag_27\n      jump\t// in\n    tag_37:\n      swap1\n      0x00\n      mstore\n      keccak256(0x00, 0x20)\n      swap1\n      0x1f\n      add\n      0x20\n      swap1\n      div\n      dup2\n      add\n      swap3\n      dup3\n      tag_39\n      jumpi\n      0x00\n      dup6\n      sstore\n      jump(tag_38)\n    tag_39:\n      dup3\n      0x1f\n      lt\n      tag_40\n      jumpi\n      dup1\n      mload\n      not(0xff)\n      and\n      dup4\n      dup1\n      add\n      or\n      dup6\n      sstore\n      jump(tag_38)\n    tag_40:\n      dup3\n      dup1\n      add\n      0x01\n      add\n      dup6\n      sstore\n      dup3\n      iszero\n      tag_38\n      jumpi\n      swap2\n      dup3\n      add\n    tag_41:\n      dup3\n      dup2\n      gt\n      iszero\n      tag_42\n      jumpi\n      dup3\n      mload\n      dup3\n      sstore\n      swap2\n      0x20\n      add\n      swap2\n      swap1\n      0x01\n      add\n      swap1\n      jump(tag_41)\n    tag_42:\n    tag_38:\n      pop\n      swap1\n      pop\n      tag_43\n      swap2\n      swap1\n      tag_44\n      jump\t// in\n    tag_43:\n      pop\n      swap1\n      jump\t// out\n    tag_44:\n    tag_45:\n      dup1\n      dup3\n      gt\n      iszero\n      tag_46\n      jumpi\n      0x00\n      dup2\n      0x00\n      swap1\n      sstore\n      pop\n      0x01\n      add\n      jump(tag_45)\n    tag_46:\n      pop\n      swap1\n      jump\t// out\n        /* \"#utility.yul\":7:419   */\n    tag_48:\n        /* \"#utility.yul\":85:90   */\n      0x00\n        /* \"#utility.yul\":110:176   */\n      tag_50\n        /* \"#utility.yul\":126:175   */\n      tag_51\n        /* \"#utility.yul\":168:174   */\n      dup5\n        /* \"#utility.yul\":126:175   */\n      tag_52\n      jump\t// in\n    tag_51:\n        /* \"#utility.yul\":110:176   */\n      tag_53\n      jump\t// in\n    tag_50:\n        /* \"#utility.yul\":101:176   */\n      swap1\n      pop\n        /* \"#utility.yul\":199:205   */\n      dup3\n        /* \"#utility.yul\":192:197   */\n      dup2\n        /* \"#utility.yul\":185:206   */\n      mstore\n        /* \"#utility.yul\":237:241   */\n      0x20\n        /* \"#utility.yul\":230:235   */\n      dup2\n        /* \"#utility.yul\":226:242   */\n      add\n        /* \"#utility.yul\":275:278   */\n      dup5\n        /* \"#utility.yul\":266:272   */\n      dup5\n        /* \"#utility.yul\":261:264   */\n      dup5\n        /* \"#utility.yul\":257:273   */\n      add\n        /* \"#utility.yul\":254:279   */\n      gt\n        /* \"#utility.yul\":251:363   */\n      iszero\n      tag_54\n      jumpi\n        /* \"#utility.yul\":282:361   */\n      tag_55\n      tag_56\n      jump\t// in\n    tag_55:\n        /* \"#utility.yul\":251:363   */\n    tag_54:\n        /* \"#utility.yul\":372:413   */\n      tag_57\n        /* \"#utility.yul\":406:412   */\n      dup5\n        /* \"#utility.yul\":401:404   */\n      dup3\n        /* \"#utility.yul\":396:399   */\n      dup6\n        /* \"#utility.yul\":372:413   */\n      tag_58\n      jump\t// in\n    tag_57:\n        /* \"#utility.yul\":91:419   */\n      pop\n        /* \"#utility.yul\":7:419   */\n      swap4\n      swap3\n      pop\n      pop\n      pop\n      jump\t// out\n        /* \"#utility.yul\":425:564   */\n    tag_59:\n        /* \"#utility.yul\":471:476   */\n      0x00\n        /* \"#utility.yul\":509:515   */\n      dup2\n        /* \"#utility.yul\":496:516   */\n      calldataload\n        /* \"#utility.yul\":487:516   */\n      swap1\n      pop\n        /* \"#utility.yul\":525:558   */\n      tag_61\n        /* \"#utility.yul\":552:557   */\n      dup2\n        /* \"#utility.yul\":525:558   */\n      tag_62\n      jump\t// in\n    tag_61:\n        /* \"#utility.yul\":425:564   */\n      swap3\n      swap2\n      pop\n      pop\n      jump\t// out\n        /* \"#utility.yul\":584:924   */\n    tag_63:\n        /* \"#utility.yul\":640:645   */\n      0x00\n        /* \"#utility.yul\":689:692   */\n      dup3\n        /* \"#utility.yul\":682:686   */\n      0x1f\n        /* \"#utility.yul\":674:680   */\n      dup4\n        /* \"#utility.yul\":670:687   */\n      add\n        /* \"#utility.yul\":666:693   */\n      slt\n        /* \"#utility.yul\":656:778   */\n      tag_65\n      jumpi\n        /* \"#utility.yul\":697:776   */\n      tag_66\n      tag_67\n      jump\t// in\n    tag_66:\n        /* \"#utility.yul\":656:778   */\n    tag_65:\n        /* \"#utility.yul\":814:820   */\n      dup2\n        /* \"#utility.yul\":801:821   */\n      calldataload\n        /* \"#utility.yul\":839:918   */\n      tag_68\n        /* \"#utility.yul\":914:917   */\n      dup5\n        /* \"#utility.yul\":906:912   */\n      dup3\n        /* \"#utility.yul\":899:903   */\n      0x20\n        /* \"#utility.yul\":891:897   */\n      dup7\n        /* \"#utility.yul\":887:904   */\n      add\n        /* \"#utility.yul\":839:918   */\n      tag_48\n      jump\t// in\n    tag_68:\n        /* \"#utility.yul\":830:918   */\n      swap2\n      pop\n        /* \"#utility.yul\":646:924   */\n      pop\n        /* \"#utility.yul\":584:924   */\n      swap3\n      swap2\n      pop\n      pop\n      jump\t// out\n        /* \"#utility.yul\":930:1069   */\n    tag_69:\n        /* \"#utility.yul\":976:981   */\n      0x00\n        /* \"#utility.yul\":1014:1020   */\n      dup2\n        /* \"#utility.yul\":1001:1021   */\n      calldataload\n        /* \"#utility.yul\":992:1021   */\n      swap1\n      pop\n        /* \"#utility.yul\":1030:1063   */\n      tag_71\n        /* \"#utility.yul\":1057:1062   */\n      dup2\n        /* \"#utility.yul\":1030:1063   */\n      tag_72\n      jump\t// in\n    tag_71:\n        /* \"#utility.yul\":930:1069   */\n      swap3\n      swap2\n      pop\n      pop\n      jump\t// out\n        /* \"#utility.yul\":1075:1404   */\n    tag_12:\n        /* \"#utility.yul\":1134:1140   */\n      0x00\n        /* \"#utility.yul\":1183:1185   */\n      0x20\n        /* \"#utility.yul\":1171:1180   */\n      dup3\n        /* \"#utility.yul\":1162:1169   */\n      dup5\n        /* \"#utility.yul\":1158:1181   */\n      sub\n        /* \"#utility.yul\":1154:1186   */\n      slt\n        /* \"#utility.yul\":1151:1270   */\n      iszero\n      tag_74\n      jumpi\n        /* \"#utility.yul\":1189:1268   */\n      tag_75\n      tag_76\n      jump\t// in\n    tag_75:\n        /* \"#utility.yul\":1151:1270   */\n    tag_74:\n        /* \"#utility.yul\":1309:1310   */\n      0x00\n        /* \"#utility.yul\":1334:1387   */\n      tag_77\n        /* \"#utility.yul\":1379:1386   */\n      dup5\n        /* \"#utility.yul\":1370:1376   */\n      dup3\n        /* \"#utility.yul\":1359:1368   */\n      dup6\n        /* \"#utility.yul\":1355:1377   */\n      add\n        /* \"#utility.yul\":1334:1387   */\n      tag_59\n      jump\t// in\n    tag_77:\n        /* \"#utility.yul\":1324:1387   */\n      swap2\n      pop\n        /* \"#utility.yul\":1280:1397   */\n      pop\n        /* \"#utility.yul\":1075:1404   */\n      swap3\n      swap2\n      pop\n      pop\n      jump\t// out\n        /* \"#utility.yul\":1410:2389   */\n    tag_8:\n        /* \"#utility.yul\":1507:1513   */\n      0x00\n        /* \"#utility.yul\":1515:1521   */\n      dup1\n        /* \"#utility.yul\":1523:1529   */\n      0x00\n        /* \"#utility.yul\":1572:1574   */\n      0x60\n        /* \"#utility.yul\":1560:1569   */\n      dup5\n        /* \"#utility.yul\":1551:1558   */\n      dup7\n        /* \"#utility.yul\":1547:1570   */\n      sub\n        /* \"#utility.yul\":1543:1575   */\n      slt\n        /* \"#utility.yul\":1540:1659   */\n      iszero\n      tag_79\n      jumpi\n        /* \"#utility.yul\":1578:1657   */\n      tag_80\n      tag_76\n      jump\t// in\n    tag_80:\n        /* \"#utility.yul\":1540:1659   */\n    tag_79:\n        /* \"#utility.yul\":1726:1727   */\n      0x00\n        /* \"#utility.yul\":1715:1724   */\n      dup5\n        /* \"#utility.yul\":1711:1728   */\n      add\n        /* \"#utility.yul\":1698:1729   */\n      calldataload\n        /* \"#utility.yul\":1756:1774   */\n      0xffffffffffffffff\n        /* \"#utility.yul\":1748:1754   */\n      dup2\n        /* \"#utility.yul\":1745:1775   */\n      gt\n        /* \"#utility.yul\":1742:1859   */\n      iszero\n      tag_81\n      jumpi\n        /* \"#utility.yul\":1778:1857   */\n      tag_82\n      tag_83\n      jump\t// in\n    tag_82:\n        /* \"#utility.yul\":1742:1859   */\n    tag_81:\n        /* \"#utility.yul\":1883:1946   */\n      tag_84\n        /* \"#utility.yul\":1938:1945   */\n      dup7\n        /* \"#utility.yul\":1929:1935   */\n      dup3\n        /* \"#utility.yul\":1918:1927   */\n      dup8\n        /* \"#utility.yul\":1914:1936   */\n      add\n        /* \"#utility.yul\":1883:1946   */\n      tag_63\n      jump\t// in\n    tag_84:\n        /* \"#utility.yul\":1873:1946   */\n      swap4\n      pop\n        /* \"#utility.yul\":1669:1956   */\n      pop\n        /* \"#utility.yul\":2023:2025   */\n      0x20\n        /* \"#utility.yul\":2012:2021   */\n      dup5\n        /* \"#utility.yul\":2008:2026   */\n      add\n        /* \"#utility.yul\":1995:2027   */\n      calldataload\n        /* \"#utility.yul\":2054:2072   */\n      0xffffffffffffffff\n        /* \"#utility.yul\":2046:2052   */\n      dup2\n        /* \"#utility.yul\":2043:2073   */\n      gt\n        /* \"#utility.yul\":2040:2157   */\n      iszero\n      tag_85\n      jumpi\n        /* \"#utility.yul\":2076:2155   */\n      tag_86\n      tag_83\n      jump\t// in\n    tag_86:\n        /* \"#utility.yul\":2040:2157   */\n    tag_85:\n        /* \"#utility.yul\":2181:2244   */\n      tag_87\n        /* \"#utility.yul\":2236:2243   */\n      dup7\n        /* \"#utility.yul\":2227:2233   */\n      dup3\n        /* \"#utility.yul\":2216:2225   */\n      dup8\n        /* \"#utility.yul\":2212:2234   */\n      add\n        /* \"#utility.yul\":2181:2244   */\n      tag_63\n      jump\t// in\n    tag_87:\n        /* \"#utility.yul\":2171:2244   */\n      swap3\n      pop\n        /* \"#utility.yul\":1966:2254   */\n      pop\n        /* \"#utility.yul\":2293:2295   */\n      0x40\n        /* \"#utility.yul\":2319:2372   */\n      tag_88\n        /* \"#utility.yul\":2364:2371   */\n      dup7\n        /* \"#utility.yul\":2355:2361   */\n      dup3\n        /* \"#utility.yul\":2344:2353   */\n      dup8\n        /* \"#utility.yul\":2340:2362   */\n      add\n        /* \"#utility.yul\":2319:2372   */\n      tag_69\n      jump\t// in\n    tag_88:\n        /* \"#utility.yul\":2309:2372   */\n      swap2\n      pop\n        /* \"#utility.yul\":2264:2382   */\n      pop\n        /* \"#utility.yul\":1410:2389   */\n      swap3\n      pop\n      swap3\n      pop\n      swap3\n      jump\t// out\n        /* \"#utility.yul\":2395:2759   */\n    tag_89:\n        /* \"#utility.yul\":2483:2486   */\n      0x00\n        /* \"#utility.yul\":2511:2550   */\n      tag_91\n        /* \"#utility.yul\":2544:2549   */\n      dup3\n        /* \"#utility.yul\":2511:2550   */\n      tag_92\n      jump\t// in\n    tag_91:\n        /* \"#utility.yul\":2566:2637   */\n      tag_93\n        /* \"#utility.yul\":2630:2636   */\n      dup2\n        /* \"#utility.yul\":2625:2628   */\n      dup6\n        /* \"#utility.yul\":2566:2637   */\n      tag_94\n      jump\t// in\n    tag_93:\n        /* \"#utility.yul\":2559:2637   */\n      swap4\n      pop\n        /* \"#utility.yul\":2646:2698   */\n      tag_95\n        /* \"#utility.yul\":2691:2697   */\n      dup2\n        /* \"#utility.yul\":2686:2689   */\n      dup6\n        /* \"#utility.yul\":2679:2683   */\n      0x20\n        /* \"#utility.yul\":2672:2677   */\n      dup7\n        /* \"#utility.yul\":2668:2684   */\n      add\n        /* \"#utility.yul\":2646:2698   */\n      tag_96\n      jump\t// in\n    tag_95:\n        /* \"#utility.yul\":2723:2752   */\n      tag_97\n        /* \"#utility.yul\":2745:2751   */\n      dup2\n        /* \"#utility.yul\":2723:2752   */\n      tag_98\n      jump\t// in\n    tag_97:\n        /* \"#utility.yul\":2718:2721   */\n      dup5\n        /* \"#utility.yul\":2714:2753   */\n      add\n        /* \"#utility.yul\":2707:2753   */\n      swap2\n      pop\n        /* \"#utility.yul\":2487:2759   */\n      pop\n        /* \"#utility.yul\":2395:2759   */\n      swap3\n      swap2\n      pop\n      pop\n      jump\t// out\n        /* \"#utility.yul\":2765:2883   */\n    tag_99:\n        /* \"#utility.yul\":2852:2876   */\n      tag_101\n        /* \"#utility.yul\":2870:2875   */\n      dup2\n        /* \"#utility.yul\":2852:2876   */\n      tag_102\n      jump\t// in\n    tag_101:\n        /* \"#utility.yul\":2847:2850   */\n      dup3\n        /* \"#utility.yul\":2840:2877   */\n      mstore\n        /* \"#utility.yul\":2765:2883   */\n      pop\n      pop\n      jump\t// out\n        /* \"#utility.yul\":2889:3513   */\n    tag_15:\n        /* \"#utility.yul\":3078:3082   */\n      0x00\n        /* \"#utility.yul\":3116:3118   */\n      0x60\n        /* \"#utility.yul\":3105:3114   */\n      dup3\n        /* \"#utility.yul\":3101:3119   */\n      add\n        /* \"#utility.yul\":3093:3119   */\n      swap1\n      pop\n        /* \"#utility.yul\":3165:3174   */\n      dup2\n        /* \"#utility.yul\":3159:3163   */\n      dup2\n        /* \"#utility.yul\":3155:3175   */\n      sub\n        /* \"#utility.yul\":3151:3152   */\n      0x00\n        /* \"#utility.yul\":3140:3149   */\n      dup4\n        /* \"#utility.yul\":3136:3153   */\n      add\n        /* \"#utility.yul\":3129:3176   */\n      mstore\n        /* \"#utility.yul\":3193:3271   */\n      tag_104\n        /* \"#utility.yul\":3266:3270   */\n      dup2\n        /* \"#utility.yul\":3257:3263   */\n      dup7\n        /* \"#utility.yul\":3193:3271   */\n      tag_89\n      jump\t// in\n    tag_104:\n        /* \"#utility.yul\":3185:3271   */\n      swap1\n      pop\n        /* \"#utility.yul\":3318:3327   */\n      dup2\n        /* \"#utility.yul\":3312:3316   */\n      dup2\n        /* \"#utility.yul\":3308:3328   */\n      sub\n        /* \"#utility.yul\":3303:3305   */\n      0x20\n        /* \"#utility.yul\":3292:3301   */\n      dup4\n        /* \"#utility.yul\":3288:3306   */\n      add\n        /* \"#utility.yul\":3281:3329   */\n      mstore\n        /* \"#utility.yul\":3346:3424   */\n      tag_105\n        /* \"#utility.yul\":3419:3423   */\n      dup2\n        /* \"#utility.yul\":3410:3416   */\n      dup6\n        /* \"#utility.yul\":3346:3424   */\n      tag_89\n      jump\t// in\n    tag_105:\n        /* \"#utility.yul\":3338:3424   */\n      swap1\n      pop\n        /* \"#utility.yul\":3434:3506   */\n      tag_106\n        /* \"#utility.yul\":3502:3504   */\n      0x40\n        /* \"#utility.yul\":3491:3500   */\n      dup4\n        /* \"#utility.yul\":3487:3505   */\n      add\n        /* \"#utility.yul\":3478:3484   */\n      dup5\n        /* \"#utility.yul\":3434:3506   */\n      tag_99\n      jump\t// in\n    tag_106:\n        /* \"#utility.yul\":2889:3513   */\n      swap5\n      swap4\n      pop\n      pop\n      pop\n      pop\n      jump\t// out\n        /* \"#utility.yul\":3519:3741   */\n    tag_19:\n        /* \"#utility.yul\":3612:3616   */\n      0x00\n        /* \"#utility.yul\":3650:3652   */\n      0x20\n        /* \"#utility.yul\":3639:3648   */\n      dup3\n        /* \"#utility.yul\":3635:3653   */\n      add\n        /* \"#utility.yul\":3627:3653   */\n      swap1\n      pop\n        /* \"#utility.yul\":3663:3734   */\n      tag_108\n        /* \"#utility.yul\":3731:3732   */\n      0x00\n        /* \"#utility.yul\":3720:3729   */\n      dup4\n        /* \"#utility.yul\":3716:3733   */\n      add\n        /* \"#utility.yul\":3707:3713   */\n      dup5\n        /* \"#utility.yul\":3663:3734   */\n      tag_99\n      jump\t// in\n    tag_108:\n        /* \"#utility.yul\":3519:3741   */\n      swap3\n      swap2\n      pop\n      pop\n      jump\t// out\n        /* \"#utility.yul\":3747:3876   */\n    tag_53:\n        /* \"#utility.yul\":3781:3787   */\n      0x00\n        /* \"#utility.yul\":3808:3828   */\n      tag_110\n      tag_111\n      jump\t// in\n    tag_110:\n        /* \"#utility.yul\":3798:3828   */\n      swap1\n      pop\n        /* \"#utility.yul\":3837:3870   */\n      tag_112\n        /* \"#utility.yul\":3865:3869   */\n      dup3\n        /* \"#utility.yul\":3857:3863   */\n      dup3\n        /* \"#utility.yul\":3837:3870   */\n      tag_113\n      jump\t// in\n    tag_112:\n        /* \"#utility.yul\":3747:3876   */\n      swap2\n      swap1\n      pop\n      jump\t// out\n        /* \"#utility.yul\":3882:3957   */\n    tag_111:\n        /* \"#utility.yul\":3915:3921   */\n      0x00\n        /* \"#utility.yul\":3948:3950   */\n      0x40\n        /* \"#utility.yul\":3942:3951   */\n      mload\n        /* \"#utility.yul\":3932:3951   */\n      swap1\n      pop\n        /* \"#utility.yul\":3882:3957   */\n      swap1\n      jump\t// out\n        /* \"#utility.yul\":3963:4271   */\n    tag_52:\n        /* \"#utility.yul\":4025:4029   */\n      0x00\n        /* \"#utility.yul\":4115:4133   */\n      0xffffffffffffffff\n        /* \"#utility.yul\":4107:4113   */\n      dup3\n        /* \"#utility.yul\":4104:4134   */\n      gt\n        /* \"#utility.yul\":4101:4157   */\n      iszero\n      tag_116\n      jumpi\n        /* \"#utility.yul\":4137:4155   */\n      tag_117\n      tag_118\n      jump\t// in\n    tag_117:\n        /* \"#utility.yul\":4101:4157   */\n    tag_116:\n        /* \"#utility.yul\":4175:4204   */\n      tag_119\n        /* \"#utility.yul\":4197:4203   */\n      dup3\n        /* \"#utility.yul\":4175:4204   */\n      tag_98\n      jump\t// in\n    tag_119:\n        /* \"#utility.yul\":4167:4204   */\n      swap1\n      pop\n        /* \"#utility.yul\":4259:4263   */\n      0x20\n        /* \"#utility.yul\":4253:4257   */\n      dup2\n        /* \"#utility.yul\":4249:4264   */\n      add\n        /* \"#utility.yul\":4241:4264   */\n      swap1\n      pop\n        /* \"#utility.yul\":3963:4271   */\n      swap2\n      swap1\n      pop\n      jump\t// out\n        /* \"#utility.yul\":4277:4376   */\n    tag_92:\n        /* \"#utility.yul\":4329:4335   */\n      0x00\n        /* \"#utility.yul\":4363:4368   */\n      dup2\n        /* \"#utility.yul\":4357:4369   */\n      mload\n        /* \"#utility.yul\":4347:4369   */\n      swap1\n      pop\n        /* \"#utility.yul\":4277:4376   */\n      swap2\n      swap1\n      pop\n      jump\t// out\n        /* \"#utility.yul\":4382:4551   */\n    tag_94:\n        /* \"#utility.yul\":4466:4477   */\n      0x00\n        /* \"#utility.yul\":4500:4506   */\n      dup3\n        /* \"#utility.yul\":4495:4498   */\n      dup3\n        /* \"#utility.yul\":4488:4507   */\n      mstore\n        /* \"#utility.yul\":4540:4544   */\n      0x20\n        /* \"#utility.yul\":4535:4538   */\n      dup3\n        /* \"#utility.yul\":4531:4545   */\n      add\n        /* \"#utility.yul\":4516:4545   */\n      swap1\n      pop\n        /* \"#utility.yul\":4382:4551   */\n      swap3\n      swap2\n      pop\n      pop\n      jump\t// out\n        /* \"#utility.yul\":4557:4862   */\n    tag_25:\n        /* \"#utility.yul\":4597:4600   */\n      0x00\n        /* \"#utility.yul\":4616:4636   */\n      tag_123\n        /* \"#utility.yul\":4634:4635   */\n      dup3\n        /* \"#utility.yul\":4616:4636   */\n      tag_102\n      jump\t// in\n    tag_123:\n        /* \"#utility.yul\":4611:4636   */\n      swap2\n      pop\n        /* \"#utility.yul\":4650:4670   */\n      tag_124\n        /* \"#utility.yul\":4668:4669   */\n      dup4\n        /* \"#utility.yul\":4650:4670   */\n      tag_102\n      jump\t// in\n    tag_124:\n        /* \"#utility.yul\":4645:4670   */\n      swap3\n      pop\n        /* \"#utility.yul\":4804:4805   */\n      dup3\n        /* \"#utility.yul\":4736:4802   */\n      0xffffffffffffffffffffffffffffffffffffffffffffffffffffffffffffffff\n        /* \"#utility.yul\":4732:4806   */\n      sub\n        /* \"#utility.yul\":4729:4730   */\n      dup3\n        /* \"#utility.yul\":4726:4807   */\n      gt\n        /* \"#utility.yul\":4723:4830   */\n      iszero\n      tag_125\n      jumpi\n        /* \"#utility.yul\":4810:4828   */\n      tag_126\n      tag_127\n      jump\t// in\n    tag_126:\n        /* \"#utility.yul\":4723:4830   */\n    tag_125:\n        /* \"#utility.yul\":4854:4855   */\n      dup3\n        /* \"#utility.yul\":4851:4852   */\n      dup3\n        /* \"#utility.yul\":4847:4856   */\n      add\n        /* \"#utility.yul\":4840:4856   */\n      swap1\n      pop\n        /* \"#utility.yul\":4557:4862   */\n      swap3\n      swap2\n      pop\n      pop\n      jump\t// out\n        /* \"#utility.yul\":4868:4964   */\n    tag_128:\n        /* \"#utility.yul\":4905:4912   */\n      0x00\n        /* \"#utility.yul\":4934:4958   */\n      tag_130\n        /* \"#utility.yul\":4952:4957   */\n      dup3\n        /* \"#utility.yul\":4934:4958   */\n      tag_131\n      jump\t// in\n    tag_130:\n        /* \"#utility.yul\":4923:4958   */\n      swap1\n      pop\n        /* \"#utility.yul\":4868:4964   */\n      swap2\n      swap1\n      pop\n      jump\t// out\n        /* \"#utility.yul\":4970:5096   */\n    tag_131:\n        /* \"#utility.yul\":5007:5014   */\n      0x00\n        /* \"#utility.yul\":5047:5089   */\n      0xffffffffffffffffffffffffffffffffffffffff\n        /* \"#utility.yul\":5040:5045   */\n      dup3\n        /* \"#utility.yul\":5036:5090   */\n      and\n        /* \"#utility.yul\":5025:5090   */\n      swap1\n      pop\n        /* \"#utility.yul\":4970:5096   */\n      swap2\n      swap1\n      pop\n      jump\t// out\n        /* \"#utility.yul\":5102:5179   */\n    tag_102:\n        /* \"#utility.yul\":5139:5146   */\n      0x00\n        /* \"#utility.yul\":5168:5173   */\n      dup2\n        /* \"#utility.yul\":5157:5173   */\n      swap1\n      pop\n        /* \"#utility.yul\":5102:5179   */\n      swap2\n      swap1\n      pop\n      jump\t// out\n        /* \"#utility.yul\":5185:5339   */\n    tag_58:\n        /* \"#utility.yul\":5269:5275   */\n      dup3\n        /* \"#utility.yul\":5264:5267   */\n      dup2\n        /* \"#utility.yul\":5259:5262   */\n      dup4\n        /* \"#utility.yul\":5246:5276   */\n      calldatacopy\n        /* \"#utility.yul\":5331:5332   */\n      0x00\n        /* \"#utility.yul\":5322:5328   */\n      dup4\n        /* \"#utility.yul\":5317:5320   */\n      dup4\n        /* \"#utility.yul\":5313:5329   */\n      add\n        /* \"#utility.yul\":5306:5333   */\n      mstore\n        /* \"#utility.yul\":5185:5339   */\n      pop\n      pop\n      pop\n      jump\t// out\n        /* \"#utility.yul\":5345:5652   */\n    tag_96:\n        /* \"#utility.yul\":5413:5414   */\n      0x00\n        /* \"#utility.yul\":5423:5536   */\n    tag_136:\n        /* \"#utility.yul\":5437:5443   */\n      dup4\n        /* \"#utility.yul\":5434:5435   */\n      dup2\n        /* \"#utility.yul\":5431:5444   */\n      lt\n        /* \"#utility.yul\":5423:5536   */\n      iszero\n      tag_138\n      jumpi\n        /* \"#utility.yul\":5522:5523   */\n      dup1\n        /* \"#utility.yul\":5517:5520   */\n      dup3\n        /* \"#utility.yul\":5513:5524   */\n      add\n        /* \"#utility.yul\":5507:5525   */\n      mload\n        /* \"#utility.yul\":5503:5504   */\n      dup2\n        /* \"#utility.yul\":5498:5501   */\n      dup5\n        /* \"#utility.yul\":5494:5505   */\n      add\n        /* \"#utility.yul\":5487:5526   */\n      mstore\n        /* \"#utility.yul\":5459:5461   */\n      0x20\n        /* \"#utility.yul\":5456:5457   */\n      dup2\n        /* \"#utility.yul\":5452:5462   */\n      add\n        /* \"#utility.yul\":5447:5462   */\n      swap1\n      pop\n        /* \"#utility.yul\":5423:5536   */\n      jump(tag_136)\n    tag_138:\n        /* \"#utility.yul\":5554:5560   */\n      dup4\n        /* \"#utility.yul\":5551:5552   */\n      dup2\n        /* \"#utility.yul\":5548:5561   */\n      gt\n        /* \"#utility.yul\":5545:5646   */\n      iszero\n      tag_139\n      jumpi\n        /* \"#utility.yul\":5634:5635   */\n      0x00\n        /* \"#utility.yul\":5625:5631   */\n      dup5\n        /* \"#utility.yul\":5620:5623   */\n      dup5\n        /* \"#utility.yul\":5616:5632   */\n      add\n        /* \"#utility.yul\":5609:5636   */\n      mstore\n        /* \"#utility.yul\":5545:5646   */\n    tag_139:\n        /* \"#utility.yul\":5394:5652   */\n      pop\n        /* \"#utility.yul\":5345:5652   */\n      pop\n      pop\n      pop\n      jump\t// out\n        /* \"#utility.yul\":5658:5978   */\n    tag_27:\n        /* \"#utility.yul\":5702:5708   */\n      0x00\n        /* \"#utility.yul\":5739:5740   */\n      0x02\n        /* \"#utility.yul\":5733:5737   */\n      dup3\n        /* \"#utility.yul\":5729:5741   */\n      div\n        /* \"#utility.yul\":5719:5741   */\n      swap1\n      pop\n        /* \"#utility.yul\":5786:5787   */\n      0x01\n        /* \"#utility.yul\":5780:5784   */\n      dup3\n        /* \"#utility.yul\":5776:5788   */\n      and\n        /* \"#utility.yul\":5807:5825   */\n      dup1\n        /* \"#utility.yul\":5797:5878   */\n      tag_141\n      jumpi\n        /* \"#utility.yul\":5863:5867   */\n      0x7f\n        /* \"#utility.yul\":5855:5861   */\n      dup3\n        /* \"#utility.yul\":5851:5868   */\n      and\n        /* \"#utility.yul\":5841:5868   */\n      swap2\n      pop\n        /* \"#utility.yul\":5797:5878   */\n    tag_141:\n        /* \"#utility.yul\":5925:5927   */\n      0x20\n        /* \"#utility.yul\":5917:5923   */\n      dup3\n        /* \"#utility.yul\":5914:5928   */\n      lt\n        /* \"#utility.yul\":5894:5912   */\n      dup2\n        /* \"#utility.yul\":5891:5929   */\n      eq\n        /* \"#utility.yul\":5888:5972   */\n      iszero\n      tag_142\n      jumpi\n        /* \"#utility.yul\":5944:5962   */\n      tag_143\n      tag_144\n      jump\t// in\n    tag_143:\n        /* \"#utility.yul\":5888:5972   */\n    tag_142:\n        /* \"#utility.yul\":5709:5978   */\n      pop\n        /* \"#utility.yul\":5658:5978   */\n      swap2\n      swap1\n      pop\n      jump\t// out\n        /* \"#utility.yul\":5984:6265   */\n    tag_113:\n        /* \"#utility.yul\":6067:6094   */\n      tag_146\n        /* \"#utility.yul\":6089:6093   */\n      dup3\n        /* \"#utility.yul\":6067:6094   */\n      tag_98\n      jump\t// in\n    tag_146:\n        /* \"#utility.yul\":6059:6065   */\n      dup2\n        /* \"#utility.yul\":6055:6095   */\n      add\n        /* \"#utility.yul\":6197:6203   */\n      dup2\n        /* \"#utility.yul\":6185:6195   */\n      dup2\n        /* \"#utility.yul\":6182:6204   */\n      lt\n        /* \"#utility.yul\":6161:6179   */\n      0xffffffffffffffff\n        /* \"#utility.yul\":6149:6159   */\n      dup3\n        /* \"#utility.yul\":6146:6180   */\n      gt\n        /* \"#utility.yul\":6143:6205   */\n      or\n        /* \"#utility.yul\":6140:6228   */\n      iszero\n      tag_147\n      jumpi\n        /* \"#utility.yul\":6208:6226   */\n      tag_148\n      tag_118\n      jump\t// in\n    tag_148:\n        /* \"#utility.yul\":6140:6228   */\n    tag_147:\n        /* \"#utility.yul\":6248:6258   */\n      dup1\n        /* \"#utility.yul\":6244:6246   */\n      0x40\n        /* \"#utility.yul\":6237:6259   */\n      mstore\n        /* \"#utility.yul\":6027:6265   */\n      pop\n        /* \"#utility.yul\":5984:6265   */\n      pop\n      pop\n      jump\t// out\n        /* \"#utility.yul\":6271:6451   */\n    tag_127:\n        /* \"#utility.yul\":6319:6396   */\n      0x4e487b7100000000000000000000000000000000000000000000000000000000\n        /* \"#utility.yul\":6316:6317   */\n      0x00\n        /* \"#utility.yul\":6309:6397   */\n      mstore\n        /* \"#utility.yul\":6416:6420   */\n      0x11\n        /* \"#utility.yul\":6413:6414   */\n      0x04\n        /* \"#utility.yul\":6406:6421   */\n      mstore\n        /* \"#utility.yul\":6440:6444   */\n      0x24\n        /* \"#utility.yul\":6437:6438   */\n      0x00\n        /* \"#utility.yul\":6430:6445   */\n      revert\n        /* \"#utility.yul\":6457:6637   */\n    tag_144:\n        /* \"#utility.yul\":6505:6582   */\n      0x4e487b7100000000000000000000000000000000000000000000000000000000\n        /* \"#utility.yul\":6502:6503   */\n      0x00\n        /* \"#utility.yul\":6495:6583   */\n      mstore\n        /* \"#utility.yul\":6602:6606   */\n      0x22\n        /* \"#utility.yul\":6599:6600   */\n      0x04\n        /* \"#utility.yul\":6592:6607   */\n      mstore\n        /* \"#utility.yul\":6626:6630   */\n      0x24\n        /* \"#utility.yul\":6623:6624   */\n      0x00\n        /* \"#utility.yul\":6616:6631   */\n      revert\n        /* \"#utility.yul\":6643:6823   */\n    tag_118:\n        /* \"#utility.yul\":6691:6768   */\n      0x4e487b7100000000000000000000000000000000000000000000000000000000\n        /* \"#utility.yul\":6688:6689   */\n      0x00\n        /* \"#utility.yul\":6681:6769   */\n      mstore\n        /* \"#utility.yul\":6788:6792   */\n      0x41\n        /* \"#utility.yul\":6785:6786   */\n      0x04\n        /* \"#utility.yul\":6778:6793   */\n      mstore\n        /* \"#utility.yul\":6812:6816   */\n      0x24\n        /* \"#utility.yul\":6809:6810   */\n      0x00\n        /* \"#utility.yul\":6802:6817   */\n      revert\n        /* \"#utility.yul\":6829:6946   */\n    tag_67:\n        /* \"#utility.yul\":6938:6939   */\n      0x00\n        /* \"#utility.yul\":6935:6936   */\n      dup1\n        /* \"#utility.yul\":6928:6940   */\n      revert\n        /* \"#utility.yul\":6952:7069   */\n    tag_56:\n        /* \"#utility.yul\":7061:7062   */\n      0x00\n        /* \"#utility.yul\":7058:7059   */\n      dup1\n        /* \"#utility.yul\":7051:7063   */\n      revert\n        /* \"#utility.yul\":7075:7192   */\n    tag_83:\n        /* \"#utility.yul\":7184:7185   */\n      0x00\n        /* \"#utility.yul\":7181:7182   */\n      dup1\n        /* \"#utility.yul\":7174:7186   */\n      revert\n        /* \"#utility.yul\":7198:7315   */\n    tag_76:\n        /* \"#utility.yul\":7307:7308   */\n      0x00\n        /* \"#utility.yul\":7304:7305   */\n      dup1\n        /* \"#utility.yul\":7297:7309   */\n      revert\n        /* \"#utility.yul\":7321:7423   */\n    tag_98:\n        /* \"#utility.yul\":7362:7368   */\n      0x00\n        /* \"#utility.yul\":7413:7415   */\n      0x1f\n        /* \"#utility.yul\":7409:7416   */\n      not\n        /* \"#utility.yul\":7404:7406   */\n      0x1f\n        /* \"#utility.yul\":7397:7402   */\n      dup4\n        /* \"#utility.yul\":7393:7407   */\n      add\n        /* \"#utility.yul\":7389:7417   */\n      and\n        /* \"#utility.yul\":7379:7417   */\n      swap1\n      pop\n        /* \"#utility.yul\":7321:7423   */\n      swap2\n      swap1\n      pop\n      jump\t// out\n        /* \"#utility.yul\":7429:7551   */\n    tag_62:\n        /* \"#utility.yul\":7502:7526   */\n      tag_158\n        /* \"#utility.yul\":7520:7525   */\n      dup2\n        /* \"#utility.yul\":7502:7526   */\n      tag_128\n      jump\t// in\n    tag_158:\n        /* \"#utility.yul\":7495:7500   */\n      dup2\n        /* \"#utility.yul\":7492:7527   */\n      eq\n        /* \"#utility.yul\":7482:7545   */\n      tag_159\n      jumpi\n        /* \"#utility.yul\":7541:7542   */\n      0x00\n        /* \"#utility.yul\":7538:7539   */\n      dup1\n        /* \"#utility.yul\":7531:7543   */\n      revert\n        /* \"#utility.yul\":7482:7545   */\n    tag_159:\n        /* \"#utility.yul\":7429:7551   */\n      pop\n      jump\t// out\n        /* \"#utility.yul\":7557:7679   */\n    tag_72:\n        /* \"#utility.yul\":7630:7654   */\n      tag_161\n        /* \"#utility.yul\":7648:7653   */\n      dup2\n        /* \"#utility.yul\":7630:7654   */\n      tag_102\n      jump\t// in\n    tag_161:\n        /* \"#utility.yul\":7623:7628   */\n      dup2\n        /* \"#utility.yul\":7620:7655   */\n      eq\n        /* \"#utility.yul\":7610:7673   */\n      tag_162\n      jumpi\n        /* \"#utility.yul\":7669:7670   */\n      0x00\n        /* \"#utility.yul\":7666:7667   */\n      dup1\n        /* \"#utility.yul\":7659:7671   */\n      revert\n        /* \"#utility.yul\":7610:7673   */\n    tag_162:\n        /* \"#utility.yul\":7557:7679   */\n      pop\n      jump\t// out\n\n    auxdata: 0xa2646970667358221220999b6f5f8abe5888e560129079d9b5b9152a1cc32c0834504d35dde1ce03cf2964736f6c63430008070033\n}\n",
				"bytecode": {
					"linkReferences": {},
					"object": "60806040526000805534801561001457600080fd5b5061080d806100246000396000f3fe608060405234801561001057600080fd5b50600436106100415760003560e01c80639cc8f13914610046578063a6c807a914610062578063e581f9ee14610094575b600080fd5b610060600480360381019061005b919061041b565b6100b2565b005b61007c600480360381019061007791906103ee565b610171565b60405161008b939291906104ee565b60405180910390f35b61009c6102ab565b6040516100a99190610533565b60405180910390f35b604051806060016040528084815260200183815260200182815250600160003373ffffffffffffffffffffffffffffffffffffffff1673ffffffffffffffffffffffffffffffffffffffff16815260200190815260200160002060008201518160000190805190602001906101289291906102b1565b5060208201518160010190805190602001906101459291906102b1565b5060408201518160020155905050600160008082825461016591906105c0565b92505081905550505050565b600160205280600052604060002060009150905080600001805461019490610694565b80601f01602080910402602001604051908101604052809291908181526020018280546101c090610694565b801561020d5780601f106101e25761010080835404028352916020019161020d565b820191906000526020600020905b8154815290600101906020018083116101f057829003601f168201915b50505050509080600101805461022290610694565b80601f016020809104026020016040519081016040528092919081815260200182805461024e90610694565b801561029b5780601f106102705761010080835404028352916020019161029b565b820191906000526020600020905b81548152906001019060200180831161027e57829003601f168201915b5050505050908060020154905083565b60005481565b8280546102bd90610694565b90600052602060002090601f0160209004810192826102df5760008555610326565b82601f106102f857805160ff1916838001178555610326565b82800160010185558215610326579182015b8281111561032557825182559160200191906001019061030a565b5b5090506103339190610337565b5090565b5b80821115610350576000816000905550600101610338565b5090565b600061036761036284610573565b61054e565b90508281526020810184848401111561038357610382610789565b5b61038e848285610652565b509392505050565b6000813590506103a5816107a9565b92915050565b600082601f8301126103c0576103bf610784565b5b81356103d0848260208601610354565b91505092915050565b6000813590506103e8816107c0565b92915050565b60006020828403121561040457610403610793565b5b600061041284828501610396565b91505092915050565b60008060006060848603121561043457610433610793565b5b600084013567ffffffffffffffff8111156104525761045161078e565b5b61045e868287016103ab565b935050602084013567ffffffffffffffff81111561047f5761047e61078e565b5b61048b868287016103ab565b925050604061049c868287016103d9565b9150509250925092565b60006104b1826105a4565b6104bb81856105af565b93506104cb818560208601610661565b6104d481610798565b840191505092915050565b6104e881610648565b82525050565b6000606082019050818103600083015261050881866104a6565b9050818103602083015261051c81856104a6565b905061052b60408301846104df565b949350505050565b600060208201905061054860008301846104df565b92915050565b6000610558610569565b905061056482826106c6565b919050565b6000604051905090565b600067ffffffffffffffff82111561058e5761058d610755565b5b61059782610798565b9050602081019050919050565b600081519050919050565b600082825260208201905092915050565b60006105cb82610648565b91506105d683610648565b9250827fffffffffffffffffffffffffffffffffffffffffffffffffffffffffffffffff0382111561060b5761060a6106f7565b5b828201905092915050565b600061062182610628565b9050919050565b600073ffffffffffffffffffffffffffffffffffffffff82169050919050565b6000819050919050565b82818337600083830152505050565b60005b8381101561067f578082015181840152602081019050610664565b8381111561068e576000848401525b50505050565b600060028204905060018216806106ac57607f821691505b602082108114156106c0576106bf610726565b5b50919050565b6106cf82610798565b810181811067ffffffffffffffff821117156106ee576106ed610755565b5b80604052505050565b7f4e487b7100000000000000000000000000000000000000000000000000000000600052601160045260246000fd5b7f4e487b7100000000000000000000000000000000000000000000000000000000600052602260045260246000fd5b7f4e487b7100000000000000000000000000000000000000000000000000000000600052604160045260246000fd5b600080fd5b600080fd5b600080fd5b600080fd5b6000601f19601f8301169050919050565b6107b281610616565b81146107bd57600080fd5b50565b6107c981610648565b81146107d457600080fd5b5056fea2646970667358221220999b6f5f8abe5888e560129079d9b5b9152a1cc32c0834504d35dde1ce03cf2964736f6c63430008070033",
					"opcodes": "PUSH1 0x80 PUSH1 0x40 MSTORE PUSH1 0x0 DUP1 SSTORE CALLVALUE DUP1 ISZERO PUSH2 0x14 JUMPI PUSH1 0x0 DUP1 REVERT JUMPDEST POP PUSH2 0x80D DUP1 PUSH2 0x24 PUSH1 0x0 CODECOPY PUSH1 0x0 RETURN INVALID PUSH1 0x80 PUSH1 0x40 MSTORE CALLVALUE DUP1 ISZERO PUSH2 0x10 JUMPI PUSH1 0x0 DUP1 REVERT JUMPDEST POP PUSH1 0x4 CALLDATASIZE LT PUSH2 0x41 JUMPI PUSH1 0x0 CALLDATALOAD PUSH1 0xE0 SHR DUP1 PUSH4 0x9CC8F139 EQ PUSH2 0x46 JUMPI DUP1 PUSH4 0xA6C807A9 EQ PUSH2 0x62 JUMPI DUP1 PUSH4 0xE581F9EE EQ PUSH2 0x94 JUMPI JUMPDEST PUSH1 0x0 DUP1 REVERT JUMPDEST PUSH2 0x60 PUSH1 0x4 DUP1 CALLDATASIZE SUB DUP2 ADD SWAP1 PUSH2 0x5B SWAP2 SWAP1 PUSH2 0x41B JUMP JUMPDEST PUSH2 0xB2 JUMP JUMPDEST STOP JUMPDEST PUSH2 0x7C PUSH1 0x4 DUP1 CALLDATASIZE SUB DUP2 ADD SWAP1 PUSH2 0x77 SWAP2 SWAP1 PUSH2 0x3EE JUMP JUMPDEST PUSH2 0x171 JUMP JUMPDEST PUSH1 0x40 MLOAD PUSH2 0x8B SWAP4 SWAP3 SWAP2 SWAP1 PUSH2 0x4EE JUMP JUMPDEST PUSH1 0x40 MLOAD DUP1 SWAP2 SUB SWAP1 RETURN JUMPDEST PUSH2 0x9C PUSH2 0x2AB JUMP JUMPDEST PUSH1 0x40 MLOAD PUSH2 0xA9 SWAP2 SWAP1 PUSH2 0x533 JUMP JUMPDEST PUSH1 0x40 MLOAD DUP1 SWAP2 SUB SWAP1 RETURN JUMPDEST PUSH1 0x40 MLOAD DUP1 PUSH1 0x60 ADD PUSH1 0x40 MSTORE DUP1 DUP5 DUP2 MSTORE PUSH1 0x20 ADD DUP4 DUP2 MSTORE PUSH1 0x20 ADD DUP3 DUP2 MSTORE POP PUSH1 0x1 PUSH1 0x0 CALLER PUSH20 0xFFFFFFFFFFFFFFFFFFFFFFFFFFFFFFFFFFFFFFFF AND PUSH20 0xFFFFFFFFFFFFFFFFFFFFFFFFFFFFFFFFFFFFFFFF AND DUP2 MSTORE PUSH1 0x20 ADD SWAP1 DUP2 MSTORE PUSH1 0x20 ADD PUSH1 0x0 KECCAK256 PUSH1 0x0 DUP3 ADD MLOAD DUP2 PUSH1 0x0 ADD SWAP1 DUP1 MLOAD SWAP1 PUSH1 0x20 ADD SWAP1 PUSH2 0x128 SWAP3 SWAP2 SWAP1 PUSH2 0x2B1 JUMP JUMPDEST POP PUSH1 0x20 DUP3 ADD MLOAD DUP2 PUSH1 0x1 ADD SWAP1 DUP1 MLOAD SWAP1 PUSH1 0x20 ADD SWAP1 PUSH2 0x145 SWAP3 SWAP2 SWAP1 PUSH2 0x2B1 JUMP JUMPDEST POP PUSH1 0x40 DUP3 ADD MLOAD DUP2 PUSH1 0x2 ADD SSTORE SWAP1 POP POP PUSH1 0x1 PUSH1 0x0 DUP1 DUP3 DUP3 SLOAD PUSH2 0x165 SWAP2 SWAP1 PUSH2 0x5C0 JUMP JUMPDEST SWAP3 POP POP DUP2 SWAP1 SSTORE POP POP POP POP JUMP JUMPDEST PUSH1 0x1 PUSH1 0x20 MSTORE DUP1 PUSH1 0x0 MSTORE PUSH1 0x40 PUSH1 0x0 KECCAK256 PUSH1 0x0 SWAP2 POP SWAP1 POP DUP1 PUSH1 0x0 ADD DUP1 SLOAD PUSH2 0x194 SWAP1 PUSH2 0x694 JUMP JUMPDEST DUP1 PUSH1 0x1F ADD PUSH1 0x20 DUP1 SWAP2 DIV MUL PUSH1 0x20 ADD PUSH1 0x40 MLOAD SWAP1 DUP2 ADD PUSH1 0x40 MSTORE DUP1 SWAP3 SWAP2 SWAP1 DUP2 DUP2 MSTORE PUSH1 0x20 ADD DUP3 DUP1 SLOAD PUSH2 0x1C0 SWAP1 PUSH2 0x694 JUMP JUMPDEST DUP1 ISZERO PUSH2 0x20D JUMPI DUP1 PUSH1 0x1F LT PUSH2 0x1E2 JUMPI PUSH2 0x100 DUP1 DUP4 SLOAD DIV MUL DUP4 MSTORE SWAP2 PUSH1 0x20 ADD SWAP2 PUSH2 0x20D JUMP JUMPDEST DUP3 ADD SWAP2 SWAP1 PUSH1 0x0 MSTORE PUSH1 0x20 PUSH1 0x0 KECCAK256 SWAP1 JUMPDEST DUP2 SLOAD DUP2 MSTORE SWAP1 PUSH1 0x1 ADD SWAP1 PUSH1 0x20 ADD DUP1 DUP4 GT PUSH2 0x1F0 JUMPI DUP3 SWAP1 SUB PUSH1 0x1F AND DUP3 ADD SWAP2 JUMPDEST POP POP POP POP POP SWAP1 DUP1 PUSH1 0x1 ADD DUP1 SLOAD PUSH2 0x222 SWAP1 PUSH2 0x694 JUMP JUMPDEST DUP1 PUSH1 0x1F ADD PUSH1 0x20 DUP1 SWAP2 DIV MUL PUSH1 0x20 ADD PUSH1 0x40 MLOAD SWAP1 DUP2 ADD PUSH1 0x40 MSTORE DUP1 SWAP3 SWAP2 SWAP1 DUP2 DUP2 MSTORE PUSH1 0x20 ADD DUP3 DUP1 SLOAD PUSH2 0x24E SWAP1 PUSH2 0x694 JUMP JUMPDEST DUP1 ISZERO PUSH2 0x29B JUMPI DUP1 PUSH1 0x1F LT PUSH2 0x270 JUMPI PUSH2 0x100 DUP1 DUP4 SLOAD DIV MUL DUP4 MSTORE SWAP2 PUSH1 0x20 ADD SWAP2 PUSH2 0x29B JUMP JUMPDEST DUP3 ADD SWAP2 SWAP1 PUSH1 0x0 MSTORE PUSH1 0x20 PUSH1 0x0 KECCAK256 SWAP1 JUMPDEST DUP2 SLOAD DUP2 MSTORE SWAP1 PUSH1 0x1 ADD SWAP1 PUSH1 0x20 ADD DUP1 DUP4 GT PUSH2 0x27E JUMPI DUP3 SWAP1 SUB PUSH1 0x1F AND DUP3 ADD SWAP2 JUMPDEST POP POP POP POP POP SWAP1 DUP1 PUSH1 0x2 ADD SLOAD SWAP1 POP DUP4 JUMP JUMPDEST PUSH1 0x0 SLOAD DUP2 JUMP JUMPDEST DUP3 DUP1 SLOAD PUSH2 0x2BD SWAP1 PUSH2 0x694 JUMP JUMPDEST SWAP1 PUSH1 0x0 MSTORE PUSH1 0x20 PUSH1 0x0 KECCAK256 SWAP1 PUSH1 0x1F ADD PUSH1 0x20 SWAP1 DIV DUP2 ADD SWAP3 DUP3 PUSH2 0x2DF JUMPI PUSH1 0x0 DUP6 SSTORE PUSH2 0x326 JUMP JUMPDEST DUP3 PUSH1 0x1F LT PUSH2 0x2F8 JUMPI DUP1 MLOAD PUSH1 0xFF NOT AND DUP4 DUP1 ADD OR DUP6 SSTORE PUSH2 0x326 JUMP JUMPDEST DUP3 DUP1 ADD PUSH1 0x1 ADD DUP6 SSTORE DUP3 ISZERO PUSH2 0x326 JUMPI SWAP2 DUP3 ADD JUMPDEST DUP3 DUP2 GT ISZERO PUSH2 0x325 JUMPI DUP3 MLOAD DUP3 SSTORE SWAP2 PUSH1 0x20 ADD SWAP2 SWAP1 PUSH1 0x1 ADD SWAP1 PUSH2 0x30A JUMP JUMPDEST JUMPDEST POP SWAP1 POP PUSH2 0x333 SWAP2 SWAP1 PUSH2 0x337 JUMP JUMPDEST POP SWAP1 JUMP JUMPDEST JUMPDEST DUP1 DUP3 GT ISZERO PUSH2 0x350 JUMPI PUSH1 0x0 DUP2 PUSH1 0x0 SWAP1 SSTORE POP PUSH1 0x1 ADD PUSH2 0x338 JUMP JUMPDEST POP SWAP1 JUMP JUMPDEST PUSH1 0x0 PUSH2 0x367 PUSH2 0x362 DUP5 PUSH2 0x573 JUMP JUMPDEST PUSH2 0x54E JUMP JUMPDEST SWAP1 POP DUP3 DUP2 MSTORE PUSH1 0x20 DUP2 ADD DUP5 DUP5 DUP5 ADD GT ISZERO PUSH2 0x383 JUMPI PUSH2 0x382 PUSH2 0x789 JUMP JUMPDEST JUMPDEST PUSH2 0x38E DUP5 DUP3 DUP6 PUSH2 0x652 JUMP JUMPDEST POP SWAP4 SWAP3 POP POP POP JUMP JUMPDEST PUSH1 0x0 DUP2 CALLDATALOAD SWAP1 POP PUSH2 0x3A5 DUP2 PUSH2 0x7A9 JUMP JUMPDEST SWAP3 SWAP2 POP POP JUMP JUMPDEST PUSH1 0x0 DUP3 PUSH1 0x1F DUP4 ADD SLT PUSH2 0x3C0 JUMPI PUSH2 0x3BF PUSH2 0x784 JUMP JUMPDEST JUMPDEST DUP2 CALLDATALOAD PUSH2 0x3D0 DUP5 DUP3 PUSH1 0x20 DUP7 ADD PUSH2 0x354 JUMP JUMPDEST SWAP2 POP POP SWAP3 SWAP2 POP POP JUMP JUMPDEST PUSH1 0x0 DUP2 CALLDATALOAD SWAP1 POP PUSH2 0x3E8 DUP2 PUSH2 0x7C0 JUMP JUMPDEST SWAP3 SWAP2 POP POP JUMP JUMPDEST PUSH1 0x0 PUSH1 0x20 DUP3 DUP5 SUB SLT ISZERO PUSH2 0x404 JUMPI PUSH2 0x403 PUSH2 0x793 JUMP JUMPDEST JUMPDEST PUSH1 0x0 PUSH2 0x412 DUP5 DUP3 DUP6 ADD PUSH2 0x396 JUMP JUMPDEST SWAP2 POP POP SWAP3 SWAP2 POP POP JUMP JUMPDEST PUSH1 0x0 DUP1 PUSH1 0x0 PUSH1 0x60 DUP5 DUP7 SUB SLT ISZERO PUSH2 0x434 JUMPI PUSH2 0x433 PUSH2 0x793 JUMP JUMPDEST JUMPDEST PUSH1 0x0 DUP5 ADD CALLDATALOAD PUSH8 0xFFFFFFFFFFFFFFFF DUP2 GT ISZERO PUSH2 0x452 JUMPI PUSH2 0x451 PUSH2 0x78E JUMP JUMPDEST JUMPDEST PUSH2 0x45E DUP7 DUP3 DUP8 ADD PUSH2 0x3AB JUMP JUMPDEST SWAP4 POP POP PUSH1 0x20 DUP5 ADD CALLDATALOAD PUSH8 0xFFFFFFFFFFFFFFFF DUP2 GT ISZERO PUSH2 0x47F JUMPI PUSH2 0x47E PUSH2 0x78E JUMP JUMPDEST JUMPDEST PUSH2 0x48B DUP7 DUP3 DUP8 ADD PUSH2 0x3AB JUMP JUMPDEST SWAP3 POP POP PUSH1 0x40 PUSH2 0x49C DUP7 DUP3 DUP8 ADD PUSH2 0x3D9 JUMP JUMPDEST SWAP2 POP POP SWAP3 POP SWAP3 POP SWAP3 JUMP JUMPDEST PUSH1 0x0 PUSH2 0x4B1 DUP3 PUSH2 0x5A4 JUMP JUMPDEST PUSH2 0x4BB DUP2 DUP6 PUSH2 0x5AF JUMP JUMPDEST SWAP4 POP PUSH2 0x4CB DUP2 DUP6 PUSH1 0x20 DUP7 ADD PUSH2 0x661 JUMP JUMPDEST PUSH2 0x4D4 DUP2 PUSH2 0x798 JUMP JUMPDEST DUP5 ADD SWAP2 POP POP SWAP3 SWAP2 POP POP JUMP JUMPDEST PUSH2 0x4E8 DUP2 PUSH2 0x648 JUMP JUMPDEST DUP3 MSTORE POP POP JUMP JUMPDEST PUSH1 0x0 PUSH1 0x60 DUP3 ADD SWAP1 POP DUP2 DUP2 SUB PUSH1 0x0 DUP4 ADD MSTORE PUSH2 0x508 DUP2 DUP7 PUSH2 0x4A6 JUMP JUMPDEST SWAP1 POP DUP2 DUP2 SUB PUSH1 0x20 DUP4 ADD MSTORE PUSH2 0x51C DUP2 DUP6 PUSH2 0x4A6 JUMP JUMPDEST SWAP1 POP PUSH2 0x52B PUSH1 0x40 DUP4 ADD DUP5 PUSH2 0x4DF JUMP JUMPDEST SWAP5 SWAP4 POP POP POP POP JUMP JUMPDEST PUSH1 0x0 PUSH1 0x20 DUP3 ADD SWAP1 POP PUSH2 0x548 PUSH1 0x0 DUP4 ADD DUP5 PUSH2 0x4DF JUMP JUMPDEST SWAP3 SWAP2 POP POP JUMP JUMPDEST PUSH1 0x0 PUSH2 0x558 PUSH2 0x569 JUMP JUMPDEST SWAP1 POP PUSH2 0x564 DUP3 DUP3 PUSH2 0x6C6 JUMP JUMPDEST SWAP2 SWAP1 POP JUMP JUMPDEST PUSH1 0x0 PUSH1 0x40 MLOAD SWAP1 POP SWAP1 JUMP JUMPDEST PUSH1 0x0 PUSH8 0xFFFFFFFFFFFFFFFF DUP3 GT ISZERO PUSH2 0x58E JUMPI PUSH2 0x58D PUSH2 0x755 JUMP JUMPDEST JUMPDEST PUSH2 0x597 DUP3 PUSH2 0x798 JUMP JUMPDEST SWAP1 POP PUSH1 0x20 DUP2 ADD SWAP1 POP SWAP2 SWAP1 POP JUMP JUMPDEST PUSH1 0x0 DUP2 MLOAD SWAP1 POP SWAP2 SWAP1 POP JUMP JUMPDEST PUSH1 0x0 DUP3 DUP3 MSTORE PUSH1 0x20 DUP3 ADD SWAP1 POP SWAP3 SWAP2 POP POP JUMP JUMPDEST PUSH1 0x0 PUSH2 0x5CB DUP3 PUSH2 0x648 JUMP JUMPDEST SWAP2 POP PUSH2 0x5D6 DUP4 PUSH2 0x648 JUMP JUMPDEST SWAP3 POP DUP3 PUSH32 0xFFFFFFFFFFFFFFFFFFFFFFFFFFFFFFFFFFFFFFFFFFFFFFFFFFFFFFFFFFFFFFFF SUB DUP3 GT ISZERO PUSH2 0x60B JUMPI PUSH2 0x60A PUSH2 0x6F7 JUMP JUMPDEST JUMPDEST DUP3 DUP3 ADD SWAP1 POP SWAP3 SWAP2 POP POP JUMP JUMPDEST PUSH1 0x0 PUSH2 0x621 DUP3 PUSH2 0x628 JUMP JUMPDEST SWAP1 POP SWAP2 SWAP1 POP JUMP JUMPDEST PUSH1 0x0 PUSH20 0xFFFFFFFFFFFFFFFFFFFFFFFFFFFFFFFFFFFFFFFF DUP3 AND SWAP1 POP SWAP2 SWAP1 POP JUMP JUMPDEST PUSH1 0x0 DUP2 SWAP1 POP SWAP2 SWAP1 POP JUMP JUMPDEST DUP3 DUP2 DUP4 CALLDATACOPY PUSH1 0x0 DUP4 DUP4 ADD MSTORE POP POP POP JUMP JUMPDEST PUSH1 0x0 JUMPDEST DUP4 DUP2 LT ISZERO PUSH2 0x67F JUMPI DUP1 DUP3 ADD MLOAD DUP2 DUP5 ADD MSTORE PUSH1 0x20 DUP2 ADD SWAP1 POP PUSH2 0x664 JUMP JUMPDEST DUP4 DUP2 GT ISZERO PUSH2 0x68E JUMPI PUSH1 0x0 DUP5 DUP5 ADD MSTORE JUMPDEST POP POP POP POP JUMP JUMPDEST PUSH1 0x0 PUSH1 0x2 DUP3 DIV SWAP1 POP PUSH1 0x1 DUP3 AND DUP1 PUSH2 0x6AC JUMPI PUSH1 0x7F DUP3 AND SWAP2 POP JUMPDEST PUSH1 0x20 DUP3 LT DUP2 EQ ISZERO PUSH2 0x6C0 JUMPI PUSH2 0x6BF PUSH2 0x726 JUMP JUMPDEST JUMPDEST POP SWAP2 SWAP1 POP JUMP JUMPDEST PUSH2 0x6CF DUP3 PUSH2 0x798 JUMP JUMPDEST DUP2 ADD DUP2 DUP2 LT PUSH8 0xFFFFFFFFFFFFFFFF DUP3 GT OR ISZERO PUSH2 0x6EE JUMPI PUSH2 0x6ED PUSH2 0x755 JUMP JUMPDEST JUMPDEST DUP1 PUSH1 0x40 MSTORE POP POP POP JUMP JUMPDEST PUSH32 0x4E487B7100000000000000000000000000000000000000000000000000000000 PUSH1 0x0 MSTORE PUSH1 0x11 PUSH1 0x4 MSTORE PUSH1 0x24 PUSH1 0x0 REVERT JUMPDEST PUSH32 0x4E487B7100000000000000000000000000000000000000000000000000000000 PUSH1 0x0 MSTORE PUSH1 0x22 PUSH1 0x4 MSTORE PUSH1 0x24 PUSH1 0x0 REVERT JUMPDEST PUSH32 0x4E487B7100000000000000000000000000000000000000000000000000000000 PUSH1 0x0 MSTORE PUSH1 0x41 PUSH1 0x4 MSTORE PUSH1 0x24 PUSH1 0x0 REVERT JUMPDEST PUSH1 0x0 DUP1 REVERT JUMPDEST PUSH1 0x0 DUP1 REVERT JUMPDEST PUSH1 0x0 DUP1 REVERT JUMPDEST PUSH1 0x0 DUP1 REVERT JUMPDEST PUSH1 0x0 PUSH1 0x1F NOT PUSH1 0x1F DUP4 ADD AND SWAP1 POP SWAP2 SWAP1 POP JUMP JUMPDEST PUSH2 0x7B2 DUP2 PUSH2 0x616 JUMP JUMPDEST DUP2 EQ PUSH2 0x7BD JUMPI PUSH1 0x0 DUP1 REVERT JUMPDEST POP JUMP JUMPDEST PUSH2 0x7C9 DUP2 PUSH2 0x648 JUMP JUMPDEST DUP2 EQ PUSH2 0x7D4 JUMPI PUSH1 0x0 DUP1 REVERT JUMPDEST POP JUMP INVALID LOG2 PUSH5 0x6970667358 0x22 SLT KECCAK256 SWAP10 SWAP12 PUSH16 0x5F8ABE5888E560129079D9B5B9152A1C 0xC3 0x2C ADDMOD CALLVALUE POP 0x4D CALLDATALOAD 0xDD 0xE1 0xCE SUB 0xCF 0x29 PUSH5 0x736F6C6343 STOP ADDMOD SMOD STOP CALLER "
				},
				"gasEstimates": {
					"creation": {
						"codeDepositCost": "412200",
						"executionCost": "5455",
						"totalCost": "417655"
					},
					"external": {
						"addStudent(string,string,uint256)": "infinite",
						"studentCount()": "2451",
						"students(address)": "infinite"
					}
				},
				"methodIdentifiers": {
					"addStudent(string,string,uint256)": "9cc8f139",
					"studentCount()": "e581f9ee",
					"students(address)": "a6c807a9"
				}
			},
			"storageLayout": {
				"storage": [
					{
						"astId": 4,
						"contract": "contracts/students.sol:myStudent",
						"label": "studentCount",
						"offset": 0,
						"slot": "0",
						"type": "t_uint256"
					},
					{
						"astId": 9,
						"contract": "contracts/students.sol:myStudent",
						"label": "students",
						"offset": 0,
						"slot": "1",
						"type": "t_mapping(t_address,t_struct(Student)16_storage)"
					}
				],
				"types": {
					"t_address": {
						"encoding": "inplace",
						"label": "address",
						"numberOfBytes": "20"
					},
					"t_mapping(t_address,t_struct(Student)16_storage)": {
						"encoding": "mapping",
						"key": "t_address",
						"label": "mapping(address => struct myStudent.Student)",
						"numberOfBytes": "32",
						"value": "t_struct(Student)16_storage"
					},
					"t_string_storage": {
						"encoding": "bytes",
						"label": "string",
						"numberOfBytes": "32"
					},
					"t_struct(Student)16_storage": {
						"encoding": "inplace",
						"label": "struct myStudent.Student",
						"members": [
							{
								"astId": 11,
								"contract": "contracts/students.sol:myStudent",
								"label": "firstName",
								"offset": 0,
								"slot": "0",
								"type": "t_string_storage"
							},
							{
								"astId": 13,
								"contract": "contracts/students.sol:myStudent",
								"label": "lastName",
								"offset": 0,
								"slot": "1",
								"type": "t_string_storage"
							},
							{
								"astId": 15,
								"contract": "contracts/students.sol:myStudent",
								"label": "_id",
								"offset": 0,
								"slot": "2",
								"type": "t_uint256"
							}
						],
						"numberOfBytes": "96"
					},
					"t_uint256": {
						"encoding": "inplace",
						"label": "uint256",
						"numberOfBytes": "32"
					}
				}
			},
			"userdoc": {
				"kind": "user",
				"methods": {},
				"version": 1
			}
		}
	}
}