{
	"contracts/students.sol": {
		"myStudent": {
			"abi": [
				{
					"inputs": [
						{
							"internalType": "string",
							"name": "firstName",
							"type": "string"
						},
						{
							"internalType": "string",
							"name": "lastName",
							"type": "string"
						},
						{
							"internalType": "uint256",
							"name": "_id",
							"type": "uint256"
						}
					],
					"name": "addStudent",
					"outputs": [],
					"stateMutability": "nonpayable",
					"type": "function"
				},
				{
					"inputs": [],
					"name": "studentCount",
					"outputs": [
						{
							"internalType": "uint256",
							"name": "",
							"type": "uint256"
						}
					],
					"stateMutability": "view",
					"type": "function"
				},
				{
					"inputs": [
						{
							"internalType": "uint256",
							"name": "",
							"type": "uint256"
						}
					],
					"name": "students",
					"outputs": [
						{
							"internalType": "string",
							"name": "firstName",
							"type": "string"
						},
						{
							"internalType": "string",
							"name": "lastName",
							"type": "string"
						},
						{
							"internalType": "uint256",
							"name": "_id",
							"type": "uint256"
						}
					],
					"stateMutability": "view",
					"type": "function"
				}
			],
			"devdoc": {
				"kind": "dev",
				"methods": {},
				"version": 1
			},
			"evm": {
				"assembly": "    /* \"contracts/students.sol\":70:451  contract myStudent{\r... */\n  mstore(0x40, 0x80)\n    /* \"contracts/students.sol\":122:123  0 */\n  0x00\n    /* \"contracts/students.sol\":95:123  uint public studentCount = 0 */\n  dup1\n  sstore\n    /* \"contracts/students.sol\":70:451  contract myStudent{\r... */\n  callvalue\n  dup1\n  iszero\n  tag_1\n  jumpi\n  0x00\n  dup1\n  revert\ntag_1:\n  pop\n  dataSize(sub_0)\n  dup1\n  dataOffset(sub_0)\n  0x00\n  codecopy\n  0x00\n  return\nstop\n\nsub_0: assembly {\n        /* \"contracts/students.sol\":70:451  contract myStudent{\r... */\n      mstore(0x40, 0x80)\n      callvalue\n      dup1\n      iszero\n      tag_1\n      jumpi\n      0x00\n      dup1\n      revert\n    tag_1:\n      pop\n      jumpi(tag_2, lt(calldatasize, 0x04))\n      shr(0xe0, calldataload(0x00))\n      dup1\n      0x06ead22e\n      eq\n      tag_3\n      jumpi\n      dup1\n      0x9cc8f139\n      eq\n      tag_4\n      jumpi\n      dup1\n      0xe581f9ee\n      eq\n      tag_5\n      jumpi\n    tag_2:\n      0x00\n      dup1\n      revert\n        /* \"contracts/students.sol\":130:155  Student[] public students */\n    tag_3:\n      tag_6\n      0x04\n      dup1\n      calldatasize\n      sub\n      dup2\n      add\n      swap1\n      tag_7\n      swap2\n      swap1\n      tag_8\n      jump\t// in\n    tag_7:\n      tag_9\n      jump\t// in\n    tag_6:\n      mload(0x40)\n      tag_10\n      swap4\n      swap3\n      swap2\n      swap1\n      tag_11\n      jump\t// in\n    tag_10:\n      mload(0x40)\n      dup1\n      swap2\n      sub\n      swap1\n      return\n        /* \"contracts/students.sol\":267:448  function addStudent(string memory firstName, string memory lastName, uint _id) public {\r... */\n    tag_4:\n      tag_12\n      0x04\n      dup1\n      calldatasize\n      sub\n      dup2\n      add\n      swap1\n      tag_13\n      swap2\n      swap1\n      tag_14\n      jump\t// in\n    tag_13:\n      tag_15\n      jump\t// in\n    tag_12:\n      stop\n        /* \"contracts/students.sol\":95:123  uint public studentCount = 0 */\n    tag_5:\n      tag_16\n      tag_17\n      jump\t// in\n    tag_16:\n      mload(0x40)\n      tag_18\n      swap2\n      swap1\n      tag_19\n      jump\t// in\n    tag_18:\n      mload(0x40)\n      dup1\n      swap2\n      sub\n      swap1\n      return\n        /* \"contracts/students.sol\":130:155  Student[] public students */\n    tag_9:\n      0x01\n      dup2\n      dup2\n      sload\n      dup2\n      lt\n      tag_20\n      jumpi\n      0x00\n      dup1\n      revert\n    tag_20:\n      swap1\n      0x00\n      mstore\n      keccak256(0x00, 0x20)\n      swap1\n      0x03\n      mul\n      add\n      0x00\n      swap2\n      pop\n      swap1\n      pop\n      dup1\n      0x00\n      add\n      dup1\n      sload\n      tag_22\n      swap1\n      tag_23\n      jump\t// in\n    tag_22:\n      dup1\n      0x1f\n      add\n      0x20\n      dup1\n      swap2\n      div\n      mul\n      0x20\n      add\n      mload(0x40)\n      swap1\n      dup2\n      add\n      0x40\n      mstore\n      dup1\n      swap3\n      swap2\n      swap1\n      dup2\n      dup2\n      mstore\n      0x20\n      add\n      dup3\n      dup1\n      sload\n      tag_24\n      swap1\n      tag_23\n      jump\t// in\n    tag_24:\n      dup1\n      iszero\n      tag_25\n      jumpi\n      dup1\n      0x1f\n      lt\n      tag_26\n      jumpi\n      0x0100\n      dup1\n      dup4\n      sload\n      div\n      mul\n      dup4\n      mstore\n      swap2\n      0x20\n      add\n      swap2\n      jump(tag_25)\n    tag_26:\n      dup3\n      add\n      swap2\n      swap1\n      0x00\n      mstore\n      keccak256(0x00, 0x20)\n      swap1\n    tag_27:\n      dup2\n      sload\n      dup2\n      mstore\n      swap1\n      0x01\n      add\n      swap1\n      0x20\n      add\n      dup1\n      dup4\n      gt\n      tag_27\n      jumpi\n      dup3\n      swap1\n      sub\n      0x1f\n      and\n      dup3\n      add\n      swap2\n    tag_25:\n      pop\n      pop\n      pop\n      pop\n      pop\n      swap1\n      dup1\n      0x01\n      add\n      dup1\n      sload\n      tag_28\n      swap1\n      tag_23\n      jump\t// in\n    tag_28:\n      dup1\n      0x1f\n      add\n      0x20\n      dup1\n      swap2\n      div\n      mul\n      0x20\n      add\n      mload(0x40)\n      swap1\n      dup2\n      add\n      0x40\n      mstore\n      dup1\n      swap3\n      swap2\n      swap1\n      dup2\n      dup2\n      mstore\n      0x20\n      add\n      dup3\n      dup1\n      sload\n      tag_29\n      swap1\n      tag_23\n      jump\t// in\n    tag_29:\n      dup1\n      iszero\n      tag_30\n      jumpi\n      dup1\n      0x1f\n      lt\n      tag_31\n      jumpi\n      0x0100\n      dup1\n      dup4\n      sload\n      div\n      mul\n      dup4\n      mstore\n      swap2\n      0x20\n      add\n      swap2\n      jump(tag_30)\n    tag_31:\n      dup3\n      add\n      swap2\n      swap1\n      0x00\n      mstore\n      keccak256(0x00, 0x20)\n      swap1\n    tag_32:\n      dup2\n      sload\n      dup2\n      mstore\n      swap1\n      0x01\n      add\n      swap1\n      0x20\n      add\n      dup1\n      dup4\n      gt\n      tag_32\n      jumpi\n      dup3\n      swap1\n      sub\n      0x1f\n      and\n      dup3\n      add\n      swap2\n    tag_30:\n      pop\n      pop\n      pop\n      pop\n      pop\n      swap1\n      dup1\n      0x02\n      add\n      sload\n      swap1\n      pop\n      dup4\n      jump\t// out\n        /* \"contracts/students.sol\":267:448  function addStudent(string memory firstName, string memory lastName, uint _id) public {\r... */\n    tag_15:\n        /* \"contracts/students.sol\":364:372  students */\n      0x01\n        /* \"contracts/students.sol\":378:411  Student(firstName, lastName, _id) */\n      mload(0x40)\n      dup1\n      0x60\n      add\n      0x40\n      mstore\n      dup1\n        /* \"contracts/students.sol\":386:395  firstName */\n      dup6\n        /* \"contracts/students.sol\":378:411  Student(firstName, lastName, _id) */\n      dup2\n      mstore\n      0x20\n      add\n        /* \"contracts/students.sol\":397:405  lastName */\n      dup5\n        /* \"contracts/students.sol\":378:411  Student(firstName, lastName, _id) */\n      dup2\n      mstore\n      0x20\n      add\n        /* \"contracts/students.sol\":407:410  _id */\n      dup4\n        /* \"contracts/students.sol\":378:411  Student(firstName, lastName, _id) */\n      dup2\n      mstore\n      pop\n        /* \"contracts/students.sol\":364:412  students.push(Student(firstName, lastName, _id)) */\n      swap1\n      dup1\n      0x01\n      dup2\n      sload\n      add\n      dup1\n      dup3\n      sstore\n      dup1\n      swap2\n      pop\n      pop\n      0x01\n      swap1\n      sub\n      swap1\n      0x00\n      mstore\n      keccak256(0x00, 0x20)\n      swap1\n      0x03\n      mul\n      add\n      0x00\n      swap1\n      swap2\n      swap1\n      swap2\n      swap1\n      swap2\n      pop\n      0x00\n      dup3\n      add\n      mload\n      dup2\n      0x00\n      add\n      swap1\n      dup1\n      mload\n      swap1\n      0x20\n      add\n      swap1\n      tag_35\n      swap3\n      swap2\n      swap1\n      tag_36\n      jump\t// in\n    tag_35:\n      pop\n      0x20\n      dup3\n      add\n      mload\n      dup2\n      0x01\n      add\n      swap1\n      dup1\n      mload\n      swap1\n      0x20\n      add\n      swap1\n      tag_37\n      swap3\n      swap2\n      swap1\n      tag_36\n      jump\t// in\n    tag_37:\n      pop\n      0x40\n      dup3\n      add\n      mload\n      dup2\n      0x02\n      add\n      sstore\n      pop\n      pop\n        /* \"contracts/students.sol\":439:440  1 */\n      0x01\n        /* \"contracts/students.sol\":423:435  studentCount */\n      0x00\n      dup1\n        /* \"contracts/students.sol\":423:440  studentCount += 1 */\n      dup3\n      dup3\n      sload\n      tag_38\n      swap2\n      swap1\n      tag_39\n      jump\t// in\n    tag_38:\n      swap3\n      pop\n      pop\n      dup2\n      swap1\n      sstore\n      pop\n        /* \"contracts/students.sol\":267:448  function addStudent(string memory firstName, string memory lastName, uint _id) public {\r... */\n      pop\n      pop\n      pop\n      jump\t// out\n        /* \"contracts/students.sol\":95:123  uint public studentCount = 0 */\n    tag_17:\n      sload(0x00)\n      dup2\n      jump\t// out\n    tag_36:\n      dup3\n      dup1\n      sload\n      tag_40\n      swap1\n      tag_23\n      jump\t// in\n    tag_40:\n      swap1\n      0x00\n      mstore\n      keccak256(0x00, 0x20)\n      swap1\n      0x1f\n      add\n      0x20\n      swap1\n      div\n      dup2\n      add\n      swap3\n      dup3\n      tag_42\n      jumpi\n      0x00\n      dup6\n      sstore\n      jump(tag_41)\n    tag_42:\n      dup3\n      0x1f\n      lt\n      tag_43\n      jumpi\n      dup1\n      mload\n      not(0xff)\n      and\n      dup4\n      dup1\n      add\n      or\n      dup6\n      sstore\n      jump(tag_41)\n    tag_43:\n      dup3\n      dup1\n      add\n      0x01\n      add\n      dup6\n      sstore\n      dup3\n      iszero\n      tag_41\n      jumpi\n      swap2\n      dup3\n      add\n    tag_44:\n      dup3\n      dup2\n      gt\n      iszero\n      tag_45\n      jumpi\n      dup3\n      mload\n      dup3\n      sstore\n      swap2\n      0x20\n      add\n      swap2\n      swap1\n      0x01\n      add\n      swap1\n      jump(tag_44)\n    tag_45:\n    tag_41:\n      pop\n      swap1\n      pop\n      tag_46\n      swap2\n      swap1\n      tag_47\n      jump\t// in\n    tag_46:\n      pop\n      swap1\n      jump\t// out\n    tag_47:\n    tag_48:\n      dup1\n      dup3\n      gt\n      iszero\n      tag_49\n      jumpi\n      0x00\n      dup2\n      0x00\n      swap1\n      sstore\n      pop\n      0x01\n      add\n      jump(tag_48)\n    tag_49:\n      pop\n      swap1\n      jump\t// out\n        /* \"#utility.yul\":7:419   */\n    tag_51:\n        /* \"#utility.yul\":85:90   */\n      0x00\n        /* \"#utility.yul\":110:176   */\n      tag_53\n        /* \"#utility.yul\":126:175   */\n      tag_54\n        /* \"#utility.yul\":168:174   */\n      dup5\n        /* \"#utility.yul\":126:175   */\n      tag_55\n      jump\t// in\n    tag_54:\n        /* \"#utility.yul\":110:176   */\n      tag_56\n      jump\t// in\n    tag_53:\n        /* \"#utility.yul\":101:176   */\n      swap1\n      pop\n        /* \"#utility.yul\":199:205   */\n      dup3\n        /* \"#utility.yul\":192:197   */\n      dup2\n        /* \"#utility.yul\":185:206   */\n      mstore\n        /* \"#utility.yul\":237:241   */\n      0x20\n        /* \"#utility.yul\":230:235   */\n      dup2\n        /* \"#utility.yul\":226:242   */\n      add\n        /* \"#utility.yul\":275:278   */\n      dup5\n        /* \"#utility.yul\":266:272   */\n      dup5\n        /* \"#utility.yul\":261:264   */\n      dup5\n        /* \"#utility.yul\":257:273   */\n      add\n        /* \"#utility.yul\":254:279   */\n      gt\n        /* \"#utility.yul\":251:363   */\n      iszero\n      tag_57\n      jumpi\n        /* \"#utility.yul\":282:361   */\n      tag_58\n      tag_59\n      jump\t// in\n    tag_58:\n        /* \"#utility.yul\":251:363   */\n    tag_57:\n        /* \"#utility.yul\":372:413   */\n      tag_60\n        /* \"#utility.yul\":406:412   */\n      dup5\n        /* \"#utility.yul\":401:404   */\n      dup3\n        /* \"#utility.yul\":396:399   */\n      dup6\n        /* \"#utility.yul\":372:413   */\n      tag_61\n      jump\t// in\n    tag_60:\n        /* \"#utility.yul\":91:419   */\n      pop\n        /* \"#utility.yul\":7:419   */\n      swap4\n      swap3\n      pop\n      pop\n      pop\n      jump\t// out\n        /* \"#utility.yul\":439:779   */\n    tag_62:\n        /* \"#utility.yul\":495:500   */\n      0x00\n        /* \"#utility.yul\":544:547   */\n      dup3\n        /* \"#utility.yul\":537:541   */\n      0x1f\n        /* \"#utility.yul\":529:535   */\n      dup4\n        /* \"#utility.yul\":525:542   */\n      add\n        /* \"#utility.yul\":521:548   */\n      slt\n        /* \"#utility.yul\":511:633   */\n      tag_64\n      jumpi\n        /* \"#utility.yul\":552:631   */\n      tag_65\n      tag_66\n      jump\t// in\n    tag_65:\n        /* \"#utility.yul\":511:633   */\n    tag_64:\n        /* \"#utility.yul\":669:675   */\n      dup2\n        /* \"#utility.yul\":656:676   */\n      calldataload\n        /* \"#utility.yul\":694:773   */\n      tag_67\n        /* \"#utility.yul\":769:772   */\n      dup5\n        /* \"#utility.yul\":761:767   */\n      dup3\n        /* \"#utility.yul\":754:758   */\n      0x20\n        /* \"#utility.yul\":746:752   */\n      dup7\n        /* \"#utility.yul\":742:759   */\n      add\n        /* \"#utility.yul\":694:773   */\n      tag_51\n      jump\t// in\n    tag_67:\n        /* \"#utility.yul\":685:773   */\n      swap2\n      pop\n        /* \"#utility.yul\":501:779   */\n      pop\n        /* \"#utility.yul\":439:779   */\n      swap3\n      swap2\n      pop\n      pop\n      jump\t// out\n        /* \"#utility.yul\":785:924   */\n    tag_68:\n        /* \"#utility.yul\":831:836   */\n      0x00\n        /* \"#utility.yul\":869:875   */\n      dup2\n        /* \"#utility.yul\":856:876   */\n      calldataload\n        /* \"#utility.yul\":847:876   */\n      swap1\n      pop\n        /* \"#utility.yul\":885:918   */\n      tag_70\n        /* \"#utility.yul\":912:917   */\n      dup2\n        /* \"#utility.yul\":885:918   */\n      tag_71\n      jump\t// in\n    tag_70:\n        /* \"#utility.yul\":785:924   */\n      swap3\n      swap2\n      pop\n      pop\n      jump\t// out\n        /* \"#utility.yul\":930:1909   */\n    tag_14:\n        /* \"#utility.yul\":1027:1033   */\n      0x00\n        /* \"#utility.yul\":1035:1041   */\n      dup1\n        /* \"#utility.yul\":1043:1049   */\n      0x00\n        /* \"#utility.yul\":1092:1094   */\n      0x60\n        /* \"#utility.yul\":1080:1089   */\n      dup5\n        /* \"#utility.yul\":1071:1078   */\n      dup7\n        /* \"#utility.yul\":1067:1090   */\n      sub\n        /* \"#utility.yul\":1063:1095   */\n      slt\n        /* \"#utility.yul\":1060:1179   */\n      iszero\n      tag_73\n      jumpi\n        /* \"#utility.yul\":1098:1177   */\n      tag_74\n      tag_75\n      jump\t// in\n    tag_74:\n        /* \"#utility.yul\":1060:1179   */\n    tag_73:\n        /* \"#utility.yul\":1246:1247   */\n      0x00\n        /* \"#utility.yul\":1235:1244   */\n      dup5\n        /* \"#utility.yul\":1231:1248   */\n      add\n        /* \"#utility.yul\":1218:1249   */\n      calldataload\n        /* \"#utility.yul\":1276:1294   */\n      0xffffffffffffffff\n        /* \"#utility.yul\":1268:1274   */\n      dup2\n        /* \"#utility.yul\":1265:1295   */\n      gt\n        /* \"#utility.yul\":1262:1379   */\n      iszero\n      tag_76\n      jumpi\n        /* \"#utility.yul\":1298:1377   */\n      tag_77\n      tag_78\n      jump\t// in\n    tag_77:\n        /* \"#utility.yul\":1262:1379   */\n    tag_76:\n        /* \"#utility.yul\":1403:1466   */\n      tag_79\n        /* \"#utility.yul\":1458:1465   */\n      dup7\n        /* \"#utility.yul\":1449:1455   */\n      dup3\n        /* \"#utility.yul\":1438:1447   */\n      dup8\n        /* \"#utility.yul\":1434:1456   */\n      add\n        /* \"#utility.yul\":1403:1466   */\n      tag_62\n      jump\t// in\n    tag_79:\n        /* \"#utility.yul\":1393:1466   */\n      swap4\n      pop\n        /* \"#utility.yul\":1189:1476   */\n      pop\n        /* \"#utility.yul\":1543:1545   */\n      0x20\n        /* \"#utility.yul\":1532:1541   */\n      dup5\n        /* \"#utility.yul\":1528:1546   */\n      add\n        /* \"#utility.yul\":1515:1547   */\n      calldataload\n        /* \"#utility.yul\":1574:1592   */\n      0xffffffffffffffff\n        /* \"#utility.yul\":1566:1572   */\n      dup2\n        /* \"#utility.yul\":1563:1593   */\n      gt\n        /* \"#utility.yul\":1560:1677   */\n      iszero\n      tag_80\n      jumpi\n        /* \"#utility.yul\":1596:1675   */\n      tag_81\n      tag_78\n      jump\t// in\n    tag_81:\n        /* \"#utility.yul\":1560:1677   */\n    tag_80:\n        /* \"#utility.yul\":1701:1764   */\n      tag_82\n        /* \"#utility.yul\":1756:1763   */\n      dup7\n        /* \"#utility.yul\":1747:1753   */\n      dup3\n        /* \"#utility.yul\":1736:1745   */\n      dup8\n        /* \"#utility.yul\":1732:1754   */\n      add\n        /* \"#utility.yul\":1701:1764   */\n      tag_62\n      jump\t// in\n    tag_82:\n        /* \"#utility.yul\":1691:1764   */\n      swap3\n      pop\n        /* \"#utility.yul\":1486:1774   */\n      pop\n        /* \"#utility.yul\":1813:1815   */\n      0x40\n        /* \"#utility.yul\":1839:1892   */\n      tag_83\n        /* \"#utility.yul\":1884:1891   */\n      dup7\n        /* \"#utility.yul\":1875:1881   */\n      dup3\n        /* \"#utility.yul\":1864:1873   */\n      dup8\n        /* \"#utility.yul\":1860:1882   */\n      add\n        /* \"#utility.yul\":1839:1892   */\n      tag_68\n      jump\t// in\n    tag_83:\n        /* \"#utility.yul\":1829:1892   */\n      swap2\n      pop\n        /* \"#utility.yul\":1784:1902   */\n      pop\n        /* \"#utility.yul\":930:1909   */\n      swap3\n      pop\n      swap3\n      pop\n      swap3\n      jump\t// out\n        /* \"#utility.yul\":1915:2244   */\n    tag_8:\n        /* \"#utility.yul\":1974:1980   */\n      0x00\n        /* \"#utility.yul\":2023:2025   */\n      0x20\n        /* \"#utility.yul\":2011:2020   */\n      dup3\n        /* \"#utility.yul\":2002:2009   */\n      dup5\n        /* \"#utility.yul\":1998:2021   */\n      sub\n        /* \"#utility.yul\":1994:2026   */\n      slt\n        /* \"#utility.yul\":1991:2110   */\n      iszero\n      tag_85\n      jumpi\n        /* \"#utility.yul\":2029:2108   */\n      tag_86\n      tag_75\n      jump\t// in\n    tag_86:\n        /* \"#utility.yul\":1991:2110   */\n    tag_85:\n        /* \"#utility.yul\":2149:2150   */\n      0x00\n        /* \"#utility.yul\":2174:2227   */\n      tag_87\n        /* \"#utility.yul\":2219:2226   */\n      dup5\n        /* \"#utility.yul\":2210:2216   */\n      dup3\n        /* \"#utility.yul\":2199:2208   */\n      dup6\n        /* \"#utility.yul\":2195:2217   */\n      add\n        /* \"#utility.yul\":2174:2227   */\n      tag_68\n      jump\t// in\n    tag_87:\n        /* \"#utility.yul\":2164:2227   */\n      swap2\n      pop\n        /* \"#utility.yul\":2120:2237   */\n      pop\n        /* \"#utility.yul\":1915:2244   */\n      swap3\n      swap2\n      pop\n      pop\n      jump\t// out\n        /* \"#utility.yul\":2250:2614   */\n    tag_88:\n        /* \"#utility.yul\":2338:2341   */\n      0x00\n        /* \"#utility.yul\":2366:2405   */\n      tag_90\n        /* \"#utility.yul\":2399:2404   */\n      dup3\n        /* \"#utility.yul\":2366:2405   */\n      tag_91\n      jump\t// in\n    tag_90:\n        /* \"#utility.yul\":2421:2492   */\n      tag_92\n        /* \"#utility.yul\":2485:2491   */\n      dup2\n        /* \"#utility.yul\":2480:2483   */\n      dup6\n        /* \"#utility.yul\":2421:2492   */\n      tag_93\n      jump\t// in\n    tag_92:\n        /* \"#utility.yul\":2414:2492   */\n      swap4\n      pop\n        /* \"#utility.yul\":2501:2553   */\n      tag_94\n        /* \"#utility.yul\":2546:2552   */\n      dup2\n        /* \"#utility.yul\":2541:2544   */\n      dup6\n        /* \"#utility.yul\":2534:2538   */\n      0x20\n        /* \"#utility.yul\":2527:2532   */\n      dup7\n        /* \"#utility.yul\":2523:2539   */\n      add\n        /* \"#utility.yul\":2501:2553   */\n      tag_95\n      jump\t// in\n    tag_94:\n        /* \"#utility.yul\":2578:2607   */\n      tag_96\n        /* \"#utility.yul\":2600:2606   */\n      dup2\n        /* \"#utility.yul\":2578:2607   */\n      tag_97\n      jump\t// in\n    tag_96:\n        /* \"#utility.yul\":2573:2576   */\n      dup5\n        /* \"#utility.yul\":2569:2608   */\n      add\n        /* \"#utility.yul\":2562:2608   */\n      swap2\n      pop\n        /* \"#utility.yul\":2342:2614   */\n      pop\n        /* \"#utility.yul\":2250:2614   */\n      swap3\n      swap2\n      pop\n      pop\n      jump\t// out\n        /* \"#utility.yul\":2620:2738   */\n    tag_98:\n        /* \"#utility.yul\":2707:2731   */\n      tag_100\n        /* \"#utility.yul\":2725:2730   */\n      dup2\n        /* \"#utility.yul\":2707:2731   */\n      tag_101\n      jump\t// in\n    tag_100:\n        /* \"#utility.yul\":2702:2705   */\n      dup3\n        /* \"#utility.yul\":2695:2732   */\n      mstore\n        /* \"#utility.yul\":2620:2738   */\n      pop\n      pop\n      jump\t// out\n        /* \"#utility.yul\":2744:3368   */\n    tag_11:\n        /* \"#utility.yul\":2933:2937   */\n      0x00\n        /* \"#utility.yul\":2971:2973   */\n      0x60\n        /* \"#utility.yul\":2960:2969   */\n      dup3\n        /* \"#utility.yul\":2956:2974   */\n      add\n        /* \"#utility.yul\":2948:2974   */\n      swap1\n      pop\n        /* \"#utility.yul\":3020:3029   */\n      dup2\n        /* \"#utility.yul\":3014:3018   */\n      dup2\n        /* \"#utility.yul\":3010:3030   */\n      sub\n        /* \"#utility.yul\":3006:3007   */\n      0x00\n        /* \"#utility.yul\":2995:3004   */\n      dup4\n        /* \"#utility.yul\":2991:3008   */\n      add\n        /* \"#utility.yul\":2984:3031   */\n      mstore\n        /* \"#utility.yul\":3048:3126   */\n      tag_103\n        /* \"#utility.yul\":3121:3125   */\n      dup2\n        /* \"#utility.yul\":3112:3118   */\n      dup7\n        /* \"#utility.yul\":3048:3126   */\n      tag_88\n      jump\t// in\n    tag_103:\n        /* \"#utility.yul\":3040:3126   */\n      swap1\n      pop\n        /* \"#utility.yul\":3173:3182   */\n      dup2\n        /* \"#utility.yul\":3167:3171   */\n      dup2\n        /* \"#utility.yul\":3163:3183   */\n      sub\n        /* \"#utility.yul\":3158:3160   */\n      0x20\n        /* \"#utility.yul\":3147:3156   */\n      dup4\n        /* \"#utility.yul\":3143:3161   */\n      add\n        /* \"#utility.yul\":3136:3184   */\n      mstore\n        /* \"#utility.yul\":3201:3279   */\n      tag_104\n        /* \"#utility.yul\":3274:3278   */\n      dup2\n        /* \"#utility.yul\":3265:3271   */\n      dup6\n        /* \"#utility.yul\":3201:3279   */\n      tag_88\n      jump\t// in\n    tag_104:\n        /* \"#utility.yul\":3193:3279   */\n      swap1\n      pop\n        /* \"#utility.yul\":3289:3361   */\n      tag_105\n        /* \"#utility.yul\":3357:3359   */\n      0x40\n        /* \"#utility.yul\":3346:3355   */\n      dup4\n        /* \"#utility.yul\":3342:3360   */\n      add\n        /* \"#utility.yul\":3333:3339   */\n      dup5\n        /* \"#utility.yul\":3289:3361   */\n      tag_98\n      jump\t// in\n    tag_105:\n        /* \"#utility.yul\":2744:3368   */\n      swap5\n      swap4\n      pop\n      pop\n      pop\n      pop\n      jump\t// out\n        /* \"#utility.yul\":3374:3596   */\n    tag_19:\n        /* \"#utility.yul\":3467:3471   */\n      0x00\n        /* \"#utility.yul\":3505:3507   */\n      0x20\n        /* \"#utility.yul\":3494:3503   */\n      dup3\n        /* \"#utility.yul\":3490:3508   */\n      add\n        /* \"#utility.yul\":3482:3508   */\n      swap1\n      pop\n        /* \"#utility.yul\":3518:3589   */\n      tag_107\n        /* \"#utility.yul\":3586:3587   */\n      0x00\n        /* \"#utility.yul\":3575:3584   */\n      dup4\n        /* \"#utility.yul\":3571:3588   */\n      add\n        /* \"#utility.yul\":3562:3568   */\n      dup5\n        /* \"#utility.yul\":3518:3589   */\n      tag_98\n      jump\t// in\n    tag_107:\n        /* \"#utility.yul\":3374:3596   */\n      swap3\n      swap2\n      pop\n      pop\n      jump\t// out\n        /* \"#utility.yul\":3602:3731   */\n    tag_56:\n        /* \"#utility.yul\":3636:3642   */\n      0x00\n        /* \"#utility.yul\":3663:3683   */\n      tag_109\n      tag_110\n      jump\t// in\n    tag_109:\n        /* \"#utility.yul\":3653:3683   */\n      swap1\n      pop\n        /* \"#utility.yul\":3692:3725   */\n      tag_111\n        /* \"#utility.yul\":3720:3724   */\n      dup3\n        /* \"#utility.yul\":3712:3718   */\n      dup3\n        /* \"#utility.yul\":3692:3725   */\n      tag_112\n      jump\t// in\n    tag_111:\n        /* \"#utility.yul\":3602:3731   */\n      swap2\n      swap1\n      pop\n      jump\t// out\n        /* \"#utility.yul\":3737:3812   */\n    tag_110:\n        /* \"#utility.yul\":3770:3776   */\n      0x00\n        /* \"#utility.yul\":3803:3805   */\n      0x40\n        /* \"#utility.yul\":3797:3806   */\n      mload\n        /* \"#utility.yul\":3787:3806   */\n      swap1\n      pop\n        /* \"#utility.yul\":3737:3812   */\n      swap1\n      jump\t// out\n        /* \"#utility.yul\":3818:4126   */\n    tag_55:\n        /* \"#utility.yul\":3880:3884   */\n      0x00\n        /* \"#utility.yul\":3970:3988   */\n      0xffffffffffffffff\n        /* \"#utility.yul\":3962:3968   */\n      dup3\n        /* \"#utility.yul\":3959:3989   */\n      gt\n        /* \"#utility.yul\":3956:4012   */\n      iszero\n      tag_115\n      jumpi\n        /* \"#utility.yul\":3992:4010   */\n      tag_116\n      tag_117\n      jump\t// in\n    tag_116:\n        /* \"#utility.yul\":3956:4012   */\n    tag_115:\n        /* \"#utility.yul\":4030:4059   */\n      tag_118\n        /* \"#utility.yul\":4052:4058   */\n      dup3\n        /* \"#utility.yul\":4030:4059   */\n      tag_97\n      jump\t// in\n    tag_118:\n        /* \"#utility.yul\":4022:4059   */\n      swap1\n      pop\n        /* \"#utility.yul\":4114:4118   */\n      0x20\n        /* \"#utility.yul\":4108:4112   */\n      dup2\n        /* \"#utility.yul\":4104:4119   */\n      add\n        /* \"#utility.yul\":4096:4119   */\n      swap1\n      pop\n        /* \"#utility.yul\":3818:4126   */\n      swap2\n      swap1\n      pop\n      jump\t// out\n        /* \"#utility.yul\":4132:4231   */\n    tag_91:\n        /* \"#utility.yul\":4184:4190   */\n      0x00\n        /* \"#utility.yul\":4218:4223   */\n      dup2\n        /* \"#utility.yul\":4212:4224   */\n      mload\n        /* \"#utility.yul\":4202:4224   */\n      swap1\n      pop\n        /* \"#utility.yul\":4132:4231   */\n      swap2\n      swap1\n      pop\n      jump\t// out\n        /* \"#utility.yul\":4237:4406   */\n    tag_93:\n        /* \"#utility.yul\":4321:4332   */\n      0x00\n        /* \"#utility.yul\":4355:4361   */\n      dup3\n        /* \"#utility.yul\":4350:4353   */\n      dup3\n        /* \"#utility.yul\":4343:4362   */\n      mstore\n        /* \"#utility.yul\":4395:4399   */\n      0x20\n        /* \"#utility.yul\":4390:4393   */\n      dup3\n        /* \"#utility.yul\":4386:4400   */\n      add\n        /* \"#utility.yul\":4371:4400   */\n      swap1\n      pop\n        /* \"#utility.yul\":4237:4406   */\n      swap3\n      swap2\n      pop\n      pop\n      jump\t// out\n        /* \"#utility.yul\":4412:4717   */\n    tag_39:\n        /* \"#utility.yul\":4452:4455   */\n      0x00\n        /* \"#utility.yul\":4471:4491   */\n      tag_122\n        /* \"#utility.yul\":4489:4490   */\n      dup3\n        /* \"#utility.yul\":4471:4491   */\n      tag_101\n      jump\t// in\n    tag_122:\n        /* \"#utility.yul\":4466:4491   */\n      swap2\n      pop\n        /* \"#utility.yul\":4505:4525   */\n      tag_123\n        /* \"#utility.yul\":4523:4524   */\n      dup4\n        /* \"#utility.yul\":4505:4525   */\n      tag_101\n      jump\t// in\n    tag_123:\n        /* \"#utility.yul\":4500:4525   */\n      swap3\n      pop\n        /* \"#utility.yul\":4659:4660   */\n      dup3\n        /* \"#utility.yul\":4591:4657   */\n      0xffffffffffffffffffffffffffffffffffffffffffffffffffffffffffffffff\n        /* \"#utility.yul\":4587:4661   */\n      sub\n        /* \"#utility.yul\":4584:4585   */\n      dup3\n        /* \"#utility.yul\":4581:4662   */\n      gt\n        /* \"#utility.yul\":4578:4685   */\n      iszero\n      tag_124\n      jumpi\n        /* \"#utility.yul\":4665:4683   */\n      tag_125\n      tag_126\n      jump\t// in\n    tag_125:\n        /* \"#utility.yul\":4578:4685   */\n    tag_124:\n        /* \"#utility.yul\":4709:4710   */\n      dup3\n        /* \"#utility.yul\":4706:4707   */\n      dup3\n        /* \"#utility.yul\":4702:4711   */\n      add\n        /* \"#utility.yul\":4695:4711   */\n      swap1\n      pop\n        /* \"#utility.yul\":4412:4717   */\n      swap3\n      swap2\n      pop\n      pop\n      jump\t// out\n        /* \"#utility.yul\":4723:4800   */\n    tag_101:\n        /* \"#utility.yul\":4760:4767   */\n      0x00\n        /* \"#utility.yul\":4789:4794   */\n      dup2\n        /* \"#utility.yul\":4778:4794   */\n      swap1\n      pop\n        /* \"#utility.yul\":4723:4800   */\n      swap2\n      swap1\n      pop\n      jump\t// out\n        /* \"#utility.yul\":4806:4960   */\n    tag_61:\n        /* \"#utility.yul\":4890:4896   */\n      dup3\n        /* \"#utility.yul\":4885:4888   */\n      dup2\n        /* \"#utility.yul\":4880:4883   */\n      dup4\n        /* \"#utility.yul\":4867:4897   */\n      calldatacopy\n        /* \"#utility.yul\":4952:4953   */\n      0x00\n        /* \"#utility.yul\":4943:4949   */\n      dup4\n        /* \"#utility.yul\":4938:4941   */\n      dup4\n        /* \"#utility.yul\":4934:4950   */\n      add\n        /* \"#utility.yul\":4927:4954   */\n      mstore\n        /* \"#utility.yul\":4806:4960   */\n      pop\n      pop\n      pop\n      jump\t// out\n        /* \"#utility.yul\":4966:5273   */\n    tag_95:\n        /* \"#utility.yul\":5034:5035   */\n      0x00\n        /* \"#utility.yul\":5044:5157   */\n    tag_130:\n        /* \"#utility.yul\":5058:5064   */\n      dup4\n        /* \"#utility.yul\":5055:5056   */\n      dup2\n        /* \"#utility.yul\":5052:5065   */\n      lt\n        /* \"#utility.yul\":5044:5157   */\n      iszero\n      tag_132\n      jumpi\n        /* \"#utility.yul\":5143:5144   */\n      dup1\n        /* \"#utility.yul\":5138:5141   */\n      dup3\n        /* \"#utility.yul\":5134:5145   */\n      add\n        /* \"#utility.yul\":5128:5146   */\n      mload\n        /* \"#utility.yul\":5124:5125   */\n      dup2\n        /* \"#utility.yul\":5119:5122   */\n      dup5\n        /* \"#utility.yul\":5115:5126   */\n      add\n        /* \"#utility.yul\":5108:5147   */\n      mstore\n        /* \"#utility.yul\":5080:5082   */\n      0x20\n        /* \"#utility.yul\":5077:5078   */\n      dup2\n        /* \"#utility.yul\":5073:5083   */\n      add\n        /* \"#utility.yul\":5068:5083   */\n      swap1\n      pop\n        /* \"#utility.yul\":5044:5157   */\n      jump(tag_130)\n    tag_132:\n        /* \"#utility.yul\":5175:5181   */\n      dup4\n        /* \"#utility.yul\":5172:5173   */\n      dup2\n        /* \"#utility.yul\":5169:5182   */\n      gt\n        /* \"#utility.yul\":5166:5267   */\n      iszero\n      tag_133\n      jumpi\n        /* \"#utility.yul\":5255:5256   */\n      0x00\n        /* \"#utility.yul\":5246:5252   */\n      dup5\n        /* \"#utility.yul\":5241:5244   */\n      dup5\n        /* \"#utility.yul\":5237:5253   */\n      add\n        /* \"#utility.yul\":5230:5257   */\n      mstore\n        /* \"#utility.yul\":5166:5267   */\n    tag_133:\n        /* \"#utility.yul\":5015:5273   */\n      pop\n        /* \"#utility.yul\":4966:5273   */\n      pop\n      pop\n      pop\n      jump\t// out\n        /* \"#utility.yul\":5279:5599   */\n    tag_23:\n        /* \"#utility.yul\":5323:5329   */\n      0x00\n        /* \"#utility.yul\":5360:5361   */\n      0x02\n        /* \"#utility.yul\":5354:5358   */\n      dup3\n        /* \"#utility.yul\":5350:5362   */\n      div\n        /* \"#utility.yul\":5340:5362   */\n      swap1\n      pop\n        /* \"#utility.yul\":5407:5408   */\n      0x01\n        /* \"#utility.yul\":5401:5405   */\n      dup3\n        /* \"#utility.yul\":5397:5409   */\n      and\n        /* \"#utility.yul\":5428:5446   */\n      dup1\n        /* \"#utility.yul\":5418:5499   */\n      tag_135\n      jumpi\n        /* \"#utility.yul\":5484:5488   */\n      0x7f\n        /* \"#utility.yul\":5476:5482   */\n      dup3\n        /* \"#utility.yul\":5472:5489   */\n      and\n        /* \"#utility.yul\":5462:5489   */\n      swap2\n      pop\n        /* \"#utility.yul\":5418:5499   */\n    tag_135:\n        /* \"#utility.yul\":5546:5548   */\n      0x20\n        /* \"#utility.yul\":5538:5544   */\n      dup3\n        /* \"#utility.yul\":5535:5549   */\n      lt\n        /* \"#utility.yul\":5515:5533   */\n      dup2\n        /* \"#utility.yul\":5512:5550   */\n      eq\n        /* \"#utility.yul\":5509:5593   */\n      iszero\n      tag_136\n      jumpi\n        /* \"#utility.yul\":5565:5583   */\n      tag_137\n      tag_138\n      jump\t// in\n    tag_137:\n        /* \"#utility.yul\":5509:5593   */\n    tag_136:\n        /* \"#utility.yul\":5330:5599   */\n      pop\n        /* \"#utility.yul\":5279:5599   */\n      swap2\n      swap1\n      pop\n      jump\t// out\n        /* \"#utility.yul\":5605:5886   */\n    tag_112:\n        /* \"#utility.yul\":5688:5715   */\n      tag_140\n        /* \"#utility.yul\":5710:5714   */\n      dup3\n        /* \"#utility.yul\":5688:5715   */\n      tag_97\n      jump\t// in\n    tag_140:\n        /* \"#utility.yul\":5680:5686   */\n      dup2\n        /* \"#utility.yul\":5676:5716   */\n      add\n        /* \"#utility.yul\":5818:5824   */\n      dup2\n        /* \"#utility.yul\":5806:5816   */\n      dup2\n        /* \"#utility.yul\":5803:5825   */\n      lt\n        /* \"#utility.yul\":5782:5800   */\n      0xffffffffffffffff\n        /* \"#utility.yul\":5770:5780   */\n      dup3\n        /* \"#utility.yul\":5767:5801   */\n      gt\n        /* \"#utility.yul\":5764:5826   */\n      or\n        /* \"#utility.yul\":5761:5849   */\n      iszero\n      tag_141\n      jumpi\n        /* \"#utility.yul\":5829:5847   */\n      tag_142\n      tag_117\n      jump\t// in\n    tag_142:\n        /* \"#utility.yul\":5761:5849   */\n    tag_141:\n        /* \"#utility.yul\":5869:5879   */\n      dup1\n        /* \"#utility.yul\":5865:5867   */\n      0x40\n        /* \"#utility.yul\":5858:5880   */\n      mstore\n        /* \"#utility.yul\":5648:5886   */\n      pop\n        /* \"#utility.yul\":5605:5886   */\n      pop\n      pop\n      jump\t// out\n        /* \"#utility.yul\":5892:6072   */\n    tag_126:\n        /* \"#utility.yul\":5940:6017   */\n      0x4e487b7100000000000000000000000000000000000000000000000000000000\n        /* \"#utility.yul\":5937:5938   */\n      0x00\n        /* \"#utility.yul\":5930:6018   */\n      mstore\n        /* \"#utility.yul\":6037:6041   */\n      0x11\n        /* \"#utility.yul\":6034:6035   */\n      0x04\n        /* \"#utility.yul\":6027:6042   */\n      mstore\n        /* \"#utility.yul\":6061:6065   */\n      0x24\n        /* \"#utility.yul\":6058:6059   */\n      0x00\n        /* \"#utility.yul\":6051:6066   */\n      revert\n        /* \"#utility.yul\":6078:6258   */\n    tag_138:\n        /* \"#utility.yul\":6126:6203   */\n      0x4e487b7100000000000000000000000000000000000000000000000000000000\n        /* \"#utility.yul\":6123:6124   */\n      0x00\n        /* \"#utility.yul\":6116:6204   */\n      mstore\n        /* \"#utility.yul\":6223:6227   */\n      0x22\n        /* \"#utility.yul\":6220:6221   */\n      0x04\n        /* \"#utility.yul\":6213:6228   */\n      mstore\n        /* \"#utility.yul\":6247:6251   */\n      0x24\n        /* \"#utility.yul\":6244:6245   */\n      0x00\n        /* \"#utility.yul\":6237:6252   */\n      revert\n        /* \"#utility.yul\":6264:6444   */\n    tag_117:\n        /* \"#utility.yul\":6312:6389   */\n      0x4e487b7100000000000000000000000000000000000000000000000000000000\n        /* \"#utility.yul\":6309:6310   */\n      0x00\n        /* \"#utility.yul\":6302:6390   */\n      mstore\n        /* \"#utility.yul\":6409:6413   */\n      0x41\n        /* \"#utility.yul\":6406:6407   */\n      0x04\n        /* \"#utility.yul\":6399:6414   */\n      mstore\n        /* \"#utility.yul\":6433:6437   */\n      0x24\n        /* \"#utility.yul\":6430:6431   */\n      0x00\n        /* \"#utility.yul\":6423:6438   */\n      revert\n        /* \"#utility.yul\":6450:6567   */\n    tag_66:\n        /* \"#utility.yul\":6559:6560   */\n      0x00\n        /* \"#utility.yul\":6556:6557   */\n      dup1\n        /* \"#utility.yul\":6549:6561   */\n      revert\n        /* \"#utility.yul\":6573:6690   */\n    tag_59:\n        /* \"#utility.yul\":6682:6683   */\n      0x00\n        /* \"#utility.yul\":6679:6680   */\n      dup1\n        /* \"#utility.yul\":6672:6684   */\n      revert\n        /* \"#utility.yul\":6696:6813   */\n    tag_78:\n        /* \"#utility.yul\":6805:6806   */\n      0x00\n        /* \"#utility.yul\":6802:6803   */\n      dup1\n        /* \"#utility.yul\":6795:6807   */\n      revert\n        /* \"#utility.yul\":6819:6936   */\n    tag_75:\n        /* \"#utility.yul\":6928:6929   */\n      0x00\n        /* \"#utility.yul\":6925:6926   */\n      dup1\n        /* \"#utility.yul\":6918:6930   */\n      revert\n        /* \"#utility.yul\":6942:7044   */\n    tag_97:\n        /* \"#utility.yul\":6983:6989   */\n      0x00\n        /* \"#utility.yul\":7034:7036   */\n      0x1f\n        /* \"#utility.yul\":7030:7037   */\n      not\n        /* \"#utility.yul\":7025:7027   */\n      0x1f\n        /* \"#utility.yul\":7018:7023   */\n      dup4\n        /* \"#utility.yul\":7014:7028   */\n      add\n        /* \"#utility.yul\":7010:7038   */\n      and\n        /* \"#utility.yul\":7000:7038   */\n      swap1\n      pop\n        /* \"#utility.yul\":6942:7044   */\n      swap2\n      swap1\n      pop\n      jump\t// out\n        /* \"#utility.yul\":7050:7172   */\n    tag_71:\n        /* \"#utility.yul\":7123:7147   */\n      tag_152\n        /* \"#utility.yul\":7141:7146   */\n      dup2\n        /* \"#utility.yul\":7123:7147   */\n      tag_101\n      jump\t// in\n    tag_152:\n        /* \"#utility.yul\":7116:7121   */\n      dup2\n        /* \"#utility.yul\":7113:7148   */\n      eq\n        /* \"#utility.yul\":7103:7166   */\n      tag_153\n      jumpi\n        /* \"#utility.yul\":7162:7163   */\n      0x00\n        /* \"#utility.yul\":7159:7160   */\n      dup1\n        /* \"#utility.yul\":7152:7164   */\n      revert\n        /* \"#utility.yul\":7103:7166   */\n    tag_153:\n        /* \"#utility.yul\":7050:7172   */\n      pop\n      jump\t// out\n\n    auxdata: 0xa2646970667358221220395ef7ac1ce4c903158c379765012e662a2872959cfdd8e25255ae532ba1666c64736f6c63430008070033\n}\n",
				"bytecode": {
					"linkReferences": {},
					"object": "60806040526000805534801561001457600080fd5b506107aa806100246000396000f3fe608060405234801561001057600080fd5b50600436106100415760003560e01c806306ead22e146100465780639cc8f13914610078578063e581f9ee14610094575b600080fd5b610060600480360381019061005b919061045f565b6100b2565b60405161006f939291906104d4565b60405180910390f35b610092600480360381019061008d91906103d4565b6101fc565b005b61009c6102a6565b6040516100a99190610519565b60405180910390f35b600181815481106100c257600080fd5b90600052602060002090600302016000915090508060000180546100e590610648565b80601f016020809104026020016040519081016040528092919081815260200182805461011190610648565b801561015e5780601f106101335761010080835404028352916020019161015e565b820191906000526020600020905b81548152906001019060200180831161014157829003601f168201915b50505050509080600101805461017390610648565b80601f016020809104026020016040519081016040528092919081815260200182805461019f90610648565b80156101ec5780601f106101c1576101008083540402835291602001916101ec565b820191906000526020600020905b8154815290600101906020018083116101cf57829003601f168201915b5050505050908060020154905083565b60016040518060600160405280858152602001848152602001838152509080600181540180825580915050600190039060005260206000209060030201600090919091909150600082015181600001908051906020019061025e9291906102ac565b50602082015181600101908051906020019061027b9291906102ac565b50604082015181600201555050600160008082825461029a91906105a6565b92505081905550505050565b60005481565b8280546102b890610648565b90600052602060002090601f0160209004810192826102da5760008555610321565b82601f106102f357805160ff1916838001178555610321565b82800160010185558215610321579182015b82811115610320578251825591602001919060010190610305565b5b50905061032e9190610332565b5090565b5b8082111561034b576000816000905550600101610333565b5090565b600061036261035d84610559565b610534565b90508281526020810184848401111561037e5761037d61073d565b5b610389848285610606565b509392505050565b600082601f8301126103a6576103a5610738565b5b81356103b684826020860161034f565b91505092915050565b6000813590506103ce8161075d565b92915050565b6000806000606084860312156103ed576103ec610747565b5b600084013567ffffffffffffffff81111561040b5761040a610742565b5b61041786828701610391565b935050602084013567ffffffffffffffff81111561043857610437610742565b5b61044486828701610391565b9250506040610455868287016103bf565b9150509250925092565b60006020828403121561047557610474610747565b5b6000610483848285016103bf565b91505092915050565b60006104978261058a565b6104a18185610595565b93506104b1818560208601610615565b6104ba8161074c565b840191505092915050565b6104ce816105fc565b82525050565b600060608201905081810360008301526104ee818661048c565b90508181036020830152610502818561048c565b905061051160408301846104c5565b949350505050565b600060208201905061052e60008301846104c5565b92915050565b600061053e61054f565b905061054a828261067a565b919050565b6000604051905090565b600067ffffffffffffffff82111561057457610573610709565b5b61057d8261074c565b9050602081019050919050565b600081519050919050565b600082825260208201905092915050565b60006105b1826105fc565b91506105bc836105fc565b9250827fffffffffffffffffffffffffffffffffffffffffffffffffffffffffffffffff038211156105f1576105f06106ab565b5b828201905092915050565b6000819050919050565b82818337600083830152505050565b60005b83811015610633578082015181840152602081019050610618565b83811115610642576000848401525b50505050565b6000600282049050600182168061066057607f821691505b60208210811415610674576106736106da565b5b50919050565b6106838261074c565b810181811067ffffffffffffffff821117156106a2576106a1610709565b5b80604052505050565b7f4e487b7100000000000000000000000000000000000000000000000000000000600052601160045260246000fd5b7f4e487b7100000000000000000000000000000000000000000000000000000000600052602260045260246000fd5b7f4e487b7100000000000000000000000000000000000000000000000000000000600052604160045260246000fd5b600080fd5b600080fd5b600080fd5b600080fd5b6000601f19601f8301169050919050565b610766816105fc565b811461077157600080fd5b5056fea2646970667358221220395ef7ac1ce4c903158c379765012e662a2872959cfdd8e25255ae532ba1666c64736f6c63430008070033",
					"opcodes": "PUSH1 0x80 PUSH1 0x40 MSTORE PUSH1 0x0 DUP1 SSTORE CALLVALUE DUP1 ISZERO PUSH2 0x14 JUMPI PUSH1 0x0 DUP1 REVERT JUMPDEST POP PUSH2 0x7AA DUP1 PUSH2 0x24 PUSH1 0x0 CODECOPY PUSH1 0x0 RETURN INVALID PUSH1 0x80 PUSH1 0x40 MSTORE CALLVALUE DUP1 ISZERO PUSH2 0x10 JUMPI PUSH1 0x0 DUP1 REVERT JUMPDEST POP PUSH1 0x4 CALLDATASIZE LT PUSH2 0x41 JUMPI PUSH1 0x0 CALLDATALOAD PUSH1 0xE0 SHR DUP1 PUSH4 0x6EAD22E EQ PUSH2 0x46 JUMPI DUP1 PUSH4 0x9CC8F139 EQ PUSH2 0x78 JUMPI DUP1 PUSH4 0xE581F9EE EQ PUSH2 0x94 JUMPI JUMPDEST PUSH1 0x0 DUP1 REVERT JUMPDEST PUSH2 0x60 PUSH1 0x4 DUP1 CALLDATASIZE SUB DUP2 ADD SWAP1 PUSH2 0x5B SWAP2 SWAP1 PUSH2 0x45F JUMP JUMPDEST PUSH2 0xB2 JUMP JUMPDEST PUSH1 0x40 MLOAD PUSH2 0x6F SWAP4 SWAP3 SWAP2 SWAP1 PUSH2 0x4D4 JUMP JUMPDEST PUSH1 0x40 MLOAD DUP1 SWAP2 SUB SWAP1 RETURN JUMPDEST PUSH2 0x92 PUSH1 0x4 DUP1 CALLDATASIZE SUB DUP2 ADD SWAP1 PUSH2 0x8D SWAP2 SWAP1 PUSH2 0x3D4 JUMP JUMPDEST PUSH2 0x1FC JUMP JUMPDEST STOP JUMPDEST PUSH2 0x9C PUSH2 0x2A6 JUMP JUMPDEST PUSH1 0x40 MLOAD PUSH2 0xA9 SWAP2 SWAP1 PUSH2 0x519 JUMP JUMPDEST PUSH1 0x40 MLOAD DUP1 SWAP2 SUB SWAP1 RETURN JUMPDEST PUSH1 0x1 DUP2 DUP2 SLOAD DUP2 LT PUSH2 0xC2 JUMPI PUSH1 0x0 DUP1 REVERT JUMPDEST SWAP1 PUSH1 0x0 MSTORE PUSH1 0x20 PUSH1 0x0 KECCAK256 SWAP1 PUSH1 0x3 MUL ADD PUSH1 0x0 SWAP2 POP SWAP1 POP DUP1 PUSH1 0x0 ADD DUP1 SLOAD PUSH2 0xE5 SWAP1 PUSH2 0x648 JUMP JUMPDEST DUP1 PUSH1 0x1F ADD PUSH1 0x20 DUP1 SWAP2 DIV MUL PUSH1 0x20 ADD PUSH1 0x40 MLOAD SWAP1 DUP2 ADD PUSH1 0x40 MSTORE DUP1 SWAP3 SWAP2 SWAP1 DUP2 DUP2 MSTORE PUSH1 0x20 ADD DUP3 DUP1 SLOAD PUSH2 0x111 SWAP1 PUSH2 0x648 JUMP JUMPDEST DUP1 ISZERO PUSH2 0x15E JUMPI DUP1 PUSH1 0x1F LT PUSH2 0x133 JUMPI PUSH2 0x100 DUP1 DUP4 SLOAD DIV MUL DUP4 MSTORE SWAP2 PUSH1 0x20 ADD SWAP2 PUSH2 0x15E JUMP JUMPDEST DUP3 ADD SWAP2 SWAP1 PUSH1 0x0 MSTORE PUSH1 0x20 PUSH1 0x0 KECCAK256 SWAP1 JUMPDEST DUP2 SLOAD DUP2 MSTORE SWAP1 PUSH1 0x1 ADD SWAP1 PUSH1 0x20 ADD DUP1 DUP4 GT PUSH2 0x141 JUMPI DUP3 SWAP1 SUB PUSH1 0x1F AND DUP3 ADD SWAP2 JUMPDEST POP POP POP POP POP SWAP1 DUP1 PUSH1 0x1 ADD DUP1 SLOAD PUSH2 0x173 SWAP1 PUSH2 0x648 JUMP JUMPDEST DUP1 PUSH1 0x1F ADD PUSH1 0x20 DUP1 SWAP2 DIV MUL PUSH1 0x20 ADD PUSH1 0x40 MLOAD SWAP1 DUP2 ADD PUSH1 0x40 MSTORE DUP1 SWAP3 SWAP2 SWAP1 DUP2 DUP2 MSTORE PUSH1 0x20 ADD DUP3 DUP1 SLOAD PUSH2 0x19F SWAP1 PUSH2 0x648 JUMP JUMPDEST DUP1 ISZERO PUSH2 0x1EC JUMPI DUP1 PUSH1 0x1F LT PUSH2 0x1C1 JUMPI PUSH2 0x100 DUP1 DUP4 SLOAD DIV MUL DUP4 MSTORE SWAP2 PUSH1 0x20 ADD SWAP2 PUSH2 0x1EC JUMP JUMPDEST DUP3 ADD SWAP2 SWAP1 PUSH1 0x0 MSTORE PUSH1 0x20 PUSH1 0x0 KECCAK256 SWAP1 JUMPDEST DUP2 SLOAD DUP2 MSTORE SWAP1 PUSH1 0x1 ADD SWAP1 PUSH1 0x20 ADD DUP1 DUP4 GT PUSH2 0x1CF JUMPI DUP3 SWAP1 SUB PUSH1 0x1F AND DUP3 ADD SWAP2 JUMPDEST POP POP POP POP POP SWAP1 DUP1 PUSH1 0x2 ADD SLOAD SWAP1 POP DUP4 JUMP JUMPDEST PUSH1 0x1 PUSH1 0x40 MLOAD DUP1 PUSH1 0x60 ADD PUSH1 0x40 MSTORE DUP1 DUP6 DUP2 MSTORE PUSH1 0x20 ADD DUP5 DUP2 MSTORE PUSH1 0x20 ADD DUP4 DUP2 MSTORE POP SWAP1 DUP1 PUSH1 0x1 DUP2 SLOAD ADD DUP1 DUP3 SSTORE DUP1 SWAP2 POP POP PUSH1 0x1 SWAP1 SUB SWAP1 PUSH1 0x0 MSTORE PUSH1 0x20 PUSH1 0x0 KECCAK256 SWAP1 PUSH1 0x3 MUL ADD PUSH1 0x0 SWAP1 SWAP2 SWAP1 SWAP2 SWAP1 SWAP2 POP PUSH1 0x0 DUP3 ADD MLOAD DUP2 PUSH1 0x0 ADD SWAP1 DUP1 MLOAD SWAP1 PUSH1 0x20 ADD SWAP1 PUSH2 0x25E SWAP3 SWAP2 SWAP1 PUSH2 0x2AC JUMP JUMPDEST POP PUSH1 0x20 DUP3 ADD MLOAD DUP2 PUSH1 0x1 ADD SWAP1 DUP1 MLOAD SWAP1 PUSH1 0x20 ADD SWAP1 PUSH2 0x27B SWAP3 SWAP2 SWAP1 PUSH2 0x2AC JUMP JUMPDEST POP PUSH1 0x40 DUP3 ADD MLOAD DUP2 PUSH1 0x2 ADD SSTORE POP POP PUSH1 0x1 PUSH1 0x0 DUP1 DUP3 DUP3 SLOAD PUSH2 0x29A SWAP2 SWAP1 PUSH2 0x5A6 JUMP JUMPDEST SWAP3 POP POP DUP2 SWAP1 SSTORE POP POP POP POP JUMP JUMPDEST PUSH1 0x0 SLOAD DUP2 JUMP JUMPDEST DUP3 DUP1 SLOAD PUSH2 0x2B8 SWAP1 PUSH2 0x648 JUMP JUMPDEST SWAP1 PUSH1 0x0 MSTORE PUSH1 0x20 PUSH1 0x0 KECCAK256 SWAP1 PUSH1 0x1F ADD PUSH1 0x20 SWAP1 DIV DUP2 ADD SWAP3 DUP3 PUSH2 0x2DA JUMPI PUSH1 0x0 DUP6 SSTORE PUSH2 0x321 JUMP JUMPDEST DUP3 PUSH1 0x1F LT PUSH2 0x2F3 JUMPI DUP1 MLOAD PUSH1 0xFF NOT AND DUP4 DUP1 ADD OR DUP6 SSTORE PUSH2 0x321 JUMP JUMPDEST DUP3 DUP1 ADD PUSH1 0x1 ADD DUP6 SSTORE DUP3 ISZERO PUSH2 0x321 JUMPI SWAP2 DUP3 ADD JUMPDEST DUP3 DUP2 GT ISZERO PUSH2 0x320 JUMPI DUP3 MLOAD DUP3 SSTORE SWAP2 PUSH1 0x20 ADD SWAP2 SWAP1 PUSH1 0x1 ADD SWAP1 PUSH2 0x305 JUMP JUMPDEST JUMPDEST POP SWAP1 POP PUSH2 0x32E SWAP2 SWAP1 PUSH2 0x332 JUMP JUMPDEST POP SWAP1 JUMP JUMPDEST JUMPDEST DUP1 DUP3 GT ISZERO PUSH2 0x34B JUMPI PUSH1 0x0 DUP2 PUSH1 0x0 SWAP1 SSTORE POP PUSH1 0x1 ADD PUSH2 0x333 JUMP JUMPDEST POP SWAP1 JUMP JUMPDEST PUSH1 0x0 PUSH2 0x362 PUSH2 0x35D DUP5 PUSH2 0x559 JUMP JUMPDEST PUSH2 0x534 JUMP JUMPDEST SWAP1 POP DUP3 DUP2 MSTORE PUSH1 0x20 DUP2 ADD DUP5 DUP5 DUP5 ADD GT ISZERO PUSH2 0x37E JUMPI PUSH2 0x37D PUSH2 0x73D JUMP JUMPDEST JUMPDEST PUSH2 0x389 DUP5 DUP3 DUP6 PUSH2 0x606 JUMP JUMPDEST POP SWAP4 SWAP3 POP POP POP JUMP JUMPDEST PUSH1 0x0 DUP3 PUSH1 0x1F DUP4 ADD SLT PUSH2 0x3A6 JUMPI PUSH2 0x3A5 PUSH2 0x738 JUMP JUMPDEST JUMPDEST DUP2 CALLDATALOAD PUSH2 0x3B6 DUP5 DUP3 PUSH1 0x20 DUP7 ADD PUSH2 0x34F JUMP JUMPDEST SWAP2 POP POP SWAP3 SWAP2 POP POP JUMP JUMPDEST PUSH1 0x0 DUP2 CALLDATALOAD SWAP1 POP PUSH2 0x3CE DUP2 PUSH2 0x75D JUMP JUMPDEST SWAP3 SWAP2 POP POP JUMP JUMPDEST PUSH1 0x0 DUP1 PUSH1 0x0 PUSH1 0x60 DUP5 DUP7 SUB SLT ISZERO PUSH2 0x3ED JUMPI PUSH2 0x3EC PUSH2 0x747 JUMP JUMPDEST JUMPDEST PUSH1 0x0 DUP5 ADD CALLDATALOAD PUSH8 0xFFFFFFFFFFFFFFFF DUP2 GT ISZERO PUSH2 0x40B JUMPI PUSH2 0x40A PUSH2 0x742 JUMP JUMPDEST JUMPDEST PUSH2 0x417 DUP7 DUP3 DUP8 ADD PUSH2 0x391 JUMP JUMPDEST SWAP4 POP POP PUSH1 0x20 DUP5 ADD CALLDATALOAD PUSH8 0xFFFFFFFFFFFFFFFF DUP2 GT ISZERO PUSH2 0x438 JUMPI PUSH2 0x437 PUSH2 0x742 JUMP JUMPDEST JUMPDEST PUSH2 0x444 DUP7 DUP3 DUP8 ADD PUSH2 0x391 JUMP JUMPDEST SWAP3 POP POP PUSH1 0x40 PUSH2 0x455 DUP7 DUP3 DUP8 ADD PUSH2 0x3BF JUMP JUMPDEST SWAP2 POP POP SWAP3 POP SWAP3 POP SWAP3 JUMP JUMPDEST PUSH1 0x0 PUSH1 0x20 DUP3 DUP5 SUB SLT ISZERO PUSH2 0x475 JUMPI PUSH2 0x474 PUSH2 0x747 JUMP JUMPDEST JUMPDEST PUSH1 0x0 PUSH2 0x483 DUP5 DUP3 DUP6 ADD PUSH2 0x3BF JUMP JUMPDEST SWAP2 POP POP SWAP3 SWAP2 POP POP JUMP JUMPDEST PUSH1 0x0 PUSH2 0x497 DUP3 PUSH2 0x58A JUMP JUMPDEST PUSH2 0x4A1 DUP2 DUP6 PUSH2 0x595 JUMP JUMPDEST SWAP4 POP PUSH2 0x4B1 DUP2 DUP6 PUSH1 0x20 DUP7 ADD PUSH2 0x615 JUMP JUMPDEST PUSH2 0x4BA DUP2 PUSH2 0x74C JUMP JUMPDEST DUP5 ADD SWAP2 POP POP SWAP3 SWAP2 POP POP JUMP JUMPDEST PUSH2 0x4CE DUP2 PUSH2 0x5FC JUMP JUMPDEST DUP3 MSTORE POP POP JUMP JUMPDEST PUSH1 0x0 PUSH1 0x60 DUP3 ADD SWAP1 POP DUP2 DUP2 SUB PUSH1 0x0 DUP4 ADD MSTORE PUSH2 0x4EE DUP2 DUP7 PUSH2 0x48C JUMP JUMPDEST SWAP1 POP DUP2 DUP2 SUB PUSH1 0x20 DUP4 ADD MSTORE PUSH2 0x502 DUP2 DUP6 PUSH2 0x48C JUMP JUMPDEST SWAP1 POP PUSH2 0x511 PUSH1 0x40 DUP4 ADD DUP5 PUSH2 0x4C5 JUMP JUMPDEST SWAP5 SWAP4 POP POP POP POP JUMP JUMPDEST PUSH1 0x0 PUSH1 0x20 DUP3 ADD SWAP1 POP PUSH2 0x52E PUSH1 0x0 DUP4 ADD DUP5 PUSH2 0x4C5 JUMP JUMPDEST SWAP3 SWAP2 POP POP JUMP JUMPDEST PUSH1 0x0 PUSH2 0x53E PUSH2 0x54F JUMP JUMPDEST SWAP1 POP PUSH2 0x54A DUP3 DUP3 PUSH2 0x67A JUMP JUMPDEST SWAP2 SWAP1 POP JUMP JUMPDEST PUSH1 0x0 PUSH1 0x40 MLOAD SWAP1 POP SWAP1 JUMP JUMPDEST PUSH1 0x0 PUSH8 0xFFFFFFFFFFFFFFFF DUP3 GT ISZERO PUSH2 0x574 JUMPI PUSH2 0x573 PUSH2 0x709 JUMP JUMPDEST JUMPDEST PUSH2 0x57D DUP3 PUSH2 0x74C JUMP JUMPDEST SWAP1 POP PUSH1 0x20 DUP2 ADD SWAP1 POP SWAP2 SWAP1 POP JUMP JUMPDEST PUSH1 0x0 DUP2 MLOAD SWAP1 POP SWAP2 SWAP1 POP JUMP JUMPDEST PUSH1 0x0 DUP3 DUP3 MSTORE PUSH1 0x20 DUP3 ADD SWAP1 POP SWAP3 SWAP2 POP POP JUMP JUMPDEST PUSH1 0x0 PUSH2 0x5B1 DUP3 PUSH2 0x5FC JUMP JUMPDEST SWAP2 POP PUSH2 0x5BC DUP4 PUSH2 0x5FC JUMP JUMPDEST SWAP3 POP DUP3 PUSH32 0xFFFFFFFFFFFFFFFFFFFFFFFFFFFFFFFFFFFFFFFFFFFFFFFFFFFFFFFFFFFFFFFF SUB DUP3 GT ISZERO PUSH2 0x5F1 JUMPI PUSH2 0x5F0 PUSH2 0x6AB JUMP JUMPDEST JUMPDEST DUP3 DUP3 ADD SWAP1 POP SWAP3 SWAP2 POP POP JUMP JUMPDEST PUSH1 0x0 DUP2 SWAP1 POP SWAP2 SWAP1 POP JUMP JUMPDEST DUP3 DUP2 DUP4 CALLDATACOPY PUSH1 0x0 DUP4 DUP4 ADD MSTORE POP POP POP JUMP JUMPDEST PUSH1 0x0 JUMPDEST DUP4 DUP2 LT ISZERO PUSH2 0x633 JUMPI DUP1 DUP3 ADD MLOAD DUP2 DUP5 ADD MSTORE PUSH1 0x20 DUP2 ADD SWAP1 POP PUSH2 0x618 JUMP JUMPDEST DUP4 DUP2 GT ISZERO PUSH2 0x642 JUMPI PUSH1 0x0 DUP5 DUP5 ADD MSTORE JUMPDEST POP POP POP POP JUMP JUMPDEST PUSH1 0x0 PUSH1 0x2 DUP3 DIV SWAP1 POP PUSH1 0x1 DUP3 AND DUP1 PUSH2 0x660 JUMPI PUSH1 0x7F DUP3 AND SWAP2 POP JUMPDEST PUSH1 0x20 DUP3 LT DUP2 EQ ISZERO PUSH2 0x674 JUMPI PUSH2 0x673 PUSH2 0x6DA JUMP JUMPDEST JUMPDEST POP SWAP2 SWAP1 POP JUMP JUMPDEST PUSH2 0x683 DUP3 PUSH2 0x74C JUMP JUMPDEST DUP2 ADD DUP2 DUP2 LT PUSH8 0xFFFFFFFFFFFFFFFF DUP3 GT OR ISZERO PUSH2 0x6A2 JUMPI PUSH2 0x6A1 PUSH2 0x709 JUMP JUMPDEST JUMPDEST DUP1 PUSH1 0x40 MSTORE POP POP POP JUMP JUMPDEST PUSH32 0x4E487B7100000000000000000000000000000000000000000000000000000000 PUSH1 0x0 MSTORE PUSH1 0x11 PUSH1 0x4 MSTORE PUSH1 0x24 PUSH1 0x0 REVERT JUMPDEST PUSH32 0x4E487B7100000000000000000000000000000000000000000000000000000000 PUSH1 0x0 MSTORE PUSH1 0x22 PUSH1 0x4 MSTORE PUSH1 0x24 PUSH1 0x0 REVERT JUMPDEST PUSH32 0x4E487B7100000000000000000000000000000000000000000000000000000000 PUSH1 0x0 MSTORE PUSH1 0x41 PUSH1 0x4 MSTORE PUSH1 0x24 PUSH1 0x0 REVERT JUMPDEST PUSH1 0x0 DUP1 REVERT JUMPDEST PUSH1 0x0 DUP1 REVERT JUMPDEST PUSH1 0x0 DUP1 REVERT JUMPDEST PUSH1 0x0 DUP1 REVERT JUMPDEST PUSH1 0x0 PUSH1 0x1F NOT PUSH1 0x1F DUP4 ADD AND SWAP1 POP SWAP2 SWAP1 POP JUMP JUMPDEST PUSH2 0x766 DUP2 PUSH2 0x5FC JUMP JUMPDEST DUP2 EQ PUSH2 0x771 JUMPI PUSH1 0x0 DUP1 REVERT JUMPDEST POP JUMP INVALID LOG2 PUSH5 0x6970667358 0x22 SLT KECCAK256 CODECOPY 0x5E 0xF7 0xAC SHR 0xE4 0xC9 SUB ISZERO DUP13 CALLDATACOPY SWAP8 PUSH6 0x12E662A2872 SWAP6 SWAP13 REVERT 0xD8 0xE2 MSTORE SSTORE 0xAE MSTORE8 0x2B LOG1 PUSH7 0x6C64736F6C6343 STOP ADDMOD SMOD STOP CALLER "
				},
				"gasEstimates": {
					"creation": {
						"codeDepositCost": "392400",
						"executionCost": "5436",
						"totalCost": "397836"
					},
					"external": {
						"addStudent(string,string,uint256)": "infinite",
						"studentCount()": "2451",
						"students(uint256)": "infinite"
					}
				},
				"methodIdentifiers": {
					"addStudent(string,string,uint256)": "9cc8f139",
					"studentCount()": "e581f9ee",
					"students(uint256)": "06ead22e"
				}
			},
			"storageLayout": {
				"storage": [
					{
						"astId": 4,
						"contract": "contracts/students.sol:myStudent",
						"label": "studentCount",
						"offset": 0,
						"slot": "0",
						"type": "t_uint256"
					},
					{
						"astId": 8,
						"contract": "contracts/students.sol:myStudent",
						"label": "students",
						"offset": 0,
						"slot": "1",
						"type": "t_array(t_struct(Student)15_storage)dyn_storage"
					}
				],
				"types": {
					"t_array(t_struct(Student)15_storage)dyn_storage": {
						"base": "t_struct(Student)15_storage",
						"encoding": "dynamic_array",
						"label": "struct myStudent.Student[]",
						"numberOfBytes": "32"
					},
					"t_string_storage": {
						"encoding": "bytes",
						"label": "string",
						"numberOfBytes": "32"
					},
					"t_struct(Student)15_storage": {
						"encoding": "inplace",
						"label": "struct myStudent.Student",
						"members": [
							{
								"astId": 10,
								"contract": "contracts/students.sol:myStudent",
								"label": "firstName",
								"offset": 0,
								"slot": "0",
								"type": "t_string_storage"
							},
							{
								"astId": 12,
								"contract": "contracts/students.sol:myStudent",
								"label": "lastName",
								"offset": 0,
								"slot": "1",
								"type": "t_string_storage"
							},
							{
								"astId": 14,
								"contract": "contracts/students.sol:myStudent",
								"label": "_id",
								"offset": 0,
								"slot": "2",
								"type": "t_uint256"
							}
						],
						"numberOfBytes": "96"
					},
					"t_uint256": {
						"encoding": "inplace",
						"label": "uint256",
						"numberOfBytes": "32"
					}
				}
			},
			"userdoc": {
				"kind": "user",
				"methods": {},
				"version": 1
			}
		}
	}
}