{
	"contracts/students.sol": {
		"myStudent": {
			"abi": [
				{
					"inputs": [
						{
							"internalType": "string",
							"name": "firstName",
							"type": "string"
						},
						{
							"internalType": "string",
							"name": "lastName",
							"type": "string"
						},
						{
							"internalType": "uint256",
							"name": "_id",
							"type": "uint256"
						}
					],
					"name": "addStudent",
					"outputs": [],
					"stateMutability": "nonpayable",
					"type": "function"
				},
				{
					"inputs": [
						{
							"internalType": "uint256",
							"name": "_id",
							"type": "uint256"
						}
					],
					"name": "getStudentId",
					"outputs": [
						{
							"components": [
								{
									"internalType": "string",
									"name": "firstName",
									"type": "string"
								},
								{
									"internalType": "enum myStudent.section",
									"name": "StudentSection",
									"type": "uint8"
								},
								{
									"internalType": "string",
									"name": "lastName",
									"type": "string"
								},
								{
									"internalType": "uint256",
									"name": "_id",
									"type": "uint256"
								}
							],
							"internalType": "struct myStudent.Student",
							"name": "",
							"type": "tuple"
						}
					],
					"stateMutability": "view",
					"type": "function"
				},
				{
					"inputs": [
						{
							"internalType": "uint256",
							"name": "",
							"type": "uint256"
						}
					],
					"name": "id",
					"outputs": [
						{
							"internalType": "string",
							"name": "firstName",
							"type": "string"
						},
						{
							"internalType": "enum myStudent.section",
							"name": "StudentSection",
							"type": "uint8"
						},
						{
							"internalType": "string",
							"name": "lastName",
							"type": "string"
						},
						{
							"internalType": "uint256",
							"name": "_id",
							"type": "uint256"
						}
					],
					"stateMutability": "view",
					"type": "function"
				},
				{
					"inputs": [],
					"name": "studentCount",
					"outputs": [
						{
							"internalType": "uint256",
							"name": "",
							"type": "uint256"
						}
					],
					"stateMutability": "view",
					"type": "function"
				}
			],
			"devdoc": {
				"kind": "dev",
				"methods": {},
				"version": 1
			},
			"evm": {
				"assembly": "    /* \"contracts/students.sol\":70:920  contract myStudent{\r... */\n  mstore(0x40, 0x80)\n    /* \"contracts/students.sol\":122:123  0 */\n  0x00\n    /* \"contracts/students.sol\":95:123  uint public studentCount = 0 */\n  dup1\n  sstore\n    /* \"contracts/students.sol\":70:920  contract myStudent{\r... */\n  callvalue\n  dup1\n  iszero\n  tag_1\n  jumpi\n  0x00\n  dup1\n  revert\ntag_1:\n  pop\n  dataSize(sub_0)\n  dup1\n  dataOffset(sub_0)\n  0x00\n  codecopy\n  0x00\n  return\nstop\n\nsub_0: assembly {\n        /* \"contracts/students.sol\":70:920  contract myStudent{\r... */\n      mstore(0x40, 0x80)\n      callvalue\n      dup1\n      iszero\n      tag_1\n      jumpi\n      0x00\n      dup1\n      revert\n    tag_1:\n      pop\n      jumpi(tag_2, lt(calldatasize, 0x04))\n      shr(0xe0, calldataload(0x00))\n      dup1\n      0x3cac51fb\n      eq\n      tag_3\n      jumpi\n      dup1\n      0x7d3c40c8\n      eq\n      tag_4\n      jumpi\n      dup1\n      0x9cc8f139\n      eq\n      tag_5\n      jumpi\n      dup1\n      0xe581f9ee\n      eq\n      tag_6\n      jumpi\n    tag_2:\n      0x00\n      dup1\n      revert\n        /* \"contracts/students.sol\":782:903  function getStudentId ( uint256 _id) public view  returns ( Student memory )  { \r... */\n    tag_3:\n      tag_7\n      0x04\n      dup1\n      calldatasize\n      sub\n      dup2\n      add\n      swap1\n      tag_8\n      swap2\n      swap1\n      tag_9\n      jump\t// in\n    tag_8:\n      tag_10\n      jump\t// in\n    tag_7:\n      mload(0x40)\n      tag_11\n      swap2\n      swap1\n      tag_12\n      jump\t// in\n    tag_11:\n      mload(0x40)\n      dup1\n      swap2\n      sub\n      swap1\n      return\n        /* \"contracts/students.sol\":130:168  mapping (uint256 => Student) public id */\n    tag_4:\n      tag_13\n      0x04\n      dup1\n      calldatasize\n      sub\n      dup2\n      add\n      swap1\n      tag_14\n      swap2\n      swap1\n      tag_9\n      jump\t// in\n    tag_14:\n      tag_15\n      jump\t// in\n    tag_13:\n      mload(0x40)\n      tag_16\n      swap5\n      swap4\n      swap3\n      swap2\n      swap1\n      tag_17\n      jump\t// in\n    tag_16:\n      mload(0x40)\n      dup1\n      swap2\n      sub\n      swap1\n      return\n        /* \"contracts/students.sol\":434:725  function addStudent(string memory firstName, string memory lastName, uint256 _id) public {\r... */\n    tag_5:\n      tag_18\n      0x04\n      dup1\n      calldatasize\n      sub\n      dup2\n      add\n      swap1\n      tag_19\n      swap2\n      swap1\n      tag_20\n      jump\t// in\n    tag_19:\n      tag_21\n      jump\t// in\n    tag_18:\n      stop\n        /* \"contracts/students.sol\":95:123  uint public studentCount = 0 */\n    tag_6:\n      tag_22\n      tag_23\n      jump\t// in\n    tag_22:\n      mload(0x40)\n      tag_24\n      swap2\n      swap1\n      tag_25\n      jump\t// in\n    tag_24:\n      mload(0x40)\n      dup1\n      swap2\n      sub\n      swap1\n      return\n        /* \"contracts/students.sol\":782:903  function getStudentId ( uint256 _id) public view  returns ( Student memory )  { \r... */\n    tag_10:\n        /* \"contracts/students.sol\":842:856  Student memory */\n      tag_26\n      tag_27\n      jump\t// in\n    tag_26:\n        /* \"contracts/students.sol\":878:880  id */\n      0x01\n        /* \"contracts/students.sol\":878:886  id[ _id] */\n      0x00\n        /* \"contracts/students.sol\":882:885  _id */\n      dup4\n        /* \"contracts/students.sol\":878:886  id[ _id] */\n      dup2\n      mstore\n      0x20\n      add\n      swap1\n      dup2\n      mstore\n      0x20\n      add\n      0x00\n      keccak256\n        /* \"contracts/students.sol\":871:886  return id[ _id] */\n      mload(0x40)\n      dup1\n      0x80\n      add\n      0x40\n      mstore\n      swap1\n      dup2\n      0x00\n      dup3\n      add\n      dup1\n      sload\n      tag_29\n      swap1\n      tag_30\n      jump\t// in\n    tag_29:\n      dup1\n      0x1f\n      add\n      0x20\n      dup1\n      swap2\n      div\n      mul\n      0x20\n      add\n      mload(0x40)\n      swap1\n      dup2\n      add\n      0x40\n      mstore\n      dup1\n      swap3\n      swap2\n      swap1\n      dup2\n      dup2\n      mstore\n      0x20\n      add\n      dup3\n      dup1\n      sload\n      tag_31\n      swap1\n      tag_30\n      jump\t// in\n    tag_31:\n      dup1\n      iszero\n      tag_32\n      jumpi\n      dup1\n      0x1f\n      lt\n      tag_33\n      jumpi\n      0x0100\n      dup1\n      dup4\n      sload\n      div\n      mul\n      dup4\n      mstore\n      swap2\n      0x20\n      add\n      swap2\n      jump(tag_32)\n    tag_33:\n      dup3\n      add\n      swap2\n      swap1\n      0x00\n      mstore\n      keccak256(0x00, 0x20)\n      swap1\n    tag_34:\n      dup2\n      sload\n      dup2\n      mstore\n      swap1\n      0x01\n      add\n      swap1\n      0x20\n      add\n      dup1\n      dup4\n      gt\n      tag_34\n      jumpi\n      dup3\n      swap1\n      sub\n      0x1f\n      and\n      dup3\n      add\n      swap2\n    tag_32:\n      pop\n      pop\n      pop\n      pop\n      pop\n      dup2\n      mstore\n      0x20\n      add\n      0x01\n      dup3\n      add\n      0x00\n      swap1\n      sload\n      swap1\n      0x0100\n      exp\n      swap1\n      div\n      0xff\n      and\n      0x02\n      dup2\n      gt\n      iszero\n      tag_35\n      jumpi\n      tag_36\n      tag_37\n      jump\t// in\n    tag_36:\n    tag_35:\n      0x02\n      dup2\n      gt\n      iszero\n      tag_38\n      jumpi\n      tag_39\n      tag_37\n      jump\t// in\n    tag_39:\n    tag_38:\n      dup2\n      mstore\n      0x20\n      add\n      0x02\n      dup3\n      add\n      dup1\n      sload\n      tag_40\n      swap1\n      tag_30\n      jump\t// in\n    tag_40:\n      dup1\n      0x1f\n      add\n      0x20\n      dup1\n      swap2\n      div\n      mul\n      0x20\n      add\n      mload(0x40)\n      swap1\n      dup2\n      add\n      0x40\n      mstore\n      dup1\n      swap3\n      swap2\n      swap1\n      dup2\n      dup2\n      mstore\n      0x20\n      add\n      dup3\n      dup1\n      sload\n      tag_41\n      swap1\n      tag_30\n      jump\t// in\n    tag_41:\n      dup1\n      iszero\n      tag_42\n      jumpi\n      dup1\n      0x1f\n      lt\n      tag_43\n      jumpi\n      0x0100\n      dup1\n      dup4\n      sload\n      div\n      mul\n      dup4\n      mstore\n      swap2\n      0x20\n      add\n      swap2\n      jump(tag_42)\n    tag_43:\n      dup3\n      add\n      swap2\n      swap1\n      0x00\n      mstore\n      keccak256(0x00, 0x20)\n      swap1\n    tag_44:\n      dup2\n      sload\n      dup2\n      mstore\n      swap1\n      0x01\n      add\n      swap1\n      0x20\n      add\n      dup1\n      dup4\n      gt\n      tag_44\n      jumpi\n      dup3\n      swap1\n      sub\n      0x1f\n      and\n      dup3\n      add\n      swap2\n    tag_42:\n      pop\n      pop\n      pop\n      pop\n      pop\n      dup2\n      mstore\n      0x20\n      add\n      0x03\n      dup3\n      add\n      sload\n      dup2\n      mstore\n      pop\n      pop\n      swap1\n      pop\n        /* \"contracts/students.sol\":782:903  function getStudentId ( uint256 _id) public view  returns ( Student memory )  { \r... */\n      swap2\n      swap1\n      pop\n      jump\t// out\n        /* \"contracts/students.sol\":130:168  mapping (uint256 => Student) public id */\n    tag_15:\n      mstore(0x20, 0x01)\n      dup1\n      0x00\n      mstore\n      keccak256(0x00, 0x40)\n      0x00\n      swap2\n      pop\n      swap1\n      pop\n      dup1\n      0x00\n      add\n      dup1\n      sload\n      tag_45\n      swap1\n      tag_30\n      jump\t// in\n    tag_45:\n      dup1\n      0x1f\n      add\n      0x20\n      dup1\n      swap2\n      div\n      mul\n      0x20\n      add\n      mload(0x40)\n      swap1\n      dup2\n      add\n      0x40\n      mstore\n      dup1\n      swap3\n      swap2\n      swap1\n      dup2\n      dup2\n      mstore\n      0x20\n      add\n      dup3\n      dup1\n      sload\n      tag_46\n      swap1\n      tag_30\n      jump\t// in\n    tag_46:\n      dup1\n      iszero\n      tag_47\n      jumpi\n      dup1\n      0x1f\n      lt\n      tag_48\n      jumpi\n      0x0100\n      dup1\n      dup4\n      sload\n      div\n      mul\n      dup4\n      mstore\n      swap2\n      0x20\n      add\n      swap2\n      jump(tag_47)\n    tag_48:\n      dup3\n      add\n      swap2\n      swap1\n      0x00\n      mstore\n      keccak256(0x00, 0x20)\n      swap1\n    tag_49:\n      dup2\n      sload\n      dup2\n      mstore\n      swap1\n      0x01\n      add\n      swap1\n      0x20\n      add\n      dup1\n      dup4\n      gt\n      tag_49\n      jumpi\n      dup3\n      swap1\n      sub\n      0x1f\n      and\n      dup3\n      add\n      swap2\n    tag_47:\n      pop\n      pop\n      pop\n      pop\n      pop\n      swap1\n      dup1\n      0x01\n      add\n      0x00\n      swap1\n      sload\n      swap1\n      0x0100\n      exp\n      swap1\n      div\n      0xff\n      and\n      swap1\n      dup1\n      0x02\n      add\n      dup1\n      sload\n      tag_50\n      swap1\n      tag_30\n      jump\t// in\n    tag_50:\n      dup1\n      0x1f\n      add\n      0x20\n      dup1\n      swap2\n      div\n      mul\n      0x20\n      add\n      mload(0x40)\n      swap1\n      dup2\n      add\n      0x40\n      mstore\n      dup1\n      swap3\n      swap2\n      swap1\n      dup2\n      dup2\n      mstore\n      0x20\n      add\n      dup3\n      dup1\n      sload\n      tag_51\n      swap1\n      tag_30\n      jump\t// in\n    tag_51:\n      dup1\n      iszero\n      tag_52\n      jumpi\n      dup1\n      0x1f\n      lt\n      tag_53\n      jumpi\n      0x0100\n      dup1\n      dup4\n      sload\n      div\n      mul\n      dup4\n      mstore\n      swap2\n      0x20\n      add\n      swap2\n      jump(tag_52)\n    tag_53:\n      dup3\n      add\n      swap2\n      swap1\n      0x00\n      mstore\n      keccak256(0x00, 0x20)\n      swap1\n    tag_54:\n      dup2\n      sload\n      dup2\n      mstore\n      swap1\n      0x01\n      add\n      swap1\n      0x20\n      add\n      dup1\n      dup4\n      gt\n      tag_54\n      jumpi\n      dup3\n      swap1\n      sub\n      0x1f\n      and\n      dup3\n      add\n      swap2\n    tag_52:\n      pop\n      pop\n      pop\n      pop\n      pop\n      swap1\n      dup1\n      0x03\n      add\n      sload\n      swap1\n      pop\n      dup5\n      jump\t// out\n        /* \"contracts/students.sol\":434:725  function addStudent(string memory firstName, string memory lastName, uint256 _id) public {\r... */\n    tag_21:\n        /* \"contracts/students.sol\":531:578  Student(firstName, section.web3, lastName, _id) */\n      mload(0x40)\n      dup1\n      0x80\n      add\n      0x40\n      mstore\n      dup1\n        /* \"contracts/students.sol\":539:548  firstName */\n      dup5\n        /* \"contracts/students.sol\":531:578  Student(firstName, section.web3, lastName, _id) */\n      dup2\n      mstore\n      0x20\n      add\n        /* \"contracts/students.sol\":550:562  section.web3 */\n      0x01\n        /* \"contracts/students.sol\":531:578  Student(firstName, section.web3, lastName, _id) */\n      0x02\n      dup2\n      gt\n      iszero\n      tag_56\n      jumpi\n      tag_57\n      tag_37\n      jump\t// in\n    tag_57:\n    tag_56:\n      dup2\n      mstore\n      0x20\n      add\n        /* \"contracts/students.sol\":564:572  lastName */\n      dup4\n        /* \"contracts/students.sol\":531:578  Student(firstName, section.web3, lastName, _id) */\n      dup2\n      mstore\n      0x20\n      add\n        /* \"contracts/students.sol\":574:577  _id */\n      dup3\n        /* \"contracts/students.sol\":531:578  Student(firstName, section.web3, lastName, _id) */\n      dup2\n      mstore\n      pop\n      pop\n        /* \"contracts/students.sol\":642:689  Student(firstName, section.web3, lastName, _id) */\n      mload(0x40)\n      dup1\n      0x80\n      add\n      0x40\n      mstore\n      dup1\n        /* \"contracts/students.sol\":650:659  firstName */\n      dup5\n        /* \"contracts/students.sol\":642:689  Student(firstName, section.web3, lastName, _id) */\n      dup2\n      mstore\n      0x20\n      add\n        /* \"contracts/students.sol\":661:673  section.web3 */\n      0x01\n        /* \"contracts/students.sol\":642:689  Student(firstName, section.web3, lastName, _id) */\n      0x02\n      dup2\n      gt\n      iszero\n      tag_58\n      jumpi\n      tag_59\n      tag_37\n      jump\t// in\n    tag_59:\n    tag_58:\n      dup2\n      mstore\n      0x20\n      add\n        /* \"contracts/students.sol\":675:683  lastName */\n      dup4\n        /* \"contracts/students.sol\":642:689  Student(firstName, section.web3, lastName, _id) */\n      dup2\n      mstore\n      0x20\n      add\n        /* \"contracts/students.sol\":685:688  _id */\n      dup3\n        /* \"contracts/students.sol\":642:689  Student(firstName, section.web3, lastName, _id) */\n      dup2\n      mstore\n      pop\n        /* \"contracts/students.sol\":632:634  id */\n      0x01\n        /* \"contracts/students.sol\":632:639  id[_id] */\n      0x00\n        /* \"contracts/students.sol\":635:638  _id */\n      dup4\n        /* \"contracts/students.sol\":632:639  id[_id] */\n      dup2\n      mstore\n      0x20\n      add\n      swap1\n      dup2\n      mstore\n      0x20\n      add\n      0x00\n      keccak256\n        /* \"contracts/students.sol\":632:689  id[_id] = Student(firstName, section.web3, lastName, _id) */\n      0x00\n      dup3\n      add\n      mload\n      dup2\n      0x00\n      add\n      swap1\n      dup1\n      mload\n      swap1\n      0x20\n      add\n      swap1\n      tag_60\n      swap3\n      swap2\n      swap1\n      tag_61\n      jump\t// in\n    tag_60:\n      pop\n      0x20\n      dup3\n      add\n      mload\n      dup2\n      0x01\n      add\n      exp(0x0100, 0x00)\n      dup2\n      sload\n      dup2\n      0xff\n      mul\n      not\n      and\n      swap1\n      dup4\n      0x02\n      dup2\n      gt\n      iszero\n      tag_62\n      jumpi\n      tag_63\n      tag_37\n      jump\t// in\n    tag_63:\n    tag_62:\n      mul\n      or\n      swap1\n      sstore\n      pop\n      0x40\n      dup3\n      add\n      mload\n      dup2\n      0x02\n      add\n      swap1\n      dup1\n      mload\n      swap1\n      0x20\n      add\n      swap1\n      tag_64\n      swap3\n      swap2\n      swap1\n      tag_61\n      jump\t// in\n    tag_64:\n      pop\n      0x60\n      dup3\n      add\n      mload\n      dup2\n      0x03\n      add\n      sstore\n      swap1\n      pop\n      pop\n        /* \"contracts/students.sol\":716:717  1 */\n      0x01\n        /* \"contracts/students.sol\":700:712  studentCount */\n      0x00\n      dup1\n        /* \"contracts/students.sol\":700:717  studentCount += 1 */\n      dup3\n      dup3\n      sload\n      tag_65\n      swap2\n      swap1\n      tag_66\n      jump\t// in\n    tag_65:\n      swap3\n      pop\n      pop\n      dup2\n      swap1\n      sstore\n      pop\n        /* \"contracts/students.sol\":434:725  function addStudent(string memory firstName, string memory lastName, uint256 _id) public {\r... */\n      pop\n      pop\n      pop\n      jump\t// out\n        /* \"contracts/students.sol\":95:123  uint public studentCount = 0 */\n    tag_23:\n      sload(0x00)\n      dup2\n      jump\t// out\n    tag_27:\n      mload(0x40)\n      dup1\n      0x80\n      add\n      0x40\n      mstore\n      dup1\n      0x60\n      dup2\n      mstore\n      0x20\n      add\n      0x00\n      0x02\n      dup2\n      gt\n      iszero\n      tag_67\n      jumpi\n      tag_68\n      tag_37\n      jump\t// in\n    tag_68:\n    tag_67:\n      dup2\n      mstore\n      0x20\n      add\n      0x60\n      dup2\n      mstore\n      0x20\n      add\n      0x00\n      dup2\n      mstore\n      pop\n      swap1\n      jump\t// out\n    tag_61:\n      dup3\n      dup1\n      sload\n      tag_69\n      swap1\n      tag_30\n      jump\t// in\n    tag_69:\n      swap1\n      0x00\n      mstore\n      keccak256(0x00, 0x20)\n      swap1\n      0x1f\n      add\n      0x20\n      swap1\n      div\n      dup2\n      add\n      swap3\n      dup3\n      tag_71\n      jumpi\n      0x00\n      dup6\n      sstore\n      jump(tag_70)\n    tag_71:\n      dup3\n      0x1f\n      lt\n      tag_72\n      jumpi\n      dup1\n      mload\n      not(0xff)\n      and\n      dup4\n      dup1\n      add\n      or\n      dup6\n      sstore\n      jump(tag_70)\n    tag_72:\n      dup3\n      dup1\n      add\n      0x01\n      add\n      dup6\n      sstore\n      dup3\n      iszero\n      tag_70\n      jumpi\n      swap2\n      dup3\n      add\n    tag_73:\n      dup3\n      dup2\n      gt\n      iszero\n      tag_74\n      jumpi\n      dup3\n      mload\n      dup3\n      sstore\n      swap2\n      0x20\n      add\n      swap2\n      swap1\n      0x01\n      add\n      swap1\n      jump(tag_73)\n    tag_74:\n    tag_70:\n      pop\n      swap1\n      pop\n      tag_75\n      swap2\n      swap1\n      tag_76\n      jump\t// in\n    tag_75:\n      pop\n      swap1\n      jump\t// out\n    tag_76:\n    tag_77:\n      dup1\n      dup3\n      gt\n      iszero\n      tag_78\n      jumpi\n      0x00\n      dup2\n      0x00\n      swap1\n      sstore\n      pop\n      0x01\n      add\n      jump(tag_77)\n    tag_78:\n      pop\n      swap1\n      jump\t// out\n        /* \"#utility.yul\":7:419   */\n    tag_80:\n        /* \"#utility.yul\":85:90   */\n      0x00\n        /* \"#utility.yul\":110:176   */\n      tag_82\n        /* \"#utility.yul\":126:175   */\n      tag_83\n        /* \"#utility.yul\":168:174   */\n      dup5\n        /* \"#utility.yul\":126:175   */\n      tag_84\n      jump\t// in\n    tag_83:\n        /* \"#utility.yul\":110:176   */\n      tag_85\n      jump\t// in\n    tag_82:\n        /* \"#utility.yul\":101:176   */\n      swap1\n      pop\n        /* \"#utility.yul\":199:205   */\n      dup3\n        /* \"#utility.yul\":192:197   */\n      dup2\n        /* \"#utility.yul\":185:206   */\n      mstore\n        /* \"#utility.yul\":237:241   */\n      0x20\n        /* \"#utility.yul\":230:235   */\n      dup2\n        /* \"#utility.yul\":226:242   */\n      add\n        /* \"#utility.yul\":275:278   */\n      dup5\n        /* \"#utility.yul\":266:272   */\n      dup5\n        /* \"#utility.yul\":261:264   */\n      dup5\n        /* \"#utility.yul\":257:273   */\n      add\n        /* \"#utility.yul\":254:279   */\n      gt\n        /* \"#utility.yul\":251:363   */\n      iszero\n      tag_86\n      jumpi\n        /* \"#utility.yul\":282:361   */\n      tag_87\n      tag_88\n      jump\t// in\n    tag_87:\n        /* \"#utility.yul\":251:363   */\n    tag_86:\n        /* \"#utility.yul\":372:413   */\n      tag_89\n        /* \"#utility.yul\":406:412   */\n      dup5\n        /* \"#utility.yul\":401:404   */\n      dup3\n        /* \"#utility.yul\":396:399   */\n      dup6\n        /* \"#utility.yul\":372:413   */\n      tag_90\n      jump\t// in\n    tag_89:\n        /* \"#utility.yul\":91:419   */\n      pop\n        /* \"#utility.yul\":7:419   */\n      swap4\n      swap3\n      pop\n      pop\n      pop\n      jump\t// out\n        /* \"#utility.yul\":439:779   */\n    tag_91:\n        /* \"#utility.yul\":495:500   */\n      0x00\n        /* \"#utility.yul\":544:547   */\n      dup3\n        /* \"#utility.yul\":537:541   */\n      0x1f\n        /* \"#utility.yul\":529:535   */\n      dup4\n        /* \"#utility.yul\":525:542   */\n      add\n        /* \"#utility.yul\":521:548   */\n      slt\n        /* \"#utility.yul\":511:633   */\n      tag_93\n      jumpi\n        /* \"#utility.yul\":552:631   */\n      tag_94\n      tag_95\n      jump\t// in\n    tag_94:\n        /* \"#utility.yul\":511:633   */\n    tag_93:\n        /* \"#utility.yul\":669:675   */\n      dup2\n        /* \"#utility.yul\":656:676   */\n      calldataload\n        /* \"#utility.yul\":694:773   */\n      tag_96\n        /* \"#utility.yul\":769:772   */\n      dup5\n        /* \"#utility.yul\":761:767   */\n      dup3\n        /* \"#utility.yul\":754:758   */\n      0x20\n        /* \"#utility.yul\":746:752   */\n      dup7\n        /* \"#utility.yul\":742:759   */\n      add\n        /* \"#utility.yul\":694:773   */\n      tag_80\n      jump\t// in\n    tag_96:\n        /* \"#utility.yul\":685:773   */\n      swap2\n      pop\n        /* \"#utility.yul\":501:779   */\n      pop\n        /* \"#utility.yul\":439:779   */\n      swap3\n      swap2\n      pop\n      pop\n      jump\t// out\n        /* \"#utility.yul\":785:924   */\n    tag_97:\n        /* \"#utility.yul\":831:836   */\n      0x00\n        /* \"#utility.yul\":869:875   */\n      dup2\n        /* \"#utility.yul\":856:876   */\n      calldataload\n        /* \"#utility.yul\":847:876   */\n      swap1\n      pop\n        /* \"#utility.yul\":885:918   */\n      tag_99\n        /* \"#utility.yul\":912:917   */\n      dup2\n        /* \"#utility.yul\":885:918   */\n      tag_100\n      jump\t// in\n    tag_99:\n        /* \"#utility.yul\":785:924   */\n      swap3\n      swap2\n      pop\n      pop\n      jump\t// out\n        /* \"#utility.yul\":930:1909   */\n    tag_20:\n        /* \"#utility.yul\":1027:1033   */\n      0x00\n        /* \"#utility.yul\":1035:1041   */\n      dup1\n        /* \"#utility.yul\":1043:1049   */\n      0x00\n        /* \"#utility.yul\":1092:1094   */\n      0x60\n        /* \"#utility.yul\":1080:1089   */\n      dup5\n        /* \"#utility.yul\":1071:1078   */\n      dup7\n        /* \"#utility.yul\":1067:1090   */\n      sub\n        /* \"#utility.yul\":1063:1095   */\n      slt\n        /* \"#utility.yul\":1060:1179   */\n      iszero\n      tag_102\n      jumpi\n        /* \"#utility.yul\":1098:1177   */\n      tag_103\n      tag_104\n      jump\t// in\n    tag_103:\n        /* \"#utility.yul\":1060:1179   */\n    tag_102:\n        /* \"#utility.yul\":1246:1247   */\n      0x00\n        /* \"#utility.yul\":1235:1244   */\n      dup5\n        /* \"#utility.yul\":1231:1248   */\n      add\n        /* \"#utility.yul\":1218:1249   */\n      calldataload\n        /* \"#utility.yul\":1276:1294   */\n      0xffffffffffffffff\n        /* \"#utility.yul\":1268:1274   */\n      dup2\n        /* \"#utility.yul\":1265:1295   */\n      gt\n        /* \"#utility.yul\":1262:1379   */\n      iszero\n      tag_105\n      jumpi\n        /* \"#utility.yul\":1298:1377   */\n      tag_106\n      tag_107\n      jump\t// in\n    tag_106:\n        /* \"#utility.yul\":1262:1379   */\n    tag_105:\n        /* \"#utility.yul\":1403:1466   */\n      tag_108\n        /* \"#utility.yul\":1458:1465   */\n      dup7\n        /* \"#utility.yul\":1449:1455   */\n      dup3\n        /* \"#utility.yul\":1438:1447   */\n      dup8\n        /* \"#utility.yul\":1434:1456   */\n      add\n        /* \"#utility.yul\":1403:1466   */\n      tag_91\n      jump\t// in\n    tag_108:\n        /* \"#utility.yul\":1393:1466   */\n      swap4\n      pop\n        /* \"#utility.yul\":1189:1476   */\n      pop\n        /* \"#utility.yul\":1543:1545   */\n      0x20\n        /* \"#utility.yul\":1532:1541   */\n      dup5\n        /* \"#utility.yul\":1528:1546   */\n      add\n        /* \"#utility.yul\":1515:1547   */\n      calldataload\n        /* \"#utility.yul\":1574:1592   */\n      0xffffffffffffffff\n        /* \"#utility.yul\":1566:1572   */\n      dup2\n        /* \"#utility.yul\":1563:1593   */\n      gt\n        /* \"#utility.yul\":1560:1677   */\n      iszero\n      tag_109\n      jumpi\n        /* \"#utility.yul\":1596:1675   */\n      tag_110\n      tag_107\n      jump\t// in\n    tag_110:\n        /* \"#utility.yul\":1560:1677   */\n    tag_109:\n        /* \"#utility.yul\":1701:1764   */\n      tag_111\n        /* \"#utility.yul\":1756:1763   */\n      dup7\n        /* \"#utility.yul\":1747:1753   */\n      dup3\n        /* \"#utility.yul\":1736:1745   */\n      dup8\n        /* \"#utility.yul\":1732:1754   */\n      add\n        /* \"#utility.yul\":1701:1764   */\n      tag_91\n      jump\t// in\n    tag_111:\n        /* \"#utility.yul\":1691:1764   */\n      swap3\n      pop\n        /* \"#utility.yul\":1486:1774   */\n      pop\n        /* \"#utility.yul\":1813:1815   */\n      0x40\n        /* \"#utility.yul\":1839:1892   */\n      tag_112\n        /* \"#utility.yul\":1884:1891   */\n      dup7\n        /* \"#utility.yul\":1875:1881   */\n      dup3\n        /* \"#utility.yul\":1864:1873   */\n      dup8\n        /* \"#utility.yul\":1860:1882   */\n      add\n        /* \"#utility.yul\":1839:1892   */\n      tag_97\n      jump\t// in\n    tag_112:\n        /* \"#utility.yul\":1829:1892   */\n      swap2\n      pop\n        /* \"#utility.yul\":1784:1902   */\n      pop\n        /* \"#utility.yul\":930:1909   */\n      swap3\n      pop\n      swap3\n      pop\n      swap3\n      jump\t// out\n        /* \"#utility.yul\":1915:2244   */\n    tag_9:\n        /* \"#utility.yul\":1974:1980   */\n      0x00\n        /* \"#utility.yul\":2023:2025   */\n      0x20\n        /* \"#utility.yul\":2011:2020   */\n      dup3\n        /* \"#utility.yul\":2002:2009   */\n      dup5\n        /* \"#utility.yul\":1998:2021   */\n      sub\n        /* \"#utility.yul\":1994:2026   */\n      slt\n        /* \"#utility.yul\":1991:2110   */\n      iszero\n      tag_114\n      jumpi\n        /* \"#utility.yul\":2029:2108   */\n      tag_115\n      tag_104\n      jump\t// in\n    tag_115:\n        /* \"#utility.yul\":1991:2110   */\n    tag_114:\n        /* \"#utility.yul\":2149:2150   */\n      0x00\n        /* \"#utility.yul\":2174:2227   */\n      tag_116\n        /* \"#utility.yul\":2219:2226   */\n      dup5\n        /* \"#utility.yul\":2210:2216   */\n      dup3\n        /* \"#utility.yul\":2199:2208   */\n      dup6\n        /* \"#utility.yul\":2195:2217   */\n      add\n        /* \"#utility.yul\":2174:2227   */\n      tag_97\n      jump\t// in\n    tag_116:\n        /* \"#utility.yul\":2164:2227   */\n      swap2\n      pop\n        /* \"#utility.yul\":2120:2237   */\n      pop\n        /* \"#utility.yul\":1915:2244   */\n      swap3\n      swap2\n      pop\n      pop\n      jump\t// out\n        /* \"#utility.yul\":2250:2387   */\n    tag_117:\n        /* \"#utility.yul\":2335:2380   */\n      tag_119\n        /* \"#utility.yul\":2374:2379   */\n      dup2\n        /* \"#utility.yul\":2335:2380   */\n      tag_120\n      jump\t// in\n    tag_119:\n        /* \"#utility.yul\":2330:2333   */\n      dup3\n        /* \"#utility.yul\":2323:2381   */\n      mstore\n        /* \"#utility.yul\":2250:2387   */\n      pop\n      pop\n      jump\t// out\n        /* \"#utility.yul\":2393:2540   */\n    tag_121:\n        /* \"#utility.yul\":2488:2533   */\n      tag_123\n        /* \"#utility.yul\":2527:2532   */\n      dup2\n        /* \"#utility.yul\":2488:2533   */\n      tag_120\n      jump\t// in\n    tag_123:\n        /* \"#utility.yul\":2483:2486   */\n      dup3\n        /* \"#utility.yul\":2476:2534   */\n      mstore\n        /* \"#utility.yul\":2393:2540   */\n      pop\n      pop\n      jump\t// out\n        /* \"#utility.yul\":2546:2890   */\n    tag_124:\n        /* \"#utility.yul\":2624:2627   */\n      0x00\n        /* \"#utility.yul\":2652:2691   */\n      tag_126\n        /* \"#utility.yul\":2685:2690   */\n      dup3\n        /* \"#utility.yul\":2652:2691   */\n      tag_127\n      jump\t// in\n    tag_126:\n        /* \"#utility.yul\":2707:2768   */\n      tag_128\n        /* \"#utility.yul\":2761:2767   */\n      dup2\n        /* \"#utility.yul\":2756:2759   */\n      dup6\n        /* \"#utility.yul\":2707:2768   */\n      tag_129\n      jump\t// in\n    tag_128:\n        /* \"#utility.yul\":2700:2768   */\n      swap4\n      pop\n        /* \"#utility.yul\":2777:2829   */\n      tag_130\n        /* \"#utility.yul\":2822:2828   */\n      dup2\n        /* \"#utility.yul\":2817:2820   */\n      dup6\n        /* \"#utility.yul\":2810:2814   */\n      0x20\n        /* \"#utility.yul\":2803:2808   */\n      dup7\n        /* \"#utility.yul\":2799:2815   */\n      add\n        /* \"#utility.yul\":2777:2829   */\n      tag_131\n      jump\t// in\n    tag_130:\n        /* \"#utility.yul\":2854:2883   */\n      tag_132\n        /* \"#utility.yul\":2876:2882   */\n      dup2\n        /* \"#utility.yul\":2854:2883   */\n      tag_133\n      jump\t// in\n    tag_132:\n        /* \"#utility.yul\":2849:2852   */\n      dup5\n        /* \"#utility.yul\":2845:2884   */\n      add\n        /* \"#utility.yul\":2838:2884   */\n      swap2\n      pop\n        /* \"#utility.yul\":2628:2890   */\n      pop\n        /* \"#utility.yul\":2546:2890   */\n      swap3\n      swap2\n      pop\n      pop\n      jump\t// out\n        /* \"#utility.yul\":2896:3260   */\n    tag_134:\n        /* \"#utility.yul\":2984:2987   */\n      0x00\n        /* \"#utility.yul\":3012:3051   */\n      tag_136\n        /* \"#utility.yul\":3045:3050   */\n      dup3\n        /* \"#utility.yul\":3012:3051   */\n      tag_127\n      jump\t// in\n    tag_136:\n        /* \"#utility.yul\":3067:3138   */\n      tag_137\n        /* \"#utility.yul\":3131:3137   */\n      dup2\n        /* \"#utility.yul\":3126:3129   */\n      dup6\n        /* \"#utility.yul\":3067:3138   */\n      tag_138\n      jump\t// in\n    tag_137:\n        /* \"#utility.yul\":3060:3138   */\n      swap4\n      pop\n        /* \"#utility.yul\":3147:3199   */\n      tag_139\n        /* \"#utility.yul\":3192:3198   */\n      dup2\n        /* \"#utility.yul\":3187:3190   */\n      dup6\n        /* \"#utility.yul\":3180:3184   */\n      0x20\n        /* \"#utility.yul\":3173:3178   */\n      dup7\n        /* \"#utility.yul\":3169:3185   */\n      add\n        /* \"#utility.yul\":3147:3199   */\n      tag_131\n      jump\t// in\n    tag_139:\n        /* \"#utility.yul\":3224:3253   */\n      tag_140\n        /* \"#utility.yul\":3246:3252   */\n      dup2\n        /* \"#utility.yul\":3224:3253   */\n      tag_133\n      jump\t// in\n    tag_140:\n        /* \"#utility.yul\":3219:3222   */\n      dup5\n        /* \"#utility.yul\":3215:3254   */\n      add\n        /* \"#utility.yul\":3208:3254   */\n      swap2\n      pop\n        /* \"#utility.yul\":2988:3260   */\n      pop\n        /* \"#utility.yul\":2896:3260   */\n      swap3\n      swap2\n      pop\n      pop\n      jump\t// out\n        /* \"#utility.yul\":3326:4373   */\n    tag_141:\n        /* \"#utility.yul\":3441:3444   */\n      0x00\n        /* \"#utility.yul\":3477:3481   */\n      0x80\n        /* \"#utility.yul\":3472:3475   */\n      dup4\n        /* \"#utility.yul\":3468:3482   */\n      add\n        /* \"#utility.yul\":3569:3573   */\n      0x00\n        /* \"#utility.yul\":3562:3567   */\n      dup4\n        /* \"#utility.yul\":3558:3574   */\n      add\n        /* \"#utility.yul\":3552:3575   */\n      mload\n        /* \"#utility.yul\":3622:3625   */\n      dup5\n        /* \"#utility.yul\":3616:3620   */\n      dup3\n        /* \"#utility.yul\":3612:3626   */\n      sub\n        /* \"#utility.yul\":3605:3609   */\n      0x00\n        /* \"#utility.yul\":3600:3603   */\n      dup7\n        /* \"#utility.yul\":3596:3610   */\n      add\n        /* \"#utility.yul\":3589:3627   */\n      mstore\n        /* \"#utility.yul\":3648:3721   */\n      tag_143\n        /* \"#utility.yul\":3716:3720   */\n      dup3\n        /* \"#utility.yul\":3702:3714   */\n      dup3\n        /* \"#utility.yul\":3648:3721   */\n      tag_124\n      jump\t// in\n    tag_143:\n        /* \"#utility.yul\":3640:3721   */\n      swap2\n      pop\n        /* \"#utility.yul\":3492:3732   */\n      pop\n        /* \"#utility.yul\":3824:3828   */\n      0x20\n        /* \"#utility.yul\":3817:3822   */\n      dup4\n        /* \"#utility.yul\":3813:3829   */\n      add\n        /* \"#utility.yul\":3807:3830   */\n      mload\n        /* \"#utility.yul\":3843:3914   */\n      tag_144\n        /* \"#utility.yul\":3908:3912   */\n      0x20\n        /* \"#utility.yul\":3903:3906   */\n      dup7\n        /* \"#utility.yul\":3899:3913   */\n      add\n        /* \"#utility.yul\":3885:3897   */\n      dup3\n        /* \"#utility.yul\":3843:3914   */\n      tag_117\n      jump\t// in\n    tag_144:\n        /* \"#utility.yul\":3742:3924   */\n      pop\n        /* \"#utility.yul\":4010:4014   */\n      0x40\n        /* \"#utility.yul\":4003:4008   */\n      dup4\n        /* \"#utility.yul\":3999:4015   */\n      add\n        /* \"#utility.yul\":3993:4016   */\n      mload\n        /* \"#utility.yul\":4063:4066   */\n      dup5\n        /* \"#utility.yul\":4057:4061   */\n      dup3\n        /* \"#utility.yul\":4053:4067   */\n      sub\n        /* \"#utility.yul\":4046:4050   */\n      0x40\n        /* \"#utility.yul\":4041:4044   */\n      dup7\n        /* \"#utility.yul\":4037:4051   */\n      add\n        /* \"#utility.yul\":4030:4068   */\n      mstore\n        /* \"#utility.yul\":4089:4162   */\n      tag_145\n        /* \"#utility.yul\":4157:4161   */\n      dup3\n        /* \"#utility.yul\":4143:4155   */\n      dup3\n        /* \"#utility.yul\":4089:4162   */\n      tag_124\n      jump\t// in\n    tag_145:\n        /* \"#utility.yul\":4081:4162   */\n      swap2\n      pop\n        /* \"#utility.yul\":3934:4173   */\n      pop\n        /* \"#utility.yul\":4254:4258   */\n      0x60\n        /* \"#utility.yul\":4247:4252   */\n      dup4\n        /* \"#utility.yul\":4243:4259   */\n      add\n        /* \"#utility.yul\":4237:4260   */\n      mload\n        /* \"#utility.yul\":4273:4336   */\n      tag_146\n        /* \"#utility.yul\":4330:4334   */\n      0x60\n        /* \"#utility.yul\":4325:4328   */\n      dup7\n        /* \"#utility.yul\":4321:4335   */\n      add\n        /* \"#utility.yul\":4307:4319   */\n      dup3\n        /* \"#utility.yul\":4273:4336   */\n      tag_147\n      jump\t// in\n    tag_146:\n        /* \"#utility.yul\":4183:4346   */\n      pop\n        /* \"#utility.yul\":4363:4367   */\n      dup1\n        /* \"#utility.yul\":4356:4367   */\n      swap2\n      pop\n        /* \"#utility.yul\":3446:4373   */\n      pop\n        /* \"#utility.yul\":3326:4373   */\n      swap3\n      swap2\n      pop\n      pop\n      jump\t// out\n        /* \"#utility.yul\":4379:4487   */\n    tag_147:\n        /* \"#utility.yul\":4456:4480   */\n      tag_149\n        /* \"#utility.yul\":4474:4479   */\n      dup2\n        /* \"#utility.yul\":4456:4480   */\n      tag_150\n      jump\t// in\n    tag_149:\n        /* \"#utility.yul\":4451:4454   */\n      dup3\n        /* \"#utility.yul\":4444:4481   */\n      mstore\n        /* \"#utility.yul\":4379:4487   */\n      pop\n      pop\n      jump\t// out\n        /* \"#utility.yul\":4493:4611   */\n    tag_151:\n        /* \"#utility.yul\":4580:4604   */\n      tag_153\n        /* \"#utility.yul\":4598:4603   */\n      dup2\n        /* \"#utility.yul\":4580:4604   */\n      tag_150\n      jump\t// in\n    tag_153:\n        /* \"#utility.yul\":4575:4578   */\n      dup3\n        /* \"#utility.yul\":4568:4605   */\n      mstore\n        /* \"#utility.yul\":4493:4611   */\n      pop\n      pop\n      jump\t// out\n        /* \"#utility.yul\":4617:5368   */\n    tag_17:\n        /* \"#utility.yul\":4842:4846   */\n      0x00\n        /* \"#utility.yul\":4880:4883   */\n      0x80\n        /* \"#utility.yul\":4869:4878   */\n      dup3\n        /* \"#utility.yul\":4865:4884   */\n      add\n        /* \"#utility.yul\":4857:4884   */\n      swap1\n      pop\n        /* \"#utility.yul\":4930:4939   */\n      dup2\n        /* \"#utility.yul\":4924:4928   */\n      dup2\n        /* \"#utility.yul\":4920:4940   */\n      sub\n        /* \"#utility.yul\":4916:4917   */\n      0x00\n        /* \"#utility.yul\":4905:4914   */\n      dup4\n        /* \"#utility.yul\":4901:4918   */\n      add\n        /* \"#utility.yul\":4894:4941   */\n      mstore\n        /* \"#utility.yul\":4958:5036   */\n      tag_155\n        /* \"#utility.yul\":5031:5035   */\n      dup2\n        /* \"#utility.yul\":5022:5028   */\n      dup8\n        /* \"#utility.yul\":4958:5036   */\n      tag_134\n      jump\t// in\n    tag_155:\n        /* \"#utility.yul\":4950:5036   */\n      swap1\n      pop\n        /* \"#utility.yul\":5046:5126   */\n      tag_156\n        /* \"#utility.yul\":5122:5124   */\n      0x20\n        /* \"#utility.yul\":5111:5120   */\n      dup4\n        /* \"#utility.yul\":5107:5125   */\n      add\n        /* \"#utility.yul\":5098:5104   */\n      dup7\n        /* \"#utility.yul\":5046:5126   */\n      tag_121\n      jump\t// in\n    tag_156:\n        /* \"#utility.yul\":5173:5182   */\n      dup2\n        /* \"#utility.yul\":5167:5171   */\n      dup2\n        /* \"#utility.yul\":5163:5183   */\n      sub\n        /* \"#utility.yul\":5158:5160   */\n      0x40\n        /* \"#utility.yul\":5147:5156   */\n      dup4\n        /* \"#utility.yul\":5143:5161   */\n      add\n        /* \"#utility.yul\":5136:5184   */\n      mstore\n        /* \"#utility.yul\":5201:5279   */\n      tag_157\n        /* \"#utility.yul\":5274:5278   */\n      dup2\n        /* \"#utility.yul\":5265:5271   */\n      dup6\n        /* \"#utility.yul\":5201:5279   */\n      tag_134\n      jump\t// in\n    tag_157:\n        /* \"#utility.yul\":5193:5279   */\n      swap1\n      pop\n        /* \"#utility.yul\":5289:5361   */\n      tag_158\n        /* \"#utility.yul\":5357:5359   */\n      0x60\n        /* \"#utility.yul\":5346:5355   */\n      dup4\n        /* \"#utility.yul\":5342:5360   */\n      add\n        /* \"#utility.yul\":5333:5339   */\n      dup5\n        /* \"#utility.yul\":5289:5361   */\n      tag_151\n      jump\t// in\n    tag_158:\n        /* \"#utility.yul\":4617:5368   */\n      swap6\n      swap5\n      pop\n      pop\n      pop\n      pop\n      pop\n      jump\t// out\n        /* \"#utility.yul\":5374:5739   */\n    tag_12:\n        /* \"#utility.yul\":5513:5517   */\n      0x00\n        /* \"#utility.yul\":5551:5553   */\n      0x20\n        /* \"#utility.yul\":5540:5549   */\n      dup3\n        /* \"#utility.yul\":5536:5554   */\n      add\n        /* \"#utility.yul\":5528:5554   */\n      swap1\n      pop\n        /* \"#utility.yul\":5600:5609   */\n      dup2\n        /* \"#utility.yul\":5594:5598   */\n      dup2\n        /* \"#utility.yul\":5590:5610   */\n      sub\n        /* \"#utility.yul\":5586:5587   */\n      0x00\n        /* \"#utility.yul\":5575:5584   */\n      dup4\n        /* \"#utility.yul\":5571:5588   */\n      add\n        /* \"#utility.yul\":5564:5611   */\n      mstore\n        /* \"#utility.yul\":5628:5732   */\n      tag_160\n        /* \"#utility.yul\":5727:5731   */\n      dup2\n        /* \"#utility.yul\":5718:5724   */\n      dup5\n        /* \"#utility.yul\":5628:5732   */\n      tag_141\n      jump\t// in\n    tag_160:\n        /* \"#utility.yul\":5620:5732   */\n      swap1\n      pop\n        /* \"#utility.yul\":5374:5739   */\n      swap3\n      swap2\n      pop\n      pop\n      jump\t// out\n        /* \"#utility.yul\":5745:5967   */\n    tag_25:\n        /* \"#utility.yul\":5838:5842   */\n      0x00\n        /* \"#utility.yul\":5876:5878   */\n      0x20\n        /* \"#utility.yul\":5865:5874   */\n      dup3\n        /* \"#utility.yul\":5861:5879   */\n      add\n        /* \"#utility.yul\":5853:5879   */\n      swap1\n      pop\n        /* \"#utility.yul\":5889:5960   */\n      tag_162\n        /* \"#utility.yul\":5957:5958   */\n      0x00\n        /* \"#utility.yul\":5946:5955   */\n      dup4\n        /* \"#utility.yul\":5942:5959   */\n      add\n        /* \"#utility.yul\":5933:5939   */\n      dup5\n        /* \"#utility.yul\":5889:5960   */\n      tag_151\n      jump\t// in\n    tag_162:\n        /* \"#utility.yul\":5745:5967   */\n      swap3\n      swap2\n      pop\n      pop\n      jump\t// out\n        /* \"#utility.yul\":5973:6102   */\n    tag_85:\n        /* \"#utility.yul\":6007:6013   */\n      0x00\n        /* \"#utility.yul\":6034:6054   */\n      tag_164\n      tag_165\n      jump\t// in\n    tag_164:\n        /* \"#utility.yul\":6024:6054   */\n      swap1\n      pop\n        /* \"#utility.yul\":6063:6096   */\n      tag_166\n        /* \"#utility.yul\":6091:6095   */\n      dup3\n        /* \"#utility.yul\":6083:6089   */\n      dup3\n        /* \"#utility.yul\":6063:6096   */\n      tag_167\n      jump\t// in\n    tag_166:\n        /* \"#utility.yul\":5973:6102   */\n      swap2\n      swap1\n      pop\n      jump\t// out\n        /* \"#utility.yul\":6108:6183   */\n    tag_165:\n        /* \"#utility.yul\":6141:6147   */\n      0x00\n        /* \"#utility.yul\":6174:6176   */\n      0x40\n        /* \"#utility.yul\":6168:6177   */\n      mload\n        /* \"#utility.yul\":6158:6177   */\n      swap1\n      pop\n        /* \"#utility.yul\":6108:6183   */\n      swap1\n      jump\t// out\n        /* \"#utility.yul\":6189:6497   */\n    tag_84:\n        /* \"#utility.yul\":6251:6255   */\n      0x00\n        /* \"#utility.yul\":6341:6359   */\n      0xffffffffffffffff\n        /* \"#utility.yul\":6333:6339   */\n      dup3\n        /* \"#utility.yul\":6330:6360   */\n      gt\n        /* \"#utility.yul\":6327:6383   */\n      iszero\n      tag_170\n      jumpi\n        /* \"#utility.yul\":6363:6381   */\n      tag_171\n      tag_172\n      jump\t// in\n    tag_171:\n        /* \"#utility.yul\":6327:6383   */\n    tag_170:\n        /* \"#utility.yul\":6401:6430   */\n      tag_173\n        /* \"#utility.yul\":6423:6429   */\n      dup3\n        /* \"#utility.yul\":6401:6430   */\n      tag_133\n      jump\t// in\n    tag_173:\n        /* \"#utility.yul\":6393:6430   */\n      swap1\n      pop\n        /* \"#utility.yul\":6485:6489   */\n      0x20\n        /* \"#utility.yul\":6479:6483   */\n      dup2\n        /* \"#utility.yul\":6475:6490   */\n      add\n        /* \"#utility.yul\":6467:6490   */\n      swap1\n      pop\n        /* \"#utility.yul\":6189:6497   */\n      swap2\n      swap1\n      pop\n      jump\t// out\n        /* \"#utility.yul\":6503:6602   */\n    tag_127:\n        /* \"#utility.yul\":6555:6561   */\n      0x00\n        /* \"#utility.yul\":6589:6594   */\n      dup2\n        /* \"#utility.yul\":6583:6595   */\n      mload\n        /* \"#utility.yul\":6573:6595   */\n      swap1\n      pop\n        /* \"#utility.yul\":6503:6602   */\n      swap2\n      swap1\n      pop\n      jump\t// out\n        /* \"#utility.yul\":6608:6767   */\n    tag_129:\n        /* \"#utility.yul\":6682:6693   */\n      0x00\n        /* \"#utility.yul\":6716:6722   */\n      dup3\n        /* \"#utility.yul\":6711:6714   */\n      dup3\n        /* \"#utility.yul\":6704:6723   */\n      mstore\n        /* \"#utility.yul\":6756:6760   */\n      0x20\n        /* \"#utility.yul\":6751:6754   */\n      dup3\n        /* \"#utility.yul\":6747:6761   */\n      add\n        /* \"#utility.yul\":6732:6761   */\n      swap1\n      pop\n        /* \"#utility.yul\":6608:6767   */\n      swap3\n      swap2\n      pop\n      pop\n      jump\t// out\n        /* \"#utility.yul\":6773:6942   */\n    tag_138:\n        /* \"#utility.yul\":6857:6868   */\n      0x00\n        /* \"#utility.yul\":6891:6897   */\n      dup3\n        /* \"#utility.yul\":6886:6889   */\n      dup3\n        /* \"#utility.yul\":6879:6898   */\n      mstore\n        /* \"#utility.yul\":6931:6935   */\n      0x20\n        /* \"#utility.yul\":6926:6929   */\n      dup3\n        /* \"#utility.yul\":6922:6936   */\n      add\n        /* \"#utility.yul\":6907:6936   */\n      swap1\n      pop\n        /* \"#utility.yul\":6773:6942   */\n      swap3\n      swap2\n      pop\n      pop\n      jump\t// out\n        /* \"#utility.yul\":6948:7253   */\n    tag_66:\n        /* \"#utility.yul\":6988:6991   */\n      0x00\n        /* \"#utility.yul\":7007:7027   */\n      tag_178\n        /* \"#utility.yul\":7025:7026   */\n      dup3\n        /* \"#utility.yul\":7007:7027   */\n      tag_150\n      jump\t// in\n    tag_178:\n        /* \"#utility.yul\":7002:7027   */\n      swap2\n      pop\n        /* \"#utility.yul\":7041:7061   */\n      tag_179\n        /* \"#utility.yul\":7059:7060   */\n      dup4\n        /* \"#utility.yul\":7041:7061   */\n      tag_150\n      jump\t// in\n    tag_179:\n        /* \"#utility.yul\":7036:7061   */\n      swap3\n      pop\n        /* \"#utility.yul\":7195:7196   */\n      dup3\n        /* \"#utility.yul\":7127:7193   */\n      0xffffffffffffffffffffffffffffffffffffffffffffffffffffffffffffffff\n        /* \"#utility.yul\":7123:7197   */\n      sub\n        /* \"#utility.yul\":7120:7121   */\n      dup3\n        /* \"#utility.yul\":7117:7198   */\n      gt\n        /* \"#utility.yul\":7114:7221   */\n      iszero\n      tag_180\n      jumpi\n        /* \"#utility.yul\":7201:7219   */\n      tag_181\n      tag_182\n      jump\t// in\n    tag_181:\n        /* \"#utility.yul\":7114:7221   */\n    tag_180:\n        /* \"#utility.yul\":7245:7246   */\n      dup3\n        /* \"#utility.yul\":7242:7243   */\n      dup3\n        /* \"#utility.yul\":7238:7247   */\n      add\n        /* \"#utility.yul\":7231:7247   */\n      swap1\n      pop\n        /* \"#utility.yul\":6948:7253   */\n      swap3\n      swap2\n      pop\n      pop\n      jump\t// out\n        /* \"#utility.yul\":7259:7390   */\n    tag_183:\n        /* \"#utility.yul\":7306:7313   */\n      0x00\n        /* \"#utility.yul\":7335:7340   */\n      dup2\n        /* \"#utility.yul\":7324:7340   */\n      swap1\n      pop\n        /* \"#utility.yul\":7341:7384   */\n      tag_185\n        /* \"#utility.yul\":7378:7383   */\n      dup3\n        /* \"#utility.yul\":7341:7384   */\n      tag_186\n      jump\t// in\n    tag_185:\n        /* \"#utility.yul\":7259:7390   */\n      swap2\n      swap1\n      pop\n      jump\t// out\n        /* \"#utility.yul\":7396:7473   */\n    tag_150:\n        /* \"#utility.yul\":7433:7440   */\n      0x00\n        /* \"#utility.yul\":7462:7467   */\n      dup2\n        /* \"#utility.yul\":7451:7467   */\n      swap1\n      pop\n        /* \"#utility.yul\":7396:7473   */\n      swap2\n      swap1\n      pop\n      jump\t// out\n        /* \"#utility.yul\":7479:7610   */\n    tag_120:\n        /* \"#utility.yul\":7537:7546   */\n      0x00\n        /* \"#utility.yul\":7570:7604   */\n      tag_189\n        /* \"#utility.yul\":7598:7603   */\n      dup3\n        /* \"#utility.yul\":7570:7604   */\n      tag_183\n      jump\t// in\n    tag_189:\n        /* \"#utility.yul\":7557:7604   */\n      swap1\n      pop\n        /* \"#utility.yul\":7479:7610   */\n      swap2\n      swap1\n      pop\n      jump\t// out\n        /* \"#utility.yul\":7616:7770   */\n    tag_90:\n        /* \"#utility.yul\":7700:7706   */\n      dup3\n        /* \"#utility.yul\":7695:7698   */\n      dup2\n        /* \"#utility.yul\":7690:7693   */\n      dup4\n        /* \"#utility.yul\":7677:7707   */\n      calldatacopy\n        /* \"#utility.yul\":7762:7763   */\n      0x00\n        /* \"#utility.yul\":7753:7759   */\n      dup4\n        /* \"#utility.yul\":7748:7751   */\n      dup4\n        /* \"#utility.yul\":7744:7760   */\n      add\n        /* \"#utility.yul\":7737:7764   */\n      mstore\n        /* \"#utility.yul\":7616:7770   */\n      pop\n      pop\n      pop\n      jump\t// out\n        /* \"#utility.yul\":7776:8083   */\n    tag_131:\n        /* \"#utility.yul\":7844:7845   */\n      0x00\n        /* \"#utility.yul\":7854:7967   */\n    tag_192:\n        /* \"#utility.yul\":7868:7874   */\n      dup4\n        /* \"#utility.yul\":7865:7866   */\n      dup2\n        /* \"#utility.yul\":7862:7875   */\n      lt\n        /* \"#utility.yul\":7854:7967   */\n      iszero\n      tag_194\n      jumpi\n        /* \"#utility.yul\":7953:7954   */\n      dup1\n        /* \"#utility.yul\":7948:7951   */\n      dup3\n        /* \"#utility.yul\":7944:7955   */\n      add\n        /* \"#utility.yul\":7938:7956   */\n      mload\n        /* \"#utility.yul\":7934:7935   */\n      dup2\n        /* \"#utility.yul\":7929:7932   */\n      dup5\n        /* \"#utility.yul\":7925:7936   */\n      add\n        /* \"#utility.yul\":7918:7957   */\n      mstore\n        /* \"#utility.yul\":7890:7892   */\n      0x20\n        /* \"#utility.yul\":7887:7888   */\n      dup2\n        /* \"#utility.yul\":7883:7893   */\n      add\n        /* \"#utility.yul\":7878:7893   */\n      swap1\n      pop\n        /* \"#utility.yul\":7854:7967   */\n      jump(tag_192)\n    tag_194:\n        /* \"#utility.yul\":7985:7991   */\n      dup4\n        /* \"#utility.yul\":7982:7983   */\n      dup2\n        /* \"#utility.yul\":7979:7992   */\n      gt\n        /* \"#utility.yul\":7976:8077   */\n      iszero\n      tag_195\n      jumpi\n        /* \"#utility.yul\":8065:8066   */\n      0x00\n        /* \"#utility.yul\":8056:8062   */\n      dup5\n        /* \"#utility.yul\":8051:8054   */\n      dup5\n        /* \"#utility.yul\":8047:8063   */\n      add\n        /* \"#utility.yul\":8040:8067   */\n      mstore\n        /* \"#utility.yul\":7976:8077   */\n    tag_195:\n        /* \"#utility.yul\":7825:8083   */\n      pop\n        /* \"#utility.yul\":7776:8083   */\n      pop\n      pop\n      pop\n      jump\t// out\n        /* \"#utility.yul\":8089:8409   */\n    tag_30:\n        /* \"#utility.yul\":8133:8139   */\n      0x00\n        /* \"#utility.yul\":8170:8171   */\n      0x02\n        /* \"#utility.yul\":8164:8168   */\n      dup3\n        /* \"#utility.yul\":8160:8172   */\n      div\n        /* \"#utility.yul\":8150:8172   */\n      swap1\n      pop\n        /* \"#utility.yul\":8217:8218   */\n      0x01\n        /* \"#utility.yul\":8211:8215   */\n      dup3\n        /* \"#utility.yul\":8207:8219   */\n      and\n        /* \"#utility.yul\":8238:8256   */\n      dup1\n        /* \"#utility.yul\":8228:8309   */\n      tag_197\n      jumpi\n        /* \"#utility.yul\":8294:8298   */\n      0x7f\n        /* \"#utility.yul\":8286:8292   */\n      dup3\n        /* \"#utility.yul\":8282:8299   */\n      and\n        /* \"#utility.yul\":8272:8299   */\n      swap2\n      pop\n        /* \"#utility.yul\":8228:8309   */\n    tag_197:\n        /* \"#utility.yul\":8356:8358   */\n      0x20\n        /* \"#utility.yul\":8348:8354   */\n      dup3\n        /* \"#utility.yul\":8345:8359   */\n      lt\n        /* \"#utility.yul\":8325:8343   */\n      dup2\n        /* \"#utility.yul\":8322:8360   */\n      eq\n        /* \"#utility.yul\":8319:8403   */\n      iszero\n      tag_198\n      jumpi\n        /* \"#utility.yul\":8375:8393   */\n      tag_199\n      tag_200\n      jump\t// in\n    tag_199:\n        /* \"#utility.yul\":8319:8403   */\n    tag_198:\n        /* \"#utility.yul\":8140:8409   */\n      pop\n        /* \"#utility.yul\":8089:8409   */\n      swap2\n      swap1\n      pop\n      jump\t// out\n        /* \"#utility.yul\":8415:8696   */\n    tag_167:\n        /* \"#utility.yul\":8498:8525   */\n      tag_202\n        /* \"#utility.yul\":8520:8524   */\n      dup3\n        /* \"#utility.yul\":8498:8525   */\n      tag_133\n      jump\t// in\n    tag_202:\n        /* \"#utility.yul\":8490:8496   */\n      dup2\n        /* \"#utility.yul\":8486:8526   */\n      add\n        /* \"#utility.yul\":8628:8634   */\n      dup2\n        /* \"#utility.yul\":8616:8626   */\n      dup2\n        /* \"#utility.yul\":8613:8635   */\n      lt\n        /* \"#utility.yul\":8592:8610   */\n      0xffffffffffffffff\n        /* \"#utility.yul\":8580:8590   */\n      dup3\n        /* \"#utility.yul\":8577:8611   */\n      gt\n        /* \"#utility.yul\":8574:8636   */\n      or\n        /* \"#utility.yul\":8571:8659   */\n      iszero\n      tag_203\n      jumpi\n        /* \"#utility.yul\":8639:8657   */\n      tag_204\n      tag_172\n      jump\t// in\n    tag_204:\n        /* \"#utility.yul\":8571:8659   */\n    tag_203:\n        /* \"#utility.yul\":8679:8689   */\n      dup1\n        /* \"#utility.yul\":8675:8677   */\n      0x40\n        /* \"#utility.yul\":8668:8690   */\n      mstore\n        /* \"#utility.yul\":8458:8696   */\n      pop\n        /* \"#utility.yul\":8415:8696   */\n      pop\n      pop\n      jump\t// out\n        /* \"#utility.yul\":8702:8882   */\n    tag_182:\n        /* \"#utility.yul\":8750:8827   */\n      0x4e487b7100000000000000000000000000000000000000000000000000000000\n        /* \"#utility.yul\":8747:8748   */\n      0x00\n        /* \"#utility.yul\":8740:8828   */\n      mstore\n        /* \"#utility.yul\":8847:8851   */\n      0x11\n        /* \"#utility.yul\":8844:8845   */\n      0x04\n        /* \"#utility.yul\":8837:8852   */\n      mstore\n        /* \"#utility.yul\":8871:8875   */\n      0x24\n        /* \"#utility.yul\":8868:8869   */\n      0x00\n        /* \"#utility.yul\":8861:8876   */\n      revert\n        /* \"#utility.yul\":8888:9068   */\n    tag_37:\n        /* \"#utility.yul\":8936:9013   */\n      0x4e487b7100000000000000000000000000000000000000000000000000000000\n        /* \"#utility.yul\":8933:8934   */\n      0x00\n        /* \"#utility.yul\":8926:9014   */\n      mstore\n        /* \"#utility.yul\":9033:9037   */\n      0x21\n        /* \"#utility.yul\":9030:9031   */\n      0x04\n        /* \"#utility.yul\":9023:9038   */\n      mstore\n        /* \"#utility.yul\":9057:9061   */\n      0x24\n        /* \"#utility.yul\":9054:9055   */\n      0x00\n        /* \"#utility.yul\":9047:9062   */\n      revert\n        /* \"#utility.yul\":9074:9254   */\n    tag_200:\n        /* \"#utility.yul\":9122:9199   */\n      0x4e487b7100000000000000000000000000000000000000000000000000000000\n        /* \"#utility.yul\":9119:9120   */\n      0x00\n        /* \"#utility.yul\":9112:9200   */\n      mstore\n        /* \"#utility.yul\":9219:9223   */\n      0x22\n        /* \"#utility.yul\":9216:9217   */\n      0x04\n        /* \"#utility.yul\":9209:9224   */\n      mstore\n        /* \"#utility.yul\":9243:9247   */\n      0x24\n        /* \"#utility.yul\":9240:9241   */\n      0x00\n        /* \"#utility.yul\":9233:9248   */\n      revert\n        /* \"#utility.yul\":9260:9440   */\n    tag_172:\n        /* \"#utility.yul\":9308:9385   */\n      0x4e487b7100000000000000000000000000000000000000000000000000000000\n        /* \"#utility.yul\":9305:9306   */\n      0x00\n        /* \"#utility.yul\":9298:9386   */\n      mstore\n        /* \"#utility.yul\":9405:9409   */\n      0x41\n        /* \"#utility.yul\":9402:9403   */\n      0x04\n        /* \"#utility.yul\":9395:9410   */\n      mstore\n        /* \"#utility.yul\":9429:9433   */\n      0x24\n        /* \"#utility.yul\":9426:9427   */\n      0x00\n        /* \"#utility.yul\":9419:9434   */\n      revert\n        /* \"#utility.yul\":9446:9563   */\n    tag_95:\n        /* \"#utility.yul\":9555:9556   */\n      0x00\n        /* \"#utility.yul\":9552:9553   */\n      dup1\n        /* \"#utility.yul\":9545:9557   */\n      revert\n        /* \"#utility.yul\":9569:9686   */\n    tag_88:\n        /* \"#utility.yul\":9678:9679   */\n      0x00\n        /* \"#utility.yul\":9675:9676   */\n      dup1\n        /* \"#utility.yul\":9668:9680   */\n      revert\n        /* \"#utility.yul\":9692:9809   */\n    tag_107:\n        /* \"#utility.yul\":9801:9802   */\n      0x00\n        /* \"#utility.yul\":9798:9799   */\n      dup1\n        /* \"#utility.yul\":9791:9803   */\n      revert\n        /* \"#utility.yul\":9815:9932   */\n    tag_104:\n        /* \"#utility.yul\":9924:9925   */\n      0x00\n        /* \"#utility.yul\":9921:9922   */\n      dup1\n        /* \"#utility.yul\":9914:9926   */\n      revert\n        /* \"#utility.yul\":9938:10040   */\n    tag_133:\n        /* \"#utility.yul\":9979:9985   */\n      0x00\n        /* \"#utility.yul\":10030:10032   */\n      0x1f\n        /* \"#utility.yul\":10026:10033   */\n      not\n        /* \"#utility.yul\":10021:10023   */\n      0x1f\n        /* \"#utility.yul\":10014:10019   */\n      dup4\n        /* \"#utility.yul\":10010:10024   */\n      add\n        /* \"#utility.yul\":10006:10034   */\n      and\n        /* \"#utility.yul\":9996:10034   */\n      swap1\n      pop\n        /* \"#utility.yul\":9938:10040   */\n      swap2\n      swap1\n      pop\n      jump\t// out\n        /* \"#utility.yul\":10046:10161   */\n    tag_186:\n        /* \"#utility.yul\":10129:10130   */\n      0x03\n        /* \"#utility.yul\":10122:10127   */\n      dup2\n        /* \"#utility.yul\":10119:10131   */\n      lt\n        /* \"#utility.yul\":10109:10155   */\n      tag_215\n      jumpi\n        /* \"#utility.yul\":10135:10153   */\n      tag_216\n      tag_37\n      jump\t// in\n    tag_216:\n        /* \"#utility.yul\":10109:10155   */\n    tag_215:\n        /* \"#utility.yul\":10046:10161   */\n      pop\n      jump\t// out\n        /* \"#utility.yul\":10167:10289   */\n    tag_100:\n        /* \"#utility.yul\":10240:10264   */\n      tag_218\n        /* \"#utility.yul\":10258:10263   */\n      dup2\n        /* \"#utility.yul\":10240:10264   */\n      tag_150\n      jump\t// in\n    tag_218:\n        /* \"#utility.yul\":10233:10238   */\n      dup2\n        /* \"#utility.yul\":10230:10265   */\n      eq\n        /* \"#utility.yul\":10220:10283   */\n      tag_219\n      jumpi\n        /* \"#utility.yul\":10279:10280   */\n      0x00\n        /* \"#utility.yul\":10276:10277   */\n      dup1\n        /* \"#utility.yul\":10269:10281   */\n      revert\n        /* \"#utility.yul\":10220:10283   */\n    tag_219:\n        /* \"#utility.yul\":10167:10289   */\n      pop\n      jump\t// out\n\n    auxdata: 0xa26469706673582212204a65d44f23ceeb2e756a54fa7d9a4d1cf4d72f067326d039c49d16ed17c85d7364736f6c63430008070033\n}\n",
				"bytecode": {
					"linkReferences": {},
					"object": "60806040526000805534801561001457600080fd5b50610b99806100246000396000f3fe608060405234801561001057600080fd5b506004361061004c5760003560e01c80633cac51fb146100515780637d3c40c8146100815780639cc8f139146100b4578063e581f9ee146100d0575b600080fd5b61006b600480360381019061006691906106d5565b6100ee565b604051610078919061086d565b60405180910390f35b61009b600480360381019061009691906106d5565b610284565b6040516100ab949392919061081a565b60405180910390f35b6100ce60048036038101906100c9919061064a565b6103d1565b005b6100d86104e2565b6040516100e5919061088f565b60405180910390f35b6100f66104e8565b60016000838152602001908152602001600020604051806080016040529081600082018054610124906109f4565b80601f0160208091040260200160405190810160405280929190818152602001828054610150906109f4565b801561019d5780601f106101725761010080835404028352916020019161019d565b820191906000526020600020905b81548152906001019060200180831161018057829003601f168201915b505050505081526020016001820160009054906101000a900460ff1660028111156101cb576101ca610a86565b5b60028111156101dd576101dc610a86565b5b81526020016002820180546101f1906109f4565b80601f016020809104026020016040519081016040528092919081815260200182805461021d906109f4565b801561026a5780601f1061023f5761010080835404028352916020019161026a565b820191906000526020600020905b81548152906001019060200180831161024d57829003601f168201915b505050505081526020016003820154815250509050919050565b60016020528060005260406000206000915090508060000180546102a7906109f4565b80601f01602080910402602001604051908101604052809291908181526020018280546102d3906109f4565b80156103205780601f106102f557610100808354040283529160200191610320565b820191906000526020600020905b81548152906001019060200180831161030357829003601f168201915b5050505050908060010160009054906101000a900460ff1690806002018054610348906109f4565b80601f0160208091040260200160405190810160405280929190818152602001828054610374906109f4565b80156103c15780601f10610396576101008083540402835291602001916103c1565b820191906000526020600020905b8154815290600101906020018083116103a457829003601f168201915b5050505050908060030154905084565b6040518060800160405280848152602001600160028111156103f6576103f5610a86565b5b8152602001838152602001828152505060405180608001604052808481526020016001600281111561042b5761042a610a86565b5b815260200183815260200182815250600160008381526020019081526020016000206000820151816000019080519060200190610469929190610522565b5060208201518160010160006101000a81548160ff0219169083600281111561049557610494610a86565b5b021790555060408201518160020190805190602001906104b6929190610522565b506060820151816003015590505060016000808282546104d6919061092d565b92505081905550505050565b60005481565b6040518060800160405280606081526020016000600281111561050e5761050d610a86565b5b815260200160608152602001600081525090565b82805461052e906109f4565b90600052602060002090601f0160209004810192826105505760008555610597565b82601f1061056957805160ff1916838001178555610597565b82800160010185558215610597579182015b8281111561059657825182559160200191906001019061057b565b5b5090506105a491906105a8565b5090565b5b808211156105c15760008160009055506001016105a9565b5090565b60006105d86105d3846108cf565b6108aa565b9050828152602081018484840111156105f4576105f3610b18565b5b6105ff8482856109b2565b509392505050565b600082601f83011261061c5761061b610b13565b5b813561062c8482602086016105c5565b91505092915050565b60008135905061064481610b4c565b92915050565b60008060006060848603121561066357610662610b22565b5b600084013567ffffffffffffffff81111561068157610680610b1d565b5b61068d86828701610607565b935050602084013567ffffffffffffffff8111156106ae576106ad610b1d565b5b6106ba86828701610607565b92505060406106cb86828701610635565b9150509250925092565b6000602082840312156106eb576106ea610b22565b5b60006106f984828501610635565b91505092915050565b61070b816109a0565b82525050565b61071a816109a0565b82525050565b600061072b82610900565b610735818561090b565b93506107458185602086016109c1565b61074e81610b27565b840191505092915050565b600061076482610900565b61076e818561091c565b935061077e8185602086016109c1565b61078781610b27565b840191505092915050565b600060808301600083015184820360008601526107af8282610720565b91505060208301516107c46020860182610702565b50604083015184820360408601526107dc8282610720565b91505060608301516107f160608601826107fc565b508091505092915050565b61080581610996565b82525050565b61081481610996565b82525050565b600060808201905081810360008301526108348187610759565b90506108436020830186610711565b81810360408301526108558185610759565b9050610864606083018461080b565b95945050505050565b600060208201905081810360008301526108878184610792565b905092915050565b60006020820190506108a4600083018461080b565b92915050565b60006108b46108c5565b90506108c08282610a26565b919050565b6000604051905090565b600067ffffffffffffffff8211156108ea576108e9610ae4565b5b6108f382610b27565b9050602081019050919050565b600081519050919050565b600082825260208201905092915050565b600082825260208201905092915050565b600061093882610996565b915061094383610996565b9250827fffffffffffffffffffffffffffffffffffffffffffffffffffffffffffffffff0382111561097857610977610a57565b5b828201905092915050565b600081905061099182610b38565b919050565b6000819050919050565b60006109ab82610983565b9050919050565b82818337600083830152505050565b60005b838110156109df5780820151818401526020810190506109c4565b838111156109ee576000848401525b50505050565b60006002820490506001821680610a0c57607f821691505b60208210811415610a2057610a1f610ab5565b5b50919050565b610a2f82610b27565b810181811067ffffffffffffffff82111715610a4e57610a4d610ae4565b5b80604052505050565b7f4e487b7100000000000000000000000000000000000000000000000000000000600052601160045260246000fd5b7f4e487b7100000000000000000000000000000000000000000000000000000000600052602160045260246000fd5b7f4e487b7100000000000000000000000000000000000000000000000000000000600052602260045260246000fd5b7f4e487b7100000000000000000000000000000000000000000000000000000000600052604160045260246000fd5b600080fd5b600080fd5b600080fd5b600080fd5b6000601f19601f8301169050919050565b60038110610b4957610b48610a86565b5b50565b610b5581610996565b8114610b6057600080fd5b5056fea26469706673582212204a65d44f23ceeb2e756a54fa7d9a4d1cf4d72f067326d039c49d16ed17c85d7364736f6c63430008070033",
					"opcodes": "PUSH1 0x80 PUSH1 0x40 MSTORE PUSH1 0x0 DUP1 SSTORE CALLVALUE DUP1 ISZERO PUSH2 0x14 JUMPI PUSH1 0x0 DUP1 REVERT JUMPDEST POP PUSH2 0xB99 DUP1 PUSH2 0x24 PUSH1 0x0 CODECOPY PUSH1 0x0 RETURN INVALID PUSH1 0x80 PUSH1 0x40 MSTORE CALLVALUE DUP1 ISZERO PUSH2 0x10 JUMPI PUSH1 0x0 DUP1 REVERT JUMPDEST POP PUSH1 0x4 CALLDATASIZE LT PUSH2 0x4C JUMPI PUSH1 0x0 CALLDATALOAD PUSH1 0xE0 SHR DUP1 PUSH4 0x3CAC51FB EQ PUSH2 0x51 JUMPI DUP1 PUSH4 0x7D3C40C8 EQ PUSH2 0x81 JUMPI DUP1 PUSH4 0x9CC8F139 EQ PUSH2 0xB4 JUMPI DUP1 PUSH4 0xE581F9EE EQ PUSH2 0xD0 JUMPI JUMPDEST PUSH1 0x0 DUP1 REVERT JUMPDEST PUSH2 0x6B PUSH1 0x4 DUP1 CALLDATASIZE SUB DUP2 ADD SWAP1 PUSH2 0x66 SWAP2 SWAP1 PUSH2 0x6D5 JUMP JUMPDEST PUSH2 0xEE JUMP JUMPDEST PUSH1 0x40 MLOAD PUSH2 0x78 SWAP2 SWAP1 PUSH2 0x86D JUMP JUMPDEST PUSH1 0x40 MLOAD DUP1 SWAP2 SUB SWAP1 RETURN JUMPDEST PUSH2 0x9B PUSH1 0x4 DUP1 CALLDATASIZE SUB DUP2 ADD SWAP1 PUSH2 0x96 SWAP2 SWAP1 PUSH2 0x6D5 JUMP JUMPDEST PUSH2 0x284 JUMP JUMPDEST PUSH1 0x40 MLOAD PUSH2 0xAB SWAP5 SWAP4 SWAP3 SWAP2 SWAP1 PUSH2 0x81A JUMP JUMPDEST PUSH1 0x40 MLOAD DUP1 SWAP2 SUB SWAP1 RETURN JUMPDEST PUSH2 0xCE PUSH1 0x4 DUP1 CALLDATASIZE SUB DUP2 ADD SWAP1 PUSH2 0xC9 SWAP2 SWAP1 PUSH2 0x64A JUMP JUMPDEST PUSH2 0x3D1 JUMP JUMPDEST STOP JUMPDEST PUSH2 0xD8 PUSH2 0x4E2 JUMP JUMPDEST PUSH1 0x40 MLOAD PUSH2 0xE5 SWAP2 SWAP1 PUSH2 0x88F JUMP JUMPDEST PUSH1 0x40 MLOAD DUP1 SWAP2 SUB SWAP1 RETURN JUMPDEST PUSH2 0xF6 PUSH2 0x4E8 JUMP JUMPDEST PUSH1 0x1 PUSH1 0x0 DUP4 DUP2 MSTORE PUSH1 0x20 ADD SWAP1 DUP2 MSTORE PUSH1 0x20 ADD PUSH1 0x0 KECCAK256 PUSH1 0x40 MLOAD DUP1 PUSH1 0x80 ADD PUSH1 0x40 MSTORE SWAP1 DUP2 PUSH1 0x0 DUP3 ADD DUP1 SLOAD PUSH2 0x124 SWAP1 PUSH2 0x9F4 JUMP JUMPDEST DUP1 PUSH1 0x1F ADD PUSH1 0x20 DUP1 SWAP2 DIV MUL PUSH1 0x20 ADD PUSH1 0x40 MLOAD SWAP1 DUP2 ADD PUSH1 0x40 MSTORE DUP1 SWAP3 SWAP2 SWAP1 DUP2 DUP2 MSTORE PUSH1 0x20 ADD DUP3 DUP1 SLOAD PUSH2 0x150 SWAP1 PUSH2 0x9F4 JUMP JUMPDEST DUP1 ISZERO PUSH2 0x19D JUMPI DUP1 PUSH1 0x1F LT PUSH2 0x172 JUMPI PUSH2 0x100 DUP1 DUP4 SLOAD DIV MUL DUP4 MSTORE SWAP2 PUSH1 0x20 ADD SWAP2 PUSH2 0x19D JUMP JUMPDEST DUP3 ADD SWAP2 SWAP1 PUSH1 0x0 MSTORE PUSH1 0x20 PUSH1 0x0 KECCAK256 SWAP1 JUMPDEST DUP2 SLOAD DUP2 MSTORE SWAP1 PUSH1 0x1 ADD SWAP1 PUSH1 0x20 ADD DUP1 DUP4 GT PUSH2 0x180 JUMPI DUP3 SWAP1 SUB PUSH1 0x1F AND DUP3 ADD SWAP2 JUMPDEST POP POP POP POP POP DUP2 MSTORE PUSH1 0x20 ADD PUSH1 0x1 DUP3 ADD PUSH1 0x0 SWAP1 SLOAD SWAP1 PUSH2 0x100 EXP SWAP1 DIV PUSH1 0xFF AND PUSH1 0x2 DUP2 GT ISZERO PUSH2 0x1CB JUMPI PUSH2 0x1CA PUSH2 0xA86 JUMP JUMPDEST JUMPDEST PUSH1 0x2 DUP2 GT ISZERO PUSH2 0x1DD JUMPI PUSH2 0x1DC PUSH2 0xA86 JUMP JUMPDEST JUMPDEST DUP2 MSTORE PUSH1 0x20 ADD PUSH1 0x2 DUP3 ADD DUP1 SLOAD PUSH2 0x1F1 SWAP1 PUSH2 0x9F4 JUMP JUMPDEST DUP1 PUSH1 0x1F ADD PUSH1 0x20 DUP1 SWAP2 DIV MUL PUSH1 0x20 ADD PUSH1 0x40 MLOAD SWAP1 DUP2 ADD PUSH1 0x40 MSTORE DUP1 SWAP3 SWAP2 SWAP1 DUP2 DUP2 MSTORE PUSH1 0x20 ADD DUP3 DUP1 SLOAD PUSH2 0x21D SWAP1 PUSH2 0x9F4 JUMP JUMPDEST DUP1 ISZERO PUSH2 0x26A JUMPI DUP1 PUSH1 0x1F LT PUSH2 0x23F JUMPI PUSH2 0x100 DUP1 DUP4 SLOAD DIV MUL DUP4 MSTORE SWAP2 PUSH1 0x20 ADD SWAP2 PUSH2 0x26A JUMP JUMPDEST DUP3 ADD SWAP2 SWAP1 PUSH1 0x0 MSTORE PUSH1 0x20 PUSH1 0x0 KECCAK256 SWAP1 JUMPDEST DUP2 SLOAD DUP2 MSTORE SWAP1 PUSH1 0x1 ADD SWAP1 PUSH1 0x20 ADD DUP1 DUP4 GT PUSH2 0x24D JUMPI DUP3 SWAP1 SUB PUSH1 0x1F AND DUP3 ADD SWAP2 JUMPDEST POP POP POP POP POP DUP2 MSTORE PUSH1 0x20 ADD PUSH1 0x3 DUP3 ADD SLOAD DUP2 MSTORE POP POP SWAP1 POP SWAP2 SWAP1 POP JUMP JUMPDEST PUSH1 0x1 PUSH1 0x20 MSTORE DUP1 PUSH1 0x0 MSTORE PUSH1 0x40 PUSH1 0x0 KECCAK256 PUSH1 0x0 SWAP2 POP SWAP1 POP DUP1 PUSH1 0x0 ADD DUP1 SLOAD PUSH2 0x2A7 SWAP1 PUSH2 0x9F4 JUMP JUMPDEST DUP1 PUSH1 0x1F ADD PUSH1 0x20 DUP1 SWAP2 DIV MUL PUSH1 0x20 ADD PUSH1 0x40 MLOAD SWAP1 DUP2 ADD PUSH1 0x40 MSTORE DUP1 SWAP3 SWAP2 SWAP1 DUP2 DUP2 MSTORE PUSH1 0x20 ADD DUP3 DUP1 SLOAD PUSH2 0x2D3 SWAP1 PUSH2 0x9F4 JUMP JUMPDEST DUP1 ISZERO PUSH2 0x320 JUMPI DUP1 PUSH1 0x1F LT PUSH2 0x2F5 JUMPI PUSH2 0x100 DUP1 DUP4 SLOAD DIV MUL DUP4 MSTORE SWAP2 PUSH1 0x20 ADD SWAP2 PUSH2 0x320 JUMP JUMPDEST DUP3 ADD SWAP2 SWAP1 PUSH1 0x0 MSTORE PUSH1 0x20 PUSH1 0x0 KECCAK256 SWAP1 JUMPDEST DUP2 SLOAD DUP2 MSTORE SWAP1 PUSH1 0x1 ADD SWAP1 PUSH1 0x20 ADD DUP1 DUP4 GT PUSH2 0x303 JUMPI DUP3 SWAP1 SUB PUSH1 0x1F AND DUP3 ADD SWAP2 JUMPDEST POP POP POP POP POP SWAP1 DUP1 PUSH1 0x1 ADD PUSH1 0x0 SWAP1 SLOAD SWAP1 PUSH2 0x100 EXP SWAP1 DIV PUSH1 0xFF AND SWAP1 DUP1 PUSH1 0x2 ADD DUP1 SLOAD PUSH2 0x348 SWAP1 PUSH2 0x9F4 JUMP JUMPDEST DUP1 PUSH1 0x1F ADD PUSH1 0x20 DUP1 SWAP2 DIV MUL PUSH1 0x20 ADD PUSH1 0x40 MLOAD SWAP1 DUP2 ADD PUSH1 0x40 MSTORE DUP1 SWAP3 SWAP2 SWAP1 DUP2 DUP2 MSTORE PUSH1 0x20 ADD DUP3 DUP1 SLOAD PUSH2 0x374 SWAP1 PUSH2 0x9F4 JUMP JUMPDEST DUP1 ISZERO PUSH2 0x3C1 JUMPI DUP1 PUSH1 0x1F LT PUSH2 0x396 JUMPI PUSH2 0x100 DUP1 DUP4 SLOAD DIV MUL DUP4 MSTORE SWAP2 PUSH1 0x20 ADD SWAP2 PUSH2 0x3C1 JUMP JUMPDEST DUP3 ADD SWAP2 SWAP1 PUSH1 0x0 MSTORE PUSH1 0x20 PUSH1 0x0 KECCAK256 SWAP1 JUMPDEST DUP2 SLOAD DUP2 MSTORE SWAP1 PUSH1 0x1 ADD SWAP1 PUSH1 0x20 ADD DUP1 DUP4 GT PUSH2 0x3A4 JUMPI DUP3 SWAP1 SUB PUSH1 0x1F AND DUP3 ADD SWAP2 JUMPDEST POP POP POP POP POP SWAP1 DUP1 PUSH1 0x3 ADD SLOAD SWAP1 POP DUP5 JUMP JUMPDEST PUSH1 0x40 MLOAD DUP1 PUSH1 0x80 ADD PUSH1 0x40 MSTORE DUP1 DUP5 DUP2 MSTORE PUSH1 0x20 ADD PUSH1 0x1 PUSH1 0x2 DUP2 GT ISZERO PUSH2 0x3F6 JUMPI PUSH2 0x3F5 PUSH2 0xA86 JUMP JUMPDEST JUMPDEST DUP2 MSTORE PUSH1 0x20 ADD DUP4 DUP2 MSTORE PUSH1 0x20 ADD DUP3 DUP2 MSTORE POP POP PUSH1 0x40 MLOAD DUP1 PUSH1 0x80 ADD PUSH1 0x40 MSTORE DUP1 DUP5 DUP2 MSTORE PUSH1 0x20 ADD PUSH1 0x1 PUSH1 0x2 DUP2 GT ISZERO PUSH2 0x42B JUMPI PUSH2 0x42A PUSH2 0xA86 JUMP JUMPDEST JUMPDEST DUP2 MSTORE PUSH1 0x20 ADD DUP4 DUP2 MSTORE PUSH1 0x20 ADD DUP3 DUP2 MSTORE POP PUSH1 0x1 PUSH1 0x0 DUP4 DUP2 MSTORE PUSH1 0x20 ADD SWAP1 DUP2 MSTORE PUSH1 0x20 ADD PUSH1 0x0 KECCAK256 PUSH1 0x0 DUP3 ADD MLOAD DUP2 PUSH1 0x0 ADD SWAP1 DUP1 MLOAD SWAP1 PUSH1 0x20 ADD SWAP1 PUSH2 0x469 SWAP3 SWAP2 SWAP1 PUSH2 0x522 JUMP JUMPDEST POP PUSH1 0x20 DUP3 ADD MLOAD DUP2 PUSH1 0x1 ADD PUSH1 0x0 PUSH2 0x100 EXP DUP2 SLOAD DUP2 PUSH1 0xFF MUL NOT AND SWAP1 DUP4 PUSH1 0x2 DUP2 GT ISZERO PUSH2 0x495 JUMPI PUSH2 0x494 PUSH2 0xA86 JUMP JUMPDEST JUMPDEST MUL OR SWAP1 SSTORE POP PUSH1 0x40 DUP3 ADD MLOAD DUP2 PUSH1 0x2 ADD SWAP1 DUP1 MLOAD SWAP1 PUSH1 0x20 ADD SWAP1 PUSH2 0x4B6 SWAP3 SWAP2 SWAP1 PUSH2 0x522 JUMP JUMPDEST POP PUSH1 0x60 DUP3 ADD MLOAD DUP2 PUSH1 0x3 ADD SSTORE SWAP1 POP POP PUSH1 0x1 PUSH1 0x0 DUP1 DUP3 DUP3 SLOAD PUSH2 0x4D6 SWAP2 SWAP1 PUSH2 0x92D JUMP JUMPDEST SWAP3 POP POP DUP2 SWAP1 SSTORE POP POP POP POP JUMP JUMPDEST PUSH1 0x0 SLOAD DUP2 JUMP JUMPDEST PUSH1 0x40 MLOAD DUP1 PUSH1 0x80 ADD PUSH1 0x40 MSTORE DUP1 PUSH1 0x60 DUP2 MSTORE PUSH1 0x20 ADD PUSH1 0x0 PUSH1 0x2 DUP2 GT ISZERO PUSH2 0x50E JUMPI PUSH2 0x50D PUSH2 0xA86 JUMP JUMPDEST JUMPDEST DUP2 MSTORE PUSH1 0x20 ADD PUSH1 0x60 DUP2 MSTORE PUSH1 0x20 ADD PUSH1 0x0 DUP2 MSTORE POP SWAP1 JUMP JUMPDEST DUP3 DUP1 SLOAD PUSH2 0x52E SWAP1 PUSH2 0x9F4 JUMP JUMPDEST SWAP1 PUSH1 0x0 MSTORE PUSH1 0x20 PUSH1 0x0 KECCAK256 SWAP1 PUSH1 0x1F ADD PUSH1 0x20 SWAP1 DIV DUP2 ADD SWAP3 DUP3 PUSH2 0x550 JUMPI PUSH1 0x0 DUP6 SSTORE PUSH2 0x597 JUMP JUMPDEST DUP3 PUSH1 0x1F LT PUSH2 0x569 JUMPI DUP1 MLOAD PUSH1 0xFF NOT AND DUP4 DUP1 ADD OR DUP6 SSTORE PUSH2 0x597 JUMP JUMPDEST DUP3 DUP1 ADD PUSH1 0x1 ADD DUP6 SSTORE DUP3 ISZERO PUSH2 0x597 JUMPI SWAP2 DUP3 ADD JUMPDEST DUP3 DUP2 GT ISZERO PUSH2 0x596 JUMPI DUP3 MLOAD DUP3 SSTORE SWAP2 PUSH1 0x20 ADD SWAP2 SWAP1 PUSH1 0x1 ADD SWAP1 PUSH2 0x57B JUMP JUMPDEST JUMPDEST POP SWAP1 POP PUSH2 0x5A4 SWAP2 SWAP1 PUSH2 0x5A8 JUMP JUMPDEST POP SWAP1 JUMP JUMPDEST JUMPDEST DUP1 DUP3 GT ISZERO PUSH2 0x5C1 JUMPI PUSH1 0x0 DUP2 PUSH1 0x0 SWAP1 SSTORE POP PUSH1 0x1 ADD PUSH2 0x5A9 JUMP JUMPDEST POP SWAP1 JUMP JUMPDEST PUSH1 0x0 PUSH2 0x5D8 PUSH2 0x5D3 DUP5 PUSH2 0x8CF JUMP JUMPDEST PUSH2 0x8AA JUMP JUMPDEST SWAP1 POP DUP3 DUP2 MSTORE PUSH1 0x20 DUP2 ADD DUP5 DUP5 DUP5 ADD GT ISZERO PUSH2 0x5F4 JUMPI PUSH2 0x5F3 PUSH2 0xB18 JUMP JUMPDEST JUMPDEST PUSH2 0x5FF DUP5 DUP3 DUP6 PUSH2 0x9B2 JUMP JUMPDEST POP SWAP4 SWAP3 POP POP POP JUMP JUMPDEST PUSH1 0x0 DUP3 PUSH1 0x1F DUP4 ADD SLT PUSH2 0x61C JUMPI PUSH2 0x61B PUSH2 0xB13 JUMP JUMPDEST JUMPDEST DUP2 CALLDATALOAD PUSH2 0x62C DUP5 DUP3 PUSH1 0x20 DUP7 ADD PUSH2 0x5C5 JUMP JUMPDEST SWAP2 POP POP SWAP3 SWAP2 POP POP JUMP JUMPDEST PUSH1 0x0 DUP2 CALLDATALOAD SWAP1 POP PUSH2 0x644 DUP2 PUSH2 0xB4C JUMP JUMPDEST SWAP3 SWAP2 POP POP JUMP JUMPDEST PUSH1 0x0 DUP1 PUSH1 0x0 PUSH1 0x60 DUP5 DUP7 SUB SLT ISZERO PUSH2 0x663 JUMPI PUSH2 0x662 PUSH2 0xB22 JUMP JUMPDEST JUMPDEST PUSH1 0x0 DUP5 ADD CALLDATALOAD PUSH8 0xFFFFFFFFFFFFFFFF DUP2 GT ISZERO PUSH2 0x681 JUMPI PUSH2 0x680 PUSH2 0xB1D JUMP JUMPDEST JUMPDEST PUSH2 0x68D DUP7 DUP3 DUP8 ADD PUSH2 0x607 JUMP JUMPDEST SWAP4 POP POP PUSH1 0x20 DUP5 ADD CALLDATALOAD PUSH8 0xFFFFFFFFFFFFFFFF DUP2 GT ISZERO PUSH2 0x6AE JUMPI PUSH2 0x6AD PUSH2 0xB1D JUMP JUMPDEST JUMPDEST PUSH2 0x6BA DUP7 DUP3 DUP8 ADD PUSH2 0x607 JUMP JUMPDEST SWAP3 POP POP PUSH1 0x40 PUSH2 0x6CB DUP7 DUP3 DUP8 ADD PUSH2 0x635 JUMP JUMPDEST SWAP2 POP POP SWAP3 POP SWAP3 POP SWAP3 JUMP JUMPDEST PUSH1 0x0 PUSH1 0x20 DUP3 DUP5 SUB SLT ISZERO PUSH2 0x6EB JUMPI PUSH2 0x6EA PUSH2 0xB22 JUMP JUMPDEST JUMPDEST PUSH1 0x0 PUSH2 0x6F9 DUP5 DUP3 DUP6 ADD PUSH2 0x635 JUMP JUMPDEST SWAP2 POP POP SWAP3 SWAP2 POP POP JUMP JUMPDEST PUSH2 0x70B DUP2 PUSH2 0x9A0 JUMP JUMPDEST DUP3 MSTORE POP POP JUMP JUMPDEST PUSH2 0x71A DUP2 PUSH2 0x9A0 JUMP JUMPDEST DUP3 MSTORE POP POP JUMP JUMPDEST PUSH1 0x0 PUSH2 0x72B DUP3 PUSH2 0x900 JUMP JUMPDEST PUSH2 0x735 DUP2 DUP6 PUSH2 0x90B JUMP JUMPDEST SWAP4 POP PUSH2 0x745 DUP2 DUP6 PUSH1 0x20 DUP7 ADD PUSH2 0x9C1 JUMP JUMPDEST PUSH2 0x74E DUP2 PUSH2 0xB27 JUMP JUMPDEST DUP5 ADD SWAP2 POP POP SWAP3 SWAP2 POP POP JUMP JUMPDEST PUSH1 0x0 PUSH2 0x764 DUP3 PUSH2 0x900 JUMP JUMPDEST PUSH2 0x76E DUP2 DUP6 PUSH2 0x91C JUMP JUMPDEST SWAP4 POP PUSH2 0x77E DUP2 DUP6 PUSH1 0x20 DUP7 ADD PUSH2 0x9C1 JUMP JUMPDEST PUSH2 0x787 DUP2 PUSH2 0xB27 JUMP JUMPDEST DUP5 ADD SWAP2 POP POP SWAP3 SWAP2 POP POP JUMP JUMPDEST PUSH1 0x0 PUSH1 0x80 DUP4 ADD PUSH1 0x0 DUP4 ADD MLOAD DUP5 DUP3 SUB PUSH1 0x0 DUP7 ADD MSTORE PUSH2 0x7AF DUP3 DUP3 PUSH2 0x720 JUMP JUMPDEST SWAP2 POP POP PUSH1 0x20 DUP4 ADD MLOAD PUSH2 0x7C4 PUSH1 0x20 DUP7 ADD DUP3 PUSH2 0x702 JUMP JUMPDEST POP PUSH1 0x40 DUP4 ADD MLOAD DUP5 DUP3 SUB PUSH1 0x40 DUP7 ADD MSTORE PUSH2 0x7DC DUP3 DUP3 PUSH2 0x720 JUMP JUMPDEST SWAP2 POP POP PUSH1 0x60 DUP4 ADD MLOAD PUSH2 0x7F1 PUSH1 0x60 DUP7 ADD DUP3 PUSH2 0x7FC JUMP JUMPDEST POP DUP1 SWAP2 POP POP SWAP3 SWAP2 POP POP JUMP JUMPDEST PUSH2 0x805 DUP2 PUSH2 0x996 JUMP JUMPDEST DUP3 MSTORE POP POP JUMP JUMPDEST PUSH2 0x814 DUP2 PUSH2 0x996 JUMP JUMPDEST DUP3 MSTORE POP POP JUMP JUMPDEST PUSH1 0x0 PUSH1 0x80 DUP3 ADD SWAP1 POP DUP2 DUP2 SUB PUSH1 0x0 DUP4 ADD MSTORE PUSH2 0x834 DUP2 DUP8 PUSH2 0x759 JUMP JUMPDEST SWAP1 POP PUSH2 0x843 PUSH1 0x20 DUP4 ADD DUP7 PUSH2 0x711 JUMP JUMPDEST DUP2 DUP2 SUB PUSH1 0x40 DUP4 ADD MSTORE PUSH2 0x855 DUP2 DUP6 PUSH2 0x759 JUMP JUMPDEST SWAP1 POP PUSH2 0x864 PUSH1 0x60 DUP4 ADD DUP5 PUSH2 0x80B JUMP JUMPDEST SWAP6 SWAP5 POP POP POP POP POP JUMP JUMPDEST PUSH1 0x0 PUSH1 0x20 DUP3 ADD SWAP1 POP DUP2 DUP2 SUB PUSH1 0x0 DUP4 ADD MSTORE PUSH2 0x887 DUP2 DUP5 PUSH2 0x792 JUMP JUMPDEST SWAP1 POP SWAP3 SWAP2 POP POP JUMP JUMPDEST PUSH1 0x0 PUSH1 0x20 DUP3 ADD SWAP1 POP PUSH2 0x8A4 PUSH1 0x0 DUP4 ADD DUP5 PUSH2 0x80B JUMP JUMPDEST SWAP3 SWAP2 POP POP JUMP JUMPDEST PUSH1 0x0 PUSH2 0x8B4 PUSH2 0x8C5 JUMP JUMPDEST SWAP1 POP PUSH2 0x8C0 DUP3 DUP3 PUSH2 0xA26 JUMP JUMPDEST SWAP2 SWAP1 POP JUMP JUMPDEST PUSH1 0x0 PUSH1 0x40 MLOAD SWAP1 POP SWAP1 JUMP JUMPDEST PUSH1 0x0 PUSH8 0xFFFFFFFFFFFFFFFF DUP3 GT ISZERO PUSH2 0x8EA JUMPI PUSH2 0x8E9 PUSH2 0xAE4 JUMP JUMPDEST JUMPDEST PUSH2 0x8F3 DUP3 PUSH2 0xB27 JUMP JUMPDEST SWAP1 POP PUSH1 0x20 DUP2 ADD SWAP1 POP SWAP2 SWAP1 POP JUMP JUMPDEST PUSH1 0x0 DUP2 MLOAD SWAP1 POP SWAP2 SWAP1 POP JUMP JUMPDEST PUSH1 0x0 DUP3 DUP3 MSTORE PUSH1 0x20 DUP3 ADD SWAP1 POP SWAP3 SWAP2 POP POP JUMP JUMPDEST PUSH1 0x0 DUP3 DUP3 MSTORE PUSH1 0x20 DUP3 ADD SWAP1 POP SWAP3 SWAP2 POP POP JUMP JUMPDEST PUSH1 0x0 PUSH2 0x938 DUP3 PUSH2 0x996 JUMP JUMPDEST SWAP2 POP PUSH2 0x943 DUP4 PUSH2 0x996 JUMP JUMPDEST SWAP3 POP DUP3 PUSH32 0xFFFFFFFFFFFFFFFFFFFFFFFFFFFFFFFFFFFFFFFFFFFFFFFFFFFFFFFFFFFFFFFF SUB DUP3 GT ISZERO PUSH2 0x978 JUMPI PUSH2 0x977 PUSH2 0xA57 JUMP JUMPDEST JUMPDEST DUP3 DUP3 ADD SWAP1 POP SWAP3 SWAP2 POP POP JUMP JUMPDEST PUSH1 0x0 DUP2 SWAP1 POP PUSH2 0x991 DUP3 PUSH2 0xB38 JUMP JUMPDEST SWAP2 SWAP1 POP JUMP JUMPDEST PUSH1 0x0 DUP2 SWAP1 POP SWAP2 SWAP1 POP JUMP JUMPDEST PUSH1 0x0 PUSH2 0x9AB DUP3 PUSH2 0x983 JUMP JUMPDEST SWAP1 POP SWAP2 SWAP1 POP JUMP JUMPDEST DUP3 DUP2 DUP4 CALLDATACOPY PUSH1 0x0 DUP4 DUP4 ADD MSTORE POP POP POP JUMP JUMPDEST PUSH1 0x0 JUMPDEST DUP4 DUP2 LT ISZERO PUSH2 0x9DF JUMPI DUP1 DUP3 ADD MLOAD DUP2 DUP5 ADD MSTORE PUSH1 0x20 DUP2 ADD SWAP1 POP PUSH2 0x9C4 JUMP JUMPDEST DUP4 DUP2 GT ISZERO PUSH2 0x9EE JUMPI PUSH1 0x0 DUP5 DUP5 ADD MSTORE JUMPDEST POP POP POP POP JUMP JUMPDEST PUSH1 0x0 PUSH1 0x2 DUP3 DIV SWAP1 POP PUSH1 0x1 DUP3 AND DUP1 PUSH2 0xA0C JUMPI PUSH1 0x7F DUP3 AND SWAP2 POP JUMPDEST PUSH1 0x20 DUP3 LT DUP2 EQ ISZERO PUSH2 0xA20 JUMPI PUSH2 0xA1F PUSH2 0xAB5 JUMP JUMPDEST JUMPDEST POP SWAP2 SWAP1 POP JUMP JUMPDEST PUSH2 0xA2F DUP3 PUSH2 0xB27 JUMP JUMPDEST DUP2 ADD DUP2 DUP2 LT PUSH8 0xFFFFFFFFFFFFFFFF DUP3 GT OR ISZERO PUSH2 0xA4E JUMPI PUSH2 0xA4D PUSH2 0xAE4 JUMP JUMPDEST JUMPDEST DUP1 PUSH1 0x40 MSTORE POP POP POP JUMP JUMPDEST PUSH32 0x4E487B7100000000000000000000000000000000000000000000000000000000 PUSH1 0x0 MSTORE PUSH1 0x11 PUSH1 0x4 MSTORE PUSH1 0x24 PUSH1 0x0 REVERT JUMPDEST PUSH32 0x4E487B7100000000000000000000000000000000000000000000000000000000 PUSH1 0x0 MSTORE PUSH1 0x21 PUSH1 0x4 MSTORE PUSH1 0x24 PUSH1 0x0 REVERT JUMPDEST PUSH32 0x4E487B7100000000000000000000000000000000000000000000000000000000 PUSH1 0x0 MSTORE PUSH1 0x22 PUSH1 0x4 MSTORE PUSH1 0x24 PUSH1 0x0 REVERT JUMPDEST PUSH32 0x4E487B7100000000000000000000000000000000000000000000000000000000 PUSH1 0x0 MSTORE PUSH1 0x41 PUSH1 0x4 MSTORE PUSH1 0x24 PUSH1 0x0 REVERT JUMPDEST PUSH1 0x0 DUP1 REVERT JUMPDEST PUSH1 0x0 DUP1 REVERT JUMPDEST PUSH1 0x0 DUP1 REVERT JUMPDEST PUSH1 0x0 DUP1 REVERT JUMPDEST PUSH1 0x0 PUSH1 0x1F NOT PUSH1 0x1F DUP4 ADD AND SWAP1 POP SWAP2 SWAP1 POP JUMP JUMPDEST PUSH1 0x3 DUP2 LT PUSH2 0xB49 JUMPI PUSH2 0xB48 PUSH2 0xA86 JUMP JUMPDEST JUMPDEST POP JUMP JUMPDEST PUSH2 0xB55 DUP2 PUSH2 0x996 JUMP JUMPDEST DUP2 EQ PUSH2 0xB60 JUMPI PUSH1 0x0 DUP1 REVERT JUMPDEST POP JUMP INVALID LOG2 PUSH5 0x6970667358 0x22 SLT KECCAK256 0x4A PUSH6 0xD44F23CEEB2E PUSH22 0x6A54FA7D9A4D1CF4D72F067326D039C49D16ED17C85D PUSH20 0x64736F6C63430008070033000000000000000000 "
				},
				"gasEstimates": {
					"creation": {
						"codeDepositCost": "593800",
						"executionCost": "5631",
						"totalCost": "599431"
					},
					"external": {
						"addStudent(string,string,uint256)": "infinite",
						"getStudentId(uint256)": "infinite",
						"id(uint256)": "infinite",
						"studentCount()": "2473"
					}
				},
				"methodIdentifiers": {
					"addStudent(string,string,uint256)": "9cc8f139",
					"getStudentId(uint256)": "3cac51fb",
					"id(uint256)": "7d3c40c8",
					"studentCount()": "e581f9ee"
				}
			},
			"storageLayout": {
				"storage": [
					{
						"astId": 4,
						"contract": "contracts/students.sol:myStudent",
						"label": "studentCount",
						"offset": 0,
						"slot": "0",
						"type": "t_uint256"
					},
					{
						"astId": 9,
						"contract": "contracts/students.sol:myStudent",
						"label": "id",
						"offset": 0,
						"slot": "1",
						"type": "t_mapping(t_uint256,t_struct(Student)23_storage)"
					}
				],
				"types": {
					"t_enum(section)13": {
						"encoding": "inplace",
						"label": "enum myStudent.section",
						"numberOfBytes": "1"
					},
					"t_mapping(t_uint256,t_struct(Student)23_storage)": {
						"encoding": "mapping",
						"key": "t_uint256",
						"label": "mapping(uint256 => struct myStudent.Student)",
						"numberOfBytes": "32",
						"value": "t_struct(Student)23_storage"
					},
					"t_string_storage": {
						"encoding": "bytes",
						"label": "string",
						"numberOfBytes": "32"
					},
					"t_struct(Student)23_storage": {
						"encoding": "inplace",
						"label": "struct myStudent.Student",
						"members": [
							{
								"astId": 15,
								"contract": "contracts/students.sol:myStudent",
								"label": "firstName",
								"offset": 0,
								"slot": "0",
								"type": "t_string_storage"
							},
							{
								"astId": 18,
								"contract": "contracts/students.sol:myStudent",
								"label": "StudentSection",
								"offset": 0,
								"slot": "1",
								"type": "t_enum(section)13"
							},
							{
								"astId": 20,
								"contract": "contracts/students.sol:myStudent",
								"label": "lastName",
								"offset": 0,
								"slot": "2",
								"type": "t_string_storage"
							},
							{
								"astId": 22,
								"contract": "contracts/students.sol:myStudent",
								"label": "_id",
								"offset": 0,
								"slot": "3",
								"type": "t_uint256"
							}
						],
						"numberOfBytes": "128"
					},
					"t_uint256": {
						"encoding": "inplace",
						"label": "uint256",
						"numberOfBytes": "32"
					}
				}
			},
			"userdoc": {
				"kind": "user",
				"methods": {},
				"version": 1
			}
		}
	}
}