{
	"contracts/students.sol": {
		"myStudent": {
			"abi": [
				{
					"inputs": [
						{
							"internalType": "string",
							"name": "firstName",
							"type": "string"
						},
						{
							"internalType": "string",
							"name": "lastName",
							"type": "string"
						},
						{
							"internalType": "uint256",
							"name": "_id",
							"type": "uint256"
						}
					],
					"name": "addStudent",
					"outputs": [],
					"stateMutability": "nonpayable",
					"type": "function"
				},
				{
					"inputs": [
						{
							"internalType": "uint256",
							"name": "_id",
							"type": "uint256"
						}
					],
					"name": "getStudent",
					"outputs": [
						{
							"components": [
								{
									"internalType": "string",
									"name": "firstName",
									"type": "string"
								},
								{
									"internalType": "string",
									"name": "lastName",
									"type": "string"
								},
								{
									"internalType": "uint256",
									"name": "_id",
									"type": "uint256"
								}
							],
							"internalType": "struct myStudent.Student",
							"name": "",
							"type": "tuple"
						}
					],
					"stateMutability": "nonpayable",
					"type": "function"
				},
				{
					"inputs": [],
					"name": "studentCount",
					"outputs": [
						{
							"internalType": "uint256",
							"name": "",
							"type": "uint256"
						}
					],
					"stateMutability": "view",
					"type": "function"
				},
				{
					"inputs": [
						{
							"internalType": "uint256",
							"name": "",
							"type": "uint256"
						}
					],
					"name": "students",
					"outputs": [
						{
							"internalType": "string",
							"name": "firstName",
							"type": "string"
						},
						{
							"internalType": "string",
							"name": "lastName",
							"type": "string"
						},
						{
							"internalType": "uint256",
							"name": "_id",
							"type": "uint256"
						}
					],
					"stateMutability": "view",
					"type": "function"
				}
			],
			"devdoc": {
				"kind": "dev",
				"methods": {},
				"version": 1
			},
			"evm": {
				"assembly": "    /* \"contracts/students.sol\":70:579  contract myStudent{\r... */\n  mstore(0x40, 0x80)\n    /* \"contracts/students.sol\":122:123  0 */\n  0x00\n    /* \"contracts/students.sol\":95:123  uint public studentCount = 0 */\n  dup1\n  sstore\n    /* \"contracts/students.sol\":70:579  contract myStudent{\r... */\n  callvalue\n  dup1\n  iszero\n  tag_1\n  jumpi\n  0x00\n  dup1\n  revert\ntag_1:\n  pop\n  dataSize(sub_0)\n  dup1\n  dataOffset(sub_0)\n  0x00\n  codecopy\n  0x00\n  return\nstop\n\nsub_0: assembly {\n        /* \"contracts/students.sol\":70:579  contract myStudent{\r... */\n      mstore(0x40, 0x80)\n      callvalue\n      dup1\n      iszero\n      tag_1\n      jumpi\n      0x00\n      dup1\n      revert\n    tag_1:\n      pop\n      jumpi(tag_2, lt(calldatasize, 0x04))\n      shr(0xe0, calldataload(0x00))\n      dup1\n      0x06ead22e\n      eq\n      tag_3\n      jumpi\n      dup1\n      0x642f9163\n      eq\n      tag_4\n      jumpi\n      dup1\n      0x9cc8f139\n      eq\n      tag_5\n      jumpi\n      dup1\n      0xe581f9ee\n      eq\n      tag_6\n      jumpi\n    tag_2:\n      0x00\n      dup1\n      revert\n        /* \"contracts/students.sol\":130:174  mapping (uint256 => Student) public students */\n    tag_3:\n      tag_7\n      0x04\n      dup1\n      calldatasize\n      sub\n      dup2\n      add\n      swap1\n      tag_8\n      swap2\n      swap1\n      tag_9\n      jump\t// in\n    tag_8:\n      tag_10\n      jump\t// in\n    tag_7:\n      mload(0x40)\n      tag_11\n      swap4\n      swap3\n      swap2\n      swap1\n      tag_12\n      jump\t// in\n    tag_11:\n      mload(0x40)\n      dup1\n      swap2\n      sub\n      swap1\n      return\n        /* \"contracts/students.sol\":465:576  function getStudent( uint256 _id) public  returns ( Student memory )  { \r... */\n    tag_4:\n      tag_13\n      0x04\n      dup1\n      calldatasize\n      sub\n      dup2\n      add\n      swap1\n      tag_14\n      swap2\n      swap1\n      tag_9\n      jump\t// in\n    tag_14:\n      tag_15\n      jump\t// in\n    tag_13:\n      mload(0x40)\n      tag_16\n      swap2\n      swap1\n      tag_17\n      jump\t// in\n    tag_16:\n      mload(0x40)\n      dup1\n      swap2\n      sub\n      swap1\n      return\n        /* \"contracts/students.sol\":289:455  function addStudent(string memory firstName, string memory lastName, uint256 _id) public {\r... */\n    tag_5:\n      tag_18\n      0x04\n      dup1\n      calldatasize\n      sub\n      dup2\n      add\n      swap1\n      tag_19\n      swap2\n      swap1\n      tag_20\n      jump\t// in\n    tag_19:\n      tag_21\n      jump\t// in\n    tag_18:\n      stop\n        /* \"contracts/students.sol\":95:123  uint public studentCount = 0 */\n    tag_6:\n      tag_22\n      tag_23\n      jump\t// in\n    tag_22:\n      mload(0x40)\n      tag_24\n      swap2\n      swap1\n      tag_25\n      jump\t// in\n    tag_24:\n      mload(0x40)\n      dup1\n      swap2\n      sub\n      swap1\n      return\n        /* \"contracts/students.sol\":130:174  mapping (uint256 => Student) public students */\n    tag_10:\n      mstore(0x20, 0x01)\n      dup1\n      0x00\n      mstore\n      keccak256(0x00, 0x40)\n      0x00\n      swap2\n      pop\n      swap1\n      pop\n      dup1\n      0x00\n      add\n      dup1\n      sload\n      tag_26\n      swap1\n      tag_27\n      jump\t// in\n    tag_26:\n      dup1\n      0x1f\n      add\n      0x20\n      dup1\n      swap2\n      div\n      mul\n      0x20\n      add\n      mload(0x40)\n      swap1\n      dup2\n      add\n      0x40\n      mstore\n      dup1\n      swap3\n      swap2\n      swap1\n      dup2\n      dup2\n      mstore\n      0x20\n      add\n      dup3\n      dup1\n      sload\n      tag_28\n      swap1\n      tag_27\n      jump\t// in\n    tag_28:\n      dup1\n      iszero\n      tag_29\n      jumpi\n      dup1\n      0x1f\n      lt\n      tag_30\n      jumpi\n      0x0100\n      dup1\n      dup4\n      sload\n      div\n      mul\n      dup4\n      mstore\n      swap2\n      0x20\n      add\n      swap2\n      jump(tag_29)\n    tag_30:\n      dup3\n      add\n      swap2\n      swap1\n      0x00\n      mstore\n      keccak256(0x00, 0x20)\n      swap1\n    tag_31:\n      dup2\n      sload\n      dup2\n      mstore\n      swap1\n      0x01\n      add\n      swap1\n      0x20\n      add\n      dup1\n      dup4\n      gt\n      tag_31\n      jumpi\n      dup3\n      swap1\n      sub\n      0x1f\n      and\n      dup3\n      add\n      swap2\n    tag_29:\n      pop\n      pop\n      pop\n      pop\n      pop\n      swap1\n      dup1\n      0x01\n      add\n      dup1\n      sload\n      tag_32\n      swap1\n      tag_27\n      jump\t// in\n    tag_32:\n      dup1\n      0x1f\n      add\n      0x20\n      dup1\n      swap2\n      div\n      mul\n      0x20\n      add\n      mload(0x40)\n      swap1\n      dup2\n      add\n      0x40\n      mstore\n      dup1\n      swap3\n      swap2\n      swap1\n      dup2\n      dup2\n      mstore\n      0x20\n      add\n      dup3\n      dup1\n      sload\n      tag_33\n      swap1\n      tag_27\n      jump\t// in\n    tag_33:\n      dup1\n      iszero\n      tag_34\n      jumpi\n      dup1\n      0x1f\n      lt\n      tag_35\n      jumpi\n      0x0100\n      dup1\n      dup4\n      sload\n      div\n      mul\n      dup4\n      mstore\n      swap2\n      0x20\n      add\n      swap2\n      jump(tag_34)\n    tag_35:\n      dup3\n      add\n      swap2\n      swap1\n      0x00\n      mstore\n      keccak256(0x00, 0x20)\n      swap1\n    tag_36:\n      dup2\n      sload\n      dup2\n      mstore\n      swap1\n      0x01\n      add\n      swap1\n      0x20\n      add\n      dup1\n      dup4\n      gt\n      tag_36\n      jumpi\n      dup3\n      swap1\n      sub\n      0x1f\n      and\n      dup3\n      add\n      swap2\n    tag_34:\n      pop\n      pop\n      pop\n      pop\n      pop\n      swap1\n      dup1\n      0x02\n      add\n      sload\n      swap1\n      pop\n      dup4\n      jump\t// out\n        /* \"contracts/students.sol\":465:576  function getStudent( uint256 _id) public  returns ( Student memory )  { \r... */\n    tag_15:\n        /* \"contracts/students.sol\":517:531  Student memory */\n      tag_37\n      tag_38\n      jump\t// in\n    tag_37:\n        /* \"contracts/students.sol\":555:563  students */\n      0x01\n        /* \"contracts/students.sol\":555:568  students[_id] */\n      0x00\n        /* \"contracts/students.sol\":564:567  _id */\n      dup4\n        /* \"contracts/students.sol\":555:568  students[_id] */\n      dup2\n      mstore\n      0x20\n      add\n      swap1\n      dup2\n      mstore\n      0x20\n      add\n      0x00\n      keccak256\n        /* \"contracts/students.sol\":546:568  return   students[_id] */\n      mload(0x40)\n      dup1\n      0x60\n      add\n      0x40\n      mstore\n      swap1\n      dup2\n      0x00\n      dup3\n      add\n      dup1\n      sload\n      tag_40\n      swap1\n      tag_27\n      jump\t// in\n    tag_40:\n      dup1\n      0x1f\n      add\n      0x20\n      dup1\n      swap2\n      div\n      mul\n      0x20\n      add\n      mload(0x40)\n      swap1\n      dup2\n      add\n      0x40\n      mstore\n      dup1\n      swap3\n      swap2\n      swap1\n      dup2\n      dup2\n      mstore\n      0x20\n      add\n      dup3\n      dup1\n      sload\n      tag_41\n      swap1\n      tag_27\n      jump\t// in\n    tag_41:\n      dup1\n      iszero\n      tag_42\n      jumpi\n      dup1\n      0x1f\n      lt\n      tag_43\n      jumpi\n      0x0100\n      dup1\n      dup4\n      sload\n      div\n      mul\n      dup4\n      mstore\n      swap2\n      0x20\n      add\n      swap2\n      jump(tag_42)\n    tag_43:\n      dup3\n      add\n      swap2\n      swap1\n      0x00\n      mstore\n      keccak256(0x00, 0x20)\n      swap1\n    tag_44:\n      dup2\n      sload\n      dup2\n      mstore\n      swap1\n      0x01\n      add\n      swap1\n      0x20\n      add\n      dup1\n      dup4\n      gt\n      tag_44\n      jumpi\n      dup3\n      swap1\n      sub\n      0x1f\n      and\n      dup3\n      add\n      swap2\n    tag_42:\n      pop\n      pop\n      pop\n      pop\n      pop\n      dup2\n      mstore\n      0x20\n      add\n      0x01\n      dup3\n      add\n      dup1\n      sload\n      tag_45\n      swap1\n      tag_27\n      jump\t// in\n    tag_45:\n      dup1\n      0x1f\n      add\n      0x20\n      dup1\n      swap2\n      div\n      mul\n      0x20\n      add\n      mload(0x40)\n      swap1\n      dup2\n      add\n      0x40\n      mstore\n      dup1\n      swap3\n      swap2\n      swap1\n      dup2\n      dup2\n      mstore\n      0x20\n      add\n      dup3\n      dup1\n      sload\n      tag_46\n      swap1\n      tag_27\n      jump\t// in\n    tag_46:\n      dup1\n      iszero\n      tag_47\n      jumpi\n      dup1\n      0x1f\n      lt\n      tag_48\n      jumpi\n      0x0100\n      dup1\n      dup4\n      sload\n      div\n      mul\n      dup4\n      mstore\n      swap2\n      0x20\n      add\n      swap2\n      jump(tag_47)\n    tag_48:\n      dup3\n      add\n      swap2\n      swap1\n      0x00\n      mstore\n      keccak256(0x00, 0x20)\n      swap1\n    tag_49:\n      dup2\n      sload\n      dup2\n      mstore\n      swap1\n      0x01\n      add\n      swap1\n      0x20\n      add\n      dup1\n      dup4\n      gt\n      tag_49\n      jumpi\n      dup3\n      swap1\n      sub\n      0x1f\n      and\n      dup3\n      add\n      swap2\n    tag_47:\n      pop\n      pop\n      pop\n      pop\n      pop\n      dup2\n      mstore\n      0x20\n      add\n      0x02\n      dup3\n      add\n      sload\n      dup2\n      mstore\n      pop\n      pop\n      swap1\n      pop\n        /* \"contracts/students.sol\":465:576  function getStudent( uint256 _id) public  returns ( Student memory )  { \r... */\n      swap2\n      swap1\n      pop\n      jump\t// out\n        /* \"contracts/students.sol\":289:455  function addStudent(string memory firstName, string memory lastName, uint256 _id) public {\r... */\n    tag_21:\n        /* \"contracts/students.sol\":386:419  Student(firstName, lastName, _id) */\n      mload(0x40)\n      dup1\n      0x60\n      add\n      0x40\n      mstore\n      dup1\n        /* \"contracts/students.sol\":394:403  firstName */\n      dup5\n        /* \"contracts/students.sol\":386:419  Student(firstName, lastName, _id) */\n      dup2\n      mstore\n      0x20\n      add\n        /* \"contracts/students.sol\":405:413  lastName */\n      dup4\n        /* \"contracts/students.sol\":386:419  Student(firstName, lastName, _id) */\n      dup2\n      mstore\n      0x20\n      add\n        /* \"contracts/students.sol\":415:418  _id */\n      dup3\n        /* \"contracts/students.sol\":386:419  Student(firstName, lastName, _id) */\n      dup2\n      mstore\n      pop\n      pop\n        /* \"contracts/students.sol\":446:447  1 */\n      0x01\n        /* \"contracts/students.sol\":430:442  studentCount */\n      0x00\n      dup1\n        /* \"contracts/students.sol\":430:447  studentCount += 1 */\n      dup3\n      dup3\n      sload\n      tag_51\n      swap2\n      swap1\n      tag_52\n      jump\t// in\n    tag_51:\n      swap3\n      pop\n      pop\n      dup2\n      swap1\n      sstore\n      pop\n        /* \"contracts/students.sol\":289:455  function addStudent(string memory firstName, string memory lastName, uint256 _id) public {\r... */\n      pop\n      pop\n      pop\n      jump\t// out\n        /* \"contracts/students.sol\":95:123  uint public studentCount = 0 */\n    tag_23:\n      sload(0x00)\n      dup2\n      jump\t// out\n    tag_38:\n      mload(0x40)\n      dup1\n      0x60\n      add\n      0x40\n      mstore\n      dup1\n      0x60\n      dup2\n      mstore\n      0x20\n      add\n      0x60\n      dup2\n      mstore\n      0x20\n      add\n      0x00\n      dup2\n      mstore\n      pop\n      swap1\n      jump\t// out\n        /* \"#utility.yul\":7:419   */\n    tag_54:\n        /* \"#utility.yul\":85:90   */\n      0x00\n        /* \"#utility.yul\":110:176   */\n      tag_56\n        /* \"#utility.yul\":126:175   */\n      tag_57\n        /* \"#utility.yul\":168:174   */\n      dup5\n        /* \"#utility.yul\":126:175   */\n      tag_58\n      jump\t// in\n    tag_57:\n        /* \"#utility.yul\":110:176   */\n      tag_59\n      jump\t// in\n    tag_56:\n        /* \"#utility.yul\":101:176   */\n      swap1\n      pop\n        /* \"#utility.yul\":199:205   */\n      dup3\n        /* \"#utility.yul\":192:197   */\n      dup2\n        /* \"#utility.yul\":185:206   */\n      mstore\n        /* \"#utility.yul\":237:241   */\n      0x20\n        /* \"#utility.yul\":230:235   */\n      dup2\n        /* \"#utility.yul\":226:242   */\n      add\n        /* \"#utility.yul\":275:278   */\n      dup5\n        /* \"#utility.yul\":266:272   */\n      dup5\n        /* \"#utility.yul\":261:264   */\n      dup5\n        /* \"#utility.yul\":257:273   */\n      add\n        /* \"#utility.yul\":254:279   */\n      gt\n        /* \"#utility.yul\":251:363   */\n      iszero\n      tag_60\n      jumpi\n        /* \"#utility.yul\":282:361   */\n      tag_61\n      tag_62\n      jump\t// in\n    tag_61:\n        /* \"#utility.yul\":251:363   */\n    tag_60:\n        /* \"#utility.yul\":372:413   */\n      tag_63\n        /* \"#utility.yul\":406:412   */\n      dup5\n        /* \"#utility.yul\":401:404   */\n      dup3\n        /* \"#utility.yul\":396:399   */\n      dup6\n        /* \"#utility.yul\":372:413   */\n      tag_64\n      jump\t// in\n    tag_63:\n        /* \"#utility.yul\":91:419   */\n      pop\n        /* \"#utility.yul\":7:419   */\n      swap4\n      swap3\n      pop\n      pop\n      pop\n      jump\t// out\n        /* \"#utility.yul\":439:779   */\n    tag_65:\n        /* \"#utility.yul\":495:500   */\n      0x00\n        /* \"#utility.yul\":544:547   */\n      dup3\n        /* \"#utility.yul\":537:541   */\n      0x1f\n        /* \"#utility.yul\":529:535   */\n      dup4\n        /* \"#utility.yul\":525:542   */\n      add\n        /* \"#utility.yul\":521:548   */\n      slt\n        /* \"#utility.yul\":511:633   */\n      tag_67\n      jumpi\n        /* \"#utility.yul\":552:631   */\n      tag_68\n      tag_69\n      jump\t// in\n    tag_68:\n        /* \"#utility.yul\":511:633   */\n    tag_67:\n        /* \"#utility.yul\":669:675   */\n      dup2\n        /* \"#utility.yul\":656:676   */\n      calldataload\n        /* \"#utility.yul\":694:773   */\n      tag_70\n        /* \"#utility.yul\":769:772   */\n      dup5\n        /* \"#utility.yul\":761:767   */\n      dup3\n        /* \"#utility.yul\":754:758   */\n      0x20\n        /* \"#utility.yul\":746:752   */\n      dup7\n        /* \"#utility.yul\":742:759   */\n      add\n        /* \"#utility.yul\":694:773   */\n      tag_54\n      jump\t// in\n    tag_70:\n        /* \"#utility.yul\":685:773   */\n      swap2\n      pop\n        /* \"#utility.yul\":501:779   */\n      pop\n        /* \"#utility.yul\":439:779   */\n      swap3\n      swap2\n      pop\n      pop\n      jump\t// out\n        /* \"#utility.yul\":785:924   */\n    tag_71:\n        /* \"#utility.yul\":831:836   */\n      0x00\n        /* \"#utility.yul\":869:875   */\n      dup2\n        /* \"#utility.yul\":856:876   */\n      calldataload\n        /* \"#utility.yul\":847:876   */\n      swap1\n      pop\n        /* \"#utility.yul\":885:918   */\n      tag_73\n        /* \"#utility.yul\":912:917   */\n      dup2\n        /* \"#utility.yul\":885:918   */\n      tag_74\n      jump\t// in\n    tag_73:\n        /* \"#utility.yul\":785:924   */\n      swap3\n      swap2\n      pop\n      pop\n      jump\t// out\n        /* \"#utility.yul\":930:1909   */\n    tag_20:\n        /* \"#utility.yul\":1027:1033   */\n      0x00\n        /* \"#utility.yul\":1035:1041   */\n      dup1\n        /* \"#utility.yul\":1043:1049   */\n      0x00\n        /* \"#utility.yul\":1092:1094   */\n      0x60\n        /* \"#utility.yul\":1080:1089   */\n      dup5\n        /* \"#utility.yul\":1071:1078   */\n      dup7\n        /* \"#utility.yul\":1067:1090   */\n      sub\n        /* \"#utility.yul\":1063:1095   */\n      slt\n        /* \"#utility.yul\":1060:1179   */\n      iszero\n      tag_76\n      jumpi\n        /* \"#utility.yul\":1098:1177   */\n      tag_77\n      tag_78\n      jump\t// in\n    tag_77:\n        /* \"#utility.yul\":1060:1179   */\n    tag_76:\n        /* \"#utility.yul\":1246:1247   */\n      0x00\n        /* \"#utility.yul\":1235:1244   */\n      dup5\n        /* \"#utility.yul\":1231:1248   */\n      add\n        /* \"#utility.yul\":1218:1249   */\n      calldataload\n        /* \"#utility.yul\":1276:1294   */\n      0xffffffffffffffff\n        /* \"#utility.yul\":1268:1274   */\n      dup2\n        /* \"#utility.yul\":1265:1295   */\n      gt\n        /* \"#utility.yul\":1262:1379   */\n      iszero\n      tag_79\n      jumpi\n        /* \"#utility.yul\":1298:1377   */\n      tag_80\n      tag_81\n      jump\t// in\n    tag_80:\n        /* \"#utility.yul\":1262:1379   */\n    tag_79:\n        /* \"#utility.yul\":1403:1466   */\n      tag_82\n        /* \"#utility.yul\":1458:1465   */\n      dup7\n        /* \"#utility.yul\":1449:1455   */\n      dup3\n        /* \"#utility.yul\":1438:1447   */\n      dup8\n        /* \"#utility.yul\":1434:1456   */\n      add\n        /* \"#utility.yul\":1403:1466   */\n      tag_65\n      jump\t// in\n    tag_82:\n        /* \"#utility.yul\":1393:1466   */\n      swap4\n      pop\n        /* \"#utility.yul\":1189:1476   */\n      pop\n        /* \"#utility.yul\":1543:1545   */\n      0x20\n        /* \"#utility.yul\":1532:1541   */\n      dup5\n        /* \"#utility.yul\":1528:1546   */\n      add\n        /* \"#utility.yul\":1515:1547   */\n      calldataload\n        /* \"#utility.yul\":1574:1592   */\n      0xffffffffffffffff\n        /* \"#utility.yul\":1566:1572   */\n      dup2\n        /* \"#utility.yul\":1563:1593   */\n      gt\n        /* \"#utility.yul\":1560:1677   */\n      iszero\n      tag_83\n      jumpi\n        /* \"#utility.yul\":1596:1675   */\n      tag_84\n      tag_81\n      jump\t// in\n    tag_84:\n        /* \"#utility.yul\":1560:1677   */\n    tag_83:\n        /* \"#utility.yul\":1701:1764   */\n      tag_85\n        /* \"#utility.yul\":1756:1763   */\n      dup7\n        /* \"#utility.yul\":1747:1753   */\n      dup3\n        /* \"#utility.yul\":1736:1745   */\n      dup8\n        /* \"#utility.yul\":1732:1754   */\n      add\n        /* \"#utility.yul\":1701:1764   */\n      tag_65\n      jump\t// in\n    tag_85:\n        /* \"#utility.yul\":1691:1764   */\n      swap3\n      pop\n        /* \"#utility.yul\":1486:1774   */\n      pop\n        /* \"#utility.yul\":1813:1815   */\n      0x40\n        /* \"#utility.yul\":1839:1892   */\n      tag_86\n        /* \"#utility.yul\":1884:1891   */\n      dup7\n        /* \"#utility.yul\":1875:1881   */\n      dup3\n        /* \"#utility.yul\":1864:1873   */\n      dup8\n        /* \"#utility.yul\":1860:1882   */\n      add\n        /* \"#utility.yul\":1839:1892   */\n      tag_71\n      jump\t// in\n    tag_86:\n        /* \"#utility.yul\":1829:1892   */\n      swap2\n      pop\n        /* \"#utility.yul\":1784:1902   */\n      pop\n        /* \"#utility.yul\":930:1909   */\n      swap3\n      pop\n      swap3\n      pop\n      swap3\n      jump\t// out\n        /* \"#utility.yul\":1915:2244   */\n    tag_9:\n        /* \"#utility.yul\":1974:1980   */\n      0x00\n        /* \"#utility.yul\":2023:2025   */\n      0x20\n        /* \"#utility.yul\":2011:2020   */\n      dup3\n        /* \"#utility.yul\":2002:2009   */\n      dup5\n        /* \"#utility.yul\":1998:2021   */\n      sub\n        /* \"#utility.yul\":1994:2026   */\n      slt\n        /* \"#utility.yul\":1991:2110   */\n      iszero\n      tag_88\n      jumpi\n        /* \"#utility.yul\":2029:2108   */\n      tag_89\n      tag_78\n      jump\t// in\n    tag_89:\n        /* \"#utility.yul\":1991:2110   */\n    tag_88:\n        /* \"#utility.yul\":2149:2150   */\n      0x00\n        /* \"#utility.yul\":2174:2227   */\n      tag_90\n        /* \"#utility.yul\":2219:2226   */\n      dup5\n        /* \"#utility.yul\":2210:2216   */\n      dup3\n        /* \"#utility.yul\":2199:2208   */\n      dup6\n        /* \"#utility.yul\":2195:2217   */\n      add\n        /* \"#utility.yul\":2174:2227   */\n      tag_71\n      jump\t// in\n    tag_90:\n        /* \"#utility.yul\":2164:2227   */\n      swap2\n      pop\n        /* \"#utility.yul\":2120:2237   */\n      pop\n        /* \"#utility.yul\":1915:2244   */\n      swap3\n      swap2\n      pop\n      pop\n      jump\t// out\n        /* \"#utility.yul\":2250:2594   */\n    tag_91:\n        /* \"#utility.yul\":2328:2331   */\n      0x00\n        /* \"#utility.yul\":2356:2395   */\n      tag_93\n        /* \"#utility.yul\":2389:2394   */\n      dup3\n        /* \"#utility.yul\":2356:2395   */\n      tag_94\n      jump\t// in\n    tag_93:\n        /* \"#utility.yul\":2411:2472   */\n      tag_95\n        /* \"#utility.yul\":2465:2471   */\n      dup2\n        /* \"#utility.yul\":2460:2463   */\n      dup6\n        /* \"#utility.yul\":2411:2472   */\n      tag_96\n      jump\t// in\n    tag_95:\n        /* \"#utility.yul\":2404:2472   */\n      swap4\n      pop\n        /* \"#utility.yul\":2481:2533   */\n      tag_97\n        /* \"#utility.yul\":2526:2532   */\n      dup2\n        /* \"#utility.yul\":2521:2524   */\n      dup6\n        /* \"#utility.yul\":2514:2518   */\n      0x20\n        /* \"#utility.yul\":2507:2512   */\n      dup7\n        /* \"#utility.yul\":2503:2519   */\n      add\n        /* \"#utility.yul\":2481:2533   */\n      tag_98\n      jump\t// in\n    tag_97:\n        /* \"#utility.yul\":2558:2587   */\n      tag_99\n        /* \"#utility.yul\":2580:2586   */\n      dup2\n        /* \"#utility.yul\":2558:2587   */\n      tag_100\n      jump\t// in\n    tag_99:\n        /* \"#utility.yul\":2553:2556   */\n      dup5\n        /* \"#utility.yul\":2549:2588   */\n      add\n        /* \"#utility.yul\":2542:2588   */\n      swap2\n      pop\n        /* \"#utility.yul\":2332:2594   */\n      pop\n        /* \"#utility.yul\":2250:2594   */\n      swap3\n      swap2\n      pop\n      pop\n      jump\t// out\n        /* \"#utility.yul\":2600:2964   */\n    tag_101:\n        /* \"#utility.yul\":2688:2691   */\n      0x00\n        /* \"#utility.yul\":2716:2755   */\n      tag_103\n        /* \"#utility.yul\":2749:2754   */\n      dup3\n        /* \"#utility.yul\":2716:2755   */\n      tag_94\n      jump\t// in\n    tag_103:\n        /* \"#utility.yul\":2771:2842   */\n      tag_104\n        /* \"#utility.yul\":2835:2841   */\n      dup2\n        /* \"#utility.yul\":2830:2833   */\n      dup6\n        /* \"#utility.yul\":2771:2842   */\n      tag_105\n      jump\t// in\n    tag_104:\n        /* \"#utility.yul\":2764:2842   */\n      swap4\n      pop\n        /* \"#utility.yul\":2851:2903   */\n      tag_106\n        /* \"#utility.yul\":2896:2902   */\n      dup2\n        /* \"#utility.yul\":2891:2894   */\n      dup6\n        /* \"#utility.yul\":2884:2888   */\n      0x20\n        /* \"#utility.yul\":2877:2882   */\n      dup7\n        /* \"#utility.yul\":2873:2889   */\n      add\n        /* \"#utility.yul\":2851:2903   */\n      tag_98\n      jump\t// in\n    tag_106:\n        /* \"#utility.yul\":2928:2957   */\n      tag_107\n        /* \"#utility.yul\":2950:2956   */\n      dup2\n        /* \"#utility.yul\":2928:2957   */\n      tag_100\n      jump\t// in\n    tag_107:\n        /* \"#utility.yul\":2923:2926   */\n      dup5\n        /* \"#utility.yul\":2919:2958   */\n      add\n        /* \"#utility.yul\":2912:2958   */\n      swap2\n      pop\n        /* \"#utility.yul\":2692:2964   */\n      pop\n        /* \"#utility.yul\":2600:2964   */\n      swap3\n      swap2\n      pop\n      pop\n      jump\t// out\n        /* \"#utility.yul\":3030:3885   */\n    tag_108:\n        /* \"#utility.yul\":3145:3148   */\n      0x00\n        /* \"#utility.yul\":3181:3185   */\n      0x60\n        /* \"#utility.yul\":3176:3179   */\n      dup4\n        /* \"#utility.yul\":3172:3186   */\n      add\n        /* \"#utility.yul\":3273:3277   */\n      0x00\n        /* \"#utility.yul\":3266:3271   */\n      dup4\n        /* \"#utility.yul\":3262:3278   */\n      add\n        /* \"#utility.yul\":3256:3279   */\n      mload\n        /* \"#utility.yul\":3326:3329   */\n      dup5\n        /* \"#utility.yul\":3320:3324   */\n      dup3\n        /* \"#utility.yul\":3316:3330   */\n      sub\n        /* \"#utility.yul\":3309:3313   */\n      0x00\n        /* \"#utility.yul\":3304:3307   */\n      dup7\n        /* \"#utility.yul\":3300:3314   */\n      add\n        /* \"#utility.yul\":3293:3331   */\n      mstore\n        /* \"#utility.yul\":3352:3425   */\n      tag_110\n        /* \"#utility.yul\":3420:3424   */\n      dup3\n        /* \"#utility.yul\":3406:3418   */\n      dup3\n        /* \"#utility.yul\":3352:3425   */\n      tag_91\n      jump\t// in\n    tag_110:\n        /* \"#utility.yul\":3344:3425   */\n      swap2\n      pop\n        /* \"#utility.yul\":3196:3436   */\n      pop\n        /* \"#utility.yul\":3522:3526   */\n      0x20\n        /* \"#utility.yul\":3515:3520   */\n      dup4\n        /* \"#utility.yul\":3511:3527   */\n      add\n        /* \"#utility.yul\":3505:3528   */\n      mload\n        /* \"#utility.yul\":3575:3578   */\n      dup5\n        /* \"#utility.yul\":3569:3573   */\n      dup3\n        /* \"#utility.yul\":3565:3579   */\n      sub\n        /* \"#utility.yul\":3558:3562   */\n      0x20\n        /* \"#utility.yul\":3553:3556   */\n      dup7\n        /* \"#utility.yul\":3549:3563   */\n      add\n        /* \"#utility.yul\":3542:3580   */\n      mstore\n        /* \"#utility.yul\":3601:3674   */\n      tag_111\n        /* \"#utility.yul\":3669:3673   */\n      dup3\n        /* \"#utility.yul\":3655:3667   */\n      dup3\n        /* \"#utility.yul\":3601:3674   */\n      tag_91\n      jump\t// in\n    tag_111:\n        /* \"#utility.yul\":3593:3674   */\n      swap2\n      pop\n        /* \"#utility.yul\":3446:3685   */\n      pop\n        /* \"#utility.yul\":3766:3770   */\n      0x40\n        /* \"#utility.yul\":3759:3764   */\n      dup4\n        /* \"#utility.yul\":3755:3771   */\n      add\n        /* \"#utility.yul\":3749:3772   */\n      mload\n        /* \"#utility.yul\":3785:3848   */\n      tag_112\n        /* \"#utility.yul\":3842:3846   */\n      0x40\n        /* \"#utility.yul\":3837:3840   */\n      dup7\n        /* \"#utility.yul\":3833:3847   */\n      add\n        /* \"#utility.yul\":3819:3831   */\n      dup3\n        /* \"#utility.yul\":3785:3848   */\n      tag_113\n      jump\t// in\n    tag_112:\n        /* \"#utility.yul\":3695:3858   */\n      pop\n        /* \"#utility.yul\":3875:3879   */\n      dup1\n        /* \"#utility.yul\":3868:3879   */\n      swap2\n      pop\n        /* \"#utility.yul\":3150:3885   */\n      pop\n        /* \"#utility.yul\":3030:3885   */\n      swap3\n      swap2\n      pop\n      pop\n      jump\t// out\n        /* \"#utility.yul\":3891:3999   */\n    tag_113:\n        /* \"#utility.yul\":3968:3992   */\n      tag_115\n        /* \"#utility.yul\":3986:3991   */\n      dup2\n        /* \"#utility.yul\":3968:3992   */\n      tag_116\n      jump\t// in\n    tag_115:\n        /* \"#utility.yul\":3963:3966   */\n      dup3\n        /* \"#utility.yul\":3956:3993   */\n      mstore\n        /* \"#utility.yul\":3891:3999   */\n      pop\n      pop\n      jump\t// out\n        /* \"#utility.yul\":4005:4123   */\n    tag_117:\n        /* \"#utility.yul\":4092:4116   */\n      tag_119\n        /* \"#utility.yul\":4110:4115   */\n      dup2\n        /* \"#utility.yul\":4092:4116   */\n      tag_116\n      jump\t// in\n    tag_119:\n        /* \"#utility.yul\":4087:4090   */\n      dup3\n        /* \"#utility.yul\":4080:4117   */\n      mstore\n        /* \"#utility.yul\":4005:4123   */\n      pop\n      pop\n      jump\t// out\n        /* \"#utility.yul\":4129:4753   */\n    tag_12:\n        /* \"#utility.yul\":4318:4322   */\n      0x00\n        /* \"#utility.yul\":4356:4358   */\n      0x60\n        /* \"#utility.yul\":4345:4354   */\n      dup3\n        /* \"#utility.yul\":4341:4359   */\n      add\n        /* \"#utility.yul\":4333:4359   */\n      swap1\n      pop\n        /* \"#utility.yul\":4405:4414   */\n      dup2\n        /* \"#utility.yul\":4399:4403   */\n      dup2\n        /* \"#utility.yul\":4395:4415   */\n      sub\n        /* \"#utility.yul\":4391:4392   */\n      0x00\n        /* \"#utility.yul\":4380:4389   */\n      dup4\n        /* \"#utility.yul\":4376:4393   */\n      add\n        /* \"#utility.yul\":4369:4416   */\n      mstore\n        /* \"#utility.yul\":4433:4511   */\n      tag_121\n        /* \"#utility.yul\":4506:4510   */\n      dup2\n        /* \"#utility.yul\":4497:4503   */\n      dup7\n        /* \"#utility.yul\":4433:4511   */\n      tag_101\n      jump\t// in\n    tag_121:\n        /* \"#utility.yul\":4425:4511   */\n      swap1\n      pop\n        /* \"#utility.yul\":4558:4567   */\n      dup2\n        /* \"#utility.yul\":4552:4556   */\n      dup2\n        /* \"#utility.yul\":4548:4568   */\n      sub\n        /* \"#utility.yul\":4543:4545   */\n      0x20\n        /* \"#utility.yul\":4532:4541   */\n      dup4\n        /* \"#utility.yul\":4528:4546   */\n      add\n        /* \"#utility.yul\":4521:4569   */\n      mstore\n        /* \"#utility.yul\":4586:4664   */\n      tag_122\n        /* \"#utility.yul\":4659:4663   */\n      dup2\n        /* \"#utility.yul\":4650:4656   */\n      dup6\n        /* \"#utility.yul\":4586:4664   */\n      tag_101\n      jump\t// in\n    tag_122:\n        /* \"#utility.yul\":4578:4664   */\n      swap1\n      pop\n        /* \"#utility.yul\":4674:4746   */\n      tag_123\n        /* \"#utility.yul\":4742:4744   */\n      0x40\n        /* \"#utility.yul\":4731:4740   */\n      dup4\n        /* \"#utility.yul\":4727:4745   */\n      add\n        /* \"#utility.yul\":4718:4724   */\n      dup5\n        /* \"#utility.yul\":4674:4746   */\n      tag_117\n      jump\t// in\n    tag_123:\n        /* \"#utility.yul\":4129:4753   */\n      swap5\n      swap4\n      pop\n      pop\n      pop\n      pop\n      jump\t// out\n        /* \"#utility.yul\":4759:5124   */\n    tag_17:\n        /* \"#utility.yul\":4898:4902   */\n      0x00\n        /* \"#utility.yul\":4936:4938   */\n      0x20\n        /* \"#utility.yul\":4925:4934   */\n      dup3\n        /* \"#utility.yul\":4921:4939   */\n      add\n        /* \"#utility.yul\":4913:4939   */\n      swap1\n      pop\n        /* \"#utility.yul\":4985:4994   */\n      dup2\n        /* \"#utility.yul\":4979:4983   */\n      dup2\n        /* \"#utility.yul\":4975:4995   */\n      sub\n        /* \"#utility.yul\":4971:4972   */\n      0x00\n        /* \"#utility.yul\":4960:4969   */\n      dup4\n        /* \"#utility.yul\":4956:4973   */\n      add\n        /* \"#utility.yul\":4949:4996   */\n      mstore\n        /* \"#utility.yul\":5013:5117   */\n      tag_125\n        /* \"#utility.yul\":5112:5116   */\n      dup2\n        /* \"#utility.yul\":5103:5109   */\n      dup5\n        /* \"#utility.yul\":5013:5117   */\n      tag_108\n      jump\t// in\n    tag_125:\n        /* \"#utility.yul\":5005:5117   */\n      swap1\n      pop\n        /* \"#utility.yul\":4759:5124   */\n      swap3\n      swap2\n      pop\n      pop\n      jump\t// out\n        /* \"#utility.yul\":5130:5352   */\n    tag_25:\n        /* \"#utility.yul\":5223:5227   */\n      0x00\n        /* \"#utility.yul\":5261:5263   */\n      0x20\n        /* \"#utility.yul\":5250:5259   */\n      dup3\n        /* \"#utility.yul\":5246:5264   */\n      add\n        /* \"#utility.yul\":5238:5264   */\n      swap1\n      pop\n        /* \"#utility.yul\":5274:5345   */\n      tag_127\n        /* \"#utility.yul\":5342:5343   */\n      0x00\n        /* \"#utility.yul\":5331:5340   */\n      dup4\n        /* \"#utility.yul\":5327:5344   */\n      add\n        /* \"#utility.yul\":5318:5324   */\n      dup5\n        /* \"#utility.yul\":5274:5345   */\n      tag_117\n      jump\t// in\n    tag_127:\n        /* \"#utility.yul\":5130:5352   */\n      swap3\n      swap2\n      pop\n      pop\n      jump\t// out\n        /* \"#utility.yul\":5358:5487   */\n    tag_59:\n        /* \"#utility.yul\":5392:5398   */\n      0x00\n        /* \"#utility.yul\":5419:5439   */\n      tag_129\n      tag_130\n      jump\t// in\n    tag_129:\n        /* \"#utility.yul\":5409:5439   */\n      swap1\n      pop\n        /* \"#utility.yul\":5448:5481   */\n      tag_131\n        /* \"#utility.yul\":5476:5480   */\n      dup3\n        /* \"#utility.yul\":5468:5474   */\n      dup3\n        /* \"#utility.yul\":5448:5481   */\n      tag_132\n      jump\t// in\n    tag_131:\n        /* \"#utility.yul\":5358:5487   */\n      swap2\n      swap1\n      pop\n      jump\t// out\n        /* \"#utility.yul\":5493:5568   */\n    tag_130:\n        /* \"#utility.yul\":5526:5532   */\n      0x00\n        /* \"#utility.yul\":5559:5561   */\n      0x40\n        /* \"#utility.yul\":5553:5562   */\n      mload\n        /* \"#utility.yul\":5543:5562   */\n      swap1\n      pop\n        /* \"#utility.yul\":5493:5568   */\n      swap1\n      jump\t// out\n        /* \"#utility.yul\":5574:5882   */\n    tag_58:\n        /* \"#utility.yul\":5636:5640   */\n      0x00\n        /* \"#utility.yul\":5726:5744   */\n      0xffffffffffffffff\n        /* \"#utility.yul\":5718:5724   */\n      dup3\n        /* \"#utility.yul\":5715:5745   */\n      gt\n        /* \"#utility.yul\":5712:5768   */\n      iszero\n      tag_135\n      jumpi\n        /* \"#utility.yul\":5748:5766   */\n      tag_136\n      tag_137\n      jump\t// in\n    tag_136:\n        /* \"#utility.yul\":5712:5768   */\n    tag_135:\n        /* \"#utility.yul\":5786:5815   */\n      tag_138\n        /* \"#utility.yul\":5808:5814   */\n      dup3\n        /* \"#utility.yul\":5786:5815   */\n      tag_100\n      jump\t// in\n    tag_138:\n        /* \"#utility.yul\":5778:5815   */\n      swap1\n      pop\n        /* \"#utility.yul\":5870:5874   */\n      0x20\n        /* \"#utility.yul\":5864:5868   */\n      dup2\n        /* \"#utility.yul\":5860:5875   */\n      add\n        /* \"#utility.yul\":5852:5875   */\n      swap1\n      pop\n        /* \"#utility.yul\":5574:5882   */\n      swap2\n      swap1\n      pop\n      jump\t// out\n        /* \"#utility.yul\":5888:5987   */\n    tag_94:\n        /* \"#utility.yul\":5940:5946   */\n      0x00\n        /* \"#utility.yul\":5974:5979   */\n      dup2\n        /* \"#utility.yul\":5968:5980   */\n      mload\n        /* \"#utility.yul\":5958:5980   */\n      swap1\n      pop\n        /* \"#utility.yul\":5888:5987   */\n      swap2\n      swap1\n      pop\n      jump\t// out\n        /* \"#utility.yul\":5993:6152   */\n    tag_96:\n        /* \"#utility.yul\":6067:6078   */\n      0x00\n        /* \"#utility.yul\":6101:6107   */\n      dup3\n        /* \"#utility.yul\":6096:6099   */\n      dup3\n        /* \"#utility.yul\":6089:6108   */\n      mstore\n        /* \"#utility.yul\":6141:6145   */\n      0x20\n        /* \"#utility.yul\":6136:6139   */\n      dup3\n        /* \"#utility.yul\":6132:6146   */\n      add\n        /* \"#utility.yul\":6117:6146   */\n      swap1\n      pop\n        /* \"#utility.yul\":5993:6152   */\n      swap3\n      swap2\n      pop\n      pop\n      jump\t// out\n        /* \"#utility.yul\":6158:6327   */\n    tag_105:\n        /* \"#utility.yul\":6242:6253   */\n      0x00\n        /* \"#utility.yul\":6276:6282   */\n      dup3\n        /* \"#utility.yul\":6271:6274   */\n      dup3\n        /* \"#utility.yul\":6264:6283   */\n      mstore\n        /* \"#utility.yul\":6316:6320   */\n      0x20\n        /* \"#utility.yul\":6311:6314   */\n      dup3\n        /* \"#utility.yul\":6307:6321   */\n      add\n        /* \"#utility.yul\":6292:6321   */\n      swap1\n      pop\n        /* \"#utility.yul\":6158:6327   */\n      swap3\n      swap2\n      pop\n      pop\n      jump\t// out\n        /* \"#utility.yul\":6333:6638   */\n    tag_52:\n        /* \"#utility.yul\":6373:6376   */\n      0x00\n        /* \"#utility.yul\":6392:6412   */\n      tag_143\n        /* \"#utility.yul\":6410:6411   */\n      dup3\n        /* \"#utility.yul\":6392:6412   */\n      tag_116\n      jump\t// in\n    tag_143:\n        /* \"#utility.yul\":6387:6412   */\n      swap2\n      pop\n        /* \"#utility.yul\":6426:6446   */\n      tag_144\n        /* \"#utility.yul\":6444:6445   */\n      dup4\n        /* \"#utility.yul\":6426:6446   */\n      tag_116\n      jump\t// in\n    tag_144:\n        /* \"#utility.yul\":6421:6446   */\n      swap3\n      pop\n        /* \"#utility.yul\":6580:6581   */\n      dup3\n        /* \"#utility.yul\":6512:6578   */\n      0xffffffffffffffffffffffffffffffffffffffffffffffffffffffffffffffff\n        /* \"#utility.yul\":6508:6582   */\n      sub\n        /* \"#utility.yul\":6505:6506   */\n      dup3\n        /* \"#utility.yul\":6502:6583   */\n      gt\n        /* \"#utility.yul\":6499:6606   */\n      iszero\n      tag_145\n      jumpi\n        /* \"#utility.yul\":6586:6604   */\n      tag_146\n      tag_147\n      jump\t// in\n    tag_146:\n        /* \"#utility.yul\":6499:6606   */\n    tag_145:\n        /* \"#utility.yul\":6630:6631   */\n      dup3\n        /* \"#utility.yul\":6627:6628   */\n      dup3\n        /* \"#utility.yul\":6623:6632   */\n      add\n        /* \"#utility.yul\":6616:6632   */\n      swap1\n      pop\n        /* \"#utility.yul\":6333:6638   */\n      swap3\n      swap2\n      pop\n      pop\n      jump\t// out\n        /* \"#utility.yul\":6644:6721   */\n    tag_116:\n        /* \"#utility.yul\":6681:6688   */\n      0x00\n        /* \"#utility.yul\":6710:6715   */\n      dup2\n        /* \"#utility.yul\":6699:6715   */\n      swap1\n      pop\n        /* \"#utility.yul\":6644:6721   */\n      swap2\n      swap1\n      pop\n      jump\t// out\n        /* \"#utility.yul\":6727:6881   */\n    tag_64:\n        /* \"#utility.yul\":6811:6817   */\n      dup3\n        /* \"#utility.yul\":6806:6809   */\n      dup2\n        /* \"#utility.yul\":6801:6804   */\n      dup4\n        /* \"#utility.yul\":6788:6818   */\n      calldatacopy\n        /* \"#utility.yul\":6873:6874   */\n      0x00\n        /* \"#utility.yul\":6864:6870   */\n      dup4\n        /* \"#utility.yul\":6859:6862   */\n      dup4\n        /* \"#utility.yul\":6855:6871   */\n      add\n        /* \"#utility.yul\":6848:6875   */\n      mstore\n        /* \"#utility.yul\":6727:6881   */\n      pop\n      pop\n      pop\n      jump\t// out\n        /* \"#utility.yul\":6887:7194   */\n    tag_98:\n        /* \"#utility.yul\":6955:6956   */\n      0x00\n        /* \"#utility.yul\":6965:7078   */\n    tag_151:\n        /* \"#utility.yul\":6979:6985   */\n      dup4\n        /* \"#utility.yul\":6976:6977   */\n      dup2\n        /* \"#utility.yul\":6973:6986   */\n      lt\n        /* \"#utility.yul\":6965:7078   */\n      iszero\n      tag_153\n      jumpi\n        /* \"#utility.yul\":7064:7065   */\n      dup1\n        /* \"#utility.yul\":7059:7062   */\n      dup3\n        /* \"#utility.yul\":7055:7066   */\n      add\n        /* \"#utility.yul\":7049:7067   */\n      mload\n        /* \"#utility.yul\":7045:7046   */\n      dup2\n        /* \"#utility.yul\":7040:7043   */\n      dup5\n        /* \"#utility.yul\":7036:7047   */\n      add\n        /* \"#utility.yul\":7029:7068   */\n      mstore\n        /* \"#utility.yul\":7001:7003   */\n      0x20\n        /* \"#utility.yul\":6998:6999   */\n      dup2\n        /* \"#utility.yul\":6994:7004   */\n      add\n        /* \"#utility.yul\":6989:7004   */\n      swap1\n      pop\n        /* \"#utility.yul\":6965:7078   */\n      jump(tag_151)\n    tag_153:\n        /* \"#utility.yul\":7096:7102   */\n      dup4\n        /* \"#utility.yul\":7093:7094   */\n      dup2\n        /* \"#utility.yul\":7090:7103   */\n      gt\n        /* \"#utility.yul\":7087:7188   */\n      iszero\n      tag_154\n      jumpi\n        /* \"#utility.yul\":7176:7177   */\n      0x00\n        /* \"#utility.yul\":7167:7173   */\n      dup5\n        /* \"#utility.yul\":7162:7165   */\n      dup5\n        /* \"#utility.yul\":7158:7174   */\n      add\n        /* \"#utility.yul\":7151:7178   */\n      mstore\n        /* \"#utility.yul\":7087:7188   */\n    tag_154:\n        /* \"#utility.yul\":6936:7194   */\n      pop\n        /* \"#utility.yul\":6887:7194   */\n      pop\n      pop\n      pop\n      jump\t// out\n        /* \"#utility.yul\":7200:7520   */\n    tag_27:\n        /* \"#utility.yul\":7244:7250   */\n      0x00\n        /* \"#utility.yul\":7281:7282   */\n      0x02\n        /* \"#utility.yul\":7275:7279   */\n      dup3\n        /* \"#utility.yul\":7271:7283   */\n      div\n        /* \"#utility.yul\":7261:7283   */\n      swap1\n      pop\n        /* \"#utility.yul\":7328:7329   */\n      0x01\n        /* \"#utility.yul\":7322:7326   */\n      dup3\n        /* \"#utility.yul\":7318:7330   */\n      and\n        /* \"#utility.yul\":7349:7367   */\n      dup1\n        /* \"#utility.yul\":7339:7420   */\n      tag_156\n      jumpi\n        /* \"#utility.yul\":7405:7409   */\n      0x7f\n        /* \"#utility.yul\":7397:7403   */\n      dup3\n        /* \"#utility.yul\":7393:7410   */\n      and\n        /* \"#utility.yul\":7383:7410   */\n      swap2\n      pop\n        /* \"#utility.yul\":7339:7420   */\n    tag_156:\n        /* \"#utility.yul\":7467:7469   */\n      0x20\n        /* \"#utility.yul\":7459:7465   */\n      dup3\n        /* \"#utility.yul\":7456:7470   */\n      lt\n        /* \"#utility.yul\":7436:7454   */\n      dup2\n        /* \"#utility.yul\":7433:7471   */\n      eq\n        /* \"#utility.yul\":7430:7514   */\n      iszero\n      tag_157\n      jumpi\n        /* \"#utility.yul\":7486:7504   */\n      tag_158\n      tag_159\n      jump\t// in\n    tag_158:\n        /* \"#utility.yul\":7430:7514   */\n    tag_157:\n        /* \"#utility.yul\":7251:7520   */\n      pop\n        /* \"#utility.yul\":7200:7520   */\n      swap2\n      swap1\n      pop\n      jump\t// out\n        /* \"#utility.yul\":7526:7807   */\n    tag_132:\n        /* \"#utility.yul\":7609:7636   */\n      tag_161\n        /* \"#utility.yul\":7631:7635   */\n      dup3\n        /* \"#utility.yul\":7609:7636   */\n      tag_100\n      jump\t// in\n    tag_161:\n        /* \"#utility.yul\":7601:7607   */\n      dup2\n        /* \"#utility.yul\":7597:7637   */\n      add\n        /* \"#utility.yul\":7739:7745   */\n      dup2\n        /* \"#utility.yul\":7727:7737   */\n      dup2\n        /* \"#utility.yul\":7724:7746   */\n      lt\n        /* \"#utility.yul\":7703:7721   */\n      0xffffffffffffffff\n        /* \"#utility.yul\":7691:7701   */\n      dup3\n        /* \"#utility.yul\":7688:7722   */\n      gt\n        /* \"#utility.yul\":7685:7747   */\n      or\n        /* \"#utility.yul\":7682:7770   */\n      iszero\n      tag_162\n      jumpi\n        /* \"#utility.yul\":7750:7768   */\n      tag_163\n      tag_137\n      jump\t// in\n    tag_163:\n        /* \"#utility.yul\":7682:7770   */\n    tag_162:\n        /* \"#utility.yul\":7790:7800   */\n      dup1\n        /* \"#utility.yul\":7786:7788   */\n      0x40\n        /* \"#utility.yul\":7779:7801   */\n      mstore\n        /* \"#utility.yul\":7569:7807   */\n      pop\n        /* \"#utility.yul\":7526:7807   */\n      pop\n      pop\n      jump\t// out\n        /* \"#utility.yul\":7813:7993   */\n    tag_147:\n        /* \"#utility.yul\":7861:7938   */\n      0x4e487b7100000000000000000000000000000000000000000000000000000000\n        /* \"#utility.yul\":7858:7859   */\n      0x00\n        /* \"#utility.yul\":7851:7939   */\n      mstore\n        /* \"#utility.yul\":7958:7962   */\n      0x11\n        /* \"#utility.yul\":7955:7956   */\n      0x04\n        /* \"#utility.yul\":7948:7963   */\n      mstore\n        /* \"#utility.yul\":7982:7986   */\n      0x24\n        /* \"#utility.yul\":7979:7980   */\n      0x00\n        /* \"#utility.yul\":7972:7987   */\n      revert\n        /* \"#utility.yul\":7999:8179   */\n    tag_159:\n        /* \"#utility.yul\":8047:8124   */\n      0x4e487b7100000000000000000000000000000000000000000000000000000000\n        /* \"#utility.yul\":8044:8045   */\n      0x00\n        /* \"#utility.yul\":8037:8125   */\n      mstore\n        /* \"#utility.yul\":8144:8148   */\n      0x22\n        /* \"#utility.yul\":8141:8142   */\n      0x04\n        /* \"#utility.yul\":8134:8149   */\n      mstore\n        /* \"#utility.yul\":8168:8172   */\n      0x24\n        /* \"#utility.yul\":8165:8166   */\n      0x00\n        /* \"#utility.yul\":8158:8173   */\n      revert\n        /* \"#utility.yul\":8185:8365   */\n    tag_137:\n        /* \"#utility.yul\":8233:8310   */\n      0x4e487b7100000000000000000000000000000000000000000000000000000000\n        /* \"#utility.yul\":8230:8231   */\n      0x00\n        /* \"#utility.yul\":8223:8311   */\n      mstore\n        /* \"#utility.yul\":8330:8334   */\n      0x41\n        /* \"#utility.yul\":8327:8328   */\n      0x04\n        /* \"#utility.yul\":8320:8335   */\n      mstore\n        /* \"#utility.yul\":8354:8358   */\n      0x24\n        /* \"#utility.yul\":8351:8352   */\n      0x00\n        /* \"#utility.yul\":8344:8359   */\n      revert\n        /* \"#utility.yul\":8371:8488   */\n    tag_69:\n        /* \"#utility.yul\":8480:8481   */\n      0x00\n        /* \"#utility.yul\":8477:8478   */\n      dup1\n        /* \"#utility.yul\":8470:8482   */\n      revert\n        /* \"#utility.yul\":8494:8611   */\n    tag_62:\n        /* \"#utility.yul\":8603:8604   */\n      0x00\n        /* \"#utility.yul\":8600:8601   */\n      dup1\n        /* \"#utility.yul\":8593:8605   */\n      revert\n        /* \"#utility.yul\":8617:8734   */\n    tag_81:\n        /* \"#utility.yul\":8726:8727   */\n      0x00\n        /* \"#utility.yul\":8723:8724   */\n      dup1\n        /* \"#utility.yul\":8716:8728   */\n      revert\n        /* \"#utility.yul\":8740:8857   */\n    tag_78:\n        /* \"#utility.yul\":8849:8850   */\n      0x00\n        /* \"#utility.yul\":8846:8847   */\n      dup1\n        /* \"#utility.yul\":8839:8851   */\n      revert\n        /* \"#utility.yul\":8863:8965   */\n    tag_100:\n        /* \"#utility.yul\":8904:8910   */\n      0x00\n        /* \"#utility.yul\":8955:8957   */\n      0x1f\n        /* \"#utility.yul\":8951:8958   */\n      not\n        /* \"#utility.yul\":8946:8948   */\n      0x1f\n        /* \"#utility.yul\":8939:8944   */\n      dup4\n        /* \"#utility.yul\":8935:8949   */\n      add\n        /* \"#utility.yul\":8931:8959   */\n      and\n        /* \"#utility.yul\":8921:8959   */\n      swap1\n      pop\n        /* \"#utility.yul\":8863:8965   */\n      swap2\n      swap1\n      pop\n      jump\t// out\n        /* \"#utility.yul\":8971:9093   */\n    tag_74:\n        /* \"#utility.yul\":9044:9068   */\n      tag_173\n        /* \"#utility.yul\":9062:9067   */\n      dup2\n        /* \"#utility.yul\":9044:9068   */\n      tag_116\n      jump\t// in\n    tag_173:\n        /* \"#utility.yul\":9037:9042   */\n      dup2\n        /* \"#utility.yul\":9034:9069   */\n      eq\n        /* \"#utility.yul\":9024:9087   */\n      tag_174\n      jumpi\n        /* \"#utility.yul\":9083:9084   */\n      0x00\n        /* \"#utility.yul\":9080:9081   */\n      dup1\n        /* \"#utility.yul\":9073:9085   */\n      revert\n        /* \"#utility.yul\":9024:9087   */\n    tag_174:\n        /* \"#utility.yul\":8971:9093   */\n      pop\n      jump\t// out\n\n    auxdata: 0xa2646970667358221220e17ddaee98eb4a4d6bf9d806669bc8f698cbbce1e6b1a672c74de96b8894ccf864736f6c63430008070033\n}\n",
				"bytecode": {
					"linkReferences": {},
					"object": "60806040526000805534801561001457600080fd5b50610910806100246000396000f3fe608060405234801561001057600080fd5b506004361061004c5760003560e01c806306ead22e14610051578063642f9163146100835780639cc8f139146100b3578063e581f9ee146100cf575b600080fd5b61006b600480360381019061006691906104f3565b6100ed565b60405161007a93929190610607565b60405180910390f35b61009d600480360381019061009891906104f3565b610227565b6040516100aa919061064c565b60405180910390f35b6100cd60048036038101906100c89190610468565b610382565b005b6100d76103bc565b6040516100e4919061066e565b60405180910390f35b6001602052806000526040600020600091509050806000018054610110906107ae565b80601f016020809104026020016040519081016040528092919081815260200182805461013c906107ae565b80156101895780601f1061015e57610100808354040283529160200191610189565b820191906000526020600020905b81548152906001019060200180831161016c57829003601f168201915b50505050509080600101805461019e906107ae565b80601f01602080910402602001604051908101604052809291908181526020018280546101ca906107ae565b80156102175780601f106101ec57610100808354040283529160200191610217565b820191906000526020600020905b8154815290600101906020018083116101fa57829003601f168201915b5050505050908060020154905083565b61022f6103c2565b6001600083815260200190815260200160002060405180606001604052908160008201805461025d906107ae565b80601f0160208091040260200160405190810160405280929190818152602001828054610289906107ae565b80156102d65780601f106102ab576101008083540402835291602001916102d6565b820191906000526020600020905b8154815290600101906020018083116102b957829003601f168201915b505050505081526020016001820180546102ef906107ae565b80601f016020809104026020016040519081016040528092919081815260200182805461031b906107ae565b80156103685780601f1061033d57610100808354040283529160200191610368565b820191906000526020600020905b81548152906001019060200180831161034b57829003601f168201915b505050505081526020016002820154815250509050919050565b6040518060600160405280848152602001838152602001828152505060016000808282546103b0919061070c565b92505081905550505050565b60005481565b60405180606001604052806060815260200160608152602001600081525090565b60006103f66103f1846106ae565b610689565b905082815260208101848484011115610412576104116108a3565b5b61041d84828561076c565b509392505050565b600082601f83011261043a5761043961089e565b5b813561044a8482602086016103e3565b91505092915050565b600081359050610462816108c3565b92915050565b600080600060608486031215610481576104806108ad565b5b600084013567ffffffffffffffff81111561049f5761049e6108a8565b5b6104ab86828701610425565b935050602084013567ffffffffffffffff8111156104cc576104cb6108a8565b5b6104d886828701610425565b92505060406104e986828701610453565b9150509250925092565b600060208284031215610509576105086108ad565b5b600061051784828501610453565b91505092915050565b600061052b826106df565b61053581856106ea565b935061054581856020860161077b565b61054e816108b2565b840191505092915050565b6000610564826106df565b61056e81856106fb565b935061057e81856020860161077b565b610587816108b2565b840191505092915050565b600060608301600083015184820360008601526105af8282610520565b915050602083015184820360208601526105c98282610520565b91505060408301516105de60408601826105e9565b508091505092915050565b6105f281610762565b82525050565b61060181610762565b82525050565b600060608201905081810360008301526106218186610559565b905081810360208301526106358185610559565b905061064460408301846105f8565b949350505050565b600060208201905081810360008301526106668184610592565b905092915050565b600060208201905061068360008301846105f8565b92915050565b60006106936106a4565b905061069f82826107e0565b919050565b6000604051905090565b600067ffffffffffffffff8211156106c9576106c861086f565b5b6106d2826108b2565b9050602081019050919050565b600081519050919050565b600082825260208201905092915050565b600082825260208201905092915050565b600061071782610762565b915061072283610762565b9250827fffffffffffffffffffffffffffffffffffffffffffffffffffffffffffffffff0382111561075757610756610811565b5b828201905092915050565b6000819050919050565b82818337600083830152505050565b60005b8381101561079957808201518184015260208101905061077e565b838111156107a8576000848401525b50505050565b600060028204905060018216806107c657607f821691505b602082108114156107da576107d9610840565b5b50919050565b6107e9826108b2565b810181811067ffffffffffffffff821117156108085761080761086f565b5b80604052505050565b7f4e487b7100000000000000000000000000000000000000000000000000000000600052601160045260246000fd5b7f4e487b7100000000000000000000000000000000000000000000000000000000600052602260045260246000fd5b7f4e487b7100000000000000000000000000000000000000000000000000000000600052604160045260246000fd5b600080fd5b600080fd5b600080fd5b600080fd5b6000601f19601f8301169050919050565b6108cc81610762565b81146108d757600080fd5b5056fea2646970667358221220e17ddaee98eb4a4d6bf9d806669bc8f698cbbce1e6b1a672c74de96b8894ccf864736f6c63430008070033",
					"opcodes": "PUSH1 0x80 PUSH1 0x40 MSTORE PUSH1 0x0 DUP1 SSTORE CALLVALUE DUP1 ISZERO PUSH2 0x14 JUMPI PUSH1 0x0 DUP1 REVERT JUMPDEST POP PUSH2 0x910 DUP1 PUSH2 0x24 PUSH1 0x0 CODECOPY PUSH1 0x0 RETURN INVALID PUSH1 0x80 PUSH1 0x40 MSTORE CALLVALUE DUP1 ISZERO PUSH2 0x10 JUMPI PUSH1 0x0 DUP1 REVERT JUMPDEST POP PUSH1 0x4 CALLDATASIZE LT PUSH2 0x4C JUMPI PUSH1 0x0 CALLDATALOAD PUSH1 0xE0 SHR DUP1 PUSH4 0x6EAD22E EQ PUSH2 0x51 JUMPI DUP1 PUSH4 0x642F9163 EQ PUSH2 0x83 JUMPI DUP1 PUSH4 0x9CC8F139 EQ PUSH2 0xB3 JUMPI DUP1 PUSH4 0xE581F9EE EQ PUSH2 0xCF JUMPI JUMPDEST PUSH1 0x0 DUP1 REVERT JUMPDEST PUSH2 0x6B PUSH1 0x4 DUP1 CALLDATASIZE SUB DUP2 ADD SWAP1 PUSH2 0x66 SWAP2 SWAP1 PUSH2 0x4F3 JUMP JUMPDEST PUSH2 0xED JUMP JUMPDEST PUSH1 0x40 MLOAD PUSH2 0x7A SWAP4 SWAP3 SWAP2 SWAP1 PUSH2 0x607 JUMP JUMPDEST PUSH1 0x40 MLOAD DUP1 SWAP2 SUB SWAP1 RETURN JUMPDEST PUSH2 0x9D PUSH1 0x4 DUP1 CALLDATASIZE SUB DUP2 ADD SWAP1 PUSH2 0x98 SWAP2 SWAP1 PUSH2 0x4F3 JUMP JUMPDEST PUSH2 0x227 JUMP JUMPDEST PUSH1 0x40 MLOAD PUSH2 0xAA SWAP2 SWAP1 PUSH2 0x64C JUMP JUMPDEST PUSH1 0x40 MLOAD DUP1 SWAP2 SUB SWAP1 RETURN JUMPDEST PUSH2 0xCD PUSH1 0x4 DUP1 CALLDATASIZE SUB DUP2 ADD SWAP1 PUSH2 0xC8 SWAP2 SWAP1 PUSH2 0x468 JUMP JUMPDEST PUSH2 0x382 JUMP JUMPDEST STOP JUMPDEST PUSH2 0xD7 PUSH2 0x3BC JUMP JUMPDEST PUSH1 0x40 MLOAD PUSH2 0xE4 SWAP2 SWAP1 PUSH2 0x66E JUMP JUMPDEST PUSH1 0x40 MLOAD DUP1 SWAP2 SUB SWAP1 RETURN JUMPDEST PUSH1 0x1 PUSH1 0x20 MSTORE DUP1 PUSH1 0x0 MSTORE PUSH1 0x40 PUSH1 0x0 KECCAK256 PUSH1 0x0 SWAP2 POP SWAP1 POP DUP1 PUSH1 0x0 ADD DUP1 SLOAD PUSH2 0x110 SWAP1 PUSH2 0x7AE JUMP JUMPDEST DUP1 PUSH1 0x1F ADD PUSH1 0x20 DUP1 SWAP2 DIV MUL PUSH1 0x20 ADD PUSH1 0x40 MLOAD SWAP1 DUP2 ADD PUSH1 0x40 MSTORE DUP1 SWAP3 SWAP2 SWAP1 DUP2 DUP2 MSTORE PUSH1 0x20 ADD DUP3 DUP1 SLOAD PUSH2 0x13C SWAP1 PUSH2 0x7AE JUMP JUMPDEST DUP1 ISZERO PUSH2 0x189 JUMPI DUP1 PUSH1 0x1F LT PUSH2 0x15E JUMPI PUSH2 0x100 DUP1 DUP4 SLOAD DIV MUL DUP4 MSTORE SWAP2 PUSH1 0x20 ADD SWAP2 PUSH2 0x189 JUMP JUMPDEST DUP3 ADD SWAP2 SWAP1 PUSH1 0x0 MSTORE PUSH1 0x20 PUSH1 0x0 KECCAK256 SWAP1 JUMPDEST DUP2 SLOAD DUP2 MSTORE SWAP1 PUSH1 0x1 ADD SWAP1 PUSH1 0x20 ADD DUP1 DUP4 GT PUSH2 0x16C JUMPI DUP3 SWAP1 SUB PUSH1 0x1F AND DUP3 ADD SWAP2 JUMPDEST POP POP POP POP POP SWAP1 DUP1 PUSH1 0x1 ADD DUP1 SLOAD PUSH2 0x19E SWAP1 PUSH2 0x7AE JUMP JUMPDEST DUP1 PUSH1 0x1F ADD PUSH1 0x20 DUP1 SWAP2 DIV MUL PUSH1 0x20 ADD PUSH1 0x40 MLOAD SWAP1 DUP2 ADD PUSH1 0x40 MSTORE DUP1 SWAP3 SWAP2 SWAP1 DUP2 DUP2 MSTORE PUSH1 0x20 ADD DUP3 DUP1 SLOAD PUSH2 0x1CA SWAP1 PUSH2 0x7AE JUMP JUMPDEST DUP1 ISZERO PUSH2 0x217 JUMPI DUP1 PUSH1 0x1F LT PUSH2 0x1EC JUMPI PUSH2 0x100 DUP1 DUP4 SLOAD DIV MUL DUP4 MSTORE SWAP2 PUSH1 0x20 ADD SWAP2 PUSH2 0x217 JUMP JUMPDEST DUP3 ADD SWAP2 SWAP1 PUSH1 0x0 MSTORE PUSH1 0x20 PUSH1 0x0 KECCAK256 SWAP1 JUMPDEST DUP2 SLOAD DUP2 MSTORE SWAP1 PUSH1 0x1 ADD SWAP1 PUSH1 0x20 ADD DUP1 DUP4 GT PUSH2 0x1FA JUMPI DUP3 SWAP1 SUB PUSH1 0x1F AND DUP3 ADD SWAP2 JUMPDEST POP POP POP POP POP SWAP1 DUP1 PUSH1 0x2 ADD SLOAD SWAP1 POP DUP4 JUMP JUMPDEST PUSH2 0x22F PUSH2 0x3C2 JUMP JUMPDEST PUSH1 0x1 PUSH1 0x0 DUP4 DUP2 MSTORE PUSH1 0x20 ADD SWAP1 DUP2 MSTORE PUSH1 0x20 ADD PUSH1 0x0 KECCAK256 PUSH1 0x40 MLOAD DUP1 PUSH1 0x60 ADD PUSH1 0x40 MSTORE SWAP1 DUP2 PUSH1 0x0 DUP3 ADD DUP1 SLOAD PUSH2 0x25D SWAP1 PUSH2 0x7AE JUMP JUMPDEST DUP1 PUSH1 0x1F ADD PUSH1 0x20 DUP1 SWAP2 DIV MUL PUSH1 0x20 ADD PUSH1 0x40 MLOAD SWAP1 DUP2 ADD PUSH1 0x40 MSTORE DUP1 SWAP3 SWAP2 SWAP1 DUP2 DUP2 MSTORE PUSH1 0x20 ADD DUP3 DUP1 SLOAD PUSH2 0x289 SWAP1 PUSH2 0x7AE JUMP JUMPDEST DUP1 ISZERO PUSH2 0x2D6 JUMPI DUP1 PUSH1 0x1F LT PUSH2 0x2AB JUMPI PUSH2 0x100 DUP1 DUP4 SLOAD DIV MUL DUP4 MSTORE SWAP2 PUSH1 0x20 ADD SWAP2 PUSH2 0x2D6 JUMP JUMPDEST DUP3 ADD SWAP2 SWAP1 PUSH1 0x0 MSTORE PUSH1 0x20 PUSH1 0x0 KECCAK256 SWAP1 JUMPDEST DUP2 SLOAD DUP2 MSTORE SWAP1 PUSH1 0x1 ADD SWAP1 PUSH1 0x20 ADD DUP1 DUP4 GT PUSH2 0x2B9 JUMPI DUP3 SWAP1 SUB PUSH1 0x1F AND DUP3 ADD SWAP2 JUMPDEST POP POP POP POP POP DUP2 MSTORE PUSH1 0x20 ADD PUSH1 0x1 DUP3 ADD DUP1 SLOAD PUSH2 0x2EF SWAP1 PUSH2 0x7AE JUMP JUMPDEST DUP1 PUSH1 0x1F ADD PUSH1 0x20 DUP1 SWAP2 DIV MUL PUSH1 0x20 ADD PUSH1 0x40 MLOAD SWAP1 DUP2 ADD PUSH1 0x40 MSTORE DUP1 SWAP3 SWAP2 SWAP1 DUP2 DUP2 MSTORE PUSH1 0x20 ADD DUP3 DUP1 SLOAD PUSH2 0x31B SWAP1 PUSH2 0x7AE JUMP JUMPDEST DUP1 ISZERO PUSH2 0x368 JUMPI DUP1 PUSH1 0x1F LT PUSH2 0x33D JUMPI PUSH2 0x100 DUP1 DUP4 SLOAD DIV MUL DUP4 MSTORE SWAP2 PUSH1 0x20 ADD SWAP2 PUSH2 0x368 JUMP JUMPDEST DUP3 ADD SWAP2 SWAP1 PUSH1 0x0 MSTORE PUSH1 0x20 PUSH1 0x0 KECCAK256 SWAP1 JUMPDEST DUP2 SLOAD DUP2 MSTORE SWAP1 PUSH1 0x1 ADD SWAP1 PUSH1 0x20 ADD DUP1 DUP4 GT PUSH2 0x34B JUMPI DUP3 SWAP1 SUB PUSH1 0x1F AND DUP3 ADD SWAP2 JUMPDEST POP POP POP POP POP DUP2 MSTORE PUSH1 0x20 ADD PUSH1 0x2 DUP3 ADD SLOAD DUP2 MSTORE POP POP SWAP1 POP SWAP2 SWAP1 POP JUMP JUMPDEST PUSH1 0x40 MLOAD DUP1 PUSH1 0x60 ADD PUSH1 0x40 MSTORE DUP1 DUP5 DUP2 MSTORE PUSH1 0x20 ADD DUP4 DUP2 MSTORE PUSH1 0x20 ADD DUP3 DUP2 MSTORE POP POP PUSH1 0x1 PUSH1 0x0 DUP1 DUP3 DUP3 SLOAD PUSH2 0x3B0 SWAP2 SWAP1 PUSH2 0x70C JUMP JUMPDEST SWAP3 POP POP DUP2 SWAP1 SSTORE POP POP POP POP JUMP JUMPDEST PUSH1 0x0 SLOAD DUP2 JUMP JUMPDEST PUSH1 0x40 MLOAD DUP1 PUSH1 0x60 ADD PUSH1 0x40 MSTORE DUP1 PUSH1 0x60 DUP2 MSTORE PUSH1 0x20 ADD PUSH1 0x60 DUP2 MSTORE PUSH1 0x20 ADD PUSH1 0x0 DUP2 MSTORE POP SWAP1 JUMP JUMPDEST PUSH1 0x0 PUSH2 0x3F6 PUSH2 0x3F1 DUP5 PUSH2 0x6AE JUMP JUMPDEST PUSH2 0x689 JUMP JUMPDEST SWAP1 POP DUP3 DUP2 MSTORE PUSH1 0x20 DUP2 ADD DUP5 DUP5 DUP5 ADD GT ISZERO PUSH2 0x412 JUMPI PUSH2 0x411 PUSH2 0x8A3 JUMP JUMPDEST JUMPDEST PUSH2 0x41D DUP5 DUP3 DUP6 PUSH2 0x76C JUMP JUMPDEST POP SWAP4 SWAP3 POP POP POP JUMP JUMPDEST PUSH1 0x0 DUP3 PUSH1 0x1F DUP4 ADD SLT PUSH2 0x43A JUMPI PUSH2 0x439 PUSH2 0x89E JUMP JUMPDEST JUMPDEST DUP2 CALLDATALOAD PUSH2 0x44A DUP5 DUP3 PUSH1 0x20 DUP7 ADD PUSH2 0x3E3 JUMP JUMPDEST SWAP2 POP POP SWAP3 SWAP2 POP POP JUMP JUMPDEST PUSH1 0x0 DUP2 CALLDATALOAD SWAP1 POP PUSH2 0x462 DUP2 PUSH2 0x8C3 JUMP JUMPDEST SWAP3 SWAP2 POP POP JUMP JUMPDEST PUSH1 0x0 DUP1 PUSH1 0x0 PUSH1 0x60 DUP5 DUP7 SUB SLT ISZERO PUSH2 0x481 JUMPI PUSH2 0x480 PUSH2 0x8AD JUMP JUMPDEST JUMPDEST PUSH1 0x0 DUP5 ADD CALLDATALOAD PUSH8 0xFFFFFFFFFFFFFFFF DUP2 GT ISZERO PUSH2 0x49F JUMPI PUSH2 0x49E PUSH2 0x8A8 JUMP JUMPDEST JUMPDEST PUSH2 0x4AB DUP7 DUP3 DUP8 ADD PUSH2 0x425 JUMP JUMPDEST SWAP4 POP POP PUSH1 0x20 DUP5 ADD CALLDATALOAD PUSH8 0xFFFFFFFFFFFFFFFF DUP2 GT ISZERO PUSH2 0x4CC JUMPI PUSH2 0x4CB PUSH2 0x8A8 JUMP JUMPDEST JUMPDEST PUSH2 0x4D8 DUP7 DUP3 DUP8 ADD PUSH2 0x425 JUMP JUMPDEST SWAP3 POP POP PUSH1 0x40 PUSH2 0x4E9 DUP7 DUP3 DUP8 ADD PUSH2 0x453 JUMP JUMPDEST SWAP2 POP POP SWAP3 POP SWAP3 POP SWAP3 JUMP JUMPDEST PUSH1 0x0 PUSH1 0x20 DUP3 DUP5 SUB SLT ISZERO PUSH2 0x509 JUMPI PUSH2 0x508 PUSH2 0x8AD JUMP JUMPDEST JUMPDEST PUSH1 0x0 PUSH2 0x517 DUP5 DUP3 DUP6 ADD PUSH2 0x453 JUMP JUMPDEST SWAP2 POP POP SWAP3 SWAP2 POP POP JUMP JUMPDEST PUSH1 0x0 PUSH2 0x52B DUP3 PUSH2 0x6DF JUMP JUMPDEST PUSH2 0x535 DUP2 DUP6 PUSH2 0x6EA JUMP JUMPDEST SWAP4 POP PUSH2 0x545 DUP2 DUP6 PUSH1 0x20 DUP7 ADD PUSH2 0x77B JUMP JUMPDEST PUSH2 0x54E DUP2 PUSH2 0x8B2 JUMP JUMPDEST DUP5 ADD SWAP2 POP POP SWAP3 SWAP2 POP POP JUMP JUMPDEST PUSH1 0x0 PUSH2 0x564 DUP3 PUSH2 0x6DF JUMP JUMPDEST PUSH2 0x56E DUP2 DUP6 PUSH2 0x6FB JUMP JUMPDEST SWAP4 POP PUSH2 0x57E DUP2 DUP6 PUSH1 0x20 DUP7 ADD PUSH2 0x77B JUMP JUMPDEST PUSH2 0x587 DUP2 PUSH2 0x8B2 JUMP JUMPDEST DUP5 ADD SWAP2 POP POP SWAP3 SWAP2 POP POP JUMP JUMPDEST PUSH1 0x0 PUSH1 0x60 DUP4 ADD PUSH1 0x0 DUP4 ADD MLOAD DUP5 DUP3 SUB PUSH1 0x0 DUP7 ADD MSTORE PUSH2 0x5AF DUP3 DUP3 PUSH2 0x520 JUMP JUMPDEST SWAP2 POP POP PUSH1 0x20 DUP4 ADD MLOAD DUP5 DUP3 SUB PUSH1 0x20 DUP7 ADD MSTORE PUSH2 0x5C9 DUP3 DUP3 PUSH2 0x520 JUMP JUMPDEST SWAP2 POP POP PUSH1 0x40 DUP4 ADD MLOAD PUSH2 0x5DE PUSH1 0x40 DUP7 ADD DUP3 PUSH2 0x5E9 JUMP JUMPDEST POP DUP1 SWAP2 POP POP SWAP3 SWAP2 POP POP JUMP JUMPDEST PUSH2 0x5F2 DUP2 PUSH2 0x762 JUMP JUMPDEST DUP3 MSTORE POP POP JUMP JUMPDEST PUSH2 0x601 DUP2 PUSH2 0x762 JUMP JUMPDEST DUP3 MSTORE POP POP JUMP JUMPDEST PUSH1 0x0 PUSH1 0x60 DUP3 ADD SWAP1 POP DUP2 DUP2 SUB PUSH1 0x0 DUP4 ADD MSTORE PUSH2 0x621 DUP2 DUP7 PUSH2 0x559 JUMP JUMPDEST SWAP1 POP DUP2 DUP2 SUB PUSH1 0x20 DUP4 ADD MSTORE PUSH2 0x635 DUP2 DUP6 PUSH2 0x559 JUMP JUMPDEST SWAP1 POP PUSH2 0x644 PUSH1 0x40 DUP4 ADD DUP5 PUSH2 0x5F8 JUMP JUMPDEST SWAP5 SWAP4 POP POP POP POP JUMP JUMPDEST PUSH1 0x0 PUSH1 0x20 DUP3 ADD SWAP1 POP DUP2 DUP2 SUB PUSH1 0x0 DUP4 ADD MSTORE PUSH2 0x666 DUP2 DUP5 PUSH2 0x592 JUMP JUMPDEST SWAP1 POP SWAP3 SWAP2 POP POP JUMP JUMPDEST PUSH1 0x0 PUSH1 0x20 DUP3 ADD SWAP1 POP PUSH2 0x683 PUSH1 0x0 DUP4 ADD DUP5 PUSH2 0x5F8 JUMP JUMPDEST SWAP3 SWAP2 POP POP JUMP JUMPDEST PUSH1 0x0 PUSH2 0x693 PUSH2 0x6A4 JUMP JUMPDEST SWAP1 POP PUSH2 0x69F DUP3 DUP3 PUSH2 0x7E0 JUMP JUMPDEST SWAP2 SWAP1 POP JUMP JUMPDEST PUSH1 0x0 PUSH1 0x40 MLOAD SWAP1 POP SWAP1 JUMP JUMPDEST PUSH1 0x0 PUSH8 0xFFFFFFFFFFFFFFFF DUP3 GT ISZERO PUSH2 0x6C9 JUMPI PUSH2 0x6C8 PUSH2 0x86F JUMP JUMPDEST JUMPDEST PUSH2 0x6D2 DUP3 PUSH2 0x8B2 JUMP JUMPDEST SWAP1 POP PUSH1 0x20 DUP2 ADD SWAP1 POP SWAP2 SWAP1 POP JUMP JUMPDEST PUSH1 0x0 DUP2 MLOAD SWAP1 POP SWAP2 SWAP1 POP JUMP JUMPDEST PUSH1 0x0 DUP3 DUP3 MSTORE PUSH1 0x20 DUP3 ADD SWAP1 POP SWAP3 SWAP2 POP POP JUMP JUMPDEST PUSH1 0x0 DUP3 DUP3 MSTORE PUSH1 0x20 DUP3 ADD SWAP1 POP SWAP3 SWAP2 POP POP JUMP JUMPDEST PUSH1 0x0 PUSH2 0x717 DUP3 PUSH2 0x762 JUMP JUMPDEST SWAP2 POP PUSH2 0x722 DUP4 PUSH2 0x762 JUMP JUMPDEST SWAP3 POP DUP3 PUSH32 0xFFFFFFFFFFFFFFFFFFFFFFFFFFFFFFFFFFFFFFFFFFFFFFFFFFFFFFFFFFFFFFFF SUB DUP3 GT ISZERO PUSH2 0x757 JUMPI PUSH2 0x756 PUSH2 0x811 JUMP JUMPDEST JUMPDEST DUP3 DUP3 ADD SWAP1 POP SWAP3 SWAP2 POP POP JUMP JUMPDEST PUSH1 0x0 DUP2 SWAP1 POP SWAP2 SWAP1 POP JUMP JUMPDEST DUP3 DUP2 DUP4 CALLDATACOPY PUSH1 0x0 DUP4 DUP4 ADD MSTORE POP POP POP JUMP JUMPDEST PUSH1 0x0 JUMPDEST DUP4 DUP2 LT ISZERO PUSH2 0x799 JUMPI DUP1 DUP3 ADD MLOAD DUP2 DUP5 ADD MSTORE PUSH1 0x20 DUP2 ADD SWAP1 POP PUSH2 0x77E JUMP JUMPDEST DUP4 DUP2 GT ISZERO PUSH2 0x7A8 JUMPI PUSH1 0x0 DUP5 DUP5 ADD MSTORE JUMPDEST POP POP POP POP JUMP JUMPDEST PUSH1 0x0 PUSH1 0x2 DUP3 DIV SWAP1 POP PUSH1 0x1 DUP3 AND DUP1 PUSH2 0x7C6 JUMPI PUSH1 0x7F DUP3 AND SWAP2 POP JUMPDEST PUSH1 0x20 DUP3 LT DUP2 EQ ISZERO PUSH2 0x7DA JUMPI PUSH2 0x7D9 PUSH2 0x840 JUMP JUMPDEST JUMPDEST POP SWAP2 SWAP1 POP JUMP JUMPDEST PUSH2 0x7E9 DUP3 PUSH2 0x8B2 JUMP JUMPDEST DUP2 ADD DUP2 DUP2 LT PUSH8 0xFFFFFFFFFFFFFFFF DUP3 GT OR ISZERO PUSH2 0x808 JUMPI PUSH2 0x807 PUSH2 0x86F JUMP JUMPDEST JUMPDEST DUP1 PUSH1 0x40 MSTORE POP POP POP JUMP JUMPDEST PUSH32 0x4E487B7100000000000000000000000000000000000000000000000000000000 PUSH1 0x0 MSTORE PUSH1 0x11 PUSH1 0x4 MSTORE PUSH1 0x24 PUSH1 0x0 REVERT JUMPDEST PUSH32 0x4E487B7100000000000000000000000000000000000000000000000000000000 PUSH1 0x0 MSTORE PUSH1 0x22 PUSH1 0x4 MSTORE PUSH1 0x24 PUSH1 0x0 REVERT JUMPDEST PUSH32 0x4E487B7100000000000000000000000000000000000000000000000000000000 PUSH1 0x0 MSTORE PUSH1 0x41 PUSH1 0x4 MSTORE PUSH1 0x24 PUSH1 0x0 REVERT JUMPDEST PUSH1 0x0 DUP1 REVERT JUMPDEST PUSH1 0x0 DUP1 REVERT JUMPDEST PUSH1 0x0 DUP1 REVERT JUMPDEST PUSH1 0x0 DUP1 REVERT JUMPDEST PUSH1 0x0 PUSH1 0x1F NOT PUSH1 0x1F DUP4 ADD AND SWAP1 POP SWAP2 SWAP1 POP JUMP JUMPDEST PUSH2 0x8CC DUP2 PUSH2 0x762 JUMP JUMPDEST DUP2 EQ PUSH2 0x8D7 JUMPI PUSH1 0x0 DUP1 REVERT JUMPDEST POP JUMP INVALID LOG2 PUSH5 0x6970667358 0x22 SLT KECCAK256 0xE1 PUSH30 0xDAEE98EB4A4D6BF9D806669BC8F698CBBCE1E6B1A672C74DE96B8894CCF8 PUSH5 0x736F6C6343 STOP ADDMOD SMOD STOP CALLER "
				},
				"gasEstimates": {
					"creation": {
						"codeDepositCost": "464000",
						"executionCost": "5505",
						"totalCost": "469505"
					},
					"external": {
						"addStudent(string,string,uint256)": "infinite",
						"getStudent(uint256)": "infinite",
						"studentCount()": "2473",
						"students(uint256)": "infinite"
					}
				},
				"methodIdentifiers": {
					"addStudent(string,string,uint256)": "9cc8f139",
					"getStudent(uint256)": "642f9163",
					"studentCount()": "e581f9ee",
					"students(uint256)": "06ead22e"
				}
			},
			"storageLayout": {
				"storage": [
					{
						"astId": 4,
						"contract": "contracts/students.sol:myStudent",
						"label": "studentCount",
						"offset": 0,
						"slot": "0",
						"type": "t_uint256"
					},
					{
						"astId": 9,
						"contract": "contracts/students.sol:myStudent",
						"label": "students",
						"offset": 0,
						"slot": "1",
						"type": "t_mapping(t_uint256,t_struct(Student)16_storage)"
					}
				],
				"types": {
					"t_mapping(t_uint256,t_struct(Student)16_storage)": {
						"encoding": "mapping",
						"key": "t_uint256",
						"label": "mapping(uint256 => struct myStudent.Student)",
						"numberOfBytes": "32",
						"value": "t_struct(Student)16_storage"
					},
					"t_string_storage": {
						"encoding": "bytes",
						"label": "string",
						"numberOfBytes": "32"
					},
					"t_struct(Student)16_storage": {
						"encoding": "inplace",
						"label": "struct myStudent.Student",
						"members": [
							{
								"astId": 11,
								"contract": "contracts/students.sol:myStudent",
								"label": "firstName",
								"offset": 0,
								"slot": "0",
								"type": "t_string_storage"
							},
							{
								"astId": 13,
								"contract": "contracts/students.sol:myStudent",
								"label": "lastName",
								"offset": 0,
								"slot": "1",
								"type": "t_string_storage"
							},
							{
								"astId": 15,
								"contract": "contracts/students.sol:myStudent",
								"label": "_id",
								"offset": 0,
								"slot": "2",
								"type": "t_uint256"
							}
						],
						"numberOfBytes": "96"
					},
					"t_uint256": {
						"encoding": "inplace",
						"label": "uint256",
						"numberOfBytes": "32"
					}
				}
			},
			"userdoc": {
				"kind": "user",
				"methods": {},
				"version": 1
			}
		}
	}
}