{
	"contracts/students.sol": {
		"myStudent": {
			"abi": [
				{
					"inputs": [
						{
							"internalType": "string",
							"name": "firstName",
							"type": "string"
						},
						{
							"internalType": "string",
							"name": "lastName",
							"type": "string"
						},
						{
							"internalType": "uint256",
							"name": "_id",
							"type": "uint256"
						}
					],
					"name": "addStudent",
					"outputs": [],
					"stateMutability": "nonpayable",
					"type": "function"
				},
				{
					"inputs": [
						{
							"internalType": "uint256",
							"name": "_id",
							"type": "uint256"
						}
					],
					"name": "getStudent",
					"outputs": [
						{
							"components": [
								{
									"internalType": "address",
									"name": "StudentAddress",
									"type": "address"
								},
								{
									"internalType": "string",
									"name": "firstName",
									"type": "string"
								},
								{
									"internalType": "string",
									"name": "lastName",
									"type": "string"
								},
								{
									"internalType": "uint256",
									"name": "_id",
									"type": "uint256"
								}
							],
							"internalType": "struct myStudent.Student",
							"name": "",
							"type": "tuple"
						}
					],
					"stateMutability": "view",
					"type": "function"
				},
				{
					"inputs": [
						{
							"internalType": "uint256",
							"name": "",
							"type": "uint256"
						}
					],
					"name": "identification",
					"outputs": [
						{
							"internalType": "address",
							"name": "StudentAddress",
							"type": "address"
						},
						{
							"internalType": "string",
							"name": "firstName",
							"type": "string"
						},
						{
							"internalType": "string",
							"name": "lastName",
							"type": "string"
						},
						{
							"internalType": "uint256",
							"name": "_id",
							"type": "uint256"
						}
					],
					"stateMutability": "view",
					"type": "function"
				},
				{
					"inputs": [],
					"name": "studentCount",
					"outputs": [
						{
							"internalType": "uint256",
							"name": "",
							"type": "uint256"
						}
					],
					"stateMutability": "view",
					"type": "function"
				},
				{
					"inputs": [
						{
							"internalType": "address",
							"name": "",
							"type": "address"
						}
					],
					"name": "students",
					"outputs": [
						{
							"internalType": "address",
							"name": "StudentAddress",
							"type": "address"
						},
						{
							"internalType": "string",
							"name": "firstName",
							"type": "string"
						},
						{
							"internalType": "string",
							"name": "lastName",
							"type": "string"
						},
						{
							"internalType": "uint256",
							"name": "_id",
							"type": "uint256"
						}
					],
					"stateMutability": "view",
					"type": "function"
				}
			],
			"devdoc": {
				"kind": "dev",
				"methods": {},
				"version": 1
			},
			"evm": {
				"assembly": "    /* \"contracts/students.sol\":70:716  contract myStudent{\r... */\n  mstore(0x40, 0x80)\n    /* \"contracts/students.sol\":122:123  0 */\n  0x00\n    /* \"contracts/students.sol\":95:123  uint public studentCount = 0 */\n  dup1\n  sstore\n    /* \"contracts/students.sol\":70:716  contract myStudent{\r... */\n  callvalue\n  dup1\n  iszero\n  tag_1\n  jumpi\n  0x00\n  dup1\n  revert\ntag_1:\n  pop\n  dataSize(sub_0)\n  dup1\n  dataOffset(sub_0)\n  0x00\n  codecopy\n  0x00\n  return\nstop\n\nsub_0: assembly {\n        /* \"contracts/students.sol\":70:716  contract myStudent{\r... */\n      mstore(0x40, 0x80)\n      callvalue\n      dup1\n      iszero\n      tag_1\n      jumpi\n      0x00\n      dup1\n      revert\n    tag_1:\n      pop\n      jumpi(tag_2, lt(calldatasize, 0x04))\n      shr(0xe0, calldataload(0x00))\n      dup1\n      0x360e99b3\n      eq\n      tag_3\n      jumpi\n      dup1\n      0x642f9163\n      eq\n      tag_4\n      jumpi\n      dup1\n      0x9cc8f139\n      eq\n      tag_5\n      jumpi\n      dup1\n      0xa6c807a9\n      eq\n      tag_6\n      jumpi\n      dup1\n      0xe581f9ee\n      eq\n      tag_7\n      jumpi\n    tag_2:\n      0x00\n      dup1\n      revert\n        /* \"contracts/students.sol\":181:231  mapping (uint256 => Student) public identification */\n    tag_3:\n      tag_8\n      0x04\n      dup1\n      calldatasize\n      sub\n      dup2\n      add\n      swap1\n      tag_9\n      swap2\n      swap1\n      tag_10\n      jump\t// in\n    tag_9:\n      tag_11\n      jump\t// in\n    tag_8:\n      mload(0x40)\n      tag_12\n      swap5\n      swap4\n      swap3\n      swap2\n      swap1\n      tag_13\n      jump\t// in\n    tag_12:\n      mload(0x40)\n      dup1\n      swap2\n      sub\n      swap1\n      return\n        /* \"contracts/students.sol\":593:713  function getStudent( uint256 _id) public view returns ( Student memory )  { \r... */\n    tag_4:\n      tag_14\n      0x04\n      dup1\n      calldatasize\n      sub\n      dup2\n      add\n      swap1\n      tag_15\n      swap2\n      swap1\n      tag_10\n      jump\t// in\n    tag_15:\n      tag_16\n      jump\t// in\n    tag_14:\n      mload(0x40)\n      tag_17\n      swap2\n      swap1\n      tag_18\n      jump\t// in\n    tag_17:\n      mload(0x40)\n      dup1\n      swap2\n      sub\n      swap1\n      return\n        /* \"contracts/students.sol\":379:583  function addStudent(string memory firstName, string memory lastName, uint256 _id) public {\r... */\n    tag_5:\n      tag_19\n      0x04\n      dup1\n      calldatasize\n      sub\n      dup2\n      add\n      swap1\n      tag_20\n      swap2\n      swap1\n      tag_21\n      jump\t// in\n    tag_20:\n      tag_22\n      jump\t// in\n    tag_19:\n      stop\n        /* \"contracts/students.sol\":130:174  mapping (address => Student) public students */\n    tag_6:\n      tag_23\n      0x04\n      dup1\n      calldatasize\n      sub\n      dup2\n      add\n      swap1\n      tag_24\n      swap2\n      swap1\n      tag_25\n      jump\t// in\n    tag_24:\n      tag_26\n      jump\t// in\n    tag_23:\n      mload(0x40)\n      tag_27\n      swap5\n      swap4\n      swap3\n      swap2\n      swap1\n      tag_13\n      jump\t// in\n    tag_27:\n      mload(0x40)\n      dup1\n      swap2\n      sub\n      swap1\n      return\n        /* \"contracts/students.sol\":95:123  uint public studentCount = 0 */\n    tag_7:\n      tag_28\n      tag_29\n      jump\t// in\n    tag_28:\n      mload(0x40)\n      tag_30\n      swap2\n      swap1\n      tag_31\n      jump\t// in\n    tag_30:\n      mload(0x40)\n      dup1\n      swap2\n      sub\n      swap1\n      return\n        /* \"contracts/students.sol\":181:231  mapping (uint256 => Student) public identification */\n    tag_11:\n      mstore(0x20, 0x02)\n      dup1\n      0x00\n      mstore\n      keccak256(0x00, 0x40)\n      0x00\n      swap2\n      pop\n      swap1\n      pop\n      dup1\n      0x00\n      add\n      0x00\n      swap1\n      sload\n      swap1\n      0x0100\n      exp\n      swap1\n      div\n      0xffffffffffffffffffffffffffffffffffffffff\n      and\n      swap1\n      dup1\n      0x01\n      add\n      dup1\n      sload\n      tag_32\n      swap1\n      tag_33\n      jump\t// in\n    tag_32:\n      dup1\n      0x1f\n      add\n      0x20\n      dup1\n      swap2\n      div\n      mul\n      0x20\n      add\n      mload(0x40)\n      swap1\n      dup2\n      add\n      0x40\n      mstore\n      dup1\n      swap3\n      swap2\n      swap1\n      dup2\n      dup2\n      mstore\n      0x20\n      add\n      dup3\n      dup1\n      sload\n      tag_34\n      swap1\n      tag_33\n      jump\t// in\n    tag_34:\n      dup1\n      iszero\n      tag_35\n      jumpi\n      dup1\n      0x1f\n      lt\n      tag_36\n      jumpi\n      0x0100\n      dup1\n      dup4\n      sload\n      div\n      mul\n      dup4\n      mstore\n      swap2\n      0x20\n      add\n      swap2\n      jump(tag_35)\n    tag_36:\n      dup3\n      add\n      swap2\n      swap1\n      0x00\n      mstore\n      keccak256(0x00, 0x20)\n      swap1\n    tag_37:\n      dup2\n      sload\n      dup2\n      mstore\n      swap1\n      0x01\n      add\n      swap1\n      0x20\n      add\n      dup1\n      dup4\n      gt\n      tag_37\n      jumpi\n      dup3\n      swap1\n      sub\n      0x1f\n      and\n      dup3\n      add\n      swap2\n    tag_35:\n      pop\n      pop\n      pop\n      pop\n      pop\n      swap1\n      dup1\n      0x02\n      add\n      dup1\n      sload\n      tag_38\n      swap1\n      tag_33\n      jump\t// in\n    tag_38:\n      dup1\n      0x1f\n      add\n      0x20\n      dup1\n      swap2\n      div\n      mul\n      0x20\n      add\n      mload(0x40)\n      swap1\n      dup2\n      add\n      0x40\n      mstore\n      dup1\n      swap3\n      swap2\n      swap1\n      dup2\n      dup2\n      mstore\n      0x20\n      add\n      dup3\n      dup1\n      sload\n      tag_39\n      swap1\n      tag_33\n      jump\t// in\n    tag_39:\n      dup1\n      iszero\n      tag_40\n      jumpi\n      dup1\n      0x1f\n      lt\n      tag_41\n      jumpi\n      0x0100\n      dup1\n      dup4\n      sload\n      div\n      mul\n      dup4\n      mstore\n      swap2\n      0x20\n      add\n      swap2\n      jump(tag_40)\n    tag_41:\n      dup3\n      add\n      swap2\n      swap1\n      0x00\n      mstore\n      keccak256(0x00, 0x20)\n      swap1\n    tag_42:\n      dup2\n      sload\n      dup2\n      mstore\n      swap1\n      0x01\n      add\n      swap1\n      0x20\n      add\n      dup1\n      dup4\n      gt\n      tag_42\n      jumpi\n      dup3\n      swap1\n      sub\n      0x1f\n      and\n      dup3\n      add\n      swap2\n    tag_40:\n      pop\n      pop\n      pop\n      pop\n      pop\n      swap1\n      dup1\n      0x03\n      add\n      sload\n      swap1\n      pop\n      dup5\n      jump\t// out\n        /* \"contracts/students.sol\":593:713  function getStudent( uint256 _id) public view returns ( Student memory )  { \r... */\n    tag_16:\n        /* \"contracts/students.sol\":649:663  Student memory */\n      tag_43\n      tag_44\n      jump\t// in\n    tag_43:\n        /* \"contracts/students.sol\":686:700  identification */\n      0x02\n        /* \"contracts/students.sol\":686:705  identification[_id] */\n      0x00\n        /* \"contracts/students.sol\":701:704  _id */\n      dup4\n        /* \"contracts/students.sol\":686:705  identification[_id] */\n      dup2\n      mstore\n      0x20\n      add\n      swap1\n      dup2\n      mstore\n      0x20\n      add\n      0x00\n      keccak256\n        /* \"contracts/students.sol\":678:705  return  identification[_id] */\n      mload(0x40)\n      dup1\n      0x80\n      add\n      0x40\n      mstore\n      swap1\n      dup2\n      0x00\n      dup3\n      add\n      0x00\n      swap1\n      sload\n      swap1\n      0x0100\n      exp\n      swap1\n      div\n      0xffffffffffffffffffffffffffffffffffffffff\n      and\n      0xffffffffffffffffffffffffffffffffffffffff\n      and\n      0xffffffffffffffffffffffffffffffffffffffff\n      and\n      dup2\n      mstore\n      0x20\n      add\n      0x01\n      dup3\n      add\n      dup1\n      sload\n      tag_46\n      swap1\n      tag_33\n      jump\t// in\n    tag_46:\n      dup1\n      0x1f\n      add\n      0x20\n      dup1\n      swap2\n      div\n      mul\n      0x20\n      add\n      mload(0x40)\n      swap1\n      dup2\n      add\n      0x40\n      mstore\n      dup1\n      swap3\n      swap2\n      swap1\n      dup2\n      dup2\n      mstore\n      0x20\n      add\n      dup3\n      dup1\n      sload\n      tag_47\n      swap1\n      tag_33\n      jump\t// in\n    tag_47:\n      dup1\n      iszero\n      tag_48\n      jumpi\n      dup1\n      0x1f\n      lt\n      tag_49\n      jumpi\n      0x0100\n      dup1\n      dup4\n      sload\n      div\n      mul\n      dup4\n      mstore\n      swap2\n      0x20\n      add\n      swap2\n      jump(tag_48)\n    tag_49:\n      dup3\n      add\n      swap2\n      swap1\n      0x00\n      mstore\n      keccak256(0x00, 0x20)\n      swap1\n    tag_50:\n      dup2\n      sload\n      dup2\n      mstore\n      swap1\n      0x01\n      add\n      swap1\n      0x20\n      add\n      dup1\n      dup4\n      gt\n      tag_50\n      jumpi\n      dup3\n      swap1\n      sub\n      0x1f\n      and\n      dup3\n      add\n      swap2\n    tag_48:\n      pop\n      pop\n      pop\n      pop\n      pop\n      dup2\n      mstore\n      0x20\n      add\n      0x02\n      dup3\n      add\n      dup1\n      sload\n      tag_51\n      swap1\n      tag_33\n      jump\t// in\n    tag_51:\n      dup1\n      0x1f\n      add\n      0x20\n      dup1\n      swap2\n      div\n      mul\n      0x20\n      add\n      mload(0x40)\n      swap1\n      dup2\n      add\n      0x40\n      mstore\n      dup1\n      swap3\n      swap2\n      swap1\n      dup2\n      dup2\n      mstore\n      0x20\n      add\n      dup3\n      dup1\n      sload\n      tag_52\n      swap1\n      tag_33\n      jump\t// in\n    tag_52:\n      dup1\n      iszero\n      tag_53\n      jumpi\n      dup1\n      0x1f\n      lt\n      tag_54\n      jumpi\n      0x0100\n      dup1\n      dup4\n      sload\n      div\n      mul\n      dup4\n      mstore\n      swap2\n      0x20\n      add\n      swap2\n      jump(tag_53)\n    tag_54:\n      dup3\n      add\n      swap2\n      swap1\n      0x00\n      mstore\n      keccak256(0x00, 0x20)\n      swap1\n    tag_55:\n      dup2\n      sload\n      dup2\n      mstore\n      swap1\n      0x01\n      add\n      swap1\n      0x20\n      add\n      dup1\n      dup4\n      gt\n      tag_55\n      jumpi\n      dup3\n      swap1\n      sub\n      0x1f\n      and\n      dup3\n      add\n      swap2\n    tag_53:\n      pop\n      pop\n      pop\n      pop\n      pop\n      dup2\n      mstore\n      0x20\n      add\n      0x03\n      dup3\n      add\n      sload\n      dup2\n      mstore\n      pop\n      pop\n      swap1\n      pop\n        /* \"contracts/students.sol\":593:713  function getStudent( uint256 _id) public view returns ( Student memory )  { \r... */\n      swap2\n      swap1\n      pop\n      jump\t// out\n        /* \"contracts/students.sol\":379:583  function addStudent(string memory firstName, string memory lastName, uint256 _id) public {\r... */\n    tag_22:\n        /* \"contracts/students.sol\":502:547  Student(msg.sender, firstName, lastName, _id) */\n      mload(0x40)\n      dup1\n      0x80\n      add\n      0x40\n      mstore\n      dup1\n        /* \"contracts/students.sol\":510:520  msg.sender */\n      caller\n        /* \"contracts/students.sol\":502:547  Student(msg.sender, firstName, lastName, _id) */\n      0xffffffffffffffffffffffffffffffffffffffff\n      and\n      dup2\n      mstore\n      0x20\n      add\n        /* \"contracts/students.sol\":522:531  firstName */\n      dup5\n        /* \"contracts/students.sol\":502:547  Student(msg.sender, firstName, lastName, _id) */\n      dup2\n      mstore\n      0x20\n      add\n        /* \"contracts/students.sol\":533:541  lastName */\n      dup4\n        /* \"contracts/students.sol\":502:547  Student(msg.sender, firstName, lastName, _id) */\n      dup2\n      mstore\n      0x20\n      add\n        /* \"contracts/students.sol\":543:546  _id */\n      dup3\n        /* \"contracts/students.sol\":502:547  Student(msg.sender, firstName, lastName, _id) */\n      dup2\n      mstore\n      pop\n        /* \"contracts/students.sol\":479:487  students */\n      0x01\n        /* \"contracts/students.sol\":479:499  students[msg.sender] */\n      0x00\n        /* \"contracts/students.sol\":488:498  msg.sender */\n      caller\n        /* \"contracts/students.sol\":479:499  students[msg.sender] */\n      0xffffffffffffffffffffffffffffffffffffffff\n      and\n      0xffffffffffffffffffffffffffffffffffffffff\n      and\n      dup2\n      mstore\n      0x20\n      add\n      swap1\n      dup2\n      mstore\n      0x20\n      add\n      0x00\n      keccak256\n        /* \"contracts/students.sol\":479:547  students[msg.sender] = Student(msg.sender, firstName, lastName, _id) */\n      0x00\n      dup3\n      add\n      mload\n      dup2\n      0x00\n      add\n      exp(0x0100, 0x00)\n      dup2\n      sload\n      dup2\n      0xffffffffffffffffffffffffffffffffffffffff\n      mul\n      not\n      and\n      swap1\n      dup4\n      0xffffffffffffffffffffffffffffffffffffffff\n      and\n      mul\n      or\n      swap1\n      sstore\n      pop\n      0x20\n      dup3\n      add\n      mload\n      dup2\n      0x01\n      add\n      swap1\n      dup1\n      mload\n      swap1\n      0x20\n      add\n      swap1\n      tag_57\n      swap3\n      swap2\n      swap1\n      tag_58\n      jump\t// in\n    tag_57:\n      pop\n      0x40\n      dup3\n      add\n      mload\n      dup2\n      0x02\n      add\n      swap1\n      dup1\n      mload\n      swap1\n      0x20\n      add\n      swap1\n      tag_59\n      swap3\n      swap2\n      swap1\n      tag_58\n      jump\t// in\n    tag_59:\n      pop\n      0x60\n      dup3\n      add\n      mload\n      dup2\n      0x03\n      add\n      sstore\n      swap1\n      pop\n      pop\n        /* \"contracts/students.sol\":574:575  1 */\n      0x01\n        /* \"contracts/students.sol\":558:570  studentCount */\n      0x00\n      dup1\n        /* \"contracts/students.sol\":558:575  studentCount += 1 */\n      dup3\n      dup3\n      sload\n      tag_60\n      swap2\n      swap1\n      tag_61\n      jump\t// in\n    tag_60:\n      swap3\n      pop\n      pop\n      dup2\n      swap1\n      sstore\n      pop\n        /* \"contracts/students.sol\":379:583  function addStudent(string memory firstName, string memory lastName, uint256 _id) public {\r... */\n      pop\n      pop\n      pop\n      jump\t// out\n        /* \"contracts/students.sol\":130:174  mapping (address => Student) public students */\n    tag_26:\n      mstore(0x20, 0x01)\n      dup1\n      0x00\n      mstore\n      keccak256(0x00, 0x40)\n      0x00\n      swap2\n      pop\n      swap1\n      pop\n      dup1\n      0x00\n      add\n      0x00\n      swap1\n      sload\n      swap1\n      0x0100\n      exp\n      swap1\n      div\n      0xffffffffffffffffffffffffffffffffffffffff\n      and\n      swap1\n      dup1\n      0x01\n      add\n      dup1\n      sload\n      tag_62\n      swap1\n      tag_33\n      jump\t// in\n    tag_62:\n      dup1\n      0x1f\n      add\n      0x20\n      dup1\n      swap2\n      div\n      mul\n      0x20\n      add\n      mload(0x40)\n      swap1\n      dup2\n      add\n      0x40\n      mstore\n      dup1\n      swap3\n      swap2\n      swap1\n      dup2\n      dup2\n      mstore\n      0x20\n      add\n      dup3\n      dup1\n      sload\n      tag_63\n      swap1\n      tag_33\n      jump\t// in\n    tag_63:\n      dup1\n      iszero\n      tag_64\n      jumpi\n      dup1\n      0x1f\n      lt\n      tag_65\n      jumpi\n      0x0100\n      dup1\n      dup4\n      sload\n      div\n      mul\n      dup4\n      mstore\n      swap2\n      0x20\n      add\n      swap2\n      jump(tag_64)\n    tag_65:\n      dup3\n      add\n      swap2\n      swap1\n      0x00\n      mstore\n      keccak256(0x00, 0x20)\n      swap1\n    tag_66:\n      dup2\n      sload\n      dup2\n      mstore\n      swap1\n      0x01\n      add\n      swap1\n      0x20\n      add\n      dup1\n      dup4\n      gt\n      tag_66\n      jumpi\n      dup3\n      swap1\n      sub\n      0x1f\n      and\n      dup3\n      add\n      swap2\n    tag_64:\n      pop\n      pop\n      pop\n      pop\n      pop\n      swap1\n      dup1\n      0x02\n      add\n      dup1\n      sload\n      tag_67\n      swap1\n      tag_33\n      jump\t// in\n    tag_67:\n      dup1\n      0x1f\n      add\n      0x20\n      dup1\n      swap2\n      div\n      mul\n      0x20\n      add\n      mload(0x40)\n      swap1\n      dup2\n      add\n      0x40\n      mstore\n      dup1\n      swap3\n      swap2\n      swap1\n      dup2\n      dup2\n      mstore\n      0x20\n      add\n      dup3\n      dup1\n      sload\n      tag_68\n      swap1\n      tag_33\n      jump\t// in\n    tag_68:\n      dup1\n      iszero\n      tag_69\n      jumpi\n      dup1\n      0x1f\n      lt\n      tag_70\n      jumpi\n      0x0100\n      dup1\n      dup4\n      sload\n      div\n      mul\n      dup4\n      mstore\n      swap2\n      0x20\n      add\n      swap2\n      jump(tag_69)\n    tag_70:\n      dup3\n      add\n      swap2\n      swap1\n      0x00\n      mstore\n      keccak256(0x00, 0x20)\n      swap1\n    tag_71:\n      dup2\n      sload\n      dup2\n      mstore\n      swap1\n      0x01\n      add\n      swap1\n      0x20\n      add\n      dup1\n      dup4\n      gt\n      tag_71\n      jumpi\n      dup3\n      swap1\n      sub\n      0x1f\n      and\n      dup3\n      add\n      swap2\n    tag_69:\n      pop\n      pop\n      pop\n      pop\n      pop\n      swap1\n      dup1\n      0x03\n      add\n      sload\n      swap1\n      pop\n      dup5\n      jump\t// out\n        /* \"contracts/students.sol\":95:123  uint public studentCount = 0 */\n    tag_29:\n      sload(0x00)\n      dup2\n      jump\t// out\n    tag_44:\n      mload(0x40)\n      dup1\n      0x80\n      add\n      0x40\n      mstore\n      dup1\n      and(0xffffffffffffffffffffffffffffffffffffffff, 0x00)\n      dup2\n      mstore\n      0x20\n      add\n      0x60\n      dup2\n      mstore\n      0x20\n      add\n      0x60\n      dup2\n      mstore\n      0x20\n      add\n      0x00\n      dup2\n      mstore\n      pop\n      swap1\n      jump\t// out\n    tag_58:\n      dup3\n      dup1\n      sload\n      tag_72\n      swap1\n      tag_33\n      jump\t// in\n    tag_72:\n      swap1\n      0x00\n      mstore\n      keccak256(0x00, 0x20)\n      swap1\n      0x1f\n      add\n      0x20\n      swap1\n      div\n      dup2\n      add\n      swap3\n      dup3\n      tag_74\n      jumpi\n      0x00\n      dup6\n      sstore\n      jump(tag_73)\n    tag_74:\n      dup3\n      0x1f\n      lt\n      tag_75\n      jumpi\n      dup1\n      mload\n      not(0xff)\n      and\n      dup4\n      dup1\n      add\n      or\n      dup6\n      sstore\n      jump(tag_73)\n    tag_75:\n      dup3\n      dup1\n      add\n      0x01\n      add\n      dup6\n      sstore\n      dup3\n      iszero\n      tag_73\n      jumpi\n      swap2\n      dup3\n      add\n    tag_76:\n      dup3\n      dup2\n      gt\n      iszero\n      tag_77\n      jumpi\n      dup3\n      mload\n      dup3\n      sstore\n      swap2\n      0x20\n      add\n      swap2\n      swap1\n      0x01\n      add\n      swap1\n      jump(tag_76)\n    tag_77:\n    tag_73:\n      pop\n      swap1\n      pop\n      tag_78\n      swap2\n      swap1\n      tag_79\n      jump\t// in\n    tag_78:\n      pop\n      swap1\n      jump\t// out\n    tag_79:\n    tag_80:\n      dup1\n      dup3\n      gt\n      iszero\n      tag_81\n      jumpi\n      0x00\n      dup2\n      0x00\n      swap1\n      sstore\n      pop\n      0x01\n      add\n      jump(tag_80)\n    tag_81:\n      pop\n      swap1\n      jump\t// out\n        /* \"#utility.yul\":7:419   */\n    tag_83:\n        /* \"#utility.yul\":85:90   */\n      0x00\n        /* \"#utility.yul\":110:176   */\n      tag_85\n        /* \"#utility.yul\":126:175   */\n      tag_86\n        /* \"#utility.yul\":168:174   */\n      dup5\n        /* \"#utility.yul\":126:175   */\n      tag_87\n      jump\t// in\n    tag_86:\n        /* \"#utility.yul\":110:176   */\n      tag_88\n      jump\t// in\n    tag_85:\n        /* \"#utility.yul\":101:176   */\n      swap1\n      pop\n        /* \"#utility.yul\":199:205   */\n      dup3\n        /* \"#utility.yul\":192:197   */\n      dup2\n        /* \"#utility.yul\":185:206   */\n      mstore\n        /* \"#utility.yul\":237:241   */\n      0x20\n        /* \"#utility.yul\":230:235   */\n      dup2\n        /* \"#utility.yul\":226:242   */\n      add\n        /* \"#utility.yul\":275:278   */\n      dup5\n        /* \"#utility.yul\":266:272   */\n      dup5\n        /* \"#utility.yul\":261:264   */\n      dup5\n        /* \"#utility.yul\":257:273   */\n      add\n        /* \"#utility.yul\":254:279   */\n      gt\n        /* \"#utility.yul\":251:363   */\n      iszero\n      tag_89\n      jumpi\n        /* \"#utility.yul\":282:361   */\n      tag_90\n      tag_91\n      jump\t// in\n    tag_90:\n        /* \"#utility.yul\":251:363   */\n    tag_89:\n        /* \"#utility.yul\":372:413   */\n      tag_92\n        /* \"#utility.yul\":406:412   */\n      dup5\n        /* \"#utility.yul\":401:404   */\n      dup3\n        /* \"#utility.yul\":396:399   */\n      dup6\n        /* \"#utility.yul\":372:413   */\n      tag_93\n      jump\t// in\n    tag_92:\n        /* \"#utility.yul\":91:419   */\n      pop\n        /* \"#utility.yul\":7:419   */\n      swap4\n      swap3\n      pop\n      pop\n      pop\n      jump\t// out\n        /* \"#utility.yul\":425:564   */\n    tag_94:\n        /* \"#utility.yul\":471:476   */\n      0x00\n        /* \"#utility.yul\":509:515   */\n      dup2\n        /* \"#utility.yul\":496:516   */\n      calldataload\n        /* \"#utility.yul\":487:516   */\n      swap1\n      pop\n        /* \"#utility.yul\":525:558   */\n      tag_96\n        /* \"#utility.yul\":552:557   */\n      dup2\n        /* \"#utility.yul\":525:558   */\n      tag_97\n      jump\t// in\n    tag_96:\n        /* \"#utility.yul\":425:564   */\n      swap3\n      swap2\n      pop\n      pop\n      jump\t// out\n        /* \"#utility.yul\":584:924   */\n    tag_98:\n        /* \"#utility.yul\":640:645   */\n      0x00\n        /* \"#utility.yul\":689:692   */\n      dup3\n        /* \"#utility.yul\":682:686   */\n      0x1f\n        /* \"#utility.yul\":674:680   */\n      dup4\n        /* \"#utility.yul\":670:687   */\n      add\n        /* \"#utility.yul\":666:693   */\n      slt\n        /* \"#utility.yul\":656:778   */\n      tag_100\n      jumpi\n        /* \"#utility.yul\":697:776   */\n      tag_101\n      tag_102\n      jump\t// in\n    tag_101:\n        /* \"#utility.yul\":656:778   */\n    tag_100:\n        /* \"#utility.yul\":814:820   */\n      dup2\n        /* \"#utility.yul\":801:821   */\n      calldataload\n        /* \"#utility.yul\":839:918   */\n      tag_103\n        /* \"#utility.yul\":914:917   */\n      dup5\n        /* \"#utility.yul\":906:912   */\n      dup3\n        /* \"#utility.yul\":899:903   */\n      0x20\n        /* \"#utility.yul\":891:897   */\n      dup7\n        /* \"#utility.yul\":887:904   */\n      add\n        /* \"#utility.yul\":839:918   */\n      tag_83\n      jump\t// in\n    tag_103:\n        /* \"#utility.yul\":830:918   */\n      swap2\n      pop\n        /* \"#utility.yul\":646:924   */\n      pop\n        /* \"#utility.yul\":584:924   */\n      swap3\n      swap2\n      pop\n      pop\n      jump\t// out\n        /* \"#utility.yul\":930:1069   */\n    tag_104:\n        /* \"#utility.yul\":976:981   */\n      0x00\n        /* \"#utility.yul\":1014:1020   */\n      dup2\n        /* \"#utility.yul\":1001:1021   */\n      calldataload\n        /* \"#utility.yul\":992:1021   */\n      swap1\n      pop\n        /* \"#utility.yul\":1030:1063   */\n      tag_106\n        /* \"#utility.yul\":1057:1062   */\n      dup2\n        /* \"#utility.yul\":1030:1063   */\n      tag_107\n      jump\t// in\n    tag_106:\n        /* \"#utility.yul\":930:1069   */\n      swap3\n      swap2\n      pop\n      pop\n      jump\t// out\n        /* \"#utility.yul\":1075:1404   */\n    tag_25:\n        /* \"#utility.yul\":1134:1140   */\n      0x00\n        /* \"#utility.yul\":1183:1185   */\n      0x20\n        /* \"#utility.yul\":1171:1180   */\n      dup3\n        /* \"#utility.yul\":1162:1169   */\n      dup5\n        /* \"#utility.yul\":1158:1181   */\n      sub\n        /* \"#utility.yul\":1154:1186   */\n      slt\n        /* \"#utility.yul\":1151:1270   */\n      iszero\n      tag_109\n      jumpi\n        /* \"#utility.yul\":1189:1268   */\n      tag_110\n      tag_111\n      jump\t// in\n    tag_110:\n        /* \"#utility.yul\":1151:1270   */\n    tag_109:\n        /* \"#utility.yul\":1309:1310   */\n      0x00\n        /* \"#utility.yul\":1334:1387   */\n      tag_112\n        /* \"#utility.yul\":1379:1386   */\n      dup5\n        /* \"#utility.yul\":1370:1376   */\n      dup3\n        /* \"#utility.yul\":1359:1368   */\n      dup6\n        /* \"#utility.yul\":1355:1377   */\n      add\n        /* \"#utility.yul\":1334:1387   */\n      tag_94\n      jump\t// in\n    tag_112:\n        /* \"#utility.yul\":1324:1387   */\n      swap2\n      pop\n        /* \"#utility.yul\":1280:1397   */\n      pop\n        /* \"#utility.yul\":1075:1404   */\n      swap3\n      swap2\n      pop\n      pop\n      jump\t// out\n        /* \"#utility.yul\":1410:2389   */\n    tag_21:\n        /* \"#utility.yul\":1507:1513   */\n      0x00\n        /* \"#utility.yul\":1515:1521   */\n      dup1\n        /* \"#utility.yul\":1523:1529   */\n      0x00\n        /* \"#utility.yul\":1572:1574   */\n      0x60\n        /* \"#utility.yul\":1560:1569   */\n      dup5\n        /* \"#utility.yul\":1551:1558   */\n      dup7\n        /* \"#utility.yul\":1547:1570   */\n      sub\n        /* \"#utility.yul\":1543:1575   */\n      slt\n        /* \"#utility.yul\":1540:1659   */\n      iszero\n      tag_114\n      jumpi\n        /* \"#utility.yul\":1578:1657   */\n      tag_115\n      tag_111\n      jump\t// in\n    tag_115:\n        /* \"#utility.yul\":1540:1659   */\n    tag_114:\n        /* \"#utility.yul\":1726:1727   */\n      0x00\n        /* \"#utility.yul\":1715:1724   */\n      dup5\n        /* \"#utility.yul\":1711:1728   */\n      add\n        /* \"#utility.yul\":1698:1729   */\n      calldataload\n        /* \"#utility.yul\":1756:1774   */\n      0xffffffffffffffff\n        /* \"#utility.yul\":1748:1754   */\n      dup2\n        /* \"#utility.yul\":1745:1775   */\n      gt\n        /* \"#utility.yul\":1742:1859   */\n      iszero\n      tag_116\n      jumpi\n        /* \"#utility.yul\":1778:1857   */\n      tag_117\n      tag_118\n      jump\t// in\n    tag_117:\n        /* \"#utility.yul\":1742:1859   */\n    tag_116:\n        /* \"#utility.yul\":1883:1946   */\n      tag_119\n        /* \"#utility.yul\":1938:1945   */\n      dup7\n        /* \"#utility.yul\":1929:1935   */\n      dup3\n        /* \"#utility.yul\":1918:1927   */\n      dup8\n        /* \"#utility.yul\":1914:1936   */\n      add\n        /* \"#utility.yul\":1883:1946   */\n      tag_98\n      jump\t// in\n    tag_119:\n        /* \"#utility.yul\":1873:1946   */\n      swap4\n      pop\n        /* \"#utility.yul\":1669:1956   */\n      pop\n        /* \"#utility.yul\":2023:2025   */\n      0x20\n        /* \"#utility.yul\":2012:2021   */\n      dup5\n        /* \"#utility.yul\":2008:2026   */\n      add\n        /* \"#utility.yul\":1995:2027   */\n      calldataload\n        /* \"#utility.yul\":2054:2072   */\n      0xffffffffffffffff\n        /* \"#utility.yul\":2046:2052   */\n      dup2\n        /* \"#utility.yul\":2043:2073   */\n      gt\n        /* \"#utility.yul\":2040:2157   */\n      iszero\n      tag_120\n      jumpi\n        /* \"#utility.yul\":2076:2155   */\n      tag_121\n      tag_118\n      jump\t// in\n    tag_121:\n        /* \"#utility.yul\":2040:2157   */\n    tag_120:\n        /* \"#utility.yul\":2181:2244   */\n      tag_122\n        /* \"#utility.yul\":2236:2243   */\n      dup7\n        /* \"#utility.yul\":2227:2233   */\n      dup3\n        /* \"#utility.yul\":2216:2225   */\n      dup8\n        /* \"#utility.yul\":2212:2234   */\n      add\n        /* \"#utility.yul\":2181:2244   */\n      tag_98\n      jump\t// in\n    tag_122:\n        /* \"#utility.yul\":2171:2244   */\n      swap3\n      pop\n        /* \"#utility.yul\":1966:2254   */\n      pop\n        /* \"#utility.yul\":2293:2295   */\n      0x40\n        /* \"#utility.yul\":2319:2372   */\n      tag_123\n        /* \"#utility.yul\":2364:2371   */\n      dup7\n        /* \"#utility.yul\":2355:2361   */\n      dup3\n        /* \"#utility.yul\":2344:2353   */\n      dup8\n        /* \"#utility.yul\":2340:2362   */\n      add\n        /* \"#utility.yul\":2319:2372   */\n      tag_104\n      jump\t// in\n    tag_123:\n        /* \"#utility.yul\":2309:2372   */\n      swap2\n      pop\n        /* \"#utility.yul\":2264:2382   */\n      pop\n        /* \"#utility.yul\":1410:2389   */\n      swap3\n      pop\n      swap3\n      pop\n      swap3\n      jump\t// out\n        /* \"#utility.yul\":2395:2724   */\n    tag_10:\n        /* \"#utility.yul\":2454:2460   */\n      0x00\n        /* \"#utility.yul\":2503:2505   */\n      0x20\n        /* \"#utility.yul\":2491:2500   */\n      dup3\n        /* \"#utility.yul\":2482:2489   */\n      dup5\n        /* \"#utility.yul\":2478:2501   */\n      sub\n        /* \"#utility.yul\":2474:2506   */\n      slt\n        /* \"#utility.yul\":2471:2590   */\n      iszero\n      tag_125\n      jumpi\n        /* \"#utility.yul\":2509:2588   */\n      tag_126\n      tag_111\n      jump\t// in\n    tag_126:\n        /* \"#utility.yul\":2471:2590   */\n    tag_125:\n        /* \"#utility.yul\":2629:2630   */\n      0x00\n        /* \"#utility.yul\":2654:2707   */\n      tag_127\n        /* \"#utility.yul\":2699:2706   */\n      dup5\n        /* \"#utility.yul\":2690:2696   */\n      dup3\n        /* \"#utility.yul\":2679:2688   */\n      dup6\n        /* \"#utility.yul\":2675:2697   */\n      add\n        /* \"#utility.yul\":2654:2707   */\n      tag_104\n      jump\t// in\n    tag_127:\n        /* \"#utility.yul\":2644:2707   */\n      swap2\n      pop\n        /* \"#utility.yul\":2600:2717   */\n      pop\n        /* \"#utility.yul\":2395:2724   */\n      swap3\n      swap2\n      pop\n      pop\n      jump\t// out\n        /* \"#utility.yul\":2730:2838   */\n    tag_128:\n        /* \"#utility.yul\":2807:2831   */\n      tag_130\n        /* \"#utility.yul\":2825:2830   */\n      dup2\n        /* \"#utility.yul\":2807:2831   */\n      tag_131\n      jump\t// in\n    tag_130:\n        /* \"#utility.yul\":2802:2805   */\n      dup3\n        /* \"#utility.yul\":2795:2832   */\n      mstore\n        /* \"#utility.yul\":2730:2838   */\n      pop\n      pop\n      jump\t// out\n        /* \"#utility.yul\":2844:2962   */\n    tag_132:\n        /* \"#utility.yul\":2931:2955   */\n      tag_134\n        /* \"#utility.yul\":2949:2954   */\n      dup2\n        /* \"#utility.yul\":2931:2955   */\n      tag_131\n      jump\t// in\n    tag_134:\n        /* \"#utility.yul\":2926:2929   */\n      dup3\n        /* \"#utility.yul\":2919:2956   */\n      mstore\n        /* \"#utility.yul\":2844:2962   */\n      pop\n      pop\n      jump\t// out\n        /* \"#utility.yul\":2968:3312   */\n    tag_135:\n        /* \"#utility.yul\":3046:3049   */\n      0x00\n        /* \"#utility.yul\":3074:3113   */\n      tag_137\n        /* \"#utility.yul\":3107:3112   */\n      dup3\n        /* \"#utility.yul\":3074:3113   */\n      tag_138\n      jump\t// in\n    tag_137:\n        /* \"#utility.yul\":3129:3190   */\n      tag_139\n        /* \"#utility.yul\":3183:3189   */\n      dup2\n        /* \"#utility.yul\":3178:3181   */\n      dup6\n        /* \"#utility.yul\":3129:3190   */\n      tag_140\n      jump\t// in\n    tag_139:\n        /* \"#utility.yul\":3122:3190   */\n      swap4\n      pop\n        /* \"#utility.yul\":3199:3251   */\n      tag_141\n        /* \"#utility.yul\":3244:3250   */\n      dup2\n        /* \"#utility.yul\":3239:3242   */\n      dup6\n        /* \"#utility.yul\":3232:3236   */\n      0x20\n        /* \"#utility.yul\":3225:3230   */\n      dup7\n        /* \"#utility.yul\":3221:3237   */\n      add\n        /* \"#utility.yul\":3199:3251   */\n      tag_142\n      jump\t// in\n    tag_141:\n        /* \"#utility.yul\":3276:3305   */\n      tag_143\n        /* \"#utility.yul\":3298:3304   */\n      dup2\n        /* \"#utility.yul\":3276:3305   */\n      tag_144\n      jump\t// in\n    tag_143:\n        /* \"#utility.yul\":3271:3274   */\n      dup5\n        /* \"#utility.yul\":3267:3306   */\n      add\n        /* \"#utility.yul\":3260:3306   */\n      swap2\n      pop\n        /* \"#utility.yul\":3050:3312   */\n      pop\n        /* \"#utility.yul\":2968:3312   */\n      swap3\n      swap2\n      pop\n      pop\n      jump\t// out\n        /* \"#utility.yul\":3318:3682   */\n    tag_145:\n        /* \"#utility.yul\":3406:3409   */\n      0x00\n        /* \"#utility.yul\":3434:3473   */\n      tag_147\n        /* \"#utility.yul\":3467:3472   */\n      dup3\n        /* \"#utility.yul\":3434:3473   */\n      tag_138\n      jump\t// in\n    tag_147:\n        /* \"#utility.yul\":3489:3560   */\n      tag_148\n        /* \"#utility.yul\":3553:3559   */\n      dup2\n        /* \"#utility.yul\":3548:3551   */\n      dup6\n        /* \"#utility.yul\":3489:3560   */\n      tag_149\n      jump\t// in\n    tag_148:\n        /* \"#utility.yul\":3482:3560   */\n      swap4\n      pop\n        /* \"#utility.yul\":3569:3621   */\n      tag_150\n        /* \"#utility.yul\":3614:3620   */\n      dup2\n        /* \"#utility.yul\":3609:3612   */\n      dup6\n        /* \"#utility.yul\":3602:3606   */\n      0x20\n        /* \"#utility.yul\":3595:3600   */\n      dup7\n        /* \"#utility.yul\":3591:3607   */\n      add\n        /* \"#utility.yul\":3569:3621   */\n      tag_142\n      jump\t// in\n    tag_150:\n        /* \"#utility.yul\":3646:3675   */\n      tag_151\n        /* \"#utility.yul\":3668:3674   */\n      dup2\n        /* \"#utility.yul\":3646:3675   */\n      tag_144\n      jump\t// in\n    tag_151:\n        /* \"#utility.yul\":3641:3644   */\n      dup5\n        /* \"#utility.yul\":3637:3676   */\n      add\n        /* \"#utility.yul\":3630:3676   */\n      swap2\n      pop\n        /* \"#utility.yul\":3410:3682   */\n      pop\n        /* \"#utility.yul\":3318:3682   */\n      swap3\n      swap2\n      pop\n      pop\n      jump\t// out\n        /* \"#utility.yul\":3748:4787   */\n    tag_152:\n        /* \"#utility.yul\":3863:3866   */\n      0x00\n        /* \"#utility.yul\":3899:3903   */\n      0x80\n        /* \"#utility.yul\":3894:3897   */\n      dup4\n        /* \"#utility.yul\":3890:3904   */\n      add\n        /* \"#utility.yul\":3996:4000   */\n      0x00\n        /* \"#utility.yul\":3989:3994   */\n      dup4\n        /* \"#utility.yul\":3985:4001   */\n      add\n        /* \"#utility.yul\":3979:4002   */\n      mload\n        /* \"#utility.yul\":4015:4078   */\n      tag_154\n        /* \"#utility.yul\":4072:4076   */\n      0x00\n        /* \"#utility.yul\":4067:4070   */\n      dup7\n        /* \"#utility.yul\":4063:4077   */\n      add\n        /* \"#utility.yul\":4049:4061   */\n      dup3\n        /* \"#utility.yul\":4015:4078   */\n      tag_128\n      jump\t// in\n    tag_154:\n        /* \"#utility.yul\":3914:4088   */\n      pop\n        /* \"#utility.yul\":4175:4179   */\n      0x20\n        /* \"#utility.yul\":4168:4173   */\n      dup4\n        /* \"#utility.yul\":4164:4180   */\n      add\n        /* \"#utility.yul\":4158:4181   */\n      mload\n        /* \"#utility.yul\":4228:4231   */\n      dup5\n        /* \"#utility.yul\":4222:4226   */\n      dup3\n        /* \"#utility.yul\":4218:4232   */\n      sub\n        /* \"#utility.yul\":4211:4215   */\n      0x20\n        /* \"#utility.yul\":4206:4209   */\n      dup7\n        /* \"#utility.yul\":4202:4216   */\n      add\n        /* \"#utility.yul\":4195:4233   */\n      mstore\n        /* \"#utility.yul\":4254:4327   */\n      tag_155\n        /* \"#utility.yul\":4322:4326   */\n      dup3\n        /* \"#utility.yul\":4308:4320   */\n      dup3\n        /* \"#utility.yul\":4254:4327   */\n      tag_135\n      jump\t// in\n    tag_155:\n        /* \"#utility.yul\":4246:4327   */\n      swap2\n      pop\n        /* \"#utility.yul\":4098:4338   */\n      pop\n        /* \"#utility.yul\":4424:4428   */\n      0x40\n        /* \"#utility.yul\":4417:4422   */\n      dup4\n        /* \"#utility.yul\":4413:4429   */\n      add\n        /* \"#utility.yul\":4407:4430   */\n      mload\n        /* \"#utility.yul\":4477:4480   */\n      dup5\n        /* \"#utility.yul\":4471:4475   */\n      dup3\n        /* \"#utility.yul\":4467:4481   */\n      sub\n        /* \"#utility.yul\":4460:4464   */\n      0x40\n        /* \"#utility.yul\":4455:4458   */\n      dup7\n        /* \"#utility.yul\":4451:4465   */\n      add\n        /* \"#utility.yul\":4444:4482   */\n      mstore\n        /* \"#utility.yul\":4503:4576   */\n      tag_156\n        /* \"#utility.yul\":4571:4575   */\n      dup3\n        /* \"#utility.yul\":4557:4569   */\n      dup3\n        /* \"#utility.yul\":4503:4576   */\n      tag_135\n      jump\t// in\n    tag_156:\n        /* \"#utility.yul\":4495:4576   */\n      swap2\n      pop\n        /* \"#utility.yul\":4348:4587   */\n      pop\n        /* \"#utility.yul\":4668:4672   */\n      0x60\n        /* \"#utility.yul\":4661:4666   */\n      dup4\n        /* \"#utility.yul\":4657:4673   */\n      add\n        /* \"#utility.yul\":4651:4674   */\n      mload\n        /* \"#utility.yul\":4687:4750   */\n      tag_157\n        /* \"#utility.yul\":4744:4748   */\n      0x60\n        /* \"#utility.yul\":4739:4742   */\n      dup7\n        /* \"#utility.yul\":4735:4749   */\n      add\n        /* \"#utility.yul\":4721:4733   */\n      dup3\n        /* \"#utility.yul\":4687:4750   */\n      tag_158\n      jump\t// in\n    tag_157:\n        /* \"#utility.yul\":4597:4760   */\n      pop\n        /* \"#utility.yul\":4777:4781   */\n      dup1\n        /* \"#utility.yul\":4770:4781   */\n      swap2\n      pop\n        /* \"#utility.yul\":3868:4787   */\n      pop\n        /* \"#utility.yul\":3748:4787   */\n      swap3\n      swap2\n      pop\n      pop\n      jump\t// out\n        /* \"#utility.yul\":4793:4901   */\n    tag_158:\n        /* \"#utility.yul\":4870:4894   */\n      tag_160\n        /* \"#utility.yul\":4888:4893   */\n      dup2\n        /* \"#utility.yul\":4870:4894   */\n      tag_161\n      jump\t// in\n    tag_160:\n        /* \"#utility.yul\":4865:4868   */\n      dup3\n        /* \"#utility.yul\":4858:4895   */\n      mstore\n        /* \"#utility.yul\":4793:4901   */\n      pop\n      pop\n      jump\t// out\n        /* \"#utility.yul\":4907:5025   */\n    tag_162:\n        /* \"#utility.yul\":4994:5018   */\n      tag_164\n        /* \"#utility.yul\":5012:5017   */\n      dup2\n        /* \"#utility.yul\":4994:5018   */\n      tag_161\n      jump\t// in\n    tag_164:\n        /* \"#utility.yul\":4989:4992   */\n      dup3\n        /* \"#utility.yul\":4982:5019   */\n      mstore\n        /* \"#utility.yul\":4907:5025   */\n      pop\n      pop\n      jump\t// out\n        /* \"#utility.yul\":5031:5766   */\n    tag_13:\n        /* \"#utility.yul\":5248:5252   */\n      0x00\n        /* \"#utility.yul\":5286:5289   */\n      0x80\n        /* \"#utility.yul\":5275:5284   */\n      dup3\n        /* \"#utility.yul\":5271:5290   */\n      add\n        /* \"#utility.yul\":5263:5290   */\n      swap1\n      pop\n        /* \"#utility.yul\":5300:5371   */\n      tag_166\n        /* \"#utility.yul\":5368:5369   */\n      0x00\n        /* \"#utility.yul\":5357:5366   */\n      dup4\n        /* \"#utility.yul\":5353:5370   */\n      add\n        /* \"#utility.yul\":5344:5350   */\n      dup8\n        /* \"#utility.yul\":5300:5371   */\n      tag_132\n      jump\t// in\n    tag_166:\n        /* \"#utility.yul\":5418:5427   */\n      dup2\n        /* \"#utility.yul\":5412:5416   */\n      dup2\n        /* \"#utility.yul\":5408:5428   */\n      sub\n        /* \"#utility.yul\":5403:5405   */\n      0x20\n        /* \"#utility.yul\":5392:5401   */\n      dup4\n        /* \"#utility.yul\":5388:5406   */\n      add\n        /* \"#utility.yul\":5381:5429   */\n      mstore\n        /* \"#utility.yul\":5446:5524   */\n      tag_167\n        /* \"#utility.yul\":5519:5523   */\n      dup2\n        /* \"#utility.yul\":5510:5516   */\n      dup7\n        /* \"#utility.yul\":5446:5524   */\n      tag_145\n      jump\t// in\n    tag_167:\n        /* \"#utility.yul\":5438:5524   */\n      swap1\n      pop\n        /* \"#utility.yul\":5571:5580   */\n      dup2\n        /* \"#utility.yul\":5565:5569   */\n      dup2\n        /* \"#utility.yul\":5561:5581   */\n      sub\n        /* \"#utility.yul\":5556:5558   */\n      0x40\n        /* \"#utility.yul\":5545:5554   */\n      dup4\n        /* \"#utility.yul\":5541:5559   */\n      add\n        /* \"#utility.yul\":5534:5582   */\n      mstore\n        /* \"#utility.yul\":5599:5677   */\n      tag_168\n        /* \"#utility.yul\":5672:5676   */\n      dup2\n        /* \"#utility.yul\":5663:5669   */\n      dup6\n        /* \"#utility.yul\":5599:5677   */\n      tag_145\n      jump\t// in\n    tag_168:\n        /* \"#utility.yul\":5591:5677   */\n      swap1\n      pop\n        /* \"#utility.yul\":5687:5759   */\n      tag_169\n        /* \"#utility.yul\":5755:5757   */\n      0x60\n        /* \"#utility.yul\":5744:5753   */\n      dup4\n        /* \"#utility.yul\":5740:5758   */\n      add\n        /* \"#utility.yul\":5731:5737   */\n      dup5\n        /* \"#utility.yul\":5687:5759   */\n      tag_162\n      jump\t// in\n    tag_169:\n        /* \"#utility.yul\":5031:5766   */\n      swap6\n      swap5\n      pop\n      pop\n      pop\n      pop\n      pop\n      jump\t// out\n        /* \"#utility.yul\":5772:6137   */\n    tag_18:\n        /* \"#utility.yul\":5911:5915   */\n      0x00\n        /* \"#utility.yul\":5949:5951   */\n      0x20\n        /* \"#utility.yul\":5938:5947   */\n      dup3\n        /* \"#utility.yul\":5934:5952   */\n      add\n        /* \"#utility.yul\":5926:5952   */\n      swap1\n      pop\n        /* \"#utility.yul\":5998:6007   */\n      dup2\n        /* \"#utility.yul\":5992:5996   */\n      dup2\n        /* \"#utility.yul\":5988:6008   */\n      sub\n        /* \"#utility.yul\":5984:5985   */\n      0x00\n        /* \"#utility.yul\":5973:5982   */\n      dup4\n        /* \"#utility.yul\":5969:5986   */\n      add\n        /* \"#utility.yul\":5962:6009   */\n      mstore\n        /* \"#utility.yul\":6026:6130   */\n      tag_171\n        /* \"#utility.yul\":6125:6129   */\n      dup2\n        /* \"#utility.yul\":6116:6122   */\n      dup5\n        /* \"#utility.yul\":6026:6130   */\n      tag_152\n      jump\t// in\n    tag_171:\n        /* \"#utility.yul\":6018:6130   */\n      swap1\n      pop\n        /* \"#utility.yul\":5772:6137   */\n      swap3\n      swap2\n      pop\n      pop\n      jump\t// out\n        /* \"#utility.yul\":6143:6365   */\n    tag_31:\n        /* \"#utility.yul\":6236:6240   */\n      0x00\n        /* \"#utility.yul\":6274:6276   */\n      0x20\n        /* \"#utility.yul\":6263:6272   */\n      dup3\n        /* \"#utility.yul\":6259:6277   */\n      add\n        /* \"#utility.yul\":6251:6277   */\n      swap1\n      pop\n        /* \"#utility.yul\":6287:6358   */\n      tag_173\n        /* \"#utility.yul\":6355:6356   */\n      0x00\n        /* \"#utility.yul\":6344:6353   */\n      dup4\n        /* \"#utility.yul\":6340:6357   */\n      add\n        /* \"#utility.yul\":6331:6337   */\n      dup5\n        /* \"#utility.yul\":6287:6358   */\n      tag_162\n      jump\t// in\n    tag_173:\n        /* \"#utility.yul\":6143:6365   */\n      swap3\n      swap2\n      pop\n      pop\n      jump\t// out\n        /* \"#utility.yul\":6371:6500   */\n    tag_88:\n        /* \"#utility.yul\":6405:6411   */\n      0x00\n        /* \"#utility.yul\":6432:6452   */\n      tag_175\n      tag_176\n      jump\t// in\n    tag_175:\n        /* \"#utility.yul\":6422:6452   */\n      swap1\n      pop\n        /* \"#utility.yul\":6461:6494   */\n      tag_177\n        /* \"#utility.yul\":6489:6493   */\n      dup3\n        /* \"#utility.yul\":6481:6487   */\n      dup3\n        /* \"#utility.yul\":6461:6494   */\n      tag_178\n      jump\t// in\n    tag_177:\n        /* \"#utility.yul\":6371:6500   */\n      swap2\n      swap1\n      pop\n      jump\t// out\n        /* \"#utility.yul\":6506:6581   */\n    tag_176:\n        /* \"#utility.yul\":6539:6545   */\n      0x00\n        /* \"#utility.yul\":6572:6574   */\n      0x40\n        /* \"#utility.yul\":6566:6575   */\n      mload\n        /* \"#utility.yul\":6556:6575   */\n      swap1\n      pop\n        /* \"#utility.yul\":6506:6581   */\n      swap1\n      jump\t// out\n        /* \"#utility.yul\":6587:6895   */\n    tag_87:\n        /* \"#utility.yul\":6649:6653   */\n      0x00\n        /* \"#utility.yul\":6739:6757   */\n      0xffffffffffffffff\n        /* \"#utility.yul\":6731:6737   */\n      dup3\n        /* \"#utility.yul\":6728:6758   */\n      gt\n        /* \"#utility.yul\":6725:6781   */\n      iszero\n      tag_181\n      jumpi\n        /* \"#utility.yul\":6761:6779   */\n      tag_182\n      tag_183\n      jump\t// in\n    tag_182:\n        /* \"#utility.yul\":6725:6781   */\n    tag_181:\n        /* \"#utility.yul\":6799:6828   */\n      tag_184\n        /* \"#utility.yul\":6821:6827   */\n      dup3\n        /* \"#utility.yul\":6799:6828   */\n      tag_144\n      jump\t// in\n    tag_184:\n        /* \"#utility.yul\":6791:6828   */\n      swap1\n      pop\n        /* \"#utility.yul\":6883:6887   */\n      0x20\n        /* \"#utility.yul\":6877:6881   */\n      dup2\n        /* \"#utility.yul\":6873:6888   */\n      add\n        /* \"#utility.yul\":6865:6888   */\n      swap1\n      pop\n        /* \"#utility.yul\":6587:6895   */\n      swap2\n      swap1\n      pop\n      jump\t// out\n        /* \"#utility.yul\":6901:7000   */\n    tag_138:\n        /* \"#utility.yul\":6953:6959   */\n      0x00\n        /* \"#utility.yul\":6987:6992   */\n      dup2\n        /* \"#utility.yul\":6981:6993   */\n      mload\n        /* \"#utility.yul\":6971:6993   */\n      swap1\n      pop\n        /* \"#utility.yul\":6901:7000   */\n      swap2\n      swap1\n      pop\n      jump\t// out\n        /* \"#utility.yul\":7006:7165   */\n    tag_140:\n        /* \"#utility.yul\":7080:7091   */\n      0x00\n        /* \"#utility.yul\":7114:7120   */\n      dup3\n        /* \"#utility.yul\":7109:7112   */\n      dup3\n        /* \"#utility.yul\":7102:7121   */\n      mstore\n        /* \"#utility.yul\":7154:7158   */\n      0x20\n        /* \"#utility.yul\":7149:7152   */\n      dup3\n        /* \"#utility.yul\":7145:7159   */\n      add\n        /* \"#utility.yul\":7130:7159   */\n      swap1\n      pop\n        /* \"#utility.yul\":7006:7165   */\n      swap3\n      swap2\n      pop\n      pop\n      jump\t// out\n        /* \"#utility.yul\":7171:7340   */\n    tag_149:\n        /* \"#utility.yul\":7255:7266   */\n      0x00\n        /* \"#utility.yul\":7289:7295   */\n      dup3\n        /* \"#utility.yul\":7284:7287   */\n      dup3\n        /* \"#utility.yul\":7277:7296   */\n      mstore\n        /* \"#utility.yul\":7329:7333   */\n      0x20\n        /* \"#utility.yul\":7324:7327   */\n      dup3\n        /* \"#utility.yul\":7320:7334   */\n      add\n        /* \"#utility.yul\":7305:7334   */\n      swap1\n      pop\n        /* \"#utility.yul\":7171:7340   */\n      swap3\n      swap2\n      pop\n      pop\n      jump\t// out\n        /* \"#utility.yul\":7346:7651   */\n    tag_61:\n        /* \"#utility.yul\":7386:7389   */\n      0x00\n        /* \"#utility.yul\":7405:7425   */\n      tag_189\n        /* \"#utility.yul\":7423:7424   */\n      dup3\n        /* \"#utility.yul\":7405:7425   */\n      tag_161\n      jump\t// in\n    tag_189:\n        /* \"#utility.yul\":7400:7425   */\n      swap2\n      pop\n        /* \"#utility.yul\":7439:7459   */\n      tag_190\n        /* \"#utility.yul\":7457:7458   */\n      dup4\n        /* \"#utility.yul\":7439:7459   */\n      tag_161\n      jump\t// in\n    tag_190:\n        /* \"#utility.yul\":7434:7459   */\n      swap3\n      pop\n        /* \"#utility.yul\":7593:7594   */\n      dup3\n        /* \"#utility.yul\":7525:7591   */\n      0xffffffffffffffffffffffffffffffffffffffffffffffffffffffffffffffff\n        /* \"#utility.yul\":7521:7595   */\n      sub\n        /* \"#utility.yul\":7518:7519   */\n      dup3\n        /* \"#utility.yul\":7515:7596   */\n      gt\n        /* \"#utility.yul\":7512:7619   */\n      iszero\n      tag_191\n      jumpi\n        /* \"#utility.yul\":7599:7617   */\n      tag_192\n      tag_193\n      jump\t// in\n    tag_192:\n        /* \"#utility.yul\":7512:7619   */\n    tag_191:\n        /* \"#utility.yul\":7643:7644   */\n      dup3\n        /* \"#utility.yul\":7640:7641   */\n      dup3\n        /* \"#utility.yul\":7636:7645   */\n      add\n        /* \"#utility.yul\":7629:7645   */\n      swap1\n      pop\n        /* \"#utility.yul\":7346:7651   */\n      swap3\n      swap2\n      pop\n      pop\n      jump\t// out\n        /* \"#utility.yul\":7657:7753   */\n    tag_131:\n        /* \"#utility.yul\":7694:7701   */\n      0x00\n        /* \"#utility.yul\":7723:7747   */\n      tag_195\n        /* \"#utility.yul\":7741:7746   */\n      dup3\n        /* \"#utility.yul\":7723:7747   */\n      tag_196\n      jump\t// in\n    tag_195:\n        /* \"#utility.yul\":7712:7747   */\n      swap1\n      pop\n        /* \"#utility.yul\":7657:7753   */\n      swap2\n      swap1\n      pop\n      jump\t// out\n        /* \"#utility.yul\":7759:7885   */\n    tag_196:\n        /* \"#utility.yul\":7796:7803   */\n      0x00\n        /* \"#utility.yul\":7836:7878   */\n      0xffffffffffffffffffffffffffffffffffffffff\n        /* \"#utility.yul\":7829:7834   */\n      dup3\n        /* \"#utility.yul\":7825:7879   */\n      and\n        /* \"#utility.yul\":7814:7879   */\n      swap1\n      pop\n        /* \"#utility.yul\":7759:7885   */\n      swap2\n      swap1\n      pop\n      jump\t// out\n        /* \"#utility.yul\":7891:7968   */\n    tag_161:\n        /* \"#utility.yul\":7928:7935   */\n      0x00\n        /* \"#utility.yul\":7957:7962   */\n      dup2\n        /* \"#utility.yul\":7946:7962   */\n      swap1\n      pop\n        /* \"#utility.yul\":7891:7968   */\n      swap2\n      swap1\n      pop\n      jump\t// out\n        /* \"#utility.yul\":7974:8128   */\n    tag_93:\n        /* \"#utility.yul\":8058:8064   */\n      dup3\n        /* \"#utility.yul\":8053:8056   */\n      dup2\n        /* \"#utility.yul\":8048:8051   */\n      dup4\n        /* \"#utility.yul\":8035:8065   */\n      calldatacopy\n        /* \"#utility.yul\":8120:8121   */\n      0x00\n        /* \"#utility.yul\":8111:8117   */\n      dup4\n        /* \"#utility.yul\":8106:8109   */\n      dup4\n        /* \"#utility.yul\":8102:8118   */\n      add\n        /* \"#utility.yul\":8095:8122   */\n      mstore\n        /* \"#utility.yul\":7974:8128   */\n      pop\n      pop\n      pop\n      jump\t// out\n        /* \"#utility.yul\":8134:8441   */\n    tag_142:\n        /* \"#utility.yul\":8202:8203   */\n      0x00\n        /* \"#utility.yul\":8212:8325   */\n    tag_201:\n        /* \"#utility.yul\":8226:8232   */\n      dup4\n        /* \"#utility.yul\":8223:8224   */\n      dup2\n        /* \"#utility.yul\":8220:8233   */\n      lt\n        /* \"#utility.yul\":8212:8325   */\n      iszero\n      tag_203\n      jumpi\n        /* \"#utility.yul\":8311:8312   */\n      dup1\n        /* \"#utility.yul\":8306:8309   */\n      dup3\n        /* \"#utility.yul\":8302:8313   */\n      add\n        /* \"#utility.yul\":8296:8314   */\n      mload\n        /* \"#utility.yul\":8292:8293   */\n      dup2\n        /* \"#utility.yul\":8287:8290   */\n      dup5\n        /* \"#utility.yul\":8283:8294   */\n      add\n        /* \"#utility.yul\":8276:8315   */\n      mstore\n        /* \"#utility.yul\":8248:8250   */\n      0x20\n        /* \"#utility.yul\":8245:8246   */\n      dup2\n        /* \"#utility.yul\":8241:8251   */\n      add\n        /* \"#utility.yul\":8236:8251   */\n      swap1\n      pop\n        /* \"#utility.yul\":8212:8325   */\n      jump(tag_201)\n    tag_203:\n        /* \"#utility.yul\":8343:8349   */\n      dup4\n        /* \"#utility.yul\":8340:8341   */\n      dup2\n        /* \"#utility.yul\":8337:8350   */\n      gt\n        /* \"#utility.yul\":8334:8435   */\n      iszero\n      tag_204\n      jumpi\n        /* \"#utility.yul\":8423:8424   */\n      0x00\n        /* \"#utility.yul\":8414:8420   */\n      dup5\n        /* \"#utility.yul\":8409:8412   */\n      dup5\n        /* \"#utility.yul\":8405:8421   */\n      add\n        /* \"#utility.yul\":8398:8425   */\n      mstore\n        /* \"#utility.yul\":8334:8435   */\n    tag_204:\n        /* \"#utility.yul\":8183:8441   */\n      pop\n        /* \"#utility.yul\":8134:8441   */\n      pop\n      pop\n      pop\n      jump\t// out\n        /* \"#utility.yul\":8447:8767   */\n    tag_33:\n        /* \"#utility.yul\":8491:8497   */\n      0x00\n        /* \"#utility.yul\":8528:8529   */\n      0x02\n        /* \"#utility.yul\":8522:8526   */\n      dup3\n        /* \"#utility.yul\":8518:8530   */\n      div\n        /* \"#utility.yul\":8508:8530   */\n      swap1\n      pop\n        /* \"#utility.yul\":8575:8576   */\n      0x01\n        /* \"#utility.yul\":8569:8573   */\n      dup3\n        /* \"#utility.yul\":8565:8577   */\n      and\n        /* \"#utility.yul\":8596:8614   */\n      dup1\n        /* \"#utility.yul\":8586:8667   */\n      tag_206\n      jumpi\n        /* \"#utility.yul\":8652:8656   */\n      0x7f\n        /* \"#utility.yul\":8644:8650   */\n      dup3\n        /* \"#utility.yul\":8640:8657   */\n      and\n        /* \"#utility.yul\":8630:8657   */\n      swap2\n      pop\n        /* \"#utility.yul\":8586:8667   */\n    tag_206:\n        /* \"#utility.yul\":8714:8716   */\n      0x20\n        /* \"#utility.yul\":8706:8712   */\n      dup3\n        /* \"#utility.yul\":8703:8717   */\n      lt\n        /* \"#utility.yul\":8683:8701   */\n      dup2\n        /* \"#utility.yul\":8680:8718   */\n      eq\n        /* \"#utility.yul\":8677:8761   */\n      iszero\n      tag_207\n      jumpi\n        /* \"#utility.yul\":8733:8751   */\n      tag_208\n      tag_209\n      jump\t// in\n    tag_208:\n        /* \"#utility.yul\":8677:8761   */\n    tag_207:\n        /* \"#utility.yul\":8498:8767   */\n      pop\n        /* \"#utility.yul\":8447:8767   */\n      swap2\n      swap1\n      pop\n      jump\t// out\n        /* \"#utility.yul\":8773:9054   */\n    tag_178:\n        /* \"#utility.yul\":8856:8883   */\n      tag_211\n        /* \"#utility.yul\":8878:8882   */\n      dup3\n        /* \"#utility.yul\":8856:8883   */\n      tag_144\n      jump\t// in\n    tag_211:\n        /* \"#utility.yul\":8848:8854   */\n      dup2\n        /* \"#utility.yul\":8844:8884   */\n      add\n        /* \"#utility.yul\":8986:8992   */\n      dup2\n        /* \"#utility.yul\":8974:8984   */\n      dup2\n        /* \"#utility.yul\":8971:8993   */\n      lt\n        /* \"#utility.yul\":8950:8968   */\n      0xffffffffffffffff\n        /* \"#utility.yul\":8938:8948   */\n      dup3\n        /* \"#utility.yul\":8935:8969   */\n      gt\n        /* \"#utility.yul\":8932:8994   */\n      or\n        /* \"#utility.yul\":8929:9017   */\n      iszero\n      tag_212\n      jumpi\n        /* \"#utility.yul\":8997:9015   */\n      tag_213\n      tag_183\n      jump\t// in\n    tag_213:\n        /* \"#utility.yul\":8929:9017   */\n    tag_212:\n        /* \"#utility.yul\":9037:9047   */\n      dup1\n        /* \"#utility.yul\":9033:9035   */\n      0x40\n        /* \"#utility.yul\":9026:9048   */\n      mstore\n        /* \"#utility.yul\":8816:9054   */\n      pop\n        /* \"#utility.yul\":8773:9054   */\n      pop\n      pop\n      jump\t// out\n        /* \"#utility.yul\":9060:9240   */\n    tag_193:\n        /* \"#utility.yul\":9108:9185   */\n      0x4e487b7100000000000000000000000000000000000000000000000000000000\n        /* \"#utility.yul\":9105:9106   */\n      0x00\n        /* \"#utility.yul\":9098:9186   */\n      mstore\n        /* \"#utility.yul\":9205:9209   */\n      0x11\n        /* \"#utility.yul\":9202:9203   */\n      0x04\n        /* \"#utility.yul\":9195:9210   */\n      mstore\n        /* \"#utility.yul\":9229:9233   */\n      0x24\n        /* \"#utility.yul\":9226:9227   */\n      0x00\n        /* \"#utility.yul\":9219:9234   */\n      revert\n        /* \"#utility.yul\":9246:9426   */\n    tag_209:\n        /* \"#utility.yul\":9294:9371   */\n      0x4e487b7100000000000000000000000000000000000000000000000000000000\n        /* \"#utility.yul\":9291:9292   */\n      0x00\n        /* \"#utility.yul\":9284:9372   */\n      mstore\n        /* \"#utility.yul\":9391:9395   */\n      0x22\n        /* \"#utility.yul\":9388:9389   */\n      0x04\n        /* \"#utility.yul\":9381:9396   */\n      mstore\n        /* \"#utility.yul\":9415:9419   */\n      0x24\n        /* \"#utility.yul\":9412:9413   */\n      0x00\n        /* \"#utility.yul\":9405:9420   */\n      revert\n        /* \"#utility.yul\":9432:9612   */\n    tag_183:\n        /* \"#utility.yul\":9480:9557   */\n      0x4e487b7100000000000000000000000000000000000000000000000000000000\n        /* \"#utility.yul\":9477:9478   */\n      0x00\n        /* \"#utility.yul\":9470:9558   */\n      mstore\n        /* \"#utility.yul\":9577:9581   */\n      0x41\n        /* \"#utility.yul\":9574:9575   */\n      0x04\n        /* \"#utility.yul\":9567:9582   */\n      mstore\n        /* \"#utility.yul\":9601:9605   */\n      0x24\n        /* \"#utility.yul\":9598:9599   */\n      0x00\n        /* \"#utility.yul\":9591:9606   */\n      revert\n        /* \"#utility.yul\":9618:9735   */\n    tag_102:\n        /* \"#utility.yul\":9727:9728   */\n      0x00\n        /* \"#utility.yul\":9724:9725   */\n      dup1\n        /* \"#utility.yul\":9717:9729   */\n      revert\n        /* \"#utility.yul\":9741:9858   */\n    tag_91:\n        /* \"#utility.yul\":9850:9851   */\n      0x00\n        /* \"#utility.yul\":9847:9848   */\n      dup1\n        /* \"#utility.yul\":9840:9852   */\n      revert\n        /* \"#utility.yul\":9864:9981   */\n    tag_118:\n        /* \"#utility.yul\":9973:9974   */\n      0x00\n        /* \"#utility.yul\":9970:9971   */\n      dup1\n        /* \"#utility.yul\":9963:9975   */\n      revert\n        /* \"#utility.yul\":9987:10104   */\n    tag_111:\n        /* \"#utility.yul\":10096:10097   */\n      0x00\n        /* \"#utility.yul\":10093:10094   */\n      dup1\n        /* \"#utility.yul\":10086:10098   */\n      revert\n        /* \"#utility.yul\":10110:10212   */\n    tag_144:\n        /* \"#utility.yul\":10151:10157   */\n      0x00\n        /* \"#utility.yul\":10202:10204   */\n      0x1f\n        /* \"#utility.yul\":10198:10205   */\n      not\n        /* \"#utility.yul\":10193:10195   */\n      0x1f\n        /* \"#utility.yul\":10186:10191   */\n      dup4\n        /* \"#utility.yul\":10182:10196   */\n      add\n        /* \"#utility.yul\":10178:10206   */\n      and\n        /* \"#utility.yul\":10168:10206   */\n      swap1\n      pop\n        /* \"#utility.yul\":10110:10212   */\n      swap2\n      swap1\n      pop\n      jump\t// out\n        /* \"#utility.yul\":10218:10340   */\n    tag_97:\n        /* \"#utility.yul\":10291:10315   */\n      tag_223\n        /* \"#utility.yul\":10309:10314   */\n      dup2\n        /* \"#utility.yul\":10291:10315   */\n      tag_131\n      jump\t// in\n    tag_223:\n        /* \"#utility.yul\":10284:10289   */\n      dup2\n        /* \"#utility.yul\":10281:10316   */\n      eq\n        /* \"#utility.yul\":10271:10334   */\n      tag_224\n      jumpi\n        /* \"#utility.yul\":10330:10331   */\n      0x00\n        /* \"#utility.yul\":10327:10328   */\n      dup1\n        /* \"#utility.yul\":10320:10332   */\n      revert\n        /* \"#utility.yul\":10271:10334   */\n    tag_224:\n        /* \"#utility.yul\":10218:10340   */\n      pop\n      jump\t// out\n        /* \"#utility.yul\":10346:10468   */\n    tag_107:\n        /* \"#utility.yul\":10419:10443   */\n      tag_226\n        /* \"#utility.yul\":10437:10442   */\n      dup2\n        /* \"#utility.yul\":10419:10443   */\n      tag_161\n      jump\t// in\n    tag_226:\n        /* \"#utility.yul\":10412:10417   */\n      dup2\n        /* \"#utility.yul\":10409:10444   */\n      eq\n        /* \"#utility.yul\":10399:10462   */\n      tag_227\n      jumpi\n        /* \"#utility.yul\":10458:10459   */\n      0x00\n        /* \"#utility.yul\":10455:10456   */\n      dup1\n        /* \"#utility.yul\":10448:10460   */\n      revert\n        /* \"#utility.yul\":10399:10462   */\n    tag_227:\n        /* \"#utility.yul\":10346:10468   */\n      pop\n      jump\t// out\n\n    auxdata: 0xa26469706673582212203be6afa671081f3b44e5023fcfeb60b34458fb9d6d0124708bfe5f0eeb84043364736f6c63430008070033\n}\n",
				"bytecode": {
					"linkReferences": {},
					"object": "60806040526000805534801561001457600080fd5b50610d9d806100246000396000f3fe608060405234801561001057600080fd5b50600436106100575760003560e01c8063360e99b31461005c578063642f91631461008f5780639cc8f139146100bf578063a6c807a9146100db578063e581f9ee1461010e575b600080fd5b610076600480360381019061007191906108f8565b61012c565b6040516100869493929190610a3d565b60405180910390f35b6100a960048036038101906100a491906108f8565b61028c565b6040516100b69190610a90565b60405180910390f35b6100d960048036038101906100d4919061086d565b61043d565b005b6100f560048036038101906100f09190610840565b61055f565b6040516101059493929190610a3d565b60405180910390f35b6101166106bf565b6040516101239190610ab2565b60405180910390f35b60026020528060005260406000206000915090508060000160009054906101000a900473ffffffffffffffffffffffffffffffffffffffff169080600101805461017590610c24565b80601f01602080910402602001604051908101604052809291908181526020018280546101a190610c24565b80156101ee5780601f106101c3576101008083540402835291602001916101ee565b820191906000526020600020905b8154815290600101906020018083116101d157829003601f168201915b50505050509080600201805461020390610c24565b80601f016020809104026020016040519081016040528092919081815260200182805461022f90610c24565b801561027c5780601f106102515761010080835404028352916020019161027c565b820191906000526020600020905b81548152906001019060200180831161025f57829003601f168201915b5050505050908060030154905084565b6102946106c5565b600260008381526020019081526020016000206040518060800160405290816000820160009054906101000a900473ffffffffffffffffffffffffffffffffffffffff1673ffffffffffffffffffffffffffffffffffffffff1673ffffffffffffffffffffffffffffffffffffffff16815260200160018201805461031890610c24565b80601f016020809104026020016040519081016040528092919081815260200182805461034490610c24565b80156103915780601f1061036657610100808354040283529160200191610391565b820191906000526020600020905b81548152906001019060200180831161037457829003601f168201915b505050505081526020016002820180546103aa90610c24565b80601f01602080910402602001604051908101604052809291908181526020018280546103d690610c24565b80156104235780601f106103f857610100808354040283529160200191610423565b820191906000526020600020905b81548152906001019060200180831161040657829003601f168201915b505050505081526020016003820154815250509050919050565b60405180608001604052803373ffffffffffffffffffffffffffffffffffffffff16815260200184815260200183815260200182815250600160003373ffffffffffffffffffffffffffffffffffffffff1673ffffffffffffffffffffffffffffffffffffffff16815260200190815260200160002060008201518160000160006101000a81548173ffffffffffffffffffffffffffffffffffffffff021916908373ffffffffffffffffffffffffffffffffffffffff1602179055506020820151816001019080519060200190610516929190610703565b506040820151816002019080519060200190610533929190610703565b506060820151816003015590505060016000808282546105539190610b50565b92505081905550505050565b60016020528060005260406000206000915090508060000160009054906101000a900473ffffffffffffffffffffffffffffffffffffffff16908060010180546105a890610c24565b80601f01602080910402602001604051908101604052809291908181526020018280546105d490610c24565b80156106215780601f106105f657610100808354040283529160200191610621565b820191906000526020600020905b81548152906001019060200180831161060457829003601f168201915b50505050509080600201805461063690610c24565b80601f016020809104026020016040519081016040528092919081815260200182805461066290610c24565b80156106af5780601f10610684576101008083540402835291602001916106af565b820191906000526020600020905b81548152906001019060200180831161069257829003601f168201915b5050505050908060030154905084565b60005481565b6040518060800160405280600073ffffffffffffffffffffffffffffffffffffffff1681526020016060815260200160608152602001600081525090565b82805461070f90610c24565b90600052602060002090601f0160209004810192826107315760008555610778565b82601f1061074a57805160ff1916838001178555610778565b82800160010185558215610778579182015b8281111561077757825182559160200191906001019061075c565b5b5090506107859190610789565b5090565b5b808211156107a257600081600090555060010161078a565b5090565b60006107b96107b484610af2565b610acd565b9050828152602081018484840111156107d5576107d4610d19565b5b6107e0848285610be2565b509392505050565b6000813590506107f781610d39565b92915050565b600082601f83011261081257610811610d14565b5b81356108228482602086016107a6565b91505092915050565b60008135905061083a81610d50565b92915050565b60006020828403121561085657610855610d23565b5b6000610864848285016107e8565b91505092915050565b60008060006060848603121561088657610885610d23565b5b600084013567ffffffffffffffff8111156108a4576108a3610d1e565b5b6108b0868287016107fd565b935050602084013567ffffffffffffffff8111156108d1576108d0610d1e565b5b6108dd868287016107fd565b92505060406108ee8682870161082b565b9150509250925092565b60006020828403121561090e5761090d610d23565b5b600061091c8482850161082b565b91505092915050565b61092e81610ba6565b82525050565b61093d81610ba6565b82525050565b600061094e82610b23565b6109588185610b2e565b9350610968818560208601610bf1565b61097181610d28565b840191505092915050565b600061098782610b23565b6109918185610b3f565b93506109a1818560208601610bf1565b6109aa81610d28565b840191505092915050565b60006080830160008301516109cd6000860182610925565b50602083015184820360208601526109e58282610943565b915050604083015184820360408601526109ff8282610943565b9150506060830151610a146060860182610a1f565b508091505092915050565b610a2881610bd8565b82525050565b610a3781610bd8565b82525050565b6000608082019050610a526000830187610934565b8181036020830152610a64818661097c565b90508181036040830152610a78818561097c565b9050610a876060830184610a2e565b95945050505050565b60006020820190508181036000830152610aaa81846109b5565b905092915050565b6000602082019050610ac76000830184610a2e565b92915050565b6000610ad7610ae8565b9050610ae38282610c56565b919050565b6000604051905090565b600067ffffffffffffffff821115610b0d57610b0c610ce5565b5b610b1682610d28565b9050602081019050919050565b600081519050919050565b600082825260208201905092915050565b600082825260208201905092915050565b6000610b5b82610bd8565b9150610b6683610bd8565b9250827fffffffffffffffffffffffffffffffffffffffffffffffffffffffffffffffff03821115610b9b57610b9a610c87565b5b828201905092915050565b6000610bb182610bb8565b9050919050565b600073ffffffffffffffffffffffffffffffffffffffff82169050919050565b6000819050919050565b82818337600083830152505050565b60005b83811015610c0f578082015181840152602081019050610bf4565b83811115610c1e576000848401525b50505050565b60006002820490506001821680610c3c57607f821691505b60208210811415610c5057610c4f610cb6565b5b50919050565b610c5f82610d28565b810181811067ffffffffffffffff82111715610c7e57610c7d610ce5565b5b80604052505050565b7f4e487b7100000000000000000000000000000000000000000000000000000000600052601160045260246000fd5b7f4e487b7100000000000000000000000000000000000000000000000000000000600052602260045260246000fd5b7f4e487b7100000000000000000000000000000000000000000000000000000000600052604160045260246000fd5b600080fd5b600080fd5b600080fd5b600080fd5b6000601f19601f8301169050919050565b610d4281610ba6565b8114610d4d57600080fd5b50565b610d5981610bd8565b8114610d6457600080fd5b5056fea26469706673582212203be6afa671081f3b44e5023fcfeb60b34458fb9d6d0124708bfe5f0eeb84043364736f6c63430008070033",
					"opcodes": "PUSH1 0x80 PUSH1 0x40 MSTORE PUSH1 0x0 DUP1 SSTORE CALLVALUE DUP1 ISZERO PUSH2 0x14 JUMPI PUSH1 0x0 DUP1 REVERT JUMPDEST POP PUSH2 0xD9D DUP1 PUSH2 0x24 PUSH1 0x0 CODECOPY PUSH1 0x0 RETURN INVALID PUSH1 0x80 PUSH1 0x40 MSTORE CALLVALUE DUP1 ISZERO PUSH2 0x10 JUMPI PUSH1 0x0 DUP1 REVERT JUMPDEST POP PUSH1 0x4 CALLDATASIZE LT PUSH2 0x57 JUMPI PUSH1 0x0 CALLDATALOAD PUSH1 0xE0 SHR DUP1 PUSH4 0x360E99B3 EQ PUSH2 0x5C JUMPI DUP1 PUSH4 0x642F9163 EQ PUSH2 0x8F JUMPI DUP1 PUSH4 0x9CC8F139 EQ PUSH2 0xBF JUMPI DUP1 PUSH4 0xA6C807A9 EQ PUSH2 0xDB JUMPI DUP1 PUSH4 0xE581F9EE EQ PUSH2 0x10E JUMPI JUMPDEST PUSH1 0x0 DUP1 REVERT JUMPDEST PUSH2 0x76 PUSH1 0x4 DUP1 CALLDATASIZE SUB DUP2 ADD SWAP1 PUSH2 0x71 SWAP2 SWAP1 PUSH2 0x8F8 JUMP JUMPDEST PUSH2 0x12C JUMP JUMPDEST PUSH1 0x40 MLOAD PUSH2 0x86 SWAP5 SWAP4 SWAP3 SWAP2 SWAP1 PUSH2 0xA3D JUMP JUMPDEST PUSH1 0x40 MLOAD DUP1 SWAP2 SUB SWAP1 RETURN JUMPDEST PUSH2 0xA9 PUSH1 0x4 DUP1 CALLDATASIZE SUB DUP2 ADD SWAP1 PUSH2 0xA4 SWAP2 SWAP1 PUSH2 0x8F8 JUMP JUMPDEST PUSH2 0x28C JUMP JUMPDEST PUSH1 0x40 MLOAD PUSH2 0xB6 SWAP2 SWAP1 PUSH2 0xA90 JUMP JUMPDEST PUSH1 0x40 MLOAD DUP1 SWAP2 SUB SWAP1 RETURN JUMPDEST PUSH2 0xD9 PUSH1 0x4 DUP1 CALLDATASIZE SUB DUP2 ADD SWAP1 PUSH2 0xD4 SWAP2 SWAP1 PUSH2 0x86D JUMP JUMPDEST PUSH2 0x43D JUMP JUMPDEST STOP JUMPDEST PUSH2 0xF5 PUSH1 0x4 DUP1 CALLDATASIZE SUB DUP2 ADD SWAP1 PUSH2 0xF0 SWAP2 SWAP1 PUSH2 0x840 JUMP JUMPDEST PUSH2 0x55F JUMP JUMPDEST PUSH1 0x40 MLOAD PUSH2 0x105 SWAP5 SWAP4 SWAP3 SWAP2 SWAP1 PUSH2 0xA3D JUMP JUMPDEST PUSH1 0x40 MLOAD DUP1 SWAP2 SUB SWAP1 RETURN JUMPDEST PUSH2 0x116 PUSH2 0x6BF JUMP JUMPDEST PUSH1 0x40 MLOAD PUSH2 0x123 SWAP2 SWAP1 PUSH2 0xAB2 JUMP JUMPDEST PUSH1 0x40 MLOAD DUP1 SWAP2 SUB SWAP1 RETURN JUMPDEST PUSH1 0x2 PUSH1 0x20 MSTORE DUP1 PUSH1 0x0 MSTORE PUSH1 0x40 PUSH1 0x0 KECCAK256 PUSH1 0x0 SWAP2 POP SWAP1 POP DUP1 PUSH1 0x0 ADD PUSH1 0x0 SWAP1 SLOAD SWAP1 PUSH2 0x100 EXP SWAP1 DIV PUSH20 0xFFFFFFFFFFFFFFFFFFFFFFFFFFFFFFFFFFFFFFFF AND SWAP1 DUP1 PUSH1 0x1 ADD DUP1 SLOAD PUSH2 0x175 SWAP1 PUSH2 0xC24 JUMP JUMPDEST DUP1 PUSH1 0x1F ADD PUSH1 0x20 DUP1 SWAP2 DIV MUL PUSH1 0x20 ADD PUSH1 0x40 MLOAD SWAP1 DUP2 ADD PUSH1 0x40 MSTORE DUP1 SWAP3 SWAP2 SWAP1 DUP2 DUP2 MSTORE PUSH1 0x20 ADD DUP3 DUP1 SLOAD PUSH2 0x1A1 SWAP1 PUSH2 0xC24 JUMP JUMPDEST DUP1 ISZERO PUSH2 0x1EE JUMPI DUP1 PUSH1 0x1F LT PUSH2 0x1C3 JUMPI PUSH2 0x100 DUP1 DUP4 SLOAD DIV MUL DUP4 MSTORE SWAP2 PUSH1 0x20 ADD SWAP2 PUSH2 0x1EE JUMP JUMPDEST DUP3 ADD SWAP2 SWAP1 PUSH1 0x0 MSTORE PUSH1 0x20 PUSH1 0x0 KECCAK256 SWAP1 JUMPDEST DUP2 SLOAD DUP2 MSTORE SWAP1 PUSH1 0x1 ADD SWAP1 PUSH1 0x20 ADD DUP1 DUP4 GT PUSH2 0x1D1 JUMPI DUP3 SWAP1 SUB PUSH1 0x1F AND DUP3 ADD SWAP2 JUMPDEST POP POP POP POP POP SWAP1 DUP1 PUSH1 0x2 ADD DUP1 SLOAD PUSH2 0x203 SWAP1 PUSH2 0xC24 JUMP JUMPDEST DUP1 PUSH1 0x1F ADD PUSH1 0x20 DUP1 SWAP2 DIV MUL PUSH1 0x20 ADD PUSH1 0x40 MLOAD SWAP1 DUP2 ADD PUSH1 0x40 MSTORE DUP1 SWAP3 SWAP2 SWAP1 DUP2 DUP2 MSTORE PUSH1 0x20 ADD DUP3 DUP1 SLOAD PUSH2 0x22F SWAP1 PUSH2 0xC24 JUMP JUMPDEST DUP1 ISZERO PUSH2 0x27C JUMPI DUP1 PUSH1 0x1F LT PUSH2 0x251 JUMPI PUSH2 0x100 DUP1 DUP4 SLOAD DIV MUL DUP4 MSTORE SWAP2 PUSH1 0x20 ADD SWAP2 PUSH2 0x27C JUMP JUMPDEST DUP3 ADD SWAP2 SWAP1 PUSH1 0x0 MSTORE PUSH1 0x20 PUSH1 0x0 KECCAK256 SWAP1 JUMPDEST DUP2 SLOAD DUP2 MSTORE SWAP1 PUSH1 0x1 ADD SWAP1 PUSH1 0x20 ADD DUP1 DUP4 GT PUSH2 0x25F JUMPI DUP3 SWAP1 SUB PUSH1 0x1F AND DUP3 ADD SWAP2 JUMPDEST POP POP POP POP POP SWAP1 DUP1 PUSH1 0x3 ADD SLOAD SWAP1 POP DUP5 JUMP JUMPDEST PUSH2 0x294 PUSH2 0x6C5 JUMP JUMPDEST PUSH1 0x2 PUSH1 0x0 DUP4 DUP2 MSTORE PUSH1 0x20 ADD SWAP1 DUP2 MSTORE PUSH1 0x20 ADD PUSH1 0x0 KECCAK256 PUSH1 0x40 MLOAD DUP1 PUSH1 0x80 ADD PUSH1 0x40 MSTORE SWAP1 DUP2 PUSH1 0x0 DUP3 ADD PUSH1 0x0 SWAP1 SLOAD SWAP1 PUSH2 0x100 EXP SWAP1 DIV PUSH20 0xFFFFFFFFFFFFFFFFFFFFFFFFFFFFFFFFFFFFFFFF AND PUSH20 0xFFFFFFFFFFFFFFFFFFFFFFFFFFFFFFFFFFFFFFFF AND PUSH20 0xFFFFFFFFFFFFFFFFFFFFFFFFFFFFFFFFFFFFFFFF AND DUP2 MSTORE PUSH1 0x20 ADD PUSH1 0x1 DUP3 ADD DUP1 SLOAD PUSH2 0x318 SWAP1 PUSH2 0xC24 JUMP JUMPDEST DUP1 PUSH1 0x1F ADD PUSH1 0x20 DUP1 SWAP2 DIV MUL PUSH1 0x20 ADD PUSH1 0x40 MLOAD SWAP1 DUP2 ADD PUSH1 0x40 MSTORE DUP1 SWAP3 SWAP2 SWAP1 DUP2 DUP2 MSTORE PUSH1 0x20 ADD DUP3 DUP1 SLOAD PUSH2 0x344 SWAP1 PUSH2 0xC24 JUMP JUMPDEST DUP1 ISZERO PUSH2 0x391 JUMPI DUP1 PUSH1 0x1F LT PUSH2 0x366 JUMPI PUSH2 0x100 DUP1 DUP4 SLOAD DIV MUL DUP4 MSTORE SWAP2 PUSH1 0x20 ADD SWAP2 PUSH2 0x391 JUMP JUMPDEST DUP3 ADD SWAP2 SWAP1 PUSH1 0x0 MSTORE PUSH1 0x20 PUSH1 0x0 KECCAK256 SWAP1 JUMPDEST DUP2 SLOAD DUP2 MSTORE SWAP1 PUSH1 0x1 ADD SWAP1 PUSH1 0x20 ADD DUP1 DUP4 GT PUSH2 0x374 JUMPI DUP3 SWAP1 SUB PUSH1 0x1F AND DUP3 ADD SWAP2 JUMPDEST POP POP POP POP POP DUP2 MSTORE PUSH1 0x20 ADD PUSH1 0x2 DUP3 ADD DUP1 SLOAD PUSH2 0x3AA SWAP1 PUSH2 0xC24 JUMP JUMPDEST DUP1 PUSH1 0x1F ADD PUSH1 0x20 DUP1 SWAP2 DIV MUL PUSH1 0x20 ADD PUSH1 0x40 MLOAD SWAP1 DUP2 ADD PUSH1 0x40 MSTORE DUP1 SWAP3 SWAP2 SWAP1 DUP2 DUP2 MSTORE PUSH1 0x20 ADD DUP3 DUP1 SLOAD PUSH2 0x3D6 SWAP1 PUSH2 0xC24 JUMP JUMPDEST DUP1 ISZERO PUSH2 0x423 JUMPI DUP1 PUSH1 0x1F LT PUSH2 0x3F8 JUMPI PUSH2 0x100 DUP1 DUP4 SLOAD DIV MUL DUP4 MSTORE SWAP2 PUSH1 0x20 ADD SWAP2 PUSH2 0x423 JUMP JUMPDEST DUP3 ADD SWAP2 SWAP1 PUSH1 0x0 MSTORE PUSH1 0x20 PUSH1 0x0 KECCAK256 SWAP1 JUMPDEST DUP2 SLOAD DUP2 MSTORE SWAP1 PUSH1 0x1 ADD SWAP1 PUSH1 0x20 ADD DUP1 DUP4 GT PUSH2 0x406 JUMPI DUP3 SWAP1 SUB PUSH1 0x1F AND DUP3 ADD SWAP2 JUMPDEST POP POP POP POP POP DUP2 MSTORE PUSH1 0x20 ADD PUSH1 0x3 DUP3 ADD SLOAD DUP2 MSTORE POP POP SWAP1 POP SWAP2 SWAP1 POP JUMP JUMPDEST PUSH1 0x40 MLOAD DUP1 PUSH1 0x80 ADD PUSH1 0x40 MSTORE DUP1 CALLER PUSH20 0xFFFFFFFFFFFFFFFFFFFFFFFFFFFFFFFFFFFFFFFF AND DUP2 MSTORE PUSH1 0x20 ADD DUP5 DUP2 MSTORE PUSH1 0x20 ADD DUP4 DUP2 MSTORE PUSH1 0x20 ADD DUP3 DUP2 MSTORE POP PUSH1 0x1 PUSH1 0x0 CALLER PUSH20 0xFFFFFFFFFFFFFFFFFFFFFFFFFFFFFFFFFFFFFFFF AND PUSH20 0xFFFFFFFFFFFFFFFFFFFFFFFFFFFFFFFFFFFFFFFF AND DUP2 MSTORE PUSH1 0x20 ADD SWAP1 DUP2 MSTORE PUSH1 0x20 ADD PUSH1 0x0 KECCAK256 PUSH1 0x0 DUP3 ADD MLOAD DUP2 PUSH1 0x0 ADD PUSH1 0x0 PUSH2 0x100 EXP DUP2 SLOAD DUP2 PUSH20 0xFFFFFFFFFFFFFFFFFFFFFFFFFFFFFFFFFFFFFFFF MUL NOT AND SWAP1 DUP4 PUSH20 0xFFFFFFFFFFFFFFFFFFFFFFFFFFFFFFFFFFFFFFFF AND MUL OR SWAP1 SSTORE POP PUSH1 0x20 DUP3 ADD MLOAD DUP2 PUSH1 0x1 ADD SWAP1 DUP1 MLOAD SWAP1 PUSH1 0x20 ADD SWAP1 PUSH2 0x516 SWAP3 SWAP2 SWAP1 PUSH2 0x703 JUMP JUMPDEST POP PUSH1 0x40 DUP3 ADD MLOAD DUP2 PUSH1 0x2 ADD SWAP1 DUP1 MLOAD SWAP1 PUSH1 0x20 ADD SWAP1 PUSH2 0x533 SWAP3 SWAP2 SWAP1 PUSH2 0x703 JUMP JUMPDEST POP PUSH1 0x60 DUP3 ADD MLOAD DUP2 PUSH1 0x3 ADD SSTORE SWAP1 POP POP PUSH1 0x1 PUSH1 0x0 DUP1 DUP3 DUP3 SLOAD PUSH2 0x553 SWAP2 SWAP1 PUSH2 0xB50 JUMP JUMPDEST SWAP3 POP POP DUP2 SWAP1 SSTORE POP POP POP POP JUMP JUMPDEST PUSH1 0x1 PUSH1 0x20 MSTORE DUP1 PUSH1 0x0 MSTORE PUSH1 0x40 PUSH1 0x0 KECCAK256 PUSH1 0x0 SWAP2 POP SWAP1 POP DUP1 PUSH1 0x0 ADD PUSH1 0x0 SWAP1 SLOAD SWAP1 PUSH2 0x100 EXP SWAP1 DIV PUSH20 0xFFFFFFFFFFFFFFFFFFFFFFFFFFFFFFFFFFFFFFFF AND SWAP1 DUP1 PUSH1 0x1 ADD DUP1 SLOAD PUSH2 0x5A8 SWAP1 PUSH2 0xC24 JUMP JUMPDEST DUP1 PUSH1 0x1F ADD PUSH1 0x20 DUP1 SWAP2 DIV MUL PUSH1 0x20 ADD PUSH1 0x40 MLOAD SWAP1 DUP2 ADD PUSH1 0x40 MSTORE DUP1 SWAP3 SWAP2 SWAP1 DUP2 DUP2 MSTORE PUSH1 0x20 ADD DUP3 DUP1 SLOAD PUSH2 0x5D4 SWAP1 PUSH2 0xC24 JUMP JUMPDEST DUP1 ISZERO PUSH2 0x621 JUMPI DUP1 PUSH1 0x1F LT PUSH2 0x5F6 JUMPI PUSH2 0x100 DUP1 DUP4 SLOAD DIV MUL DUP4 MSTORE SWAP2 PUSH1 0x20 ADD SWAP2 PUSH2 0x621 JUMP JUMPDEST DUP3 ADD SWAP2 SWAP1 PUSH1 0x0 MSTORE PUSH1 0x20 PUSH1 0x0 KECCAK256 SWAP1 JUMPDEST DUP2 SLOAD DUP2 MSTORE SWAP1 PUSH1 0x1 ADD SWAP1 PUSH1 0x20 ADD DUP1 DUP4 GT PUSH2 0x604 JUMPI DUP3 SWAP1 SUB PUSH1 0x1F AND DUP3 ADD SWAP2 JUMPDEST POP POP POP POP POP SWAP1 DUP1 PUSH1 0x2 ADD DUP1 SLOAD PUSH2 0x636 SWAP1 PUSH2 0xC24 JUMP JUMPDEST DUP1 PUSH1 0x1F ADD PUSH1 0x20 DUP1 SWAP2 DIV MUL PUSH1 0x20 ADD PUSH1 0x40 MLOAD SWAP1 DUP2 ADD PUSH1 0x40 MSTORE DUP1 SWAP3 SWAP2 SWAP1 DUP2 DUP2 MSTORE PUSH1 0x20 ADD DUP3 DUP1 SLOAD PUSH2 0x662 SWAP1 PUSH2 0xC24 JUMP JUMPDEST DUP1 ISZERO PUSH2 0x6AF JUMPI DUP1 PUSH1 0x1F LT PUSH2 0x684 JUMPI PUSH2 0x100 DUP1 DUP4 SLOAD DIV MUL DUP4 MSTORE SWAP2 PUSH1 0x20 ADD SWAP2 PUSH2 0x6AF JUMP JUMPDEST DUP3 ADD SWAP2 SWAP1 PUSH1 0x0 MSTORE PUSH1 0x20 PUSH1 0x0 KECCAK256 SWAP1 JUMPDEST DUP2 SLOAD DUP2 MSTORE SWAP1 PUSH1 0x1 ADD SWAP1 PUSH1 0x20 ADD DUP1 DUP4 GT PUSH2 0x692 JUMPI DUP3 SWAP1 SUB PUSH1 0x1F AND DUP3 ADD SWAP2 JUMPDEST POP POP POP POP POP SWAP1 DUP1 PUSH1 0x3 ADD SLOAD SWAP1 POP DUP5 JUMP JUMPDEST PUSH1 0x0 SLOAD DUP2 JUMP JUMPDEST PUSH1 0x40 MLOAD DUP1 PUSH1 0x80 ADD PUSH1 0x40 MSTORE DUP1 PUSH1 0x0 PUSH20 0xFFFFFFFFFFFFFFFFFFFFFFFFFFFFFFFFFFFFFFFF AND DUP2 MSTORE PUSH1 0x20 ADD PUSH1 0x60 DUP2 MSTORE PUSH1 0x20 ADD PUSH1 0x60 DUP2 MSTORE PUSH1 0x20 ADD PUSH1 0x0 DUP2 MSTORE POP SWAP1 JUMP JUMPDEST DUP3 DUP1 SLOAD PUSH2 0x70F SWAP1 PUSH2 0xC24 JUMP JUMPDEST SWAP1 PUSH1 0x0 MSTORE PUSH1 0x20 PUSH1 0x0 KECCAK256 SWAP1 PUSH1 0x1F ADD PUSH1 0x20 SWAP1 DIV DUP2 ADD SWAP3 DUP3 PUSH2 0x731 JUMPI PUSH1 0x0 DUP6 SSTORE PUSH2 0x778 JUMP JUMPDEST DUP3 PUSH1 0x1F LT PUSH2 0x74A JUMPI DUP1 MLOAD PUSH1 0xFF NOT AND DUP4 DUP1 ADD OR DUP6 SSTORE PUSH2 0x778 JUMP JUMPDEST DUP3 DUP1 ADD PUSH1 0x1 ADD DUP6 SSTORE DUP3 ISZERO PUSH2 0x778 JUMPI SWAP2 DUP3 ADD JUMPDEST DUP3 DUP2 GT ISZERO PUSH2 0x777 JUMPI DUP3 MLOAD DUP3 SSTORE SWAP2 PUSH1 0x20 ADD SWAP2 SWAP1 PUSH1 0x1 ADD SWAP1 PUSH2 0x75C JUMP JUMPDEST JUMPDEST POP SWAP1 POP PUSH2 0x785 SWAP2 SWAP1 PUSH2 0x789 JUMP JUMPDEST POP SWAP1 JUMP JUMPDEST JUMPDEST DUP1 DUP3 GT ISZERO PUSH2 0x7A2 JUMPI PUSH1 0x0 DUP2 PUSH1 0x0 SWAP1 SSTORE POP PUSH1 0x1 ADD PUSH2 0x78A JUMP JUMPDEST POP SWAP1 JUMP JUMPDEST PUSH1 0x0 PUSH2 0x7B9 PUSH2 0x7B4 DUP5 PUSH2 0xAF2 JUMP JUMPDEST PUSH2 0xACD JUMP JUMPDEST SWAP1 POP DUP3 DUP2 MSTORE PUSH1 0x20 DUP2 ADD DUP5 DUP5 DUP5 ADD GT ISZERO PUSH2 0x7D5 JUMPI PUSH2 0x7D4 PUSH2 0xD19 JUMP JUMPDEST JUMPDEST PUSH2 0x7E0 DUP5 DUP3 DUP6 PUSH2 0xBE2 JUMP JUMPDEST POP SWAP4 SWAP3 POP POP POP JUMP JUMPDEST PUSH1 0x0 DUP2 CALLDATALOAD SWAP1 POP PUSH2 0x7F7 DUP2 PUSH2 0xD39 JUMP JUMPDEST SWAP3 SWAP2 POP POP JUMP JUMPDEST PUSH1 0x0 DUP3 PUSH1 0x1F DUP4 ADD SLT PUSH2 0x812 JUMPI PUSH2 0x811 PUSH2 0xD14 JUMP JUMPDEST JUMPDEST DUP2 CALLDATALOAD PUSH2 0x822 DUP5 DUP3 PUSH1 0x20 DUP7 ADD PUSH2 0x7A6 JUMP JUMPDEST SWAP2 POP POP SWAP3 SWAP2 POP POP JUMP JUMPDEST PUSH1 0x0 DUP2 CALLDATALOAD SWAP1 POP PUSH2 0x83A DUP2 PUSH2 0xD50 JUMP JUMPDEST SWAP3 SWAP2 POP POP JUMP JUMPDEST PUSH1 0x0 PUSH1 0x20 DUP3 DUP5 SUB SLT ISZERO PUSH2 0x856 JUMPI PUSH2 0x855 PUSH2 0xD23 JUMP JUMPDEST JUMPDEST PUSH1 0x0 PUSH2 0x864 DUP5 DUP3 DUP6 ADD PUSH2 0x7E8 JUMP JUMPDEST SWAP2 POP POP SWAP3 SWAP2 POP POP JUMP JUMPDEST PUSH1 0x0 DUP1 PUSH1 0x0 PUSH1 0x60 DUP5 DUP7 SUB SLT ISZERO PUSH2 0x886 JUMPI PUSH2 0x885 PUSH2 0xD23 JUMP JUMPDEST JUMPDEST PUSH1 0x0 DUP5 ADD CALLDATALOAD PUSH8 0xFFFFFFFFFFFFFFFF DUP2 GT ISZERO PUSH2 0x8A4 JUMPI PUSH2 0x8A3 PUSH2 0xD1E JUMP JUMPDEST JUMPDEST PUSH2 0x8B0 DUP7 DUP3 DUP8 ADD PUSH2 0x7FD JUMP JUMPDEST SWAP4 POP POP PUSH1 0x20 DUP5 ADD CALLDATALOAD PUSH8 0xFFFFFFFFFFFFFFFF DUP2 GT ISZERO PUSH2 0x8D1 JUMPI PUSH2 0x8D0 PUSH2 0xD1E JUMP JUMPDEST JUMPDEST PUSH2 0x8DD DUP7 DUP3 DUP8 ADD PUSH2 0x7FD JUMP JUMPDEST SWAP3 POP POP PUSH1 0x40 PUSH2 0x8EE DUP7 DUP3 DUP8 ADD PUSH2 0x82B JUMP JUMPDEST SWAP2 POP POP SWAP3 POP SWAP3 POP SWAP3 JUMP JUMPDEST PUSH1 0x0 PUSH1 0x20 DUP3 DUP5 SUB SLT ISZERO PUSH2 0x90E JUMPI PUSH2 0x90D PUSH2 0xD23 JUMP JUMPDEST JUMPDEST PUSH1 0x0 PUSH2 0x91C DUP5 DUP3 DUP6 ADD PUSH2 0x82B JUMP JUMPDEST SWAP2 POP POP SWAP3 SWAP2 POP POP JUMP JUMPDEST PUSH2 0x92E DUP2 PUSH2 0xBA6 JUMP JUMPDEST DUP3 MSTORE POP POP JUMP JUMPDEST PUSH2 0x93D DUP2 PUSH2 0xBA6 JUMP JUMPDEST DUP3 MSTORE POP POP JUMP JUMPDEST PUSH1 0x0 PUSH2 0x94E DUP3 PUSH2 0xB23 JUMP JUMPDEST PUSH2 0x958 DUP2 DUP6 PUSH2 0xB2E JUMP JUMPDEST SWAP4 POP PUSH2 0x968 DUP2 DUP6 PUSH1 0x20 DUP7 ADD PUSH2 0xBF1 JUMP JUMPDEST PUSH2 0x971 DUP2 PUSH2 0xD28 JUMP JUMPDEST DUP5 ADD SWAP2 POP POP SWAP3 SWAP2 POP POP JUMP JUMPDEST PUSH1 0x0 PUSH2 0x987 DUP3 PUSH2 0xB23 JUMP JUMPDEST PUSH2 0x991 DUP2 DUP6 PUSH2 0xB3F JUMP JUMPDEST SWAP4 POP PUSH2 0x9A1 DUP2 DUP6 PUSH1 0x20 DUP7 ADD PUSH2 0xBF1 JUMP JUMPDEST PUSH2 0x9AA DUP2 PUSH2 0xD28 JUMP JUMPDEST DUP5 ADD SWAP2 POP POP SWAP3 SWAP2 POP POP JUMP JUMPDEST PUSH1 0x0 PUSH1 0x80 DUP4 ADD PUSH1 0x0 DUP4 ADD MLOAD PUSH2 0x9CD PUSH1 0x0 DUP7 ADD DUP3 PUSH2 0x925 JUMP JUMPDEST POP PUSH1 0x20 DUP4 ADD MLOAD DUP5 DUP3 SUB PUSH1 0x20 DUP7 ADD MSTORE PUSH2 0x9E5 DUP3 DUP3 PUSH2 0x943 JUMP JUMPDEST SWAP2 POP POP PUSH1 0x40 DUP4 ADD MLOAD DUP5 DUP3 SUB PUSH1 0x40 DUP7 ADD MSTORE PUSH2 0x9FF DUP3 DUP3 PUSH2 0x943 JUMP JUMPDEST SWAP2 POP POP PUSH1 0x60 DUP4 ADD MLOAD PUSH2 0xA14 PUSH1 0x60 DUP7 ADD DUP3 PUSH2 0xA1F JUMP JUMPDEST POP DUP1 SWAP2 POP POP SWAP3 SWAP2 POP POP JUMP JUMPDEST PUSH2 0xA28 DUP2 PUSH2 0xBD8 JUMP JUMPDEST DUP3 MSTORE POP POP JUMP JUMPDEST PUSH2 0xA37 DUP2 PUSH2 0xBD8 JUMP JUMPDEST DUP3 MSTORE POP POP JUMP JUMPDEST PUSH1 0x0 PUSH1 0x80 DUP3 ADD SWAP1 POP PUSH2 0xA52 PUSH1 0x0 DUP4 ADD DUP8 PUSH2 0x934 JUMP JUMPDEST DUP2 DUP2 SUB PUSH1 0x20 DUP4 ADD MSTORE PUSH2 0xA64 DUP2 DUP7 PUSH2 0x97C JUMP JUMPDEST SWAP1 POP DUP2 DUP2 SUB PUSH1 0x40 DUP4 ADD MSTORE PUSH2 0xA78 DUP2 DUP6 PUSH2 0x97C JUMP JUMPDEST SWAP1 POP PUSH2 0xA87 PUSH1 0x60 DUP4 ADD DUP5 PUSH2 0xA2E JUMP JUMPDEST SWAP6 SWAP5 POP POP POP POP POP JUMP JUMPDEST PUSH1 0x0 PUSH1 0x20 DUP3 ADD SWAP1 POP DUP2 DUP2 SUB PUSH1 0x0 DUP4 ADD MSTORE PUSH2 0xAAA DUP2 DUP5 PUSH2 0x9B5 JUMP JUMPDEST SWAP1 POP SWAP3 SWAP2 POP POP JUMP JUMPDEST PUSH1 0x0 PUSH1 0x20 DUP3 ADD SWAP1 POP PUSH2 0xAC7 PUSH1 0x0 DUP4 ADD DUP5 PUSH2 0xA2E JUMP JUMPDEST SWAP3 SWAP2 POP POP JUMP JUMPDEST PUSH1 0x0 PUSH2 0xAD7 PUSH2 0xAE8 JUMP JUMPDEST SWAP1 POP PUSH2 0xAE3 DUP3 DUP3 PUSH2 0xC56 JUMP JUMPDEST SWAP2 SWAP1 POP JUMP JUMPDEST PUSH1 0x0 PUSH1 0x40 MLOAD SWAP1 POP SWAP1 JUMP JUMPDEST PUSH1 0x0 PUSH8 0xFFFFFFFFFFFFFFFF DUP3 GT ISZERO PUSH2 0xB0D JUMPI PUSH2 0xB0C PUSH2 0xCE5 JUMP JUMPDEST JUMPDEST PUSH2 0xB16 DUP3 PUSH2 0xD28 JUMP JUMPDEST SWAP1 POP PUSH1 0x20 DUP2 ADD SWAP1 POP SWAP2 SWAP1 POP JUMP JUMPDEST PUSH1 0x0 DUP2 MLOAD SWAP1 POP SWAP2 SWAP1 POP JUMP JUMPDEST PUSH1 0x0 DUP3 DUP3 MSTORE PUSH1 0x20 DUP3 ADD SWAP1 POP SWAP3 SWAP2 POP POP JUMP JUMPDEST PUSH1 0x0 DUP3 DUP3 MSTORE PUSH1 0x20 DUP3 ADD SWAP1 POP SWAP3 SWAP2 POP POP JUMP JUMPDEST PUSH1 0x0 PUSH2 0xB5B DUP3 PUSH2 0xBD8 JUMP JUMPDEST SWAP2 POP PUSH2 0xB66 DUP4 PUSH2 0xBD8 JUMP JUMPDEST SWAP3 POP DUP3 PUSH32 0xFFFFFFFFFFFFFFFFFFFFFFFFFFFFFFFFFFFFFFFFFFFFFFFFFFFFFFFFFFFFFFFF SUB DUP3 GT ISZERO PUSH2 0xB9B JUMPI PUSH2 0xB9A PUSH2 0xC87 JUMP JUMPDEST JUMPDEST DUP3 DUP3 ADD SWAP1 POP SWAP3 SWAP2 POP POP JUMP JUMPDEST PUSH1 0x0 PUSH2 0xBB1 DUP3 PUSH2 0xBB8 JUMP JUMPDEST SWAP1 POP SWAP2 SWAP1 POP JUMP JUMPDEST PUSH1 0x0 PUSH20 0xFFFFFFFFFFFFFFFFFFFFFFFFFFFFFFFFFFFFFFFF DUP3 AND SWAP1 POP SWAP2 SWAP1 POP JUMP JUMPDEST PUSH1 0x0 DUP2 SWAP1 POP SWAP2 SWAP1 POP JUMP JUMPDEST DUP3 DUP2 DUP4 CALLDATACOPY PUSH1 0x0 DUP4 DUP4 ADD MSTORE POP POP POP JUMP JUMPDEST PUSH1 0x0 JUMPDEST DUP4 DUP2 LT ISZERO PUSH2 0xC0F JUMPI DUP1 DUP3 ADD MLOAD DUP2 DUP5 ADD MSTORE PUSH1 0x20 DUP2 ADD SWAP1 POP PUSH2 0xBF4 JUMP JUMPDEST DUP4 DUP2 GT ISZERO PUSH2 0xC1E JUMPI PUSH1 0x0 DUP5 DUP5 ADD MSTORE JUMPDEST POP POP POP POP JUMP JUMPDEST PUSH1 0x0 PUSH1 0x2 DUP3 DIV SWAP1 POP PUSH1 0x1 DUP3 AND DUP1 PUSH2 0xC3C JUMPI PUSH1 0x7F DUP3 AND SWAP2 POP JUMPDEST PUSH1 0x20 DUP3 LT DUP2 EQ ISZERO PUSH2 0xC50 JUMPI PUSH2 0xC4F PUSH2 0xCB6 JUMP JUMPDEST JUMPDEST POP SWAP2 SWAP1 POP JUMP JUMPDEST PUSH2 0xC5F DUP3 PUSH2 0xD28 JUMP JUMPDEST DUP2 ADD DUP2 DUP2 LT PUSH8 0xFFFFFFFFFFFFFFFF DUP3 GT OR ISZERO PUSH2 0xC7E JUMPI PUSH2 0xC7D PUSH2 0xCE5 JUMP JUMPDEST JUMPDEST DUP1 PUSH1 0x40 MSTORE POP POP POP JUMP JUMPDEST PUSH32 0x4E487B7100000000000000000000000000000000000000000000000000000000 PUSH1 0x0 MSTORE PUSH1 0x11 PUSH1 0x4 MSTORE PUSH1 0x24 PUSH1 0x0 REVERT JUMPDEST PUSH32 0x4E487B7100000000000000000000000000000000000000000000000000000000 PUSH1 0x0 MSTORE PUSH1 0x22 PUSH1 0x4 MSTORE PUSH1 0x24 PUSH1 0x0 REVERT JUMPDEST PUSH32 0x4E487B7100000000000000000000000000000000000000000000000000000000 PUSH1 0x0 MSTORE PUSH1 0x41 PUSH1 0x4 MSTORE PUSH1 0x24 PUSH1 0x0 REVERT JUMPDEST PUSH1 0x0 DUP1 REVERT JUMPDEST PUSH1 0x0 DUP1 REVERT JUMPDEST PUSH1 0x0 DUP1 REVERT JUMPDEST PUSH1 0x0 DUP1 REVERT JUMPDEST PUSH1 0x0 PUSH1 0x1F NOT PUSH1 0x1F DUP4 ADD AND SWAP1 POP SWAP2 SWAP1 POP JUMP JUMPDEST PUSH2 0xD42 DUP2 PUSH2 0xBA6 JUMP JUMPDEST DUP2 EQ PUSH2 0xD4D JUMPI PUSH1 0x0 DUP1 REVERT JUMPDEST POP JUMP JUMPDEST PUSH2 0xD59 DUP2 PUSH2 0xBD8 JUMP JUMPDEST DUP2 EQ PUSH2 0xD64 JUMPI PUSH1 0x0 DUP1 REVERT JUMPDEST POP JUMP INVALID LOG2 PUSH5 0x6970667358 0x22 SLT KECCAK256 EXTCODESIZE 0xE6 0xAF 0xA6 PUSH18 0x81F3B44E5023FCFEB60B34458FB9D6D0124 PUSH17 0x8BFE5F0EEB84043364736F6C6343000807 STOP CALLER "
				},
				"gasEstimates": {
					"creation": {
						"codeDepositCost": "697000",
						"executionCost": "5734",
						"totalCost": "702734"
					},
					"external": {
						"addStudent(string,string,uint256)": "infinite",
						"getStudent(uint256)": "infinite",
						"identification(uint256)": "infinite",
						"studentCount()": "2495",
						"students(address)": "infinite"
					}
				},
				"methodIdentifiers": {
					"addStudent(string,string,uint256)": "9cc8f139",
					"getStudent(uint256)": "642f9163",
					"identification(uint256)": "360e99b3",
					"studentCount()": "e581f9ee",
					"students(address)": "a6c807a9"
				}
			},
			"storageLayout": {
				"storage": [
					{
						"astId": 4,
						"contract": "contracts/students.sol:myStudent",
						"label": "studentCount",
						"offset": 0,
						"slot": "0",
						"type": "t_uint256"
					},
					{
						"astId": 9,
						"contract": "contracts/students.sol:myStudent",
						"label": "students",
						"offset": 0,
						"slot": "1",
						"type": "t_mapping(t_address,t_struct(Student)23_storage)"
					},
					{
						"astId": 14,
						"contract": "contracts/students.sol:myStudent",
						"label": "identification",
						"offset": 0,
						"slot": "2",
						"type": "t_mapping(t_uint256,t_struct(Student)23_storage)"
					}
				],
				"types": {
					"t_address": {
						"encoding": "inplace",
						"label": "address",
						"numberOfBytes": "20"
					},
					"t_mapping(t_address,t_struct(Student)23_storage)": {
						"encoding": "mapping",
						"key": "t_address",
						"label": "mapping(address => struct myStudent.Student)",
						"numberOfBytes": "32",
						"value": "t_struct(Student)23_storage"
					},
					"t_mapping(t_uint256,t_struct(Student)23_storage)": {
						"encoding": "mapping",
						"key": "t_uint256",
						"label": "mapping(uint256 => struct myStudent.Student)",
						"numberOfBytes": "32",
						"value": "t_struct(Student)23_storage"
					},
					"t_string_storage": {
						"encoding": "bytes",
						"label": "string",
						"numberOfBytes": "32"
					},
					"t_struct(Student)23_storage": {
						"encoding": "inplace",
						"label": "struct myStudent.Student",
						"members": [
							{
								"astId": 16,
								"contract": "contracts/students.sol:myStudent",
								"label": "StudentAddress",
								"offset": 0,
								"slot": "0",
								"type": "t_address"
							},
							{
								"astId": 18,
								"contract": "contracts/students.sol:myStudent",
								"label": "firstName",
								"offset": 0,
								"slot": "1",
								"type": "t_string_storage"
							},
							{
								"astId": 20,
								"contract": "contracts/students.sol:myStudent",
								"label": "lastName",
								"offset": 0,
								"slot": "2",
								"type": "t_string_storage"
							},
							{
								"astId": 22,
								"contract": "contracts/students.sol:myStudent",
								"label": "_id",
								"offset": 0,
								"slot": "3",
								"type": "t_uint256"
							}
						],
						"numberOfBytes": "128"
					},
					"t_uint256": {
						"encoding": "inplace",
						"label": "uint256",
						"numberOfBytes": "32"
					}
				}
			},
			"userdoc": {
				"kind": "user",
				"methods": {},
				"version": 1
			}
		}
	}
}