{
	"contracts/students.sol": {
		"myStudent": {
			"abi": [
				{
					"inputs": [
						{
							"internalType": "string",
							"name": "firstName",
							"type": "string"
						},
						{
							"internalType": "string",
							"name": "lastName",
							"type": "string"
						},
						{
							"internalType": "uint256",
							"name": "_id",
							"type": "uint256"
						}
					],
					"name": "addStudent",
					"outputs": [],
					"stateMutability": "nonpayable",
					"type": "function"
				},
				{
					"inputs": [
						{
							"internalType": "uint256",
							"name": "_id",
							"type": "uint256"
						}
					],
					"name": "getStudent",
					"outputs": [
						{
							"components": [
								{
									"internalType": "string",
									"name": "firstName",
									"type": "string"
								},
								{
									"internalType": "string",
									"name": "lastName",
									"type": "string"
								},
								{
									"internalType": "uint256",
									"name": "_id",
									"type": "uint256"
								}
							],
							"internalType": "struct myStudent.Student",
							"name": "",
							"type": "tuple"
						}
					],
					"stateMutability": "nonpayable",
					"type": "function"
				},
				{
					"inputs": [],
					"name": "studentCount",
					"outputs": [
						{
							"internalType": "uint256",
							"name": "",
							"type": "uint256"
						}
					],
					"stateMutability": "view",
					"type": "function"
				},
				{
					"inputs": [
						{
							"internalType": "uint256",
							"name": "",
							"type": "uint256"
						}
					],
					"name": "students",
					"outputs": [
						{
							"internalType": "string",
							"name": "firstName",
							"type": "string"
						},
						{
							"internalType": "string",
							"name": "lastName",
							"type": "string"
						},
						{
							"internalType": "uint256",
							"name": "_id",
							"type": "uint256"
						}
					],
					"stateMutability": "view",
					"type": "function"
				},
				{
					"inputs": [
						{
							"internalType": "string",
							"name": "firstName",
							"type": "string"
						},
						{
							"internalType": "string",
							"name": "lastName",
							"type": "string"
						},
						{
							"internalType": "uint256",
							"name": "_id",
							"type": "uint256"
						}
					],
					"name": "subtractStudent",
					"outputs": [],
					"stateMutability": "nonpayable",
					"type": "function"
				}
			],
			"devdoc": {
				"kind": "dev",
				"methods": {},
				"version": 1
			},
			"evm": {
				"assembly": "    /* \"contracts/students.sol\":70:770  contract myStudent{\r... */\n  mstore(0x40, 0x80)\n    /* \"contracts/students.sol\":122:123  0 */\n  0x00\n    /* \"contracts/students.sol\":95:123  uint public studentCount = 0 */\n  dup1\n  sstore\n    /* \"contracts/students.sol\":70:770  contract myStudent{\r... */\n  callvalue\n  dup1\n  iszero\n  tag_1\n  jumpi\n  0x00\n  dup1\n  revert\ntag_1:\n  pop\n  dataSize(sub_0)\n  dup1\n  dataOffset(sub_0)\n  0x00\n  codecopy\n  0x00\n  return\nstop\n\nsub_0: assembly {\n        /* \"contracts/students.sol\":70:770  contract myStudent{\r... */\n      mstore(0x40, 0x80)\n      callvalue\n      dup1\n      iszero\n      tag_1\n      jumpi\n      0x00\n      dup1\n      revert\n    tag_1:\n      pop\n      jumpi(tag_2, lt(calldatasize, 0x04))\n      shr(0xe0, calldataload(0x00))\n      dup1\n      0x06ead22e\n      eq\n      tag_3\n      jumpi\n      dup1\n      0x642f9163\n      eq\n      tag_4\n      jumpi\n      dup1\n      0x9cc8f139\n      eq\n      tag_5\n      jumpi\n      dup1\n      0xd2034381\n      eq\n      tag_6\n      jumpi\n      dup1\n      0xe581f9ee\n      eq\n      tag_7\n      jumpi\n    tag_2:\n      0x00\n      dup1\n      revert\n        /* \"contracts/students.sol\":130:174  mapping (uint256 => Student) public students */\n    tag_3:\n      tag_8\n      0x04\n      dup1\n      calldatasize\n      sub\n      dup2\n      add\n      swap1\n      tag_9\n      swap2\n      swap1\n      tag_10\n      jump\t// in\n    tag_9:\n      tag_11\n      jump\t// in\n    tag_8:\n      mload(0x40)\n      tag_12\n      swap4\n      swap3\n      swap2\n      swap1\n      tag_13\n      jump\t// in\n    tag_12:\n      mload(0x40)\n      dup1\n      swap2\n      sub\n      swap1\n      return\n        /* \"contracts/students.sol\":465:582  function getStudent( uint256 _id) public  returns ( Student memory )  { \r... */\n    tag_4:\n      tag_14\n      0x04\n      dup1\n      calldatasize\n      sub\n      dup2\n      add\n      swap1\n      tag_15\n      swap2\n      swap1\n      tag_10\n      jump\t// in\n    tag_15:\n      tag_16\n      jump\t// in\n    tag_14:\n      mload(0x40)\n      tag_17\n      swap2\n      swap1\n      tag_18\n      jump\t// in\n    tag_17:\n      mload(0x40)\n      dup1\n      swap2\n      sub\n      swap1\n      return\n        /* \"contracts/students.sol\":289:455  function addStudent(string memory firstName, string memory lastName, uint256 _id) public {\r... */\n    tag_5:\n      tag_19\n      0x04\n      dup1\n      calldatasize\n      sub\n      dup2\n      add\n      swap1\n      tag_20\n      swap2\n      swap1\n      tag_21\n      jump\t// in\n    tag_20:\n      tag_22\n      jump\t// in\n    tag_19:\n      stop\n        /* \"contracts/students.sol\":596:767  function subtractStudent(string memory firstName, string memory lastName, uint256 _id) public {\r... */\n    tag_6:\n      tag_23\n      0x04\n      dup1\n      calldatasize\n      sub\n      dup2\n      add\n      swap1\n      tag_24\n      swap2\n      swap1\n      tag_21\n      jump\t// in\n    tag_24:\n      tag_25\n      jump\t// in\n    tag_23:\n      stop\n        /* \"contracts/students.sol\":95:123  uint public studentCount = 0 */\n    tag_7:\n      tag_26\n      tag_27\n      jump\t// in\n    tag_26:\n      mload(0x40)\n      tag_28\n      swap2\n      swap1\n      tag_29\n      jump\t// in\n    tag_28:\n      mload(0x40)\n      dup1\n      swap2\n      sub\n      swap1\n      return\n        /* \"contracts/students.sol\":130:174  mapping (uint256 => Student) public students */\n    tag_11:\n      mstore(0x20, 0x01)\n      dup1\n      0x00\n      mstore\n      keccak256(0x00, 0x40)\n      0x00\n      swap2\n      pop\n      swap1\n      pop\n      dup1\n      0x00\n      add\n      dup1\n      sload\n      tag_30\n      swap1\n      tag_31\n      jump\t// in\n    tag_30:\n      dup1\n      0x1f\n      add\n      0x20\n      dup1\n      swap2\n      div\n      mul\n      0x20\n      add\n      mload(0x40)\n      swap1\n      dup2\n      add\n      0x40\n      mstore\n      dup1\n      swap3\n      swap2\n      swap1\n      dup2\n      dup2\n      mstore\n      0x20\n      add\n      dup3\n      dup1\n      sload\n      tag_32\n      swap1\n      tag_31\n      jump\t// in\n    tag_32:\n      dup1\n      iszero\n      tag_33\n      jumpi\n      dup1\n      0x1f\n      lt\n      tag_34\n      jumpi\n      0x0100\n      dup1\n      dup4\n      sload\n      div\n      mul\n      dup4\n      mstore\n      swap2\n      0x20\n      add\n      swap2\n      jump(tag_33)\n    tag_34:\n      dup3\n      add\n      swap2\n      swap1\n      0x00\n      mstore\n      keccak256(0x00, 0x20)\n      swap1\n    tag_35:\n      dup2\n      sload\n      dup2\n      mstore\n      swap1\n      0x01\n      add\n      swap1\n      0x20\n      add\n      dup1\n      dup4\n      gt\n      tag_35\n      jumpi\n      dup3\n      swap1\n      sub\n      0x1f\n      and\n      dup3\n      add\n      swap2\n    tag_33:\n      pop\n      pop\n      pop\n      pop\n      pop\n      swap1\n      dup1\n      0x01\n      add\n      dup1\n      sload\n      tag_36\n      swap1\n      tag_31\n      jump\t// in\n    tag_36:\n      dup1\n      0x1f\n      add\n      0x20\n      dup1\n      swap2\n      div\n      mul\n      0x20\n      add\n      mload(0x40)\n      swap1\n      dup2\n      add\n      0x40\n      mstore\n      dup1\n      swap3\n      swap2\n      swap1\n      dup2\n      dup2\n      mstore\n      0x20\n      add\n      dup3\n      dup1\n      sload\n      tag_37\n      swap1\n      tag_31\n      jump\t// in\n    tag_37:\n      dup1\n      iszero\n      tag_38\n      jumpi\n      dup1\n      0x1f\n      lt\n      tag_39\n      jumpi\n      0x0100\n      dup1\n      dup4\n      sload\n      div\n      mul\n      dup4\n      mstore\n      swap2\n      0x20\n      add\n      swap2\n      jump(tag_38)\n    tag_39:\n      dup3\n      add\n      swap2\n      swap1\n      0x00\n      mstore\n      keccak256(0x00, 0x20)\n      swap1\n    tag_40:\n      dup2\n      sload\n      dup2\n      mstore\n      swap1\n      0x01\n      add\n      swap1\n      0x20\n      add\n      dup1\n      dup4\n      gt\n      tag_40\n      jumpi\n      dup3\n      swap1\n      sub\n      0x1f\n      and\n      dup3\n      add\n      swap2\n    tag_38:\n      pop\n      pop\n      pop\n      pop\n      pop\n      swap1\n      dup1\n      0x02\n      add\n      sload\n      swap1\n      pop\n      dup4\n      jump\t// out\n        /* \"contracts/students.sol\":465:582  function getStudent( uint256 _id) public  returns ( Student memory )  { \r... */\n    tag_16:\n        /* \"contracts/students.sol\":517:531  Student memory */\n      tag_41\n      tag_42\n      jump\t// in\n    tag_41:\n        /* \"contracts/students.sol\":561:569  students */\n      0x01\n        /* \"contracts/students.sol\":561:574  students[_id] */\n      0x00\n        /* \"contracts/students.sol\":570:573  _id */\n      dup4\n        /* \"contracts/students.sol\":561:574  students[_id] */\n      dup2\n      mstore\n      0x20\n      add\n      swap1\n      dup2\n      mstore\n      0x20\n      add\n      0x00\n      keccak256\n        /* \"contracts/students.sol\":546:574  return\r... */\n      mload(0x40)\n      dup1\n      0x60\n      add\n      0x40\n      mstore\n      swap1\n      dup2\n      0x00\n      dup3\n      add\n      dup1\n      sload\n      tag_44\n      swap1\n      tag_31\n      jump\t// in\n    tag_44:\n      dup1\n      0x1f\n      add\n      0x20\n      dup1\n      swap2\n      div\n      mul\n      0x20\n      add\n      mload(0x40)\n      swap1\n      dup2\n      add\n      0x40\n      mstore\n      dup1\n      swap3\n      swap2\n      swap1\n      dup2\n      dup2\n      mstore\n      0x20\n      add\n      dup3\n      dup1\n      sload\n      tag_45\n      swap1\n      tag_31\n      jump\t// in\n    tag_45:\n      dup1\n      iszero\n      tag_46\n      jumpi\n      dup1\n      0x1f\n      lt\n      tag_47\n      jumpi\n      0x0100\n      dup1\n      dup4\n      sload\n      div\n      mul\n      dup4\n      mstore\n      swap2\n      0x20\n      add\n      swap2\n      jump(tag_46)\n    tag_47:\n      dup3\n      add\n      swap2\n      swap1\n      0x00\n      mstore\n      keccak256(0x00, 0x20)\n      swap1\n    tag_48:\n      dup2\n      sload\n      dup2\n      mstore\n      swap1\n      0x01\n      add\n      swap1\n      0x20\n      add\n      dup1\n      dup4\n      gt\n      tag_48\n      jumpi\n      dup3\n      swap1\n      sub\n      0x1f\n      and\n      dup3\n      add\n      swap2\n    tag_46:\n      pop\n      pop\n      pop\n      pop\n      pop\n      dup2\n      mstore\n      0x20\n      add\n      0x01\n      dup3\n      add\n      dup1\n      sload\n      tag_49\n      swap1\n      tag_31\n      jump\t// in\n    tag_49:\n      dup1\n      0x1f\n      add\n      0x20\n      dup1\n      swap2\n      div\n      mul\n      0x20\n      add\n      mload(0x40)\n      swap1\n      dup2\n      add\n      0x40\n      mstore\n      dup1\n      swap3\n      swap2\n      swap1\n      dup2\n      dup2\n      mstore\n      0x20\n      add\n      dup3\n      dup1\n      sload\n      tag_50\n      swap1\n      tag_31\n      jump\t// in\n    tag_50:\n      dup1\n      iszero\n      tag_51\n      jumpi\n      dup1\n      0x1f\n      lt\n      tag_52\n      jumpi\n      0x0100\n      dup1\n      dup4\n      sload\n      div\n      mul\n      dup4\n      mstore\n      swap2\n      0x20\n      add\n      swap2\n      jump(tag_51)\n    tag_52:\n      dup3\n      add\n      swap2\n      swap1\n      0x00\n      mstore\n      keccak256(0x00, 0x20)\n      swap1\n    tag_53:\n      dup2\n      sload\n      dup2\n      mstore\n      swap1\n      0x01\n      add\n      swap1\n      0x20\n      add\n      dup1\n      dup4\n      gt\n      tag_53\n      jumpi\n      dup3\n      swap1\n      sub\n      0x1f\n      and\n      dup3\n      add\n      swap2\n    tag_51:\n      pop\n      pop\n      pop\n      pop\n      pop\n      dup2\n      mstore\n      0x20\n      add\n      0x02\n      dup3\n      add\n      sload\n      dup2\n      mstore\n      pop\n      pop\n      swap1\n      pop\n        /* \"contracts/students.sol\":465:582  function getStudent( uint256 _id) public  returns ( Student memory )  { \r... */\n      swap2\n      swap1\n      pop\n      jump\t// out\n        /* \"contracts/students.sol\":289:455  function addStudent(string memory firstName, string memory lastName, uint256 _id) public {\r... */\n    tag_22:\n        /* \"contracts/students.sol\":386:419  Student(firstName, lastName, _id) */\n      mload(0x40)\n      dup1\n      0x60\n      add\n      0x40\n      mstore\n      dup1\n        /* \"contracts/students.sol\":394:403  firstName */\n      dup5\n        /* \"contracts/students.sol\":386:419  Student(firstName, lastName, _id) */\n      dup2\n      mstore\n      0x20\n      add\n        /* \"contracts/students.sol\":405:413  lastName */\n      dup4\n        /* \"contracts/students.sol\":386:419  Student(firstName, lastName, _id) */\n      dup2\n      mstore\n      0x20\n      add\n        /* \"contracts/students.sol\":415:418  _id */\n      dup3\n        /* \"contracts/students.sol\":386:419  Student(firstName, lastName, _id) */\n      dup2\n      mstore\n      pop\n      pop\n        /* \"contracts/students.sol\":446:447  1 */\n      0x01\n        /* \"contracts/students.sol\":430:442  studentCount */\n      0x00\n      dup1\n        /* \"contracts/students.sol\":430:447  studentCount += 1 */\n      dup3\n      dup3\n      sload\n      tag_55\n      swap2\n      swap1\n      tag_56\n      jump\t// in\n    tag_55:\n      swap3\n      pop\n      pop\n      dup2\n      swap1\n      sstore\n      pop\n        /* \"contracts/students.sol\":289:455  function addStudent(string memory firstName, string memory lastName, uint256 _id) public {\r... */\n      pop\n      pop\n      pop\n      jump\t// out\n        /* \"contracts/students.sol\":596:767  function subtractStudent(string memory firstName, string memory lastName, uint256 _id) public {\r... */\n    tag_25:\n        /* \"contracts/students.sol\":698:731  Student(firstName, lastName, _id) */\n      mload(0x40)\n      dup1\n      0x60\n      add\n      0x40\n      mstore\n      dup1\n        /* \"contracts/students.sol\":706:715  firstName */\n      dup5\n        /* \"contracts/students.sol\":698:731  Student(firstName, lastName, _id) */\n      dup2\n      mstore\n      0x20\n      add\n        /* \"contracts/students.sol\":717:725  lastName */\n      dup4\n        /* \"contracts/students.sol\":698:731  Student(firstName, lastName, _id) */\n      dup2\n      mstore\n      0x20\n      add\n        /* \"contracts/students.sol\":727:730  _id */\n      dup3\n        /* \"contracts/students.sol\":698:731  Student(firstName, lastName, _id) */\n      dup2\n      mstore\n      pop\n      pop\n        /* \"contracts/students.sol\":758:759  1 */\n      0x01\n        /* \"contracts/students.sol\":742:754  studentCount */\n      0x00\n      dup1\n        /* \"contracts/students.sol\":742:759  studentCount -= 1 */\n      dup3\n      dup3\n      sload\n      tag_58\n      swap2\n      swap1\n      tag_59\n      jump\t// in\n    tag_58:\n      swap3\n      pop\n      pop\n      dup2\n      swap1\n      sstore\n      pop\n        /* \"contracts/students.sol\":596:767  function subtractStudent(string memory firstName, string memory lastName, uint256 _id) public {\r... */\n      pop\n      pop\n      pop\n      jump\t// out\n        /* \"contracts/students.sol\":95:123  uint public studentCount = 0 */\n    tag_27:\n      sload(0x00)\n      dup2\n      jump\t// out\n    tag_42:\n      mload(0x40)\n      dup1\n      0x60\n      add\n      0x40\n      mstore\n      dup1\n      0x60\n      dup2\n      mstore\n      0x20\n      add\n      0x60\n      dup2\n      mstore\n      0x20\n      add\n      0x00\n      dup2\n      mstore\n      pop\n      swap1\n      jump\t// out\n        /* \"#utility.yul\":7:419   */\n    tag_61:\n        /* \"#utility.yul\":85:90   */\n      0x00\n        /* \"#utility.yul\":110:176   */\n      tag_63\n        /* \"#utility.yul\":126:175   */\n      tag_64\n        /* \"#utility.yul\":168:174   */\n      dup5\n        /* \"#utility.yul\":126:175   */\n      tag_65\n      jump\t// in\n    tag_64:\n        /* \"#utility.yul\":110:176   */\n      tag_66\n      jump\t// in\n    tag_63:\n        /* \"#utility.yul\":101:176   */\n      swap1\n      pop\n        /* \"#utility.yul\":199:205   */\n      dup3\n        /* \"#utility.yul\":192:197   */\n      dup2\n        /* \"#utility.yul\":185:206   */\n      mstore\n        /* \"#utility.yul\":237:241   */\n      0x20\n        /* \"#utility.yul\":230:235   */\n      dup2\n        /* \"#utility.yul\":226:242   */\n      add\n        /* \"#utility.yul\":275:278   */\n      dup5\n        /* \"#utility.yul\":266:272   */\n      dup5\n        /* \"#utility.yul\":261:264   */\n      dup5\n        /* \"#utility.yul\":257:273   */\n      add\n        /* \"#utility.yul\":254:279   */\n      gt\n        /* \"#utility.yul\":251:363   */\n      iszero\n      tag_67\n      jumpi\n        /* \"#utility.yul\":282:361   */\n      tag_68\n      tag_69\n      jump\t// in\n    tag_68:\n        /* \"#utility.yul\":251:363   */\n    tag_67:\n        /* \"#utility.yul\":372:413   */\n      tag_70\n        /* \"#utility.yul\":406:412   */\n      dup5\n        /* \"#utility.yul\":401:404   */\n      dup3\n        /* \"#utility.yul\":396:399   */\n      dup6\n        /* \"#utility.yul\":372:413   */\n      tag_71\n      jump\t// in\n    tag_70:\n        /* \"#utility.yul\":91:419   */\n      pop\n        /* \"#utility.yul\":7:419   */\n      swap4\n      swap3\n      pop\n      pop\n      pop\n      jump\t// out\n        /* \"#utility.yul\":439:779   */\n    tag_72:\n        /* \"#utility.yul\":495:500   */\n      0x00\n        /* \"#utility.yul\":544:547   */\n      dup3\n        /* \"#utility.yul\":537:541   */\n      0x1f\n        /* \"#utility.yul\":529:535   */\n      dup4\n        /* \"#utility.yul\":525:542   */\n      add\n        /* \"#utility.yul\":521:548   */\n      slt\n        /* \"#utility.yul\":511:633   */\n      tag_74\n      jumpi\n        /* \"#utility.yul\":552:631   */\n      tag_75\n      tag_76\n      jump\t// in\n    tag_75:\n        /* \"#utility.yul\":511:633   */\n    tag_74:\n        /* \"#utility.yul\":669:675   */\n      dup2\n        /* \"#utility.yul\":656:676   */\n      calldataload\n        /* \"#utility.yul\":694:773   */\n      tag_77\n        /* \"#utility.yul\":769:772   */\n      dup5\n        /* \"#utility.yul\":761:767   */\n      dup3\n        /* \"#utility.yul\":754:758   */\n      0x20\n        /* \"#utility.yul\":746:752   */\n      dup7\n        /* \"#utility.yul\":742:759   */\n      add\n        /* \"#utility.yul\":694:773   */\n      tag_61\n      jump\t// in\n    tag_77:\n        /* \"#utility.yul\":685:773   */\n      swap2\n      pop\n        /* \"#utility.yul\":501:779   */\n      pop\n        /* \"#utility.yul\":439:779   */\n      swap3\n      swap2\n      pop\n      pop\n      jump\t// out\n        /* \"#utility.yul\":785:924   */\n    tag_78:\n        /* \"#utility.yul\":831:836   */\n      0x00\n        /* \"#utility.yul\":869:875   */\n      dup2\n        /* \"#utility.yul\":856:876   */\n      calldataload\n        /* \"#utility.yul\":847:876   */\n      swap1\n      pop\n        /* \"#utility.yul\":885:918   */\n      tag_80\n        /* \"#utility.yul\":912:917   */\n      dup2\n        /* \"#utility.yul\":885:918   */\n      tag_81\n      jump\t// in\n    tag_80:\n        /* \"#utility.yul\":785:924   */\n      swap3\n      swap2\n      pop\n      pop\n      jump\t// out\n        /* \"#utility.yul\":930:1909   */\n    tag_21:\n        /* \"#utility.yul\":1027:1033   */\n      0x00\n        /* \"#utility.yul\":1035:1041   */\n      dup1\n        /* \"#utility.yul\":1043:1049   */\n      0x00\n        /* \"#utility.yul\":1092:1094   */\n      0x60\n        /* \"#utility.yul\":1080:1089   */\n      dup5\n        /* \"#utility.yul\":1071:1078   */\n      dup7\n        /* \"#utility.yul\":1067:1090   */\n      sub\n        /* \"#utility.yul\":1063:1095   */\n      slt\n        /* \"#utility.yul\":1060:1179   */\n      iszero\n      tag_83\n      jumpi\n        /* \"#utility.yul\":1098:1177   */\n      tag_84\n      tag_85\n      jump\t// in\n    tag_84:\n        /* \"#utility.yul\":1060:1179   */\n    tag_83:\n        /* \"#utility.yul\":1246:1247   */\n      0x00\n        /* \"#utility.yul\":1235:1244   */\n      dup5\n        /* \"#utility.yul\":1231:1248   */\n      add\n        /* \"#utility.yul\":1218:1249   */\n      calldataload\n        /* \"#utility.yul\":1276:1294   */\n      0xffffffffffffffff\n        /* \"#utility.yul\":1268:1274   */\n      dup2\n        /* \"#utility.yul\":1265:1295   */\n      gt\n        /* \"#utility.yul\":1262:1379   */\n      iszero\n      tag_86\n      jumpi\n        /* \"#utility.yul\":1298:1377   */\n      tag_87\n      tag_88\n      jump\t// in\n    tag_87:\n        /* \"#utility.yul\":1262:1379   */\n    tag_86:\n        /* \"#utility.yul\":1403:1466   */\n      tag_89\n        /* \"#utility.yul\":1458:1465   */\n      dup7\n        /* \"#utility.yul\":1449:1455   */\n      dup3\n        /* \"#utility.yul\":1438:1447   */\n      dup8\n        /* \"#utility.yul\":1434:1456   */\n      add\n        /* \"#utility.yul\":1403:1466   */\n      tag_72\n      jump\t// in\n    tag_89:\n        /* \"#utility.yul\":1393:1466   */\n      swap4\n      pop\n        /* \"#utility.yul\":1189:1476   */\n      pop\n        /* \"#utility.yul\":1543:1545   */\n      0x20\n        /* \"#utility.yul\":1532:1541   */\n      dup5\n        /* \"#utility.yul\":1528:1546   */\n      add\n        /* \"#utility.yul\":1515:1547   */\n      calldataload\n        /* \"#utility.yul\":1574:1592   */\n      0xffffffffffffffff\n        /* \"#utility.yul\":1566:1572   */\n      dup2\n        /* \"#utility.yul\":1563:1593   */\n      gt\n        /* \"#utility.yul\":1560:1677   */\n      iszero\n      tag_90\n      jumpi\n        /* \"#utility.yul\":1596:1675   */\n      tag_91\n      tag_88\n      jump\t// in\n    tag_91:\n        /* \"#utility.yul\":1560:1677   */\n    tag_90:\n        /* \"#utility.yul\":1701:1764   */\n      tag_92\n        /* \"#utility.yul\":1756:1763   */\n      dup7\n        /* \"#utility.yul\":1747:1753   */\n      dup3\n        /* \"#utility.yul\":1736:1745   */\n      dup8\n        /* \"#utility.yul\":1732:1754   */\n      add\n        /* \"#utility.yul\":1701:1764   */\n      tag_72\n      jump\t// in\n    tag_92:\n        /* \"#utility.yul\":1691:1764   */\n      swap3\n      pop\n        /* \"#utility.yul\":1486:1774   */\n      pop\n        /* \"#utility.yul\":1813:1815   */\n      0x40\n        /* \"#utility.yul\":1839:1892   */\n      tag_93\n        /* \"#utility.yul\":1884:1891   */\n      dup7\n        /* \"#utility.yul\":1875:1881   */\n      dup3\n        /* \"#utility.yul\":1864:1873   */\n      dup8\n        /* \"#utility.yul\":1860:1882   */\n      add\n        /* \"#utility.yul\":1839:1892   */\n      tag_78\n      jump\t// in\n    tag_93:\n        /* \"#utility.yul\":1829:1892   */\n      swap2\n      pop\n        /* \"#utility.yul\":1784:1902   */\n      pop\n        /* \"#utility.yul\":930:1909   */\n      swap3\n      pop\n      swap3\n      pop\n      swap3\n      jump\t// out\n        /* \"#utility.yul\":1915:2244   */\n    tag_10:\n        /* \"#utility.yul\":1974:1980   */\n      0x00\n        /* \"#utility.yul\":2023:2025   */\n      0x20\n        /* \"#utility.yul\":2011:2020   */\n      dup3\n        /* \"#utility.yul\":2002:2009   */\n      dup5\n        /* \"#utility.yul\":1998:2021   */\n      sub\n        /* \"#utility.yul\":1994:2026   */\n      slt\n        /* \"#utility.yul\":1991:2110   */\n      iszero\n      tag_95\n      jumpi\n        /* \"#utility.yul\":2029:2108   */\n      tag_96\n      tag_85\n      jump\t// in\n    tag_96:\n        /* \"#utility.yul\":1991:2110   */\n    tag_95:\n        /* \"#utility.yul\":2149:2150   */\n      0x00\n        /* \"#utility.yul\":2174:2227   */\n      tag_97\n        /* \"#utility.yul\":2219:2226   */\n      dup5\n        /* \"#utility.yul\":2210:2216   */\n      dup3\n        /* \"#utility.yul\":2199:2208   */\n      dup6\n        /* \"#utility.yul\":2195:2217   */\n      add\n        /* \"#utility.yul\":2174:2227   */\n      tag_78\n      jump\t// in\n    tag_97:\n        /* \"#utility.yul\":2164:2227   */\n      swap2\n      pop\n        /* \"#utility.yul\":2120:2237   */\n      pop\n        /* \"#utility.yul\":1915:2244   */\n      swap3\n      swap2\n      pop\n      pop\n      jump\t// out\n        /* \"#utility.yul\":2250:2594   */\n    tag_98:\n        /* \"#utility.yul\":2328:2331   */\n      0x00\n        /* \"#utility.yul\":2356:2395   */\n      tag_100\n        /* \"#utility.yul\":2389:2394   */\n      dup3\n        /* \"#utility.yul\":2356:2395   */\n      tag_101\n      jump\t// in\n    tag_100:\n        /* \"#utility.yul\":2411:2472   */\n      tag_102\n        /* \"#utility.yul\":2465:2471   */\n      dup2\n        /* \"#utility.yul\":2460:2463   */\n      dup6\n        /* \"#utility.yul\":2411:2472   */\n      tag_103\n      jump\t// in\n    tag_102:\n        /* \"#utility.yul\":2404:2472   */\n      swap4\n      pop\n        /* \"#utility.yul\":2481:2533   */\n      tag_104\n        /* \"#utility.yul\":2526:2532   */\n      dup2\n        /* \"#utility.yul\":2521:2524   */\n      dup6\n        /* \"#utility.yul\":2514:2518   */\n      0x20\n        /* \"#utility.yul\":2507:2512   */\n      dup7\n        /* \"#utility.yul\":2503:2519   */\n      add\n        /* \"#utility.yul\":2481:2533   */\n      tag_105\n      jump\t// in\n    tag_104:\n        /* \"#utility.yul\":2558:2587   */\n      tag_106\n        /* \"#utility.yul\":2580:2586   */\n      dup2\n        /* \"#utility.yul\":2558:2587   */\n      tag_107\n      jump\t// in\n    tag_106:\n        /* \"#utility.yul\":2553:2556   */\n      dup5\n        /* \"#utility.yul\":2549:2588   */\n      add\n        /* \"#utility.yul\":2542:2588   */\n      swap2\n      pop\n        /* \"#utility.yul\":2332:2594   */\n      pop\n        /* \"#utility.yul\":2250:2594   */\n      swap3\n      swap2\n      pop\n      pop\n      jump\t// out\n        /* \"#utility.yul\":2600:2964   */\n    tag_108:\n        /* \"#utility.yul\":2688:2691   */\n      0x00\n        /* \"#utility.yul\":2716:2755   */\n      tag_110\n        /* \"#utility.yul\":2749:2754   */\n      dup3\n        /* \"#utility.yul\":2716:2755   */\n      tag_101\n      jump\t// in\n    tag_110:\n        /* \"#utility.yul\":2771:2842   */\n      tag_111\n        /* \"#utility.yul\":2835:2841   */\n      dup2\n        /* \"#utility.yul\":2830:2833   */\n      dup6\n        /* \"#utility.yul\":2771:2842   */\n      tag_112\n      jump\t// in\n    tag_111:\n        /* \"#utility.yul\":2764:2842   */\n      swap4\n      pop\n        /* \"#utility.yul\":2851:2903   */\n      tag_113\n        /* \"#utility.yul\":2896:2902   */\n      dup2\n        /* \"#utility.yul\":2891:2894   */\n      dup6\n        /* \"#utility.yul\":2884:2888   */\n      0x20\n        /* \"#utility.yul\":2877:2882   */\n      dup7\n        /* \"#utility.yul\":2873:2889   */\n      add\n        /* \"#utility.yul\":2851:2903   */\n      tag_105\n      jump\t// in\n    tag_113:\n        /* \"#utility.yul\":2928:2957   */\n      tag_114\n        /* \"#utility.yul\":2950:2956   */\n      dup2\n        /* \"#utility.yul\":2928:2957   */\n      tag_107\n      jump\t// in\n    tag_114:\n        /* \"#utility.yul\":2923:2926   */\n      dup5\n        /* \"#utility.yul\":2919:2958   */\n      add\n        /* \"#utility.yul\":2912:2958   */\n      swap2\n      pop\n        /* \"#utility.yul\":2692:2964   */\n      pop\n        /* \"#utility.yul\":2600:2964   */\n      swap3\n      swap2\n      pop\n      pop\n      jump\t// out\n        /* \"#utility.yul\":3030:3885   */\n    tag_115:\n        /* \"#utility.yul\":3145:3148   */\n      0x00\n        /* \"#utility.yul\":3181:3185   */\n      0x60\n        /* \"#utility.yul\":3176:3179   */\n      dup4\n        /* \"#utility.yul\":3172:3186   */\n      add\n        /* \"#utility.yul\":3273:3277   */\n      0x00\n        /* \"#utility.yul\":3266:3271   */\n      dup4\n        /* \"#utility.yul\":3262:3278   */\n      add\n        /* \"#utility.yul\":3256:3279   */\n      mload\n        /* \"#utility.yul\":3326:3329   */\n      dup5\n        /* \"#utility.yul\":3320:3324   */\n      dup3\n        /* \"#utility.yul\":3316:3330   */\n      sub\n        /* \"#utility.yul\":3309:3313   */\n      0x00\n        /* \"#utility.yul\":3304:3307   */\n      dup7\n        /* \"#utility.yul\":3300:3314   */\n      add\n        /* \"#utility.yul\":3293:3331   */\n      mstore\n        /* \"#utility.yul\":3352:3425   */\n      tag_117\n        /* \"#utility.yul\":3420:3424   */\n      dup3\n        /* \"#utility.yul\":3406:3418   */\n      dup3\n        /* \"#utility.yul\":3352:3425   */\n      tag_98\n      jump\t// in\n    tag_117:\n        /* \"#utility.yul\":3344:3425   */\n      swap2\n      pop\n        /* \"#utility.yul\":3196:3436   */\n      pop\n        /* \"#utility.yul\":3522:3526   */\n      0x20\n        /* \"#utility.yul\":3515:3520   */\n      dup4\n        /* \"#utility.yul\":3511:3527   */\n      add\n        /* \"#utility.yul\":3505:3528   */\n      mload\n        /* \"#utility.yul\":3575:3578   */\n      dup5\n        /* \"#utility.yul\":3569:3573   */\n      dup3\n        /* \"#utility.yul\":3565:3579   */\n      sub\n        /* \"#utility.yul\":3558:3562   */\n      0x20\n        /* \"#utility.yul\":3553:3556   */\n      dup7\n        /* \"#utility.yul\":3549:3563   */\n      add\n        /* \"#utility.yul\":3542:3580   */\n      mstore\n        /* \"#utility.yul\":3601:3674   */\n      tag_118\n        /* \"#utility.yul\":3669:3673   */\n      dup3\n        /* \"#utility.yul\":3655:3667   */\n      dup3\n        /* \"#utility.yul\":3601:3674   */\n      tag_98\n      jump\t// in\n    tag_118:\n        /* \"#utility.yul\":3593:3674   */\n      swap2\n      pop\n        /* \"#utility.yul\":3446:3685   */\n      pop\n        /* \"#utility.yul\":3766:3770   */\n      0x40\n        /* \"#utility.yul\":3759:3764   */\n      dup4\n        /* \"#utility.yul\":3755:3771   */\n      add\n        /* \"#utility.yul\":3749:3772   */\n      mload\n        /* \"#utility.yul\":3785:3848   */\n      tag_119\n        /* \"#utility.yul\":3842:3846   */\n      0x40\n        /* \"#utility.yul\":3837:3840   */\n      dup7\n        /* \"#utility.yul\":3833:3847   */\n      add\n        /* \"#utility.yul\":3819:3831   */\n      dup3\n        /* \"#utility.yul\":3785:3848   */\n      tag_120\n      jump\t// in\n    tag_119:\n        /* \"#utility.yul\":3695:3858   */\n      pop\n        /* \"#utility.yul\":3875:3879   */\n      dup1\n        /* \"#utility.yul\":3868:3879   */\n      swap2\n      pop\n        /* \"#utility.yul\":3150:3885   */\n      pop\n        /* \"#utility.yul\":3030:3885   */\n      swap3\n      swap2\n      pop\n      pop\n      jump\t// out\n        /* \"#utility.yul\":3891:3999   */\n    tag_120:\n        /* \"#utility.yul\":3968:3992   */\n      tag_122\n        /* \"#utility.yul\":3986:3991   */\n      dup2\n        /* \"#utility.yul\":3968:3992   */\n      tag_123\n      jump\t// in\n    tag_122:\n        /* \"#utility.yul\":3963:3966   */\n      dup3\n        /* \"#utility.yul\":3956:3993   */\n      mstore\n        /* \"#utility.yul\":3891:3999   */\n      pop\n      pop\n      jump\t// out\n        /* \"#utility.yul\":4005:4123   */\n    tag_124:\n        /* \"#utility.yul\":4092:4116   */\n      tag_126\n        /* \"#utility.yul\":4110:4115   */\n      dup2\n        /* \"#utility.yul\":4092:4116   */\n      tag_123\n      jump\t// in\n    tag_126:\n        /* \"#utility.yul\":4087:4090   */\n      dup3\n        /* \"#utility.yul\":4080:4117   */\n      mstore\n        /* \"#utility.yul\":4005:4123   */\n      pop\n      pop\n      jump\t// out\n        /* \"#utility.yul\":4129:4753   */\n    tag_13:\n        /* \"#utility.yul\":4318:4322   */\n      0x00\n        /* \"#utility.yul\":4356:4358   */\n      0x60\n        /* \"#utility.yul\":4345:4354   */\n      dup3\n        /* \"#utility.yul\":4341:4359   */\n      add\n        /* \"#utility.yul\":4333:4359   */\n      swap1\n      pop\n        /* \"#utility.yul\":4405:4414   */\n      dup2\n        /* \"#utility.yul\":4399:4403   */\n      dup2\n        /* \"#utility.yul\":4395:4415   */\n      sub\n        /* \"#utility.yul\":4391:4392   */\n      0x00\n        /* \"#utility.yul\":4380:4389   */\n      dup4\n        /* \"#utility.yul\":4376:4393   */\n      add\n        /* \"#utility.yul\":4369:4416   */\n      mstore\n        /* \"#utility.yul\":4433:4511   */\n      tag_128\n        /* \"#utility.yul\":4506:4510   */\n      dup2\n        /* \"#utility.yul\":4497:4503   */\n      dup7\n        /* \"#utility.yul\":4433:4511   */\n      tag_108\n      jump\t// in\n    tag_128:\n        /* \"#utility.yul\":4425:4511   */\n      swap1\n      pop\n        /* \"#utility.yul\":4558:4567   */\n      dup2\n        /* \"#utility.yul\":4552:4556   */\n      dup2\n        /* \"#utility.yul\":4548:4568   */\n      sub\n        /* \"#utility.yul\":4543:4545   */\n      0x20\n        /* \"#utility.yul\":4532:4541   */\n      dup4\n        /* \"#utility.yul\":4528:4546   */\n      add\n        /* \"#utility.yul\":4521:4569   */\n      mstore\n        /* \"#utility.yul\":4586:4664   */\n      tag_129\n        /* \"#utility.yul\":4659:4663   */\n      dup2\n        /* \"#utility.yul\":4650:4656   */\n      dup6\n        /* \"#utility.yul\":4586:4664   */\n      tag_108\n      jump\t// in\n    tag_129:\n        /* \"#utility.yul\":4578:4664   */\n      swap1\n      pop\n        /* \"#utility.yul\":4674:4746   */\n      tag_130\n        /* \"#utility.yul\":4742:4744   */\n      0x40\n        /* \"#utility.yul\":4731:4740   */\n      dup4\n        /* \"#utility.yul\":4727:4745   */\n      add\n        /* \"#utility.yul\":4718:4724   */\n      dup5\n        /* \"#utility.yul\":4674:4746   */\n      tag_124\n      jump\t// in\n    tag_130:\n        /* \"#utility.yul\":4129:4753   */\n      swap5\n      swap4\n      pop\n      pop\n      pop\n      pop\n      jump\t// out\n        /* \"#utility.yul\":4759:5124   */\n    tag_18:\n        /* \"#utility.yul\":4898:4902   */\n      0x00\n        /* \"#utility.yul\":4936:4938   */\n      0x20\n        /* \"#utility.yul\":4925:4934   */\n      dup3\n        /* \"#utility.yul\":4921:4939   */\n      add\n        /* \"#utility.yul\":4913:4939   */\n      swap1\n      pop\n        /* \"#utility.yul\":4985:4994   */\n      dup2\n        /* \"#utility.yul\":4979:4983   */\n      dup2\n        /* \"#utility.yul\":4975:4995   */\n      sub\n        /* \"#utility.yul\":4971:4972   */\n      0x00\n        /* \"#utility.yul\":4960:4969   */\n      dup4\n        /* \"#utility.yul\":4956:4973   */\n      add\n        /* \"#utility.yul\":4949:4996   */\n      mstore\n        /* \"#utility.yul\":5013:5117   */\n      tag_132\n        /* \"#utility.yul\":5112:5116   */\n      dup2\n        /* \"#utility.yul\":5103:5109   */\n      dup5\n        /* \"#utility.yul\":5013:5117   */\n      tag_115\n      jump\t// in\n    tag_132:\n        /* \"#utility.yul\":5005:5117   */\n      swap1\n      pop\n        /* \"#utility.yul\":4759:5124   */\n      swap3\n      swap2\n      pop\n      pop\n      jump\t// out\n        /* \"#utility.yul\":5130:5352   */\n    tag_29:\n        /* \"#utility.yul\":5223:5227   */\n      0x00\n        /* \"#utility.yul\":5261:5263   */\n      0x20\n        /* \"#utility.yul\":5250:5259   */\n      dup3\n        /* \"#utility.yul\":5246:5264   */\n      add\n        /* \"#utility.yul\":5238:5264   */\n      swap1\n      pop\n        /* \"#utility.yul\":5274:5345   */\n      tag_134\n        /* \"#utility.yul\":5342:5343   */\n      0x00\n        /* \"#utility.yul\":5331:5340   */\n      dup4\n        /* \"#utility.yul\":5327:5344   */\n      add\n        /* \"#utility.yul\":5318:5324   */\n      dup5\n        /* \"#utility.yul\":5274:5345   */\n      tag_124\n      jump\t// in\n    tag_134:\n        /* \"#utility.yul\":5130:5352   */\n      swap3\n      swap2\n      pop\n      pop\n      jump\t// out\n        /* \"#utility.yul\":5358:5487   */\n    tag_66:\n        /* \"#utility.yul\":5392:5398   */\n      0x00\n        /* \"#utility.yul\":5419:5439   */\n      tag_136\n      tag_137\n      jump\t// in\n    tag_136:\n        /* \"#utility.yul\":5409:5439   */\n      swap1\n      pop\n        /* \"#utility.yul\":5448:5481   */\n      tag_138\n        /* \"#utility.yul\":5476:5480   */\n      dup3\n        /* \"#utility.yul\":5468:5474   */\n      dup3\n        /* \"#utility.yul\":5448:5481   */\n      tag_139\n      jump\t// in\n    tag_138:\n        /* \"#utility.yul\":5358:5487   */\n      swap2\n      swap1\n      pop\n      jump\t// out\n        /* \"#utility.yul\":5493:5568   */\n    tag_137:\n        /* \"#utility.yul\":5526:5532   */\n      0x00\n        /* \"#utility.yul\":5559:5561   */\n      0x40\n        /* \"#utility.yul\":5553:5562   */\n      mload\n        /* \"#utility.yul\":5543:5562   */\n      swap1\n      pop\n        /* \"#utility.yul\":5493:5568   */\n      swap1\n      jump\t// out\n        /* \"#utility.yul\":5574:5882   */\n    tag_65:\n        /* \"#utility.yul\":5636:5640   */\n      0x00\n        /* \"#utility.yul\":5726:5744   */\n      0xffffffffffffffff\n        /* \"#utility.yul\":5718:5724   */\n      dup3\n        /* \"#utility.yul\":5715:5745   */\n      gt\n        /* \"#utility.yul\":5712:5768   */\n      iszero\n      tag_142\n      jumpi\n        /* \"#utility.yul\":5748:5766   */\n      tag_143\n      tag_144\n      jump\t// in\n    tag_143:\n        /* \"#utility.yul\":5712:5768   */\n    tag_142:\n        /* \"#utility.yul\":5786:5815   */\n      tag_145\n        /* \"#utility.yul\":5808:5814   */\n      dup3\n        /* \"#utility.yul\":5786:5815   */\n      tag_107\n      jump\t// in\n    tag_145:\n        /* \"#utility.yul\":5778:5815   */\n      swap1\n      pop\n        /* \"#utility.yul\":5870:5874   */\n      0x20\n        /* \"#utility.yul\":5864:5868   */\n      dup2\n        /* \"#utility.yul\":5860:5875   */\n      add\n        /* \"#utility.yul\":5852:5875   */\n      swap1\n      pop\n        /* \"#utility.yul\":5574:5882   */\n      swap2\n      swap1\n      pop\n      jump\t// out\n        /* \"#utility.yul\":5888:5987   */\n    tag_101:\n        /* \"#utility.yul\":5940:5946   */\n      0x00\n        /* \"#utility.yul\":5974:5979   */\n      dup2\n        /* \"#utility.yul\":5968:5980   */\n      mload\n        /* \"#utility.yul\":5958:5980   */\n      swap1\n      pop\n        /* \"#utility.yul\":5888:5987   */\n      swap2\n      swap1\n      pop\n      jump\t// out\n        /* \"#utility.yul\":5993:6152   */\n    tag_103:\n        /* \"#utility.yul\":6067:6078   */\n      0x00\n        /* \"#utility.yul\":6101:6107   */\n      dup3\n        /* \"#utility.yul\":6096:6099   */\n      dup3\n        /* \"#utility.yul\":6089:6108   */\n      mstore\n        /* \"#utility.yul\":6141:6145   */\n      0x20\n        /* \"#utility.yul\":6136:6139   */\n      dup3\n        /* \"#utility.yul\":6132:6146   */\n      add\n        /* \"#utility.yul\":6117:6146   */\n      swap1\n      pop\n        /* \"#utility.yul\":5993:6152   */\n      swap3\n      swap2\n      pop\n      pop\n      jump\t// out\n        /* \"#utility.yul\":6158:6327   */\n    tag_112:\n        /* \"#utility.yul\":6242:6253   */\n      0x00\n        /* \"#utility.yul\":6276:6282   */\n      dup3\n        /* \"#utility.yul\":6271:6274   */\n      dup3\n        /* \"#utility.yul\":6264:6283   */\n      mstore\n        /* \"#utility.yul\":6316:6320   */\n      0x20\n        /* \"#utility.yul\":6311:6314   */\n      dup3\n        /* \"#utility.yul\":6307:6321   */\n      add\n        /* \"#utility.yul\":6292:6321   */\n      swap1\n      pop\n        /* \"#utility.yul\":6158:6327   */\n      swap3\n      swap2\n      pop\n      pop\n      jump\t// out\n        /* \"#utility.yul\":6333:6638   */\n    tag_56:\n        /* \"#utility.yul\":6373:6376   */\n      0x00\n        /* \"#utility.yul\":6392:6412   */\n      tag_150\n        /* \"#utility.yul\":6410:6411   */\n      dup3\n        /* \"#utility.yul\":6392:6412   */\n      tag_123\n      jump\t// in\n    tag_150:\n        /* \"#utility.yul\":6387:6412   */\n      swap2\n      pop\n        /* \"#utility.yul\":6426:6446   */\n      tag_151\n        /* \"#utility.yul\":6444:6445   */\n      dup4\n        /* \"#utility.yul\":6426:6446   */\n      tag_123\n      jump\t// in\n    tag_151:\n        /* \"#utility.yul\":6421:6446   */\n      swap3\n      pop\n        /* \"#utility.yul\":6580:6581   */\n      dup3\n        /* \"#utility.yul\":6512:6578   */\n      0xffffffffffffffffffffffffffffffffffffffffffffffffffffffffffffffff\n        /* \"#utility.yul\":6508:6582   */\n      sub\n        /* \"#utility.yul\":6505:6506   */\n      dup3\n        /* \"#utility.yul\":6502:6583   */\n      gt\n        /* \"#utility.yul\":6499:6606   */\n      iszero\n      tag_152\n      jumpi\n        /* \"#utility.yul\":6586:6604   */\n      tag_153\n      tag_154\n      jump\t// in\n    tag_153:\n        /* \"#utility.yul\":6499:6606   */\n    tag_152:\n        /* \"#utility.yul\":6630:6631   */\n      dup3\n        /* \"#utility.yul\":6627:6628   */\n      dup3\n        /* \"#utility.yul\":6623:6632   */\n      add\n        /* \"#utility.yul\":6616:6632   */\n      swap1\n      pop\n        /* \"#utility.yul\":6333:6638   */\n      swap3\n      swap2\n      pop\n      pop\n      jump\t// out\n        /* \"#utility.yul\":6644:6835   */\n    tag_59:\n        /* \"#utility.yul\":6684:6688   */\n      0x00\n        /* \"#utility.yul\":6704:6724   */\n      tag_156\n        /* \"#utility.yul\":6722:6723   */\n      dup3\n        /* \"#utility.yul\":6704:6724   */\n      tag_123\n      jump\t// in\n    tag_156:\n        /* \"#utility.yul\":6699:6724   */\n      swap2\n      pop\n        /* \"#utility.yul\":6738:6758   */\n      tag_157\n        /* \"#utility.yul\":6756:6757   */\n      dup4\n        /* \"#utility.yul\":6738:6758   */\n      tag_123\n      jump\t// in\n    tag_157:\n        /* \"#utility.yul\":6733:6758   */\n      swap3\n      pop\n        /* \"#utility.yul\":6777:6778   */\n      dup3\n        /* \"#utility.yul\":6774:6775   */\n      dup3\n        /* \"#utility.yul\":6771:6779   */\n      lt\n        /* \"#utility.yul\":6768:6802   */\n      iszero\n      tag_158\n      jumpi\n        /* \"#utility.yul\":6782:6800   */\n      tag_159\n      tag_154\n      jump\t// in\n    tag_159:\n        /* \"#utility.yul\":6768:6802   */\n    tag_158:\n        /* \"#utility.yul\":6827:6828   */\n      dup3\n        /* \"#utility.yul\":6824:6825   */\n      dup3\n        /* \"#utility.yul\":6820:6829   */\n      sub\n        /* \"#utility.yul\":6812:6829   */\n      swap1\n      pop\n        /* \"#utility.yul\":6644:6835   */\n      swap3\n      swap2\n      pop\n      pop\n      jump\t// out\n        /* \"#utility.yul\":6841:6918   */\n    tag_123:\n        /* \"#utility.yul\":6878:6885   */\n      0x00\n        /* \"#utility.yul\":6907:6912   */\n      dup2\n        /* \"#utility.yul\":6896:6912   */\n      swap1\n      pop\n        /* \"#utility.yul\":6841:6918   */\n      swap2\n      swap1\n      pop\n      jump\t// out\n        /* \"#utility.yul\":6924:7078   */\n    tag_71:\n        /* \"#utility.yul\":7008:7014   */\n      dup3\n        /* \"#utility.yul\":7003:7006   */\n      dup2\n        /* \"#utility.yul\":6998:7001   */\n      dup4\n        /* \"#utility.yul\":6985:7015   */\n      calldatacopy\n        /* \"#utility.yul\":7070:7071   */\n      0x00\n        /* \"#utility.yul\":7061:7067   */\n      dup4\n        /* \"#utility.yul\":7056:7059   */\n      dup4\n        /* \"#utility.yul\":7052:7068   */\n      add\n        /* \"#utility.yul\":7045:7072   */\n      mstore\n        /* \"#utility.yul\":6924:7078   */\n      pop\n      pop\n      pop\n      jump\t// out\n        /* \"#utility.yul\":7084:7391   */\n    tag_105:\n        /* \"#utility.yul\":7152:7153   */\n      0x00\n        /* \"#utility.yul\":7162:7275   */\n    tag_163:\n        /* \"#utility.yul\":7176:7182   */\n      dup4\n        /* \"#utility.yul\":7173:7174   */\n      dup2\n        /* \"#utility.yul\":7170:7183   */\n      lt\n        /* \"#utility.yul\":7162:7275   */\n      iszero\n      tag_165\n      jumpi\n        /* \"#utility.yul\":7261:7262   */\n      dup1\n        /* \"#utility.yul\":7256:7259   */\n      dup3\n        /* \"#utility.yul\":7252:7263   */\n      add\n        /* \"#utility.yul\":7246:7264   */\n      mload\n        /* \"#utility.yul\":7242:7243   */\n      dup2\n        /* \"#utility.yul\":7237:7240   */\n      dup5\n        /* \"#utility.yul\":7233:7244   */\n      add\n        /* \"#utility.yul\":7226:7265   */\n      mstore\n        /* \"#utility.yul\":7198:7200   */\n      0x20\n        /* \"#utility.yul\":7195:7196   */\n      dup2\n        /* \"#utility.yul\":7191:7201   */\n      add\n        /* \"#utility.yul\":7186:7201   */\n      swap1\n      pop\n        /* \"#utility.yul\":7162:7275   */\n      jump(tag_163)\n    tag_165:\n        /* \"#utility.yul\":7293:7299   */\n      dup4\n        /* \"#utility.yul\":7290:7291   */\n      dup2\n        /* \"#utility.yul\":7287:7300   */\n      gt\n        /* \"#utility.yul\":7284:7385   */\n      iszero\n      tag_166\n      jumpi\n        /* \"#utility.yul\":7373:7374   */\n      0x00\n        /* \"#utility.yul\":7364:7370   */\n      dup5\n        /* \"#utility.yul\":7359:7362   */\n      dup5\n        /* \"#utility.yul\":7355:7371   */\n      add\n        /* \"#utility.yul\":7348:7375   */\n      mstore\n        /* \"#utility.yul\":7284:7385   */\n    tag_166:\n        /* \"#utility.yul\":7133:7391   */\n      pop\n        /* \"#utility.yul\":7084:7391   */\n      pop\n      pop\n      pop\n      jump\t// out\n        /* \"#utility.yul\":7397:7717   */\n    tag_31:\n        /* \"#utility.yul\":7441:7447   */\n      0x00\n        /* \"#utility.yul\":7478:7479   */\n      0x02\n        /* \"#utility.yul\":7472:7476   */\n      dup3\n        /* \"#utility.yul\":7468:7480   */\n      div\n        /* \"#utility.yul\":7458:7480   */\n      swap1\n      pop\n        /* \"#utility.yul\":7525:7526   */\n      0x01\n        /* \"#utility.yul\":7519:7523   */\n      dup3\n        /* \"#utility.yul\":7515:7527   */\n      and\n        /* \"#utility.yul\":7546:7564   */\n      dup1\n        /* \"#utility.yul\":7536:7617   */\n      tag_168\n      jumpi\n        /* \"#utility.yul\":7602:7606   */\n      0x7f\n        /* \"#utility.yul\":7594:7600   */\n      dup3\n        /* \"#utility.yul\":7590:7607   */\n      and\n        /* \"#utility.yul\":7580:7607   */\n      swap2\n      pop\n        /* \"#utility.yul\":7536:7617   */\n    tag_168:\n        /* \"#utility.yul\":7664:7666   */\n      0x20\n        /* \"#utility.yul\":7656:7662   */\n      dup3\n        /* \"#utility.yul\":7653:7667   */\n      lt\n        /* \"#utility.yul\":7633:7651   */\n      dup2\n        /* \"#utility.yul\":7630:7668   */\n      eq\n        /* \"#utility.yul\":7627:7711   */\n      iszero\n      tag_169\n      jumpi\n        /* \"#utility.yul\":7683:7701   */\n      tag_170\n      tag_171\n      jump\t// in\n    tag_170:\n        /* \"#utility.yul\":7627:7711   */\n    tag_169:\n        /* \"#utility.yul\":7448:7717   */\n      pop\n        /* \"#utility.yul\":7397:7717   */\n      swap2\n      swap1\n      pop\n      jump\t// out\n        /* \"#utility.yul\":7723:8004   */\n    tag_139:\n        /* \"#utility.yul\":7806:7833   */\n      tag_173\n        /* \"#utility.yul\":7828:7832   */\n      dup3\n        /* \"#utility.yul\":7806:7833   */\n      tag_107\n      jump\t// in\n    tag_173:\n        /* \"#utility.yul\":7798:7804   */\n      dup2\n        /* \"#utility.yul\":7794:7834   */\n      add\n        /* \"#utility.yul\":7936:7942   */\n      dup2\n        /* \"#utility.yul\":7924:7934   */\n      dup2\n        /* \"#utility.yul\":7921:7943   */\n      lt\n        /* \"#utility.yul\":7900:7918   */\n      0xffffffffffffffff\n        /* \"#utility.yul\":7888:7898   */\n      dup3\n        /* \"#utility.yul\":7885:7919   */\n      gt\n        /* \"#utility.yul\":7882:7944   */\n      or\n        /* \"#utility.yul\":7879:7967   */\n      iszero\n      tag_174\n      jumpi\n        /* \"#utility.yul\":7947:7965   */\n      tag_175\n      tag_144\n      jump\t// in\n    tag_175:\n        /* \"#utility.yul\":7879:7967   */\n    tag_174:\n        /* \"#utility.yul\":7987:7997   */\n      dup1\n        /* \"#utility.yul\":7983:7985   */\n      0x40\n        /* \"#utility.yul\":7976:7998   */\n      mstore\n        /* \"#utility.yul\":7766:8004   */\n      pop\n        /* \"#utility.yul\":7723:8004   */\n      pop\n      pop\n      jump\t// out\n        /* \"#utility.yul\":8010:8190   */\n    tag_154:\n        /* \"#utility.yul\":8058:8135   */\n      0x4e487b7100000000000000000000000000000000000000000000000000000000\n        /* \"#utility.yul\":8055:8056   */\n      0x00\n        /* \"#utility.yul\":8048:8136   */\n      mstore\n        /* \"#utility.yul\":8155:8159   */\n      0x11\n        /* \"#utility.yul\":8152:8153   */\n      0x04\n        /* \"#utility.yul\":8145:8160   */\n      mstore\n        /* \"#utility.yul\":8179:8183   */\n      0x24\n        /* \"#utility.yul\":8176:8177   */\n      0x00\n        /* \"#utility.yul\":8169:8184   */\n      revert\n        /* \"#utility.yul\":8196:8376   */\n    tag_171:\n        /* \"#utility.yul\":8244:8321   */\n      0x4e487b7100000000000000000000000000000000000000000000000000000000\n        /* \"#utility.yul\":8241:8242   */\n      0x00\n        /* \"#utility.yul\":8234:8322   */\n      mstore\n        /* \"#utility.yul\":8341:8345   */\n      0x22\n        /* \"#utility.yul\":8338:8339   */\n      0x04\n        /* \"#utility.yul\":8331:8346   */\n      mstore\n        /* \"#utility.yul\":8365:8369   */\n      0x24\n        /* \"#utility.yul\":8362:8363   */\n      0x00\n        /* \"#utility.yul\":8355:8370   */\n      revert\n        /* \"#utility.yul\":8382:8562   */\n    tag_144:\n        /* \"#utility.yul\":8430:8507   */\n      0x4e487b7100000000000000000000000000000000000000000000000000000000\n        /* \"#utility.yul\":8427:8428   */\n      0x00\n        /* \"#utility.yul\":8420:8508   */\n      mstore\n        /* \"#utility.yul\":8527:8531   */\n      0x41\n        /* \"#utility.yul\":8524:8525   */\n      0x04\n        /* \"#utility.yul\":8517:8532   */\n      mstore\n        /* \"#utility.yul\":8551:8555   */\n      0x24\n        /* \"#utility.yul\":8548:8549   */\n      0x00\n        /* \"#utility.yul\":8541:8556   */\n      revert\n        /* \"#utility.yul\":8568:8685   */\n    tag_76:\n        /* \"#utility.yul\":8677:8678   */\n      0x00\n        /* \"#utility.yul\":8674:8675   */\n      dup1\n        /* \"#utility.yul\":8667:8679   */\n      revert\n        /* \"#utility.yul\":8691:8808   */\n    tag_69:\n        /* \"#utility.yul\":8800:8801   */\n      0x00\n        /* \"#utility.yul\":8797:8798   */\n      dup1\n        /* \"#utility.yul\":8790:8802   */\n      revert\n        /* \"#utility.yul\":8814:8931   */\n    tag_88:\n        /* \"#utility.yul\":8923:8924   */\n      0x00\n        /* \"#utility.yul\":8920:8921   */\n      dup1\n        /* \"#utility.yul\":8913:8925   */\n      revert\n        /* \"#utility.yul\":8937:9054   */\n    tag_85:\n        /* \"#utility.yul\":9046:9047   */\n      0x00\n        /* \"#utility.yul\":9043:9044   */\n      dup1\n        /* \"#utility.yul\":9036:9048   */\n      revert\n        /* \"#utility.yul\":9060:9162   */\n    tag_107:\n        /* \"#utility.yul\":9101:9107   */\n      0x00\n        /* \"#utility.yul\":9152:9154   */\n      0x1f\n        /* \"#utility.yul\":9148:9155   */\n      not\n        /* \"#utility.yul\":9143:9145   */\n      0x1f\n        /* \"#utility.yul\":9136:9141   */\n      dup4\n        /* \"#utility.yul\":9132:9146   */\n      add\n        /* \"#utility.yul\":9128:9156   */\n      and\n        /* \"#utility.yul\":9118:9156   */\n      swap1\n      pop\n        /* \"#utility.yul\":9060:9162   */\n      swap2\n      swap1\n      pop\n      jump\t// out\n        /* \"#utility.yul\":9168:9290   */\n    tag_81:\n        /* \"#utility.yul\":9241:9265   */\n      tag_185\n        /* \"#utility.yul\":9259:9264   */\n      dup2\n        /* \"#utility.yul\":9241:9265   */\n      tag_123\n      jump\t// in\n    tag_185:\n        /* \"#utility.yul\":9234:9239   */\n      dup2\n        /* \"#utility.yul\":9231:9266   */\n      eq\n        /* \"#utility.yul\":9221:9284   */\n      tag_186\n      jumpi\n        /* \"#utility.yul\":9280:9281   */\n      0x00\n        /* \"#utility.yul\":9277:9278   */\n      dup1\n        /* \"#utility.yul\":9270:9282   */\n      revert\n        /* \"#utility.yul\":9221:9284   */\n    tag_186:\n        /* \"#utility.yul\":9168:9290   */\n      pop\n      jump\t// out\n\n    auxdata: 0xa2646970667358221220fb1cad4a078ee482d3a4e3f45a26cfc488c0bd4b1973b9a3741118c0d724b87564736f6c63430008070033\n}\n",
				"bytecode": {
					"linkReferences": {},
					"object": "60806040526000805534801561001457600080fd5b506109a5806100246000396000f3fe608060405234801561001057600080fd5b50600436106100575760003560e01c806306ead22e1461005c578063642f91631461008e5780639cc8f139146100be578063d2034381146100da578063e581f9ee146100f6575b600080fd5b61007660048036038101906100719190610554565b610114565b60405161008593929190610668565b60405180910390f35b6100a860048036038101906100a39190610554565b61024e565b6040516100b591906106ad565b60405180910390f35b6100d860048036038101906100d391906104c9565b6103a9565b005b6100f460048036038101906100ef91906104c9565b6103e3565b005b6100fe61041d565b60405161010b91906106cf565b60405180910390f35b600160205280600052604060002060009150905080600001805461013790610843565b80601f016020809104026020016040519081016040528092919081815260200182805461016390610843565b80156101b05780601f10610185576101008083540402835291602001916101b0565b820191906000526020600020905b81548152906001019060200180831161019357829003601f168201915b5050505050908060010180546101c590610843565b80601f01602080910402602001604051908101604052809291908181526020018280546101f190610843565b801561023e5780601f106102135761010080835404028352916020019161023e565b820191906000526020600020905b81548152906001019060200180831161022157829003601f168201915b5050505050908060020154905083565b610256610423565b6001600083815260200190815260200160002060405180606001604052908160008201805461028490610843565b80601f01602080910402602001604051908101604052809291908181526020018280546102b090610843565b80156102fd5780601f106102d2576101008083540402835291602001916102fd565b820191906000526020600020905b8154815290600101906020018083116102e057829003601f168201915b5050505050815260200160018201805461031690610843565b80601f016020809104026020016040519081016040528092919081815260200182805461034290610843565b801561038f5780601f106103645761010080835404028352916020019161038f565b820191906000526020600020905b81548152906001019060200180831161037257829003601f168201915b505050505081526020016002820154815250509050919050565b6040518060600160405280848152602001838152602001828152505060016000808282546103d7919061076d565b92505081905550505050565b60405180606001604052808481526020018381526020018281525050600160008082825461041191906107c3565b92505081905550505050565b60005481565b60405180606001604052806060815260200160608152602001600081525090565b60006104576104528461070f565b6106ea565b90508281526020810184848401111561047357610472610938565b5b61047e848285610801565b509392505050565b600082601f83011261049b5761049a610933565b5b81356104ab848260208601610444565b91505092915050565b6000813590506104c381610958565b92915050565b6000806000606084860312156104e2576104e1610942565b5b600084013567ffffffffffffffff811115610500576104ff61093d565b5b61050c86828701610486565b935050602084013567ffffffffffffffff81111561052d5761052c61093d565b5b61053986828701610486565b925050604061054a868287016104b4565b9150509250925092565b60006020828403121561056a57610569610942565b5b6000610578848285016104b4565b91505092915050565b600061058c82610740565b610596818561074b565b93506105a6818560208601610810565b6105af81610947565b840191505092915050565b60006105c582610740565b6105cf818561075c565b93506105df818560208601610810565b6105e881610947565b840191505092915050565b600060608301600083015184820360008601526106108282610581565b9150506020830151848203602086015261062a8282610581565b915050604083015161063f604086018261064a565b508091505092915050565b610653816107f7565b82525050565b610662816107f7565b82525050565b6000606082019050818103600083015261068281866105ba565b9050818103602083015261069681856105ba565b90506106a56040830184610659565b949350505050565b600060208201905081810360008301526106c781846105f3565b905092915050565b60006020820190506106e46000830184610659565b92915050565b60006106f4610705565b90506107008282610875565b919050565b6000604051905090565b600067ffffffffffffffff82111561072a57610729610904565b5b61073382610947565b9050602081019050919050565b600081519050919050565b600082825260208201905092915050565b600082825260208201905092915050565b6000610778826107f7565b9150610783836107f7565b9250827fffffffffffffffffffffffffffffffffffffffffffffffffffffffffffffffff038211156107b8576107b76108a6565b5b828201905092915050565b60006107ce826107f7565b91506107d9836107f7565b9250828210156107ec576107eb6108a6565b5b828203905092915050565b6000819050919050565b82818337600083830152505050565b60005b8381101561082e578082015181840152602081019050610813565b8381111561083d576000848401525b50505050565b6000600282049050600182168061085b57607f821691505b6020821081141561086f5761086e6108d5565b5b50919050565b61087e82610947565b810181811067ffffffffffffffff8211171561089d5761089c610904565b5b80604052505050565b7f4e487b7100000000000000000000000000000000000000000000000000000000600052601160045260246000fd5b7f4e487b7100000000000000000000000000000000000000000000000000000000600052602260045260246000fd5b7f4e487b7100000000000000000000000000000000000000000000000000000000600052604160045260246000fd5b600080fd5b600080fd5b600080fd5b600080fd5b6000601f19601f8301169050919050565b610961816107f7565b811461096c57600080fd5b5056fea2646970667358221220fb1cad4a078ee482d3a4e3f45a26cfc488c0bd4b1973b9a3741118c0d724b87564736f6c63430008070033",
					"opcodes": "PUSH1 0x80 PUSH1 0x40 MSTORE PUSH1 0x0 DUP1 SSTORE CALLVALUE DUP1 ISZERO PUSH2 0x14 JUMPI PUSH1 0x0 DUP1 REVERT JUMPDEST POP PUSH2 0x9A5 DUP1 PUSH2 0x24 PUSH1 0x0 CODECOPY PUSH1 0x0 RETURN INVALID PUSH1 0x80 PUSH1 0x40 MSTORE CALLVALUE DUP1 ISZERO PUSH2 0x10 JUMPI PUSH1 0x0 DUP1 REVERT JUMPDEST POP PUSH1 0x4 CALLDATASIZE LT PUSH2 0x57 JUMPI PUSH1 0x0 CALLDATALOAD PUSH1 0xE0 SHR DUP1 PUSH4 0x6EAD22E EQ PUSH2 0x5C JUMPI DUP1 PUSH4 0x642F9163 EQ PUSH2 0x8E JUMPI DUP1 PUSH4 0x9CC8F139 EQ PUSH2 0xBE JUMPI DUP1 PUSH4 0xD2034381 EQ PUSH2 0xDA JUMPI DUP1 PUSH4 0xE581F9EE EQ PUSH2 0xF6 JUMPI JUMPDEST PUSH1 0x0 DUP1 REVERT JUMPDEST PUSH2 0x76 PUSH1 0x4 DUP1 CALLDATASIZE SUB DUP2 ADD SWAP1 PUSH2 0x71 SWAP2 SWAP1 PUSH2 0x554 JUMP JUMPDEST PUSH2 0x114 JUMP JUMPDEST PUSH1 0x40 MLOAD PUSH2 0x85 SWAP4 SWAP3 SWAP2 SWAP1 PUSH2 0x668 JUMP JUMPDEST PUSH1 0x40 MLOAD DUP1 SWAP2 SUB SWAP1 RETURN JUMPDEST PUSH2 0xA8 PUSH1 0x4 DUP1 CALLDATASIZE SUB DUP2 ADD SWAP1 PUSH2 0xA3 SWAP2 SWAP1 PUSH2 0x554 JUMP JUMPDEST PUSH2 0x24E JUMP JUMPDEST PUSH1 0x40 MLOAD PUSH2 0xB5 SWAP2 SWAP1 PUSH2 0x6AD JUMP JUMPDEST PUSH1 0x40 MLOAD DUP1 SWAP2 SUB SWAP1 RETURN JUMPDEST PUSH2 0xD8 PUSH1 0x4 DUP1 CALLDATASIZE SUB DUP2 ADD SWAP1 PUSH2 0xD3 SWAP2 SWAP1 PUSH2 0x4C9 JUMP JUMPDEST PUSH2 0x3A9 JUMP JUMPDEST STOP JUMPDEST PUSH2 0xF4 PUSH1 0x4 DUP1 CALLDATASIZE SUB DUP2 ADD SWAP1 PUSH2 0xEF SWAP2 SWAP1 PUSH2 0x4C9 JUMP JUMPDEST PUSH2 0x3E3 JUMP JUMPDEST STOP JUMPDEST PUSH2 0xFE PUSH2 0x41D JUMP JUMPDEST PUSH1 0x40 MLOAD PUSH2 0x10B SWAP2 SWAP1 PUSH2 0x6CF JUMP JUMPDEST PUSH1 0x40 MLOAD DUP1 SWAP2 SUB SWAP1 RETURN JUMPDEST PUSH1 0x1 PUSH1 0x20 MSTORE DUP1 PUSH1 0x0 MSTORE PUSH1 0x40 PUSH1 0x0 KECCAK256 PUSH1 0x0 SWAP2 POP SWAP1 POP DUP1 PUSH1 0x0 ADD DUP1 SLOAD PUSH2 0x137 SWAP1 PUSH2 0x843 JUMP JUMPDEST DUP1 PUSH1 0x1F ADD PUSH1 0x20 DUP1 SWAP2 DIV MUL PUSH1 0x20 ADD PUSH1 0x40 MLOAD SWAP1 DUP2 ADD PUSH1 0x40 MSTORE DUP1 SWAP3 SWAP2 SWAP1 DUP2 DUP2 MSTORE PUSH1 0x20 ADD DUP3 DUP1 SLOAD PUSH2 0x163 SWAP1 PUSH2 0x843 JUMP JUMPDEST DUP1 ISZERO PUSH2 0x1B0 JUMPI DUP1 PUSH1 0x1F LT PUSH2 0x185 JUMPI PUSH2 0x100 DUP1 DUP4 SLOAD DIV MUL DUP4 MSTORE SWAP2 PUSH1 0x20 ADD SWAP2 PUSH2 0x1B0 JUMP JUMPDEST DUP3 ADD SWAP2 SWAP1 PUSH1 0x0 MSTORE PUSH1 0x20 PUSH1 0x0 KECCAK256 SWAP1 JUMPDEST DUP2 SLOAD DUP2 MSTORE SWAP1 PUSH1 0x1 ADD SWAP1 PUSH1 0x20 ADD DUP1 DUP4 GT PUSH2 0x193 JUMPI DUP3 SWAP1 SUB PUSH1 0x1F AND DUP3 ADD SWAP2 JUMPDEST POP POP POP POP POP SWAP1 DUP1 PUSH1 0x1 ADD DUP1 SLOAD PUSH2 0x1C5 SWAP1 PUSH2 0x843 JUMP JUMPDEST DUP1 PUSH1 0x1F ADD PUSH1 0x20 DUP1 SWAP2 DIV MUL PUSH1 0x20 ADD PUSH1 0x40 MLOAD SWAP1 DUP2 ADD PUSH1 0x40 MSTORE DUP1 SWAP3 SWAP2 SWAP1 DUP2 DUP2 MSTORE PUSH1 0x20 ADD DUP3 DUP1 SLOAD PUSH2 0x1F1 SWAP1 PUSH2 0x843 JUMP JUMPDEST DUP1 ISZERO PUSH2 0x23E JUMPI DUP1 PUSH1 0x1F LT PUSH2 0x213 JUMPI PUSH2 0x100 DUP1 DUP4 SLOAD DIV MUL DUP4 MSTORE SWAP2 PUSH1 0x20 ADD SWAP2 PUSH2 0x23E JUMP JUMPDEST DUP3 ADD SWAP2 SWAP1 PUSH1 0x0 MSTORE PUSH1 0x20 PUSH1 0x0 KECCAK256 SWAP1 JUMPDEST DUP2 SLOAD DUP2 MSTORE SWAP1 PUSH1 0x1 ADD SWAP1 PUSH1 0x20 ADD DUP1 DUP4 GT PUSH2 0x221 JUMPI DUP3 SWAP1 SUB PUSH1 0x1F AND DUP3 ADD SWAP2 JUMPDEST POP POP POP POP POP SWAP1 DUP1 PUSH1 0x2 ADD SLOAD SWAP1 POP DUP4 JUMP JUMPDEST PUSH2 0x256 PUSH2 0x423 JUMP JUMPDEST PUSH1 0x1 PUSH1 0x0 DUP4 DUP2 MSTORE PUSH1 0x20 ADD SWAP1 DUP2 MSTORE PUSH1 0x20 ADD PUSH1 0x0 KECCAK256 PUSH1 0x40 MLOAD DUP1 PUSH1 0x60 ADD PUSH1 0x40 MSTORE SWAP1 DUP2 PUSH1 0x0 DUP3 ADD DUP1 SLOAD PUSH2 0x284 SWAP1 PUSH2 0x843 JUMP JUMPDEST DUP1 PUSH1 0x1F ADD PUSH1 0x20 DUP1 SWAP2 DIV MUL PUSH1 0x20 ADD PUSH1 0x40 MLOAD SWAP1 DUP2 ADD PUSH1 0x40 MSTORE DUP1 SWAP3 SWAP2 SWAP1 DUP2 DUP2 MSTORE PUSH1 0x20 ADD DUP3 DUP1 SLOAD PUSH2 0x2B0 SWAP1 PUSH2 0x843 JUMP JUMPDEST DUP1 ISZERO PUSH2 0x2FD JUMPI DUP1 PUSH1 0x1F LT PUSH2 0x2D2 JUMPI PUSH2 0x100 DUP1 DUP4 SLOAD DIV MUL DUP4 MSTORE SWAP2 PUSH1 0x20 ADD SWAP2 PUSH2 0x2FD JUMP JUMPDEST DUP3 ADD SWAP2 SWAP1 PUSH1 0x0 MSTORE PUSH1 0x20 PUSH1 0x0 KECCAK256 SWAP1 JUMPDEST DUP2 SLOAD DUP2 MSTORE SWAP1 PUSH1 0x1 ADD SWAP1 PUSH1 0x20 ADD DUP1 DUP4 GT PUSH2 0x2E0 JUMPI DUP3 SWAP1 SUB PUSH1 0x1F AND DUP3 ADD SWAP2 JUMPDEST POP POP POP POP POP DUP2 MSTORE PUSH1 0x20 ADD PUSH1 0x1 DUP3 ADD DUP1 SLOAD PUSH2 0x316 SWAP1 PUSH2 0x843 JUMP JUMPDEST DUP1 PUSH1 0x1F ADD PUSH1 0x20 DUP1 SWAP2 DIV MUL PUSH1 0x20 ADD PUSH1 0x40 MLOAD SWAP1 DUP2 ADD PUSH1 0x40 MSTORE DUP1 SWAP3 SWAP2 SWAP1 DUP2 DUP2 MSTORE PUSH1 0x20 ADD DUP3 DUP1 SLOAD PUSH2 0x342 SWAP1 PUSH2 0x843 JUMP JUMPDEST DUP1 ISZERO PUSH2 0x38F JUMPI DUP1 PUSH1 0x1F LT PUSH2 0x364 JUMPI PUSH2 0x100 DUP1 DUP4 SLOAD DIV MUL DUP4 MSTORE SWAP2 PUSH1 0x20 ADD SWAP2 PUSH2 0x38F JUMP JUMPDEST DUP3 ADD SWAP2 SWAP1 PUSH1 0x0 MSTORE PUSH1 0x20 PUSH1 0x0 KECCAK256 SWAP1 JUMPDEST DUP2 SLOAD DUP2 MSTORE SWAP1 PUSH1 0x1 ADD SWAP1 PUSH1 0x20 ADD DUP1 DUP4 GT PUSH2 0x372 JUMPI DUP3 SWAP1 SUB PUSH1 0x1F AND DUP3 ADD SWAP2 JUMPDEST POP POP POP POP POP DUP2 MSTORE PUSH1 0x20 ADD PUSH1 0x2 DUP3 ADD SLOAD DUP2 MSTORE POP POP SWAP1 POP SWAP2 SWAP1 POP JUMP JUMPDEST PUSH1 0x40 MLOAD DUP1 PUSH1 0x60 ADD PUSH1 0x40 MSTORE DUP1 DUP5 DUP2 MSTORE PUSH1 0x20 ADD DUP4 DUP2 MSTORE PUSH1 0x20 ADD DUP3 DUP2 MSTORE POP POP PUSH1 0x1 PUSH1 0x0 DUP1 DUP3 DUP3 SLOAD PUSH2 0x3D7 SWAP2 SWAP1 PUSH2 0x76D JUMP JUMPDEST SWAP3 POP POP DUP2 SWAP1 SSTORE POP POP POP POP JUMP JUMPDEST PUSH1 0x40 MLOAD DUP1 PUSH1 0x60 ADD PUSH1 0x40 MSTORE DUP1 DUP5 DUP2 MSTORE PUSH1 0x20 ADD DUP4 DUP2 MSTORE PUSH1 0x20 ADD DUP3 DUP2 MSTORE POP POP PUSH1 0x1 PUSH1 0x0 DUP1 DUP3 DUP3 SLOAD PUSH2 0x411 SWAP2 SWAP1 PUSH2 0x7C3 JUMP JUMPDEST SWAP3 POP POP DUP2 SWAP1 SSTORE POP POP POP POP JUMP JUMPDEST PUSH1 0x0 SLOAD DUP2 JUMP JUMPDEST PUSH1 0x40 MLOAD DUP1 PUSH1 0x60 ADD PUSH1 0x40 MSTORE DUP1 PUSH1 0x60 DUP2 MSTORE PUSH1 0x20 ADD PUSH1 0x60 DUP2 MSTORE PUSH1 0x20 ADD PUSH1 0x0 DUP2 MSTORE POP SWAP1 JUMP JUMPDEST PUSH1 0x0 PUSH2 0x457 PUSH2 0x452 DUP5 PUSH2 0x70F JUMP JUMPDEST PUSH2 0x6EA JUMP JUMPDEST SWAP1 POP DUP3 DUP2 MSTORE PUSH1 0x20 DUP2 ADD DUP5 DUP5 DUP5 ADD GT ISZERO PUSH2 0x473 JUMPI PUSH2 0x472 PUSH2 0x938 JUMP JUMPDEST JUMPDEST PUSH2 0x47E DUP5 DUP3 DUP6 PUSH2 0x801 JUMP JUMPDEST POP SWAP4 SWAP3 POP POP POP JUMP JUMPDEST PUSH1 0x0 DUP3 PUSH1 0x1F DUP4 ADD SLT PUSH2 0x49B JUMPI PUSH2 0x49A PUSH2 0x933 JUMP JUMPDEST JUMPDEST DUP2 CALLDATALOAD PUSH2 0x4AB DUP5 DUP3 PUSH1 0x20 DUP7 ADD PUSH2 0x444 JUMP JUMPDEST SWAP2 POP POP SWAP3 SWAP2 POP POP JUMP JUMPDEST PUSH1 0x0 DUP2 CALLDATALOAD SWAP1 POP PUSH2 0x4C3 DUP2 PUSH2 0x958 JUMP JUMPDEST SWAP3 SWAP2 POP POP JUMP JUMPDEST PUSH1 0x0 DUP1 PUSH1 0x0 PUSH1 0x60 DUP5 DUP7 SUB SLT ISZERO PUSH2 0x4E2 JUMPI PUSH2 0x4E1 PUSH2 0x942 JUMP JUMPDEST JUMPDEST PUSH1 0x0 DUP5 ADD CALLDATALOAD PUSH8 0xFFFFFFFFFFFFFFFF DUP2 GT ISZERO PUSH2 0x500 JUMPI PUSH2 0x4FF PUSH2 0x93D JUMP JUMPDEST JUMPDEST PUSH2 0x50C DUP7 DUP3 DUP8 ADD PUSH2 0x486 JUMP JUMPDEST SWAP4 POP POP PUSH1 0x20 DUP5 ADD CALLDATALOAD PUSH8 0xFFFFFFFFFFFFFFFF DUP2 GT ISZERO PUSH2 0x52D JUMPI PUSH2 0x52C PUSH2 0x93D JUMP JUMPDEST JUMPDEST PUSH2 0x539 DUP7 DUP3 DUP8 ADD PUSH2 0x486 JUMP JUMPDEST SWAP3 POP POP PUSH1 0x40 PUSH2 0x54A DUP7 DUP3 DUP8 ADD PUSH2 0x4B4 JUMP JUMPDEST SWAP2 POP POP SWAP3 POP SWAP3 POP SWAP3 JUMP JUMPDEST PUSH1 0x0 PUSH1 0x20 DUP3 DUP5 SUB SLT ISZERO PUSH2 0x56A JUMPI PUSH2 0x569 PUSH2 0x942 JUMP JUMPDEST JUMPDEST PUSH1 0x0 PUSH2 0x578 DUP5 DUP3 DUP6 ADD PUSH2 0x4B4 JUMP JUMPDEST SWAP2 POP POP SWAP3 SWAP2 POP POP JUMP JUMPDEST PUSH1 0x0 PUSH2 0x58C DUP3 PUSH2 0x740 JUMP JUMPDEST PUSH2 0x596 DUP2 DUP6 PUSH2 0x74B JUMP JUMPDEST SWAP4 POP PUSH2 0x5A6 DUP2 DUP6 PUSH1 0x20 DUP7 ADD PUSH2 0x810 JUMP JUMPDEST PUSH2 0x5AF DUP2 PUSH2 0x947 JUMP JUMPDEST DUP5 ADD SWAP2 POP POP SWAP3 SWAP2 POP POP JUMP JUMPDEST PUSH1 0x0 PUSH2 0x5C5 DUP3 PUSH2 0x740 JUMP JUMPDEST PUSH2 0x5CF DUP2 DUP6 PUSH2 0x75C JUMP JUMPDEST SWAP4 POP PUSH2 0x5DF DUP2 DUP6 PUSH1 0x20 DUP7 ADD PUSH2 0x810 JUMP JUMPDEST PUSH2 0x5E8 DUP2 PUSH2 0x947 JUMP JUMPDEST DUP5 ADD SWAP2 POP POP SWAP3 SWAP2 POP POP JUMP JUMPDEST PUSH1 0x0 PUSH1 0x60 DUP4 ADD PUSH1 0x0 DUP4 ADD MLOAD DUP5 DUP3 SUB PUSH1 0x0 DUP7 ADD MSTORE PUSH2 0x610 DUP3 DUP3 PUSH2 0x581 JUMP JUMPDEST SWAP2 POP POP PUSH1 0x20 DUP4 ADD MLOAD DUP5 DUP3 SUB PUSH1 0x20 DUP7 ADD MSTORE PUSH2 0x62A DUP3 DUP3 PUSH2 0x581 JUMP JUMPDEST SWAP2 POP POP PUSH1 0x40 DUP4 ADD MLOAD PUSH2 0x63F PUSH1 0x40 DUP7 ADD DUP3 PUSH2 0x64A JUMP JUMPDEST POP DUP1 SWAP2 POP POP SWAP3 SWAP2 POP POP JUMP JUMPDEST PUSH2 0x653 DUP2 PUSH2 0x7F7 JUMP JUMPDEST DUP3 MSTORE POP POP JUMP JUMPDEST PUSH2 0x662 DUP2 PUSH2 0x7F7 JUMP JUMPDEST DUP3 MSTORE POP POP JUMP JUMPDEST PUSH1 0x0 PUSH1 0x60 DUP3 ADD SWAP1 POP DUP2 DUP2 SUB PUSH1 0x0 DUP4 ADD MSTORE PUSH2 0x682 DUP2 DUP7 PUSH2 0x5BA JUMP JUMPDEST SWAP1 POP DUP2 DUP2 SUB PUSH1 0x20 DUP4 ADD MSTORE PUSH2 0x696 DUP2 DUP6 PUSH2 0x5BA JUMP JUMPDEST SWAP1 POP PUSH2 0x6A5 PUSH1 0x40 DUP4 ADD DUP5 PUSH2 0x659 JUMP JUMPDEST SWAP5 SWAP4 POP POP POP POP JUMP JUMPDEST PUSH1 0x0 PUSH1 0x20 DUP3 ADD SWAP1 POP DUP2 DUP2 SUB PUSH1 0x0 DUP4 ADD MSTORE PUSH2 0x6C7 DUP2 DUP5 PUSH2 0x5F3 JUMP JUMPDEST SWAP1 POP SWAP3 SWAP2 POP POP JUMP JUMPDEST PUSH1 0x0 PUSH1 0x20 DUP3 ADD SWAP1 POP PUSH2 0x6E4 PUSH1 0x0 DUP4 ADD DUP5 PUSH2 0x659 JUMP JUMPDEST SWAP3 SWAP2 POP POP JUMP JUMPDEST PUSH1 0x0 PUSH2 0x6F4 PUSH2 0x705 JUMP JUMPDEST SWAP1 POP PUSH2 0x700 DUP3 DUP3 PUSH2 0x875 JUMP JUMPDEST SWAP2 SWAP1 POP JUMP JUMPDEST PUSH1 0x0 PUSH1 0x40 MLOAD SWAP1 POP SWAP1 JUMP JUMPDEST PUSH1 0x0 PUSH8 0xFFFFFFFFFFFFFFFF DUP3 GT ISZERO PUSH2 0x72A JUMPI PUSH2 0x729 PUSH2 0x904 JUMP JUMPDEST JUMPDEST PUSH2 0x733 DUP3 PUSH2 0x947 JUMP JUMPDEST SWAP1 POP PUSH1 0x20 DUP2 ADD SWAP1 POP SWAP2 SWAP1 POP JUMP JUMPDEST PUSH1 0x0 DUP2 MLOAD SWAP1 POP SWAP2 SWAP1 POP JUMP JUMPDEST PUSH1 0x0 DUP3 DUP3 MSTORE PUSH1 0x20 DUP3 ADD SWAP1 POP SWAP3 SWAP2 POP POP JUMP JUMPDEST PUSH1 0x0 DUP3 DUP3 MSTORE PUSH1 0x20 DUP3 ADD SWAP1 POP SWAP3 SWAP2 POP POP JUMP JUMPDEST PUSH1 0x0 PUSH2 0x778 DUP3 PUSH2 0x7F7 JUMP JUMPDEST SWAP2 POP PUSH2 0x783 DUP4 PUSH2 0x7F7 JUMP JUMPDEST SWAP3 POP DUP3 PUSH32 0xFFFFFFFFFFFFFFFFFFFFFFFFFFFFFFFFFFFFFFFFFFFFFFFFFFFFFFFFFFFFFFFF SUB DUP3 GT ISZERO PUSH2 0x7B8 JUMPI PUSH2 0x7B7 PUSH2 0x8A6 JUMP JUMPDEST JUMPDEST DUP3 DUP3 ADD SWAP1 POP SWAP3 SWAP2 POP POP JUMP JUMPDEST PUSH1 0x0 PUSH2 0x7CE DUP3 PUSH2 0x7F7 JUMP JUMPDEST SWAP2 POP PUSH2 0x7D9 DUP4 PUSH2 0x7F7 JUMP JUMPDEST SWAP3 POP DUP3 DUP3 LT ISZERO PUSH2 0x7EC JUMPI PUSH2 0x7EB PUSH2 0x8A6 JUMP JUMPDEST JUMPDEST DUP3 DUP3 SUB SWAP1 POP SWAP3 SWAP2 POP POP JUMP JUMPDEST PUSH1 0x0 DUP2 SWAP1 POP SWAP2 SWAP1 POP JUMP JUMPDEST DUP3 DUP2 DUP4 CALLDATACOPY PUSH1 0x0 DUP4 DUP4 ADD MSTORE POP POP POP JUMP JUMPDEST PUSH1 0x0 JUMPDEST DUP4 DUP2 LT ISZERO PUSH2 0x82E JUMPI DUP1 DUP3 ADD MLOAD DUP2 DUP5 ADD MSTORE PUSH1 0x20 DUP2 ADD SWAP1 POP PUSH2 0x813 JUMP JUMPDEST DUP4 DUP2 GT ISZERO PUSH2 0x83D JUMPI PUSH1 0x0 DUP5 DUP5 ADD MSTORE JUMPDEST POP POP POP POP JUMP JUMPDEST PUSH1 0x0 PUSH1 0x2 DUP3 DIV SWAP1 POP PUSH1 0x1 DUP3 AND DUP1 PUSH2 0x85B JUMPI PUSH1 0x7F DUP3 AND SWAP2 POP JUMPDEST PUSH1 0x20 DUP3 LT DUP2 EQ ISZERO PUSH2 0x86F JUMPI PUSH2 0x86E PUSH2 0x8D5 JUMP JUMPDEST JUMPDEST POP SWAP2 SWAP1 POP JUMP JUMPDEST PUSH2 0x87E DUP3 PUSH2 0x947 JUMP JUMPDEST DUP2 ADD DUP2 DUP2 LT PUSH8 0xFFFFFFFFFFFFFFFF DUP3 GT OR ISZERO PUSH2 0x89D JUMPI PUSH2 0x89C PUSH2 0x904 JUMP JUMPDEST JUMPDEST DUP1 PUSH1 0x40 MSTORE POP POP POP JUMP JUMPDEST PUSH32 0x4E487B7100000000000000000000000000000000000000000000000000000000 PUSH1 0x0 MSTORE PUSH1 0x11 PUSH1 0x4 MSTORE PUSH1 0x24 PUSH1 0x0 REVERT JUMPDEST PUSH32 0x4E487B7100000000000000000000000000000000000000000000000000000000 PUSH1 0x0 MSTORE PUSH1 0x22 PUSH1 0x4 MSTORE PUSH1 0x24 PUSH1 0x0 REVERT JUMPDEST PUSH32 0x4E487B7100000000000000000000000000000000000000000000000000000000 PUSH1 0x0 MSTORE PUSH1 0x41 PUSH1 0x4 MSTORE PUSH1 0x24 PUSH1 0x0 REVERT JUMPDEST PUSH1 0x0 DUP1 REVERT JUMPDEST PUSH1 0x0 DUP1 REVERT JUMPDEST PUSH1 0x0 DUP1 REVERT JUMPDEST PUSH1 0x0 DUP1 REVERT JUMPDEST PUSH1 0x0 PUSH1 0x1F NOT PUSH1 0x1F DUP4 ADD AND SWAP1 POP SWAP2 SWAP1 POP JUMP JUMPDEST PUSH2 0x961 DUP2 PUSH2 0x7F7 JUMP JUMPDEST DUP2 EQ PUSH2 0x96C JUMPI PUSH1 0x0 DUP1 REVERT JUMPDEST POP JUMP INVALID LOG2 PUSH5 0x6970667358 0x22 SLT KECCAK256 0xFB SHR 0xAD 0x4A SMOD DUP15 0xE4 DUP3 0xD3 LOG4 0xE3 DELEGATECALL GAS 0x26 0xCF 0xC4 DUP9 0xC0 0xBD 0x4B NOT PUSH20 0xB9A3741118C0D724B87564736F6C634300080700 CALLER "
				},
				"gasEstimates": {
					"creation": {
						"codeDepositCost": "493800",
						"executionCost": "5536",
						"totalCost": "499336"
					},
					"external": {
						"addStudent(string,string,uint256)": "infinite",
						"getStudent(uint256)": "infinite",
						"studentCount()": "2495",
						"students(uint256)": "infinite",
						"subtractStudent(string,string,uint256)": "infinite"
					}
				},
				"methodIdentifiers": {
					"addStudent(string,string,uint256)": "9cc8f139",
					"getStudent(uint256)": "642f9163",
					"studentCount()": "e581f9ee",
					"students(uint256)": "06ead22e",
					"subtractStudent(string,string,uint256)": "d2034381"
				}
			},
			"storageLayout": {
				"storage": [
					{
						"astId": 4,
						"contract": "contracts/students.sol:myStudent",
						"label": "studentCount",
						"offset": 0,
						"slot": "0",
						"type": "t_uint256"
					},
					{
						"astId": 9,
						"contract": "contracts/students.sol:myStudent",
						"label": "students",
						"offset": 0,
						"slot": "1",
						"type": "t_mapping(t_uint256,t_struct(Student)16_storage)"
					}
				],
				"types": {
					"t_mapping(t_uint256,t_struct(Student)16_storage)": {
						"encoding": "mapping",
						"key": "t_uint256",
						"label": "mapping(uint256 => struct myStudent.Student)",
						"numberOfBytes": "32",
						"value": "t_struct(Student)16_storage"
					},
					"t_string_storage": {
						"encoding": "bytes",
						"label": "string",
						"numberOfBytes": "32"
					},
					"t_struct(Student)16_storage": {
						"encoding": "inplace",
						"label": "struct myStudent.Student",
						"members": [
							{
								"astId": 11,
								"contract": "contracts/students.sol:myStudent",
								"label": "firstName",
								"offset": 0,
								"slot": "0",
								"type": "t_string_storage"
							},
							{
								"astId": 13,
								"contract": "contracts/students.sol:myStudent",
								"label": "lastName",
								"offset": 0,
								"slot": "1",
								"type": "t_string_storage"
							},
							{
								"astId": 15,
								"contract": "contracts/students.sol:myStudent",
								"label": "_id",
								"offset": 0,
								"slot": "2",
								"type": "t_uint256"
							}
						],
						"numberOfBytes": "96"
					},
					"t_uint256": {
						"encoding": "inplace",
						"label": "uint256",
						"numberOfBytes": "32"
					}
				}
			},
			"userdoc": {
				"kind": "user",
				"methods": {},
				"version": 1
			}
		}
	}
}