{
	"contracts/students.sol": {
		"myStudent": {
			"abi": [
				{
					"inputs": [
						{
							"internalType": "string",
							"name": "firstName",
							"type": "string"
						},
						{
							"internalType": "string",
							"name": "lastName",
							"type": "string"
						},
						{
							"internalType": "uint256",
							"name": "_regNo",
							"type": "uint256"
						}
					],
					"name": "addStudent",
					"outputs": [],
					"stateMutability": "nonpayable",
					"type": "function"
				},
				{
					"inputs": [
						{
							"internalType": "uint256",
							"name": "_regNo",
							"type": "uint256"
						}
					],
					"name": "getStudent",
					"outputs": [
						{
							"internalType": "string",
							"name": "firstName",
							"type": "string"
						},
						{
							"internalType": "string",
							"name": "lastName",
							"type": "string"
						}
					],
					"stateMutability": "view",
					"type": "function"
				},
				{
					"inputs": [],
					"name": "studentCount",
					"outputs": [
						{
							"internalType": "uint256",
							"name": "",
							"type": "uint256"
						}
					],
					"stateMutability": "view",
					"type": "function"
				},
				{
					"inputs": [
						{
							"internalType": "address",
							"name": "",
							"type": "address"
						}
					],
					"name": "students",
					"outputs": [
						{
							"internalType": "address",
							"name": "StudentAddress",
							"type": "address"
						},
						{
							"internalType": "string",
							"name": "firstName",
							"type": "string"
						},
						{
							"internalType": "string",
							"name": "lastName",
							"type": "string"
						},
						{
							"internalType": "uint256",
							"name": "_regNo",
							"type": "uint256"
						}
					],
					"stateMutability": "view",
					"type": "function"
				}
			],
			"devdoc": {
				"kind": "dev",
				"methods": {},
				"version": 1
			},
			"evm": {
				"assembly": "    /* \"contracts/students.sol\":70:673  contract myStudent{\r... */\n  mstore(0x40, 0x80)\n    /* \"contracts/students.sol\":122:123  0 */\n  0x00\n    /* \"contracts/students.sol\":95:123  uint public studentCount = 0 */\n  dup1\n  sstore\n    /* \"contracts/students.sol\":70:673  contract myStudent{\r... */\n  callvalue\n  dup1\n  iszero\n  tag_1\n  jumpi\n  0x00\n  dup1\n  revert\ntag_1:\n  pop\n  dataSize(sub_0)\n  dup1\n  dataOffset(sub_0)\n  0x00\n  codecopy\n  0x00\n  return\nstop\n\nsub_0: assembly {\n        /* \"contracts/students.sol\":70:673  contract myStudent{\r... */\n      mstore(0x40, 0x80)\n      callvalue\n      dup1\n      iszero\n      tag_1\n      jumpi\n      0x00\n      dup1\n      revert\n    tag_1:\n      pop\n      jumpi(tag_2, lt(calldatasize, 0x04))\n      shr(0xe0, calldataload(0x00))\n      dup1\n      0x642f9163\n      eq\n      tag_3\n      jumpi\n      dup1\n      0x9cc8f139\n      eq\n      tag_4\n      jumpi\n      dup1\n      0xa6c807a9\n      eq\n      tag_5\n      jumpi\n      dup1\n      0xe581f9ee\n      eq\n      tag_6\n      jumpi\n    tag_2:\n      0x00\n      dup1\n      revert\n        /* \"contracts/students.sol\":541:670  function getStudent( uint _regNo) public view returns( string memory firstName, string memory lastName){\r... */\n    tag_3:\n      tag_7\n      0x04\n      dup1\n      calldatasize\n      sub\n      dup2\n      add\n      swap1\n      tag_8\n      swap2\n      swap1\n      tag_9\n      jump\t// in\n    tag_8:\n      tag_10\n      jump\t// in\n    tag_7:\n      mload(0x40)\n      tag_11\n      swap3\n      swap2\n      swap1\n      tag_12\n      jump\t// in\n    tag_11:\n      mload(0x40)\n      dup1\n      swap2\n      sub\n      swap1\n      return\n        /* \"contracts/students.sol\":326:533  function addStudent(string memory firstName, string memory lastName, uint _regNo) public {\r... */\n    tag_4:\n      tag_13\n      0x04\n      dup1\n      calldatasize\n      sub\n      dup2\n      add\n      swap1\n      tag_14\n      swap2\n      swap1\n      tag_15\n      jump\t// in\n    tag_14:\n      tag_16\n      jump\t// in\n    tag_13:\n      stop\n        /* \"contracts/students.sol\":130:174  mapping (address => Student) public students */\n    tag_5:\n      tag_17\n      0x04\n      dup1\n      calldatasize\n      sub\n      dup2\n      add\n      swap1\n      tag_18\n      swap2\n      swap1\n      tag_19\n      jump\t// in\n    tag_18:\n      tag_20\n      jump\t// in\n    tag_17:\n      mload(0x40)\n      tag_21\n      swap5\n      swap4\n      swap3\n      swap2\n      swap1\n      tag_22\n      jump\t// in\n    tag_21:\n      mload(0x40)\n      dup1\n      swap2\n      sub\n      swap1\n      return\n        /* \"contracts/students.sol\":95:123  uint public studentCount = 0 */\n    tag_6:\n      tag_23\n      tag_24\n      jump\t// in\n    tag_23:\n      mload(0x40)\n      tag_25\n      swap2\n      swap1\n      tag_26\n      jump\t// in\n    tag_25:\n      mload(0x40)\n      dup1\n      swap2\n      sub\n      swap1\n      return\n        /* \"contracts/students.sol\":541:670  function getStudent( uint _regNo) public view returns( string memory firstName, string memory lastName){\r... */\n    tag_10:\n        /* \"contracts/students.sol\":596:619  string memory firstName */\n      0x60\n        /* \"contracts/students.sol\":621:643  string memory lastName */\n      dup1\n        /* \"contracts/students.sol\":541:670  function getStudent( uint _regNo) public view returns( string memory firstName, string memory lastName){\r... */\n      swap2\n      pop\n      swap2\n      jump\t// out\n        /* \"contracts/students.sol\":326:533  function addStudent(string memory firstName, string memory lastName, uint _regNo) public {\r... */\n    tag_16:\n        /* \"contracts/students.sol\":449:497  Student(msg.sender, firstName, lastName, _regNo) */\n      mload(0x40)\n      dup1\n      0x80\n      add\n      0x40\n      mstore\n      dup1\n        /* \"contracts/students.sol\":457:467  msg.sender */\n      caller\n        /* \"contracts/students.sol\":449:497  Student(msg.sender, firstName, lastName, _regNo) */\n      0xffffffffffffffffffffffffffffffffffffffff\n      and\n      dup2\n      mstore\n      0x20\n      add\n        /* \"contracts/students.sol\":469:478  firstName */\n      dup5\n        /* \"contracts/students.sol\":449:497  Student(msg.sender, firstName, lastName, _regNo) */\n      dup2\n      mstore\n      0x20\n      add\n        /* \"contracts/students.sol\":480:488  lastName */\n      dup4\n        /* \"contracts/students.sol\":449:497  Student(msg.sender, firstName, lastName, _regNo) */\n      dup2\n      mstore\n      0x20\n      add\n        /* \"contracts/students.sol\":490:496  _regNo */\n      dup3\n        /* \"contracts/students.sol\":449:497  Student(msg.sender, firstName, lastName, _regNo) */\n      dup2\n      mstore\n      pop\n        /* \"contracts/students.sol\":426:434  students */\n      0x01\n        /* \"contracts/students.sol\":426:446  students[msg.sender] */\n      0x00\n        /* \"contracts/students.sol\":435:445  msg.sender */\n      caller\n        /* \"contracts/students.sol\":426:446  students[msg.sender] */\n      0xffffffffffffffffffffffffffffffffffffffff\n      and\n      0xffffffffffffffffffffffffffffffffffffffff\n      and\n      dup2\n      mstore\n      0x20\n      add\n      swap1\n      dup2\n      mstore\n      0x20\n      add\n      0x00\n      keccak256\n        /* \"contracts/students.sol\":426:497  students[msg.sender] = Student(msg.sender, firstName, lastName, _regNo) */\n      0x00\n      dup3\n      add\n      mload\n      dup2\n      0x00\n      add\n      exp(0x0100, 0x00)\n      dup2\n      sload\n      dup2\n      0xffffffffffffffffffffffffffffffffffffffff\n      mul\n      not\n      and\n      swap1\n      dup4\n      0xffffffffffffffffffffffffffffffffffffffff\n      and\n      mul\n      or\n      swap1\n      sstore\n      pop\n      0x20\n      dup3\n      add\n      mload\n      dup2\n      0x01\n      add\n      swap1\n      dup1\n      mload\n      swap1\n      0x20\n      add\n      swap1\n      tag_29\n      swap3\n      swap2\n      swap1\n      tag_30\n      jump\t// in\n    tag_29:\n      pop\n      0x40\n      dup3\n      add\n      mload\n      dup2\n      0x02\n      add\n      swap1\n      dup1\n      mload\n      swap1\n      0x20\n      add\n      swap1\n      tag_31\n      swap3\n      swap2\n      swap1\n      tag_30\n      jump\t// in\n    tag_31:\n      pop\n      0x60\n      dup3\n      add\n      mload\n      dup2\n      0x03\n      add\n      sstore\n      swap1\n      pop\n      pop\n        /* \"contracts/students.sol\":524:525  1 */\n      0x01\n        /* \"contracts/students.sol\":508:520  studentCount */\n      0x00\n      dup1\n        /* \"contracts/students.sol\":508:525  studentCount += 1 */\n      dup3\n      dup3\n      sload\n      tag_32\n      swap2\n      swap1\n      tag_33\n      jump\t// in\n    tag_32:\n      swap3\n      pop\n      pop\n      dup2\n      swap1\n      sstore\n      pop\n        /* \"contracts/students.sol\":326:533  function addStudent(string memory firstName, string memory lastName, uint _regNo) public {\r... */\n      pop\n      pop\n      pop\n      jump\t// out\n        /* \"contracts/students.sol\":130:174  mapping (address => Student) public students */\n    tag_20:\n      mstore(0x20, 0x01)\n      dup1\n      0x00\n      mstore\n      keccak256(0x00, 0x40)\n      0x00\n      swap2\n      pop\n      swap1\n      pop\n      dup1\n      0x00\n      add\n      0x00\n      swap1\n      sload\n      swap1\n      0x0100\n      exp\n      swap1\n      div\n      0xffffffffffffffffffffffffffffffffffffffff\n      and\n      swap1\n      dup1\n      0x01\n      add\n      dup1\n      sload\n      tag_34\n      swap1\n      tag_35\n      jump\t// in\n    tag_34:\n      dup1\n      0x1f\n      add\n      0x20\n      dup1\n      swap2\n      div\n      mul\n      0x20\n      add\n      mload(0x40)\n      swap1\n      dup2\n      add\n      0x40\n      mstore\n      dup1\n      swap3\n      swap2\n      swap1\n      dup2\n      dup2\n      mstore\n      0x20\n      add\n      dup3\n      dup1\n      sload\n      tag_36\n      swap1\n      tag_35\n      jump\t// in\n    tag_36:\n      dup1\n      iszero\n      tag_37\n      jumpi\n      dup1\n      0x1f\n      lt\n      tag_38\n      jumpi\n      0x0100\n      dup1\n      dup4\n      sload\n      div\n      mul\n      dup4\n      mstore\n      swap2\n      0x20\n      add\n      swap2\n      jump(tag_37)\n    tag_38:\n      dup3\n      add\n      swap2\n      swap1\n      0x00\n      mstore\n      keccak256(0x00, 0x20)\n      swap1\n    tag_39:\n      dup2\n      sload\n      dup2\n      mstore\n      swap1\n      0x01\n      add\n      swap1\n      0x20\n      add\n      dup1\n      dup4\n      gt\n      tag_39\n      jumpi\n      dup3\n      swap1\n      sub\n      0x1f\n      and\n      dup3\n      add\n      swap2\n    tag_37:\n      pop\n      pop\n      pop\n      pop\n      pop\n      swap1\n      dup1\n      0x02\n      add\n      dup1\n      sload\n      tag_40\n      swap1\n      tag_35\n      jump\t// in\n    tag_40:\n      dup1\n      0x1f\n      add\n      0x20\n      dup1\n      swap2\n      div\n      mul\n      0x20\n      add\n      mload(0x40)\n      swap1\n      dup2\n      add\n      0x40\n      mstore\n      dup1\n      swap3\n      swap2\n      swap1\n      dup2\n      dup2\n      mstore\n      0x20\n      add\n      dup3\n      dup1\n      sload\n      tag_41\n      swap1\n      tag_35\n      jump\t// in\n    tag_41:\n      dup1\n      iszero\n      tag_42\n      jumpi\n      dup1\n      0x1f\n      lt\n      tag_43\n      jumpi\n      0x0100\n      dup1\n      dup4\n      sload\n      div\n      mul\n      dup4\n      mstore\n      swap2\n      0x20\n      add\n      swap2\n      jump(tag_42)\n    tag_43:\n      dup3\n      add\n      swap2\n      swap1\n      0x00\n      mstore\n      keccak256(0x00, 0x20)\n      swap1\n    tag_44:\n      dup2\n      sload\n      dup2\n      mstore\n      swap1\n      0x01\n      add\n      swap1\n      0x20\n      add\n      dup1\n      dup4\n      gt\n      tag_44\n      jumpi\n      dup3\n      swap1\n      sub\n      0x1f\n      and\n      dup3\n      add\n      swap2\n    tag_42:\n      pop\n      pop\n      pop\n      pop\n      pop\n      swap1\n      dup1\n      0x03\n      add\n      sload\n      swap1\n      pop\n      dup5\n      jump\t// out\n        /* \"contracts/students.sol\":95:123  uint public studentCount = 0 */\n    tag_24:\n      sload(0x00)\n      dup2\n      jump\t// out\n    tag_30:\n      dup3\n      dup1\n      sload\n      tag_45\n      swap1\n      tag_35\n      jump\t// in\n    tag_45:\n      swap1\n      0x00\n      mstore\n      keccak256(0x00, 0x20)\n      swap1\n      0x1f\n      add\n      0x20\n      swap1\n      div\n      dup2\n      add\n      swap3\n      dup3\n      tag_47\n      jumpi\n      0x00\n      dup6\n      sstore\n      jump(tag_46)\n    tag_47:\n      dup3\n      0x1f\n      lt\n      tag_48\n      jumpi\n      dup1\n      mload\n      not(0xff)\n      and\n      dup4\n      dup1\n      add\n      or\n      dup6\n      sstore\n      jump(tag_46)\n    tag_48:\n      dup3\n      dup1\n      add\n      0x01\n      add\n      dup6\n      sstore\n      dup3\n      iszero\n      tag_46\n      jumpi\n      swap2\n      dup3\n      add\n    tag_49:\n      dup3\n      dup2\n      gt\n      iszero\n      tag_50\n      jumpi\n      dup3\n      mload\n      dup3\n      sstore\n      swap2\n      0x20\n      add\n      swap2\n      swap1\n      0x01\n      add\n      swap1\n      jump(tag_49)\n    tag_50:\n    tag_46:\n      pop\n      swap1\n      pop\n      tag_51\n      swap2\n      swap1\n      tag_52\n      jump\t// in\n    tag_51:\n      pop\n      swap1\n      jump\t// out\n    tag_52:\n    tag_53:\n      dup1\n      dup3\n      gt\n      iszero\n      tag_54\n      jumpi\n      0x00\n      dup2\n      0x00\n      swap1\n      sstore\n      pop\n      0x01\n      add\n      jump(tag_53)\n    tag_54:\n      pop\n      swap1\n      jump\t// out\n        /* \"#utility.yul\":7:419   */\n    tag_56:\n        /* \"#utility.yul\":85:90   */\n      0x00\n        /* \"#utility.yul\":110:176   */\n      tag_58\n        /* \"#utility.yul\":126:175   */\n      tag_59\n        /* \"#utility.yul\":168:174   */\n      dup5\n        /* \"#utility.yul\":126:175   */\n      tag_60\n      jump\t// in\n    tag_59:\n        /* \"#utility.yul\":110:176   */\n      tag_61\n      jump\t// in\n    tag_58:\n        /* \"#utility.yul\":101:176   */\n      swap1\n      pop\n        /* \"#utility.yul\":199:205   */\n      dup3\n        /* \"#utility.yul\":192:197   */\n      dup2\n        /* \"#utility.yul\":185:206   */\n      mstore\n        /* \"#utility.yul\":237:241   */\n      0x20\n        /* \"#utility.yul\":230:235   */\n      dup2\n        /* \"#utility.yul\":226:242   */\n      add\n        /* \"#utility.yul\":275:278   */\n      dup5\n        /* \"#utility.yul\":266:272   */\n      dup5\n        /* \"#utility.yul\":261:264   */\n      dup5\n        /* \"#utility.yul\":257:273   */\n      add\n        /* \"#utility.yul\":254:279   */\n      gt\n        /* \"#utility.yul\":251:363   */\n      iszero\n      tag_62\n      jumpi\n        /* \"#utility.yul\":282:361   */\n      tag_63\n      tag_64\n      jump\t// in\n    tag_63:\n        /* \"#utility.yul\":251:363   */\n    tag_62:\n        /* \"#utility.yul\":372:413   */\n      tag_65\n        /* \"#utility.yul\":406:412   */\n      dup5\n        /* \"#utility.yul\":401:404   */\n      dup3\n        /* \"#utility.yul\":396:399   */\n      dup6\n        /* \"#utility.yul\":372:413   */\n      tag_66\n      jump\t// in\n    tag_65:\n        /* \"#utility.yul\":91:419   */\n      pop\n        /* \"#utility.yul\":7:419   */\n      swap4\n      swap3\n      pop\n      pop\n      pop\n      jump\t// out\n        /* \"#utility.yul\":425:564   */\n    tag_67:\n        /* \"#utility.yul\":471:476   */\n      0x00\n        /* \"#utility.yul\":509:515   */\n      dup2\n        /* \"#utility.yul\":496:516   */\n      calldataload\n        /* \"#utility.yul\":487:516   */\n      swap1\n      pop\n        /* \"#utility.yul\":525:558   */\n      tag_69\n        /* \"#utility.yul\":552:557   */\n      dup2\n        /* \"#utility.yul\":525:558   */\n      tag_70\n      jump\t// in\n    tag_69:\n        /* \"#utility.yul\":425:564   */\n      swap3\n      swap2\n      pop\n      pop\n      jump\t// out\n        /* \"#utility.yul\":584:924   */\n    tag_71:\n        /* \"#utility.yul\":640:645   */\n      0x00\n        /* \"#utility.yul\":689:692   */\n      dup3\n        /* \"#utility.yul\":682:686   */\n      0x1f\n        /* \"#utility.yul\":674:680   */\n      dup4\n        /* \"#utility.yul\":670:687   */\n      add\n        /* \"#utility.yul\":666:693   */\n      slt\n        /* \"#utility.yul\":656:778   */\n      tag_73\n      jumpi\n        /* \"#utility.yul\":697:776   */\n      tag_74\n      tag_75\n      jump\t// in\n    tag_74:\n        /* \"#utility.yul\":656:778   */\n    tag_73:\n        /* \"#utility.yul\":814:820   */\n      dup2\n        /* \"#utility.yul\":801:821   */\n      calldataload\n        /* \"#utility.yul\":839:918   */\n      tag_76\n        /* \"#utility.yul\":914:917   */\n      dup5\n        /* \"#utility.yul\":906:912   */\n      dup3\n        /* \"#utility.yul\":899:903   */\n      0x20\n        /* \"#utility.yul\":891:897   */\n      dup7\n        /* \"#utility.yul\":887:904   */\n      add\n        /* \"#utility.yul\":839:918   */\n      tag_56\n      jump\t// in\n    tag_76:\n        /* \"#utility.yul\":830:918   */\n      swap2\n      pop\n        /* \"#utility.yul\":646:924   */\n      pop\n        /* \"#utility.yul\":584:924   */\n      swap3\n      swap2\n      pop\n      pop\n      jump\t// out\n        /* \"#utility.yul\":930:1069   */\n    tag_77:\n        /* \"#utility.yul\":976:981   */\n      0x00\n        /* \"#utility.yul\":1014:1020   */\n      dup2\n        /* \"#utility.yul\":1001:1021   */\n      calldataload\n        /* \"#utility.yul\":992:1021   */\n      swap1\n      pop\n        /* \"#utility.yul\":1030:1063   */\n      tag_79\n        /* \"#utility.yul\":1057:1062   */\n      dup2\n        /* \"#utility.yul\":1030:1063   */\n      tag_80\n      jump\t// in\n    tag_79:\n        /* \"#utility.yul\":930:1069   */\n      swap3\n      swap2\n      pop\n      pop\n      jump\t// out\n        /* \"#utility.yul\":1075:1404   */\n    tag_19:\n        /* \"#utility.yul\":1134:1140   */\n      0x00\n        /* \"#utility.yul\":1183:1185   */\n      0x20\n        /* \"#utility.yul\":1171:1180   */\n      dup3\n        /* \"#utility.yul\":1162:1169   */\n      dup5\n        /* \"#utility.yul\":1158:1181   */\n      sub\n        /* \"#utility.yul\":1154:1186   */\n      slt\n        /* \"#utility.yul\":1151:1270   */\n      iszero\n      tag_82\n      jumpi\n        /* \"#utility.yul\":1189:1268   */\n      tag_83\n      tag_84\n      jump\t// in\n    tag_83:\n        /* \"#utility.yul\":1151:1270   */\n    tag_82:\n        /* \"#utility.yul\":1309:1310   */\n      0x00\n        /* \"#utility.yul\":1334:1387   */\n      tag_85\n        /* \"#utility.yul\":1379:1386   */\n      dup5\n        /* \"#utility.yul\":1370:1376   */\n      dup3\n        /* \"#utility.yul\":1359:1368   */\n      dup6\n        /* \"#utility.yul\":1355:1377   */\n      add\n        /* \"#utility.yul\":1334:1387   */\n      tag_67\n      jump\t// in\n    tag_85:\n        /* \"#utility.yul\":1324:1387   */\n      swap2\n      pop\n        /* \"#utility.yul\":1280:1397   */\n      pop\n        /* \"#utility.yul\":1075:1404   */\n      swap3\n      swap2\n      pop\n      pop\n      jump\t// out\n        /* \"#utility.yul\":1410:2389   */\n    tag_15:\n        /* \"#utility.yul\":1507:1513   */\n      0x00\n        /* \"#utility.yul\":1515:1521   */\n      dup1\n        /* \"#utility.yul\":1523:1529   */\n      0x00\n        /* \"#utility.yul\":1572:1574   */\n      0x60\n        /* \"#utility.yul\":1560:1569   */\n      dup5\n        /* \"#utility.yul\":1551:1558   */\n      dup7\n        /* \"#utility.yul\":1547:1570   */\n      sub\n        /* \"#utility.yul\":1543:1575   */\n      slt\n        /* \"#utility.yul\":1540:1659   */\n      iszero\n      tag_87\n      jumpi\n        /* \"#utility.yul\":1578:1657   */\n      tag_88\n      tag_84\n      jump\t// in\n    tag_88:\n        /* \"#utility.yul\":1540:1659   */\n    tag_87:\n        /* \"#utility.yul\":1726:1727   */\n      0x00\n        /* \"#utility.yul\":1715:1724   */\n      dup5\n        /* \"#utility.yul\":1711:1728   */\n      add\n        /* \"#utility.yul\":1698:1729   */\n      calldataload\n        /* \"#utility.yul\":1756:1774   */\n      0xffffffffffffffff\n        /* \"#utility.yul\":1748:1754   */\n      dup2\n        /* \"#utility.yul\":1745:1775   */\n      gt\n        /* \"#utility.yul\":1742:1859   */\n      iszero\n      tag_89\n      jumpi\n        /* \"#utility.yul\":1778:1857   */\n      tag_90\n      tag_91\n      jump\t// in\n    tag_90:\n        /* \"#utility.yul\":1742:1859   */\n    tag_89:\n        /* \"#utility.yul\":1883:1946   */\n      tag_92\n        /* \"#utility.yul\":1938:1945   */\n      dup7\n        /* \"#utility.yul\":1929:1935   */\n      dup3\n        /* \"#utility.yul\":1918:1927   */\n      dup8\n        /* \"#utility.yul\":1914:1936   */\n      add\n        /* \"#utility.yul\":1883:1946   */\n      tag_71\n      jump\t// in\n    tag_92:\n        /* \"#utility.yul\":1873:1946   */\n      swap4\n      pop\n        /* \"#utility.yul\":1669:1956   */\n      pop\n        /* \"#utility.yul\":2023:2025   */\n      0x20\n        /* \"#utility.yul\":2012:2021   */\n      dup5\n        /* \"#utility.yul\":2008:2026   */\n      add\n        /* \"#utility.yul\":1995:2027   */\n      calldataload\n        /* \"#utility.yul\":2054:2072   */\n      0xffffffffffffffff\n        /* \"#utility.yul\":2046:2052   */\n      dup2\n        /* \"#utility.yul\":2043:2073   */\n      gt\n        /* \"#utility.yul\":2040:2157   */\n      iszero\n      tag_93\n      jumpi\n        /* \"#utility.yul\":2076:2155   */\n      tag_94\n      tag_91\n      jump\t// in\n    tag_94:\n        /* \"#utility.yul\":2040:2157   */\n    tag_93:\n        /* \"#utility.yul\":2181:2244   */\n      tag_95\n        /* \"#utility.yul\":2236:2243   */\n      dup7\n        /* \"#utility.yul\":2227:2233   */\n      dup3\n        /* \"#utility.yul\":2216:2225   */\n      dup8\n        /* \"#utility.yul\":2212:2234   */\n      add\n        /* \"#utility.yul\":2181:2244   */\n      tag_71\n      jump\t// in\n    tag_95:\n        /* \"#utility.yul\":2171:2244   */\n      swap3\n      pop\n        /* \"#utility.yul\":1966:2254   */\n      pop\n        /* \"#utility.yul\":2293:2295   */\n      0x40\n        /* \"#utility.yul\":2319:2372   */\n      tag_96\n        /* \"#utility.yul\":2364:2371   */\n      dup7\n        /* \"#utility.yul\":2355:2361   */\n      dup3\n        /* \"#utility.yul\":2344:2353   */\n      dup8\n        /* \"#utility.yul\":2340:2362   */\n      add\n        /* \"#utility.yul\":2319:2372   */\n      tag_77\n      jump\t// in\n    tag_96:\n        /* \"#utility.yul\":2309:2372   */\n      swap2\n      pop\n        /* \"#utility.yul\":2264:2382   */\n      pop\n        /* \"#utility.yul\":1410:2389   */\n      swap3\n      pop\n      swap3\n      pop\n      swap3\n      jump\t// out\n        /* \"#utility.yul\":2395:2724   */\n    tag_9:\n        /* \"#utility.yul\":2454:2460   */\n      0x00\n        /* \"#utility.yul\":2503:2505   */\n      0x20\n        /* \"#utility.yul\":2491:2500   */\n      dup3\n        /* \"#utility.yul\":2482:2489   */\n      dup5\n        /* \"#utility.yul\":2478:2501   */\n      sub\n        /* \"#utility.yul\":2474:2506   */\n      slt\n        /* \"#utility.yul\":2471:2590   */\n      iszero\n      tag_98\n      jumpi\n        /* \"#utility.yul\":2509:2588   */\n      tag_99\n      tag_84\n      jump\t// in\n    tag_99:\n        /* \"#utility.yul\":2471:2590   */\n    tag_98:\n        /* \"#utility.yul\":2629:2630   */\n      0x00\n        /* \"#utility.yul\":2654:2707   */\n      tag_100\n        /* \"#utility.yul\":2699:2706   */\n      dup5\n        /* \"#utility.yul\":2690:2696   */\n      dup3\n        /* \"#utility.yul\":2679:2688   */\n      dup6\n        /* \"#utility.yul\":2675:2697   */\n      add\n        /* \"#utility.yul\":2654:2707   */\n      tag_77\n      jump\t// in\n    tag_100:\n        /* \"#utility.yul\":2644:2707   */\n      swap2\n      pop\n        /* \"#utility.yul\":2600:2717   */\n      pop\n        /* \"#utility.yul\":2395:2724   */\n      swap3\n      swap2\n      pop\n      pop\n      jump\t// out\n        /* \"#utility.yul\":2730:2848   */\n    tag_101:\n        /* \"#utility.yul\":2817:2841   */\n      tag_103\n        /* \"#utility.yul\":2835:2840   */\n      dup2\n        /* \"#utility.yul\":2817:2841   */\n      tag_104\n      jump\t// in\n    tag_103:\n        /* \"#utility.yul\":2812:2815   */\n      dup3\n        /* \"#utility.yul\":2805:2842   */\n      mstore\n        /* \"#utility.yul\":2730:2848   */\n      pop\n      pop\n      jump\t// out\n        /* \"#utility.yul\":2854:3218   */\n    tag_105:\n        /* \"#utility.yul\":2942:2945   */\n      0x00\n        /* \"#utility.yul\":2970:3009   */\n      tag_107\n        /* \"#utility.yul\":3003:3008   */\n      dup3\n        /* \"#utility.yul\":2970:3009   */\n      tag_108\n      jump\t// in\n    tag_107:\n        /* \"#utility.yul\":3025:3096   */\n      tag_109\n        /* \"#utility.yul\":3089:3095   */\n      dup2\n        /* \"#utility.yul\":3084:3087   */\n      dup6\n        /* \"#utility.yul\":3025:3096   */\n      tag_110\n      jump\t// in\n    tag_109:\n        /* \"#utility.yul\":3018:3096   */\n      swap4\n      pop\n        /* \"#utility.yul\":3105:3157   */\n      tag_111\n        /* \"#utility.yul\":3150:3156   */\n      dup2\n        /* \"#utility.yul\":3145:3148   */\n      dup6\n        /* \"#utility.yul\":3138:3142   */\n      0x20\n        /* \"#utility.yul\":3131:3136   */\n      dup7\n        /* \"#utility.yul\":3127:3143   */\n      add\n        /* \"#utility.yul\":3105:3157   */\n      tag_112\n      jump\t// in\n    tag_111:\n        /* \"#utility.yul\":3182:3211   */\n      tag_113\n        /* \"#utility.yul\":3204:3210   */\n      dup2\n        /* \"#utility.yul\":3182:3211   */\n      tag_114\n      jump\t// in\n    tag_113:\n        /* \"#utility.yul\":3177:3180   */\n      dup5\n        /* \"#utility.yul\":3173:3212   */\n      add\n        /* \"#utility.yul\":3166:3212   */\n      swap2\n      pop\n        /* \"#utility.yul\":2946:3218   */\n      pop\n        /* \"#utility.yul\":2854:3218   */\n      swap3\n      swap2\n      pop\n      pop\n      jump\t// out\n        /* \"#utility.yul\":3224:3342   */\n    tag_115:\n        /* \"#utility.yul\":3311:3335   */\n      tag_117\n        /* \"#utility.yul\":3329:3334   */\n      dup2\n        /* \"#utility.yul\":3311:3335   */\n      tag_118\n      jump\t// in\n    tag_117:\n        /* \"#utility.yul\":3306:3309   */\n      dup3\n        /* \"#utility.yul\":3299:3336   */\n      mstore\n        /* \"#utility.yul\":3224:3342   */\n      pop\n      pop\n      jump\t// out\n        /* \"#utility.yul\":3348:4083   */\n    tag_22:\n        /* \"#utility.yul\":3565:3569   */\n      0x00\n        /* \"#utility.yul\":3603:3606   */\n      0x80\n        /* \"#utility.yul\":3592:3601   */\n      dup3\n        /* \"#utility.yul\":3588:3607   */\n      add\n        /* \"#utility.yul\":3580:3607   */\n      swap1\n      pop\n        /* \"#utility.yul\":3617:3688   */\n      tag_120\n        /* \"#utility.yul\":3685:3686   */\n      0x00\n        /* \"#utility.yul\":3674:3683   */\n      dup4\n        /* \"#utility.yul\":3670:3687   */\n      add\n        /* \"#utility.yul\":3661:3667   */\n      dup8\n        /* \"#utility.yul\":3617:3688   */\n      tag_101\n      jump\t// in\n    tag_120:\n        /* \"#utility.yul\":3735:3744   */\n      dup2\n        /* \"#utility.yul\":3729:3733   */\n      dup2\n        /* \"#utility.yul\":3725:3745   */\n      sub\n        /* \"#utility.yul\":3720:3722   */\n      0x20\n        /* \"#utility.yul\":3709:3718   */\n      dup4\n        /* \"#utility.yul\":3705:3723   */\n      add\n        /* \"#utility.yul\":3698:3746   */\n      mstore\n        /* \"#utility.yul\":3763:3841   */\n      tag_121\n        /* \"#utility.yul\":3836:3840   */\n      dup2\n        /* \"#utility.yul\":3827:3833   */\n      dup7\n        /* \"#utility.yul\":3763:3841   */\n      tag_105\n      jump\t// in\n    tag_121:\n        /* \"#utility.yul\":3755:3841   */\n      swap1\n      pop\n        /* \"#utility.yul\":3888:3897   */\n      dup2\n        /* \"#utility.yul\":3882:3886   */\n      dup2\n        /* \"#utility.yul\":3878:3898   */\n      sub\n        /* \"#utility.yul\":3873:3875   */\n      0x40\n        /* \"#utility.yul\":3862:3871   */\n      dup4\n        /* \"#utility.yul\":3858:3876   */\n      add\n        /* \"#utility.yul\":3851:3899   */\n      mstore\n        /* \"#utility.yul\":3916:3994   */\n      tag_122\n        /* \"#utility.yul\":3989:3993   */\n      dup2\n        /* \"#utility.yul\":3980:3986   */\n      dup6\n        /* \"#utility.yul\":3916:3994   */\n      tag_105\n      jump\t// in\n    tag_122:\n        /* \"#utility.yul\":3908:3994   */\n      swap1\n      pop\n        /* \"#utility.yul\":4004:4076   */\n      tag_123\n        /* \"#utility.yul\":4072:4074   */\n      0x60\n        /* \"#utility.yul\":4061:4070   */\n      dup4\n        /* \"#utility.yul\":4057:4075   */\n      add\n        /* \"#utility.yul\":4048:4054   */\n      dup5\n        /* \"#utility.yul\":4004:4076   */\n      tag_115\n      jump\t// in\n    tag_123:\n        /* \"#utility.yul\":3348:4083   */\n      swap6\n      swap5\n      pop\n      pop\n      pop\n      pop\n      pop\n      jump\t// out\n        /* \"#utility.yul\":4089:4603   */\n    tag_12:\n        /* \"#utility.yul\":4250:4254   */\n      0x00\n        /* \"#utility.yul\":4288:4290   */\n      0x40\n        /* \"#utility.yul\":4277:4286   */\n      dup3\n        /* \"#utility.yul\":4273:4291   */\n      add\n        /* \"#utility.yul\":4265:4291   */\n      swap1\n      pop\n        /* \"#utility.yul\":4337:4346   */\n      dup2\n        /* \"#utility.yul\":4331:4335   */\n      dup2\n        /* \"#utility.yul\":4327:4347   */\n      sub\n        /* \"#utility.yul\":4323:4324   */\n      0x00\n        /* \"#utility.yul\":4312:4321   */\n      dup4\n        /* \"#utility.yul\":4308:4325   */\n      add\n        /* \"#utility.yul\":4301:4348   */\n      mstore\n        /* \"#utility.yul\":4365:4443   */\n      tag_125\n        /* \"#utility.yul\":4438:4442   */\n      dup2\n        /* \"#utility.yul\":4429:4435   */\n      dup6\n        /* \"#utility.yul\":4365:4443   */\n      tag_105\n      jump\t// in\n    tag_125:\n        /* \"#utility.yul\":4357:4443   */\n      swap1\n      pop\n        /* \"#utility.yul\":4490:4499   */\n      dup2\n        /* \"#utility.yul\":4484:4488   */\n      dup2\n        /* \"#utility.yul\":4480:4500   */\n      sub\n        /* \"#utility.yul\":4475:4477   */\n      0x20\n        /* \"#utility.yul\":4464:4473   */\n      dup4\n        /* \"#utility.yul\":4460:4478   */\n      add\n        /* \"#utility.yul\":4453:4501   */\n      mstore\n        /* \"#utility.yul\":4518:4596   */\n      tag_126\n        /* \"#utility.yul\":4591:4595   */\n      dup2\n        /* \"#utility.yul\":4582:4588   */\n      dup5\n        /* \"#utility.yul\":4518:4596   */\n      tag_105\n      jump\t// in\n    tag_126:\n        /* \"#utility.yul\":4510:4596   */\n      swap1\n      pop\n        /* \"#utility.yul\":4089:4603   */\n      swap4\n      swap3\n      pop\n      pop\n      pop\n      jump\t// out\n        /* \"#utility.yul\":4609:4831   */\n    tag_26:\n        /* \"#utility.yul\":4702:4706   */\n      0x00\n        /* \"#utility.yul\":4740:4742   */\n      0x20\n        /* \"#utility.yul\":4729:4738   */\n      dup3\n        /* \"#utility.yul\":4725:4743   */\n      add\n        /* \"#utility.yul\":4717:4743   */\n      swap1\n      pop\n        /* \"#utility.yul\":4753:4824   */\n      tag_128\n        /* \"#utility.yul\":4821:4822   */\n      0x00\n        /* \"#utility.yul\":4810:4819   */\n      dup4\n        /* \"#utility.yul\":4806:4823   */\n      add\n        /* \"#utility.yul\":4797:4803   */\n      dup5\n        /* \"#utility.yul\":4753:4824   */\n      tag_115\n      jump\t// in\n    tag_128:\n        /* \"#utility.yul\":4609:4831   */\n      swap3\n      swap2\n      pop\n      pop\n      jump\t// out\n        /* \"#utility.yul\":4837:4966   */\n    tag_61:\n        /* \"#utility.yul\":4871:4877   */\n      0x00\n        /* \"#utility.yul\":4898:4918   */\n      tag_130\n      tag_131\n      jump\t// in\n    tag_130:\n        /* \"#utility.yul\":4888:4918   */\n      swap1\n      pop\n        /* \"#utility.yul\":4927:4960   */\n      tag_132\n        /* \"#utility.yul\":4955:4959   */\n      dup3\n        /* \"#utility.yul\":4947:4953   */\n      dup3\n        /* \"#utility.yul\":4927:4960   */\n      tag_133\n      jump\t// in\n    tag_132:\n        /* \"#utility.yul\":4837:4966   */\n      swap2\n      swap1\n      pop\n      jump\t// out\n        /* \"#utility.yul\":4972:5047   */\n    tag_131:\n        /* \"#utility.yul\":5005:5011   */\n      0x00\n        /* \"#utility.yul\":5038:5040   */\n      0x40\n        /* \"#utility.yul\":5032:5041   */\n      mload\n        /* \"#utility.yul\":5022:5041   */\n      swap1\n      pop\n        /* \"#utility.yul\":4972:5047   */\n      swap1\n      jump\t// out\n        /* \"#utility.yul\":5053:5361   */\n    tag_60:\n        /* \"#utility.yul\":5115:5119   */\n      0x00\n        /* \"#utility.yul\":5205:5223   */\n      0xffffffffffffffff\n        /* \"#utility.yul\":5197:5203   */\n      dup3\n        /* \"#utility.yul\":5194:5224   */\n      gt\n        /* \"#utility.yul\":5191:5247   */\n      iszero\n      tag_136\n      jumpi\n        /* \"#utility.yul\":5227:5245   */\n      tag_137\n      tag_138\n      jump\t// in\n    tag_137:\n        /* \"#utility.yul\":5191:5247   */\n    tag_136:\n        /* \"#utility.yul\":5265:5294   */\n      tag_139\n        /* \"#utility.yul\":5287:5293   */\n      dup3\n        /* \"#utility.yul\":5265:5294   */\n      tag_114\n      jump\t// in\n    tag_139:\n        /* \"#utility.yul\":5257:5294   */\n      swap1\n      pop\n        /* \"#utility.yul\":5349:5353   */\n      0x20\n        /* \"#utility.yul\":5343:5347   */\n      dup2\n        /* \"#utility.yul\":5339:5354   */\n      add\n        /* \"#utility.yul\":5331:5354   */\n      swap1\n      pop\n        /* \"#utility.yul\":5053:5361   */\n      swap2\n      swap1\n      pop\n      jump\t// out\n        /* \"#utility.yul\":5367:5466   */\n    tag_108:\n        /* \"#utility.yul\":5419:5425   */\n      0x00\n        /* \"#utility.yul\":5453:5458   */\n      dup2\n        /* \"#utility.yul\":5447:5459   */\n      mload\n        /* \"#utility.yul\":5437:5459   */\n      swap1\n      pop\n        /* \"#utility.yul\":5367:5466   */\n      swap2\n      swap1\n      pop\n      jump\t// out\n        /* \"#utility.yul\":5472:5641   */\n    tag_110:\n        /* \"#utility.yul\":5556:5567   */\n      0x00\n        /* \"#utility.yul\":5590:5596   */\n      dup3\n        /* \"#utility.yul\":5585:5588   */\n      dup3\n        /* \"#utility.yul\":5578:5597   */\n      mstore\n        /* \"#utility.yul\":5630:5634   */\n      0x20\n        /* \"#utility.yul\":5625:5628   */\n      dup3\n        /* \"#utility.yul\":5621:5635   */\n      add\n        /* \"#utility.yul\":5606:5635   */\n      swap1\n      pop\n        /* \"#utility.yul\":5472:5641   */\n      swap3\n      swap2\n      pop\n      pop\n      jump\t// out\n        /* \"#utility.yul\":5647:5952   */\n    tag_33:\n        /* \"#utility.yul\":5687:5690   */\n      0x00\n        /* \"#utility.yul\":5706:5726   */\n      tag_143\n        /* \"#utility.yul\":5724:5725   */\n      dup3\n        /* \"#utility.yul\":5706:5726   */\n      tag_118\n      jump\t// in\n    tag_143:\n        /* \"#utility.yul\":5701:5726   */\n      swap2\n      pop\n        /* \"#utility.yul\":5740:5760   */\n      tag_144\n        /* \"#utility.yul\":5758:5759   */\n      dup4\n        /* \"#utility.yul\":5740:5760   */\n      tag_118\n      jump\t// in\n    tag_144:\n        /* \"#utility.yul\":5735:5760   */\n      swap3\n      pop\n        /* \"#utility.yul\":5894:5895   */\n      dup3\n        /* \"#utility.yul\":5826:5892   */\n      0xffffffffffffffffffffffffffffffffffffffffffffffffffffffffffffffff\n        /* \"#utility.yul\":5822:5896   */\n      sub\n        /* \"#utility.yul\":5819:5820   */\n      dup3\n        /* \"#utility.yul\":5816:5897   */\n      gt\n        /* \"#utility.yul\":5813:5920   */\n      iszero\n      tag_145\n      jumpi\n        /* \"#utility.yul\":5900:5918   */\n      tag_146\n      tag_147\n      jump\t// in\n    tag_146:\n        /* \"#utility.yul\":5813:5920   */\n    tag_145:\n        /* \"#utility.yul\":5944:5945   */\n      dup3\n        /* \"#utility.yul\":5941:5942   */\n      dup3\n        /* \"#utility.yul\":5937:5946   */\n      add\n        /* \"#utility.yul\":5930:5946   */\n      swap1\n      pop\n        /* \"#utility.yul\":5647:5952   */\n      swap3\n      swap2\n      pop\n      pop\n      jump\t// out\n        /* \"#utility.yul\":5958:6054   */\n    tag_104:\n        /* \"#utility.yul\":5995:6002   */\n      0x00\n        /* \"#utility.yul\":6024:6048   */\n      tag_149\n        /* \"#utility.yul\":6042:6047   */\n      dup3\n        /* \"#utility.yul\":6024:6048   */\n      tag_150\n      jump\t// in\n    tag_149:\n        /* \"#utility.yul\":6013:6048   */\n      swap1\n      pop\n        /* \"#utility.yul\":5958:6054   */\n      swap2\n      swap1\n      pop\n      jump\t// out\n        /* \"#utility.yul\":6060:6186   */\n    tag_150:\n        /* \"#utility.yul\":6097:6104   */\n      0x00\n        /* \"#utility.yul\":6137:6179   */\n      0xffffffffffffffffffffffffffffffffffffffff\n        /* \"#utility.yul\":6130:6135   */\n      dup3\n        /* \"#utility.yul\":6126:6180   */\n      and\n        /* \"#utility.yul\":6115:6180   */\n      swap1\n      pop\n        /* \"#utility.yul\":6060:6186   */\n      swap2\n      swap1\n      pop\n      jump\t// out\n        /* \"#utility.yul\":6192:6269   */\n    tag_118:\n        /* \"#utility.yul\":6229:6236   */\n      0x00\n        /* \"#utility.yul\":6258:6263   */\n      dup2\n        /* \"#utility.yul\":6247:6263   */\n      swap1\n      pop\n        /* \"#utility.yul\":6192:6269   */\n      swap2\n      swap1\n      pop\n      jump\t// out\n        /* \"#utility.yul\":6275:6429   */\n    tag_66:\n        /* \"#utility.yul\":6359:6365   */\n      dup3\n        /* \"#utility.yul\":6354:6357   */\n      dup2\n        /* \"#utility.yul\":6349:6352   */\n      dup4\n        /* \"#utility.yul\":6336:6366   */\n      calldatacopy\n        /* \"#utility.yul\":6421:6422   */\n      0x00\n        /* \"#utility.yul\":6412:6418   */\n      dup4\n        /* \"#utility.yul\":6407:6410   */\n      dup4\n        /* \"#utility.yul\":6403:6419   */\n      add\n        /* \"#utility.yul\":6396:6423   */\n      mstore\n        /* \"#utility.yul\":6275:6429   */\n      pop\n      pop\n      pop\n      jump\t// out\n        /* \"#utility.yul\":6435:6742   */\n    tag_112:\n        /* \"#utility.yul\":6503:6504   */\n      0x00\n        /* \"#utility.yul\":6513:6626   */\n    tag_155:\n        /* \"#utility.yul\":6527:6533   */\n      dup4\n        /* \"#utility.yul\":6524:6525   */\n      dup2\n        /* \"#utility.yul\":6521:6534   */\n      lt\n        /* \"#utility.yul\":6513:6626   */\n      iszero\n      tag_157\n      jumpi\n        /* \"#utility.yul\":6612:6613   */\n      dup1\n        /* \"#utility.yul\":6607:6610   */\n      dup3\n        /* \"#utility.yul\":6603:6614   */\n      add\n        /* \"#utility.yul\":6597:6615   */\n      mload\n        /* \"#utility.yul\":6593:6594   */\n      dup2\n        /* \"#utility.yul\":6588:6591   */\n      dup5\n        /* \"#utility.yul\":6584:6595   */\n      add\n        /* \"#utility.yul\":6577:6616   */\n      mstore\n        /* \"#utility.yul\":6549:6551   */\n      0x20\n        /* \"#utility.yul\":6546:6547   */\n      dup2\n        /* \"#utility.yul\":6542:6552   */\n      add\n        /* \"#utility.yul\":6537:6552   */\n      swap1\n      pop\n        /* \"#utility.yul\":6513:6626   */\n      jump(tag_155)\n    tag_157:\n        /* \"#utility.yul\":6644:6650   */\n      dup4\n        /* \"#utility.yul\":6641:6642   */\n      dup2\n        /* \"#utility.yul\":6638:6651   */\n      gt\n        /* \"#utility.yul\":6635:6736   */\n      iszero\n      tag_158\n      jumpi\n        /* \"#utility.yul\":6724:6725   */\n      0x00\n        /* \"#utility.yul\":6715:6721   */\n      dup5\n        /* \"#utility.yul\":6710:6713   */\n      dup5\n        /* \"#utility.yul\":6706:6722   */\n      add\n        /* \"#utility.yul\":6699:6726   */\n      mstore\n        /* \"#utility.yul\":6635:6736   */\n    tag_158:\n        /* \"#utility.yul\":6484:6742   */\n      pop\n        /* \"#utility.yul\":6435:6742   */\n      pop\n      pop\n      pop\n      jump\t// out\n        /* \"#utility.yul\":6748:7068   */\n    tag_35:\n        /* \"#utility.yul\":6792:6798   */\n      0x00\n        /* \"#utility.yul\":6829:6830   */\n      0x02\n        /* \"#utility.yul\":6823:6827   */\n      dup3\n        /* \"#utility.yul\":6819:6831   */\n      div\n        /* \"#utility.yul\":6809:6831   */\n      swap1\n      pop\n        /* \"#utility.yul\":6876:6877   */\n      0x01\n        /* \"#utility.yul\":6870:6874   */\n      dup3\n        /* \"#utility.yul\":6866:6878   */\n      and\n        /* \"#utility.yul\":6897:6915   */\n      dup1\n        /* \"#utility.yul\":6887:6968   */\n      tag_160\n      jumpi\n        /* \"#utility.yul\":6953:6957   */\n      0x7f\n        /* \"#utility.yul\":6945:6951   */\n      dup3\n        /* \"#utility.yul\":6941:6958   */\n      and\n        /* \"#utility.yul\":6931:6958   */\n      swap2\n      pop\n        /* \"#utility.yul\":6887:6968   */\n    tag_160:\n        /* \"#utility.yul\":7015:7017   */\n      0x20\n        /* \"#utility.yul\":7007:7013   */\n      dup3\n        /* \"#utility.yul\":7004:7018   */\n      lt\n        /* \"#utility.yul\":6984:7002   */\n      dup2\n        /* \"#utility.yul\":6981:7019   */\n      eq\n        /* \"#utility.yul\":6978:7062   */\n      iszero\n      tag_161\n      jumpi\n        /* \"#utility.yul\":7034:7052   */\n      tag_162\n      tag_163\n      jump\t// in\n    tag_162:\n        /* \"#utility.yul\":6978:7062   */\n    tag_161:\n        /* \"#utility.yul\":6799:7068   */\n      pop\n        /* \"#utility.yul\":6748:7068   */\n      swap2\n      swap1\n      pop\n      jump\t// out\n        /* \"#utility.yul\":7074:7355   */\n    tag_133:\n        /* \"#utility.yul\":7157:7184   */\n      tag_165\n        /* \"#utility.yul\":7179:7183   */\n      dup3\n        /* \"#utility.yul\":7157:7184   */\n      tag_114\n      jump\t// in\n    tag_165:\n        /* \"#utility.yul\":7149:7155   */\n      dup2\n        /* \"#utility.yul\":7145:7185   */\n      add\n        /* \"#utility.yul\":7287:7293   */\n      dup2\n        /* \"#utility.yul\":7275:7285   */\n      dup2\n        /* \"#utility.yul\":7272:7294   */\n      lt\n        /* \"#utility.yul\":7251:7269   */\n      0xffffffffffffffff\n        /* \"#utility.yul\":7239:7249   */\n      dup3\n        /* \"#utility.yul\":7236:7270   */\n      gt\n        /* \"#utility.yul\":7233:7295   */\n      or\n        /* \"#utility.yul\":7230:7318   */\n      iszero\n      tag_166\n      jumpi\n        /* \"#utility.yul\":7298:7316   */\n      tag_167\n      tag_138\n      jump\t// in\n    tag_167:\n        /* \"#utility.yul\":7230:7318   */\n    tag_166:\n        /* \"#utility.yul\":7338:7348   */\n      dup1\n        /* \"#utility.yul\":7334:7336   */\n      0x40\n        /* \"#utility.yul\":7327:7349   */\n      mstore\n        /* \"#utility.yul\":7117:7355   */\n      pop\n        /* \"#utility.yul\":7074:7355   */\n      pop\n      pop\n      jump\t// out\n        /* \"#utility.yul\":7361:7541   */\n    tag_147:\n        /* \"#utility.yul\":7409:7486   */\n      0x4e487b7100000000000000000000000000000000000000000000000000000000\n        /* \"#utility.yul\":7406:7407   */\n      0x00\n        /* \"#utility.yul\":7399:7487   */\n      mstore\n        /* \"#utility.yul\":7506:7510   */\n      0x11\n        /* \"#utility.yul\":7503:7504   */\n      0x04\n        /* \"#utility.yul\":7496:7511   */\n      mstore\n        /* \"#utility.yul\":7530:7534   */\n      0x24\n        /* \"#utility.yul\":7527:7528   */\n      0x00\n        /* \"#utility.yul\":7520:7535   */\n      revert\n        /* \"#utility.yul\":7547:7727   */\n    tag_163:\n        /* \"#utility.yul\":7595:7672   */\n      0x4e487b7100000000000000000000000000000000000000000000000000000000\n        /* \"#utility.yul\":7592:7593   */\n      0x00\n        /* \"#utility.yul\":7585:7673   */\n      mstore\n        /* \"#utility.yul\":7692:7696   */\n      0x22\n        /* \"#utility.yul\":7689:7690   */\n      0x04\n        /* \"#utility.yul\":7682:7697   */\n      mstore\n        /* \"#utility.yul\":7716:7720   */\n      0x24\n        /* \"#utility.yul\":7713:7714   */\n      0x00\n        /* \"#utility.yul\":7706:7721   */\n      revert\n        /* \"#utility.yul\":7733:7913   */\n    tag_138:\n        /* \"#utility.yul\":7781:7858   */\n      0x4e487b7100000000000000000000000000000000000000000000000000000000\n        /* \"#utility.yul\":7778:7779   */\n      0x00\n        /* \"#utility.yul\":7771:7859   */\n      mstore\n        /* \"#utility.yul\":7878:7882   */\n      0x41\n        /* \"#utility.yul\":7875:7876   */\n      0x04\n        /* \"#utility.yul\":7868:7883   */\n      mstore\n        /* \"#utility.yul\":7902:7906   */\n      0x24\n        /* \"#utility.yul\":7899:7900   */\n      0x00\n        /* \"#utility.yul\":7892:7907   */\n      revert\n        /* \"#utility.yul\":7919:8036   */\n    tag_75:\n        /* \"#utility.yul\":8028:8029   */\n      0x00\n        /* \"#utility.yul\":8025:8026   */\n      dup1\n        /* \"#utility.yul\":8018:8030   */\n      revert\n        /* \"#utility.yul\":8042:8159   */\n    tag_64:\n        /* \"#utility.yul\":8151:8152   */\n      0x00\n        /* \"#utility.yul\":8148:8149   */\n      dup1\n        /* \"#utility.yul\":8141:8153   */\n      revert\n        /* \"#utility.yul\":8165:8282   */\n    tag_91:\n        /* \"#utility.yul\":8274:8275   */\n      0x00\n        /* \"#utility.yul\":8271:8272   */\n      dup1\n        /* \"#utility.yul\":8264:8276   */\n      revert\n        /* \"#utility.yul\":8288:8405   */\n    tag_84:\n        /* \"#utility.yul\":8397:8398   */\n      0x00\n        /* \"#utility.yul\":8394:8395   */\n      dup1\n        /* \"#utility.yul\":8387:8399   */\n      revert\n        /* \"#utility.yul\":8411:8513   */\n    tag_114:\n        /* \"#utility.yul\":8452:8458   */\n      0x00\n        /* \"#utility.yul\":8503:8505   */\n      0x1f\n        /* \"#utility.yul\":8499:8506   */\n      not\n        /* \"#utility.yul\":8494:8496   */\n      0x1f\n        /* \"#utility.yul\":8487:8492   */\n      dup4\n        /* \"#utility.yul\":8483:8497   */\n      add\n        /* \"#utility.yul\":8479:8507   */\n      and\n        /* \"#utility.yul\":8469:8507   */\n      swap1\n      pop\n        /* \"#utility.yul\":8411:8513   */\n      swap2\n      swap1\n      pop\n      jump\t// out\n        /* \"#utility.yul\":8519:8641   */\n    tag_70:\n        /* \"#utility.yul\":8592:8616   */\n      tag_177\n        /* \"#utility.yul\":8610:8615   */\n      dup2\n        /* \"#utility.yul\":8592:8616   */\n      tag_104\n      jump\t// in\n    tag_177:\n        /* \"#utility.yul\":8585:8590   */\n      dup2\n        /* \"#utility.yul\":8582:8617   */\n      eq\n        /* \"#utility.yul\":8572:8635   */\n      tag_178\n      jumpi\n        /* \"#utility.yul\":8631:8632   */\n      0x00\n        /* \"#utility.yul\":8628:8629   */\n      dup1\n        /* \"#utility.yul\":8621:8633   */\n      revert\n        /* \"#utility.yul\":8572:8635   */\n    tag_178:\n        /* \"#utility.yul\":8519:8641   */\n      pop\n      jump\t// out\n        /* \"#utility.yul\":8647:8769   */\n    tag_80:\n        /* \"#utility.yul\":8720:8744   */\n      tag_180\n        /* \"#utility.yul\":8738:8743   */\n      dup2\n        /* \"#utility.yul\":8720:8744   */\n      tag_118\n      jump\t// in\n    tag_180:\n        /* \"#utility.yul\":8713:8718   */\n      dup2\n        /* \"#utility.yul\":8710:8745   */\n      eq\n        /* \"#utility.yul\":8700:8763   */\n      tag_181\n      jumpi\n        /* \"#utility.yul\":8759:8760   */\n      0x00\n        /* \"#utility.yul\":8756:8757   */\n      dup1\n        /* \"#utility.yul\":8749:8761   */\n      revert\n        /* \"#utility.yul\":8700:8763   */\n    tag_181:\n        /* \"#utility.yul\":8647:8769   */\n      pop\n      jump\t// out\n\n    auxdata: 0xa26469706673582212208594e046ed06d70913148fd5b337ceeacc99ec3b3e171e8faacc93f4c67d8b3764736f6c63430008070033\n}\n",
				"bytecode": {
					"linkReferences": {},
					"object": "60806040526000805534801561001457600080fd5b5061095c806100246000396000f3fe608060405234801561001057600080fd5b506004361061004c5760003560e01c8063642f9163146100515780639cc8f13914610082578063a6c807a91461009e578063e581f9ee146100d1575b600080fd5b61006b60048036038101906100669190610574565b6100ef565b60405161007992919061064b565b60405180910390f35b61009c600480360381019061009791906104e9565b6100f7565b005b6100b860048036038101906100b391906104bc565b610219565b6040516100c894939291906105f8565b60405180910390f35b6100d9610379565b6040516100e69190610682565b60405180910390f35b606080915091565b60405180608001604052803373ffffffffffffffffffffffffffffffffffffffff16815260200184815260200183815260200182815250600160003373ffffffffffffffffffffffffffffffffffffffff1673ffffffffffffffffffffffffffffffffffffffff16815260200190815260200160002060008201518160000160006101000a81548173ffffffffffffffffffffffffffffffffffffffff021916908373ffffffffffffffffffffffffffffffffffffffff16021790555060208201518160010190805190602001906101d092919061037f565b5060408201518160020190805190602001906101ed92919061037f565b5060608201518160030155905050600160008082825461020d919061070f565b92505081905550505050565b60016020528060005260406000206000915090508060000160009054906101000a900473ffffffffffffffffffffffffffffffffffffffff1690806001018054610262906107e3565b80601f016020809104026020016040519081016040528092919081815260200182805461028e906107e3565b80156102db5780601f106102b0576101008083540402835291602001916102db565b820191906000526020600020905b8154815290600101906020018083116102be57829003601f168201915b5050505050908060020180546102f0906107e3565b80601f016020809104026020016040519081016040528092919081815260200182805461031c906107e3565b80156103695780601f1061033e57610100808354040283529160200191610369565b820191906000526020600020905b81548152906001019060200180831161034c57829003601f168201915b5050505050908060030154905084565b60005481565b82805461038b906107e3565b90600052602060002090601f0160209004810192826103ad57600085556103f4565b82601f106103c657805160ff19168380011785556103f4565b828001600101855582156103f4579182015b828111156103f35782518255916020019190600101906103d8565b5b5090506104019190610405565b5090565b5b8082111561041e576000816000905550600101610406565b5090565b6000610435610430846106c2565b61069d565b905082815260208101848484011115610451576104506108d8565b5b61045c8482856107a1565b509392505050565b600081359050610473816108f8565b92915050565b600082601f83011261048e5761048d6108d3565b5b813561049e848260208601610422565b91505092915050565b6000813590506104b68161090f565b92915050565b6000602082840312156104d2576104d16108e2565b5b60006104e084828501610464565b91505092915050565b600080600060608486031215610502576105016108e2565b5b600084013567ffffffffffffffff8111156105205761051f6108dd565b5b61052c86828701610479565b935050602084013567ffffffffffffffff81111561054d5761054c6108dd565b5b61055986828701610479565b925050604061056a868287016104a7565b9150509250925092565b60006020828403121561058a576105896108e2565b5b6000610598848285016104a7565b91505092915050565b6105aa81610765565b82525050565b60006105bb826106f3565b6105c581856106fe565b93506105d58185602086016107b0565b6105de816108e7565b840191505092915050565b6105f281610797565b82525050565b600060808201905061060d60008301876105a1565b818103602083015261061f81866105b0565b9050818103604083015261063381856105b0565b905061064260608301846105e9565b95945050505050565b6000604082019050818103600083015261066581856105b0565b9050818103602083015261067981846105b0565b90509392505050565b600060208201905061069760008301846105e9565b92915050565b60006106a76106b8565b90506106b38282610815565b919050565b6000604051905090565b600067ffffffffffffffff8211156106dd576106dc6108a4565b5b6106e6826108e7565b9050602081019050919050565b600081519050919050565b600082825260208201905092915050565b600061071a82610797565b915061072583610797565b9250827fffffffffffffffffffffffffffffffffffffffffffffffffffffffffffffffff0382111561075a57610759610846565b5b828201905092915050565b600061077082610777565b9050919050565b600073ffffffffffffffffffffffffffffffffffffffff82169050919050565b6000819050919050565b82818337600083830152505050565b60005b838110156107ce5780820151818401526020810190506107b3565b838111156107dd576000848401525b50505050565b600060028204905060018216806107fb57607f821691505b6020821081141561080f5761080e610875565b5b50919050565b61081e826108e7565b810181811067ffffffffffffffff8211171561083d5761083c6108a4565b5b80604052505050565b7f4e487b7100000000000000000000000000000000000000000000000000000000600052601160045260246000fd5b7f4e487b7100000000000000000000000000000000000000000000000000000000600052602260045260246000fd5b7f4e487b7100000000000000000000000000000000000000000000000000000000600052604160045260246000fd5b600080fd5b600080fd5b600080fd5b600080fd5b6000601f19601f8301169050919050565b61090181610765565b811461090c57600080fd5b50565b61091881610797565b811461092357600080fd5b5056fea26469706673582212208594e046ed06d70913148fd5b337ceeacc99ec3b3e171e8faacc93f4c67d8b3764736f6c63430008070033",
					"opcodes": "PUSH1 0x80 PUSH1 0x40 MSTORE PUSH1 0x0 DUP1 SSTORE CALLVALUE DUP1 ISZERO PUSH2 0x14 JUMPI PUSH1 0x0 DUP1 REVERT JUMPDEST POP PUSH2 0x95C DUP1 PUSH2 0x24 PUSH1 0x0 CODECOPY PUSH1 0x0 RETURN INVALID PUSH1 0x80 PUSH1 0x40 MSTORE CALLVALUE DUP1 ISZERO PUSH2 0x10 JUMPI PUSH1 0x0 DUP1 REVERT JUMPDEST POP PUSH1 0x4 CALLDATASIZE LT PUSH2 0x4C JUMPI PUSH1 0x0 CALLDATALOAD PUSH1 0xE0 SHR DUP1 PUSH4 0x642F9163 EQ PUSH2 0x51 JUMPI DUP1 PUSH4 0x9CC8F139 EQ PUSH2 0x82 JUMPI DUP1 PUSH4 0xA6C807A9 EQ PUSH2 0x9E JUMPI DUP1 PUSH4 0xE581F9EE EQ PUSH2 0xD1 JUMPI JUMPDEST PUSH1 0x0 DUP1 REVERT JUMPDEST PUSH2 0x6B PUSH1 0x4 DUP1 CALLDATASIZE SUB DUP2 ADD SWAP1 PUSH2 0x66 SWAP2 SWAP1 PUSH2 0x574 JUMP JUMPDEST PUSH2 0xEF JUMP JUMPDEST PUSH1 0x40 MLOAD PUSH2 0x79 SWAP3 SWAP2 SWAP1 PUSH2 0x64B JUMP JUMPDEST PUSH1 0x40 MLOAD DUP1 SWAP2 SUB SWAP1 RETURN JUMPDEST PUSH2 0x9C PUSH1 0x4 DUP1 CALLDATASIZE SUB DUP2 ADD SWAP1 PUSH2 0x97 SWAP2 SWAP1 PUSH2 0x4E9 JUMP JUMPDEST PUSH2 0xF7 JUMP JUMPDEST STOP JUMPDEST PUSH2 0xB8 PUSH1 0x4 DUP1 CALLDATASIZE SUB DUP2 ADD SWAP1 PUSH2 0xB3 SWAP2 SWAP1 PUSH2 0x4BC JUMP JUMPDEST PUSH2 0x219 JUMP JUMPDEST PUSH1 0x40 MLOAD PUSH2 0xC8 SWAP5 SWAP4 SWAP3 SWAP2 SWAP1 PUSH2 0x5F8 JUMP JUMPDEST PUSH1 0x40 MLOAD DUP1 SWAP2 SUB SWAP1 RETURN JUMPDEST PUSH2 0xD9 PUSH2 0x379 JUMP JUMPDEST PUSH1 0x40 MLOAD PUSH2 0xE6 SWAP2 SWAP1 PUSH2 0x682 JUMP JUMPDEST PUSH1 0x40 MLOAD DUP1 SWAP2 SUB SWAP1 RETURN JUMPDEST PUSH1 0x60 DUP1 SWAP2 POP SWAP2 JUMP JUMPDEST PUSH1 0x40 MLOAD DUP1 PUSH1 0x80 ADD PUSH1 0x40 MSTORE DUP1 CALLER PUSH20 0xFFFFFFFFFFFFFFFFFFFFFFFFFFFFFFFFFFFFFFFF AND DUP2 MSTORE PUSH1 0x20 ADD DUP5 DUP2 MSTORE PUSH1 0x20 ADD DUP4 DUP2 MSTORE PUSH1 0x20 ADD DUP3 DUP2 MSTORE POP PUSH1 0x1 PUSH1 0x0 CALLER PUSH20 0xFFFFFFFFFFFFFFFFFFFFFFFFFFFFFFFFFFFFFFFF AND PUSH20 0xFFFFFFFFFFFFFFFFFFFFFFFFFFFFFFFFFFFFFFFF AND DUP2 MSTORE PUSH1 0x20 ADD SWAP1 DUP2 MSTORE PUSH1 0x20 ADD PUSH1 0x0 KECCAK256 PUSH1 0x0 DUP3 ADD MLOAD DUP2 PUSH1 0x0 ADD PUSH1 0x0 PUSH2 0x100 EXP DUP2 SLOAD DUP2 PUSH20 0xFFFFFFFFFFFFFFFFFFFFFFFFFFFFFFFFFFFFFFFF MUL NOT AND SWAP1 DUP4 PUSH20 0xFFFFFFFFFFFFFFFFFFFFFFFFFFFFFFFFFFFFFFFF AND MUL OR SWAP1 SSTORE POP PUSH1 0x20 DUP3 ADD MLOAD DUP2 PUSH1 0x1 ADD SWAP1 DUP1 MLOAD SWAP1 PUSH1 0x20 ADD SWAP1 PUSH2 0x1D0 SWAP3 SWAP2 SWAP1 PUSH2 0x37F JUMP JUMPDEST POP PUSH1 0x40 DUP3 ADD MLOAD DUP2 PUSH1 0x2 ADD SWAP1 DUP1 MLOAD SWAP1 PUSH1 0x20 ADD SWAP1 PUSH2 0x1ED SWAP3 SWAP2 SWAP1 PUSH2 0x37F JUMP JUMPDEST POP PUSH1 0x60 DUP3 ADD MLOAD DUP2 PUSH1 0x3 ADD SSTORE SWAP1 POP POP PUSH1 0x1 PUSH1 0x0 DUP1 DUP3 DUP3 SLOAD PUSH2 0x20D SWAP2 SWAP1 PUSH2 0x70F JUMP JUMPDEST SWAP3 POP POP DUP2 SWAP1 SSTORE POP POP POP POP JUMP JUMPDEST PUSH1 0x1 PUSH1 0x20 MSTORE DUP1 PUSH1 0x0 MSTORE PUSH1 0x40 PUSH1 0x0 KECCAK256 PUSH1 0x0 SWAP2 POP SWAP1 POP DUP1 PUSH1 0x0 ADD PUSH1 0x0 SWAP1 SLOAD SWAP1 PUSH2 0x100 EXP SWAP1 DIV PUSH20 0xFFFFFFFFFFFFFFFFFFFFFFFFFFFFFFFFFFFFFFFF AND SWAP1 DUP1 PUSH1 0x1 ADD DUP1 SLOAD PUSH2 0x262 SWAP1 PUSH2 0x7E3 JUMP JUMPDEST DUP1 PUSH1 0x1F ADD PUSH1 0x20 DUP1 SWAP2 DIV MUL PUSH1 0x20 ADD PUSH1 0x40 MLOAD SWAP1 DUP2 ADD PUSH1 0x40 MSTORE DUP1 SWAP3 SWAP2 SWAP1 DUP2 DUP2 MSTORE PUSH1 0x20 ADD DUP3 DUP1 SLOAD PUSH2 0x28E SWAP1 PUSH2 0x7E3 JUMP JUMPDEST DUP1 ISZERO PUSH2 0x2DB JUMPI DUP1 PUSH1 0x1F LT PUSH2 0x2B0 JUMPI PUSH2 0x100 DUP1 DUP4 SLOAD DIV MUL DUP4 MSTORE SWAP2 PUSH1 0x20 ADD SWAP2 PUSH2 0x2DB JUMP JUMPDEST DUP3 ADD SWAP2 SWAP1 PUSH1 0x0 MSTORE PUSH1 0x20 PUSH1 0x0 KECCAK256 SWAP1 JUMPDEST DUP2 SLOAD DUP2 MSTORE SWAP1 PUSH1 0x1 ADD SWAP1 PUSH1 0x20 ADD DUP1 DUP4 GT PUSH2 0x2BE JUMPI DUP3 SWAP1 SUB PUSH1 0x1F AND DUP3 ADD SWAP2 JUMPDEST POP POP POP POP POP SWAP1 DUP1 PUSH1 0x2 ADD DUP1 SLOAD PUSH2 0x2F0 SWAP1 PUSH2 0x7E3 JUMP JUMPDEST DUP1 PUSH1 0x1F ADD PUSH1 0x20 DUP1 SWAP2 DIV MUL PUSH1 0x20 ADD PUSH1 0x40 MLOAD SWAP1 DUP2 ADD PUSH1 0x40 MSTORE DUP1 SWAP3 SWAP2 SWAP1 DUP2 DUP2 MSTORE PUSH1 0x20 ADD DUP3 DUP1 SLOAD PUSH2 0x31C SWAP1 PUSH2 0x7E3 JUMP JUMPDEST DUP1 ISZERO PUSH2 0x369 JUMPI DUP1 PUSH1 0x1F LT PUSH2 0x33E JUMPI PUSH2 0x100 DUP1 DUP4 SLOAD DIV MUL DUP4 MSTORE SWAP2 PUSH1 0x20 ADD SWAP2 PUSH2 0x369 JUMP JUMPDEST DUP3 ADD SWAP2 SWAP1 PUSH1 0x0 MSTORE PUSH1 0x20 PUSH1 0x0 KECCAK256 SWAP1 JUMPDEST DUP2 SLOAD DUP2 MSTORE SWAP1 PUSH1 0x1 ADD SWAP1 PUSH1 0x20 ADD DUP1 DUP4 GT PUSH2 0x34C JUMPI DUP3 SWAP1 SUB PUSH1 0x1F AND DUP3 ADD SWAP2 JUMPDEST POP POP POP POP POP SWAP1 DUP1 PUSH1 0x3 ADD SLOAD SWAP1 POP DUP5 JUMP JUMPDEST PUSH1 0x0 SLOAD DUP2 JUMP JUMPDEST DUP3 DUP1 SLOAD PUSH2 0x38B SWAP1 PUSH2 0x7E3 JUMP JUMPDEST SWAP1 PUSH1 0x0 MSTORE PUSH1 0x20 PUSH1 0x0 KECCAK256 SWAP1 PUSH1 0x1F ADD PUSH1 0x20 SWAP1 DIV DUP2 ADD SWAP3 DUP3 PUSH2 0x3AD JUMPI PUSH1 0x0 DUP6 SSTORE PUSH2 0x3F4 JUMP JUMPDEST DUP3 PUSH1 0x1F LT PUSH2 0x3C6 JUMPI DUP1 MLOAD PUSH1 0xFF NOT AND DUP4 DUP1 ADD OR DUP6 SSTORE PUSH2 0x3F4 JUMP JUMPDEST DUP3 DUP1 ADD PUSH1 0x1 ADD DUP6 SSTORE DUP3 ISZERO PUSH2 0x3F4 JUMPI SWAP2 DUP3 ADD JUMPDEST DUP3 DUP2 GT ISZERO PUSH2 0x3F3 JUMPI DUP3 MLOAD DUP3 SSTORE SWAP2 PUSH1 0x20 ADD SWAP2 SWAP1 PUSH1 0x1 ADD SWAP1 PUSH2 0x3D8 JUMP JUMPDEST JUMPDEST POP SWAP1 POP PUSH2 0x401 SWAP2 SWAP1 PUSH2 0x405 JUMP JUMPDEST POP SWAP1 JUMP JUMPDEST JUMPDEST DUP1 DUP3 GT ISZERO PUSH2 0x41E JUMPI PUSH1 0x0 DUP2 PUSH1 0x0 SWAP1 SSTORE POP PUSH1 0x1 ADD PUSH2 0x406 JUMP JUMPDEST POP SWAP1 JUMP JUMPDEST PUSH1 0x0 PUSH2 0x435 PUSH2 0x430 DUP5 PUSH2 0x6C2 JUMP JUMPDEST PUSH2 0x69D JUMP JUMPDEST SWAP1 POP DUP3 DUP2 MSTORE PUSH1 0x20 DUP2 ADD DUP5 DUP5 DUP5 ADD GT ISZERO PUSH2 0x451 JUMPI PUSH2 0x450 PUSH2 0x8D8 JUMP JUMPDEST JUMPDEST PUSH2 0x45C DUP5 DUP3 DUP6 PUSH2 0x7A1 JUMP JUMPDEST POP SWAP4 SWAP3 POP POP POP JUMP JUMPDEST PUSH1 0x0 DUP2 CALLDATALOAD SWAP1 POP PUSH2 0x473 DUP2 PUSH2 0x8F8 JUMP JUMPDEST SWAP3 SWAP2 POP POP JUMP JUMPDEST PUSH1 0x0 DUP3 PUSH1 0x1F DUP4 ADD SLT PUSH2 0x48E JUMPI PUSH2 0x48D PUSH2 0x8D3 JUMP JUMPDEST JUMPDEST DUP2 CALLDATALOAD PUSH2 0x49E DUP5 DUP3 PUSH1 0x20 DUP7 ADD PUSH2 0x422 JUMP JUMPDEST SWAP2 POP POP SWAP3 SWAP2 POP POP JUMP JUMPDEST PUSH1 0x0 DUP2 CALLDATALOAD SWAP1 POP PUSH2 0x4B6 DUP2 PUSH2 0x90F JUMP JUMPDEST SWAP3 SWAP2 POP POP JUMP JUMPDEST PUSH1 0x0 PUSH1 0x20 DUP3 DUP5 SUB SLT ISZERO PUSH2 0x4D2 JUMPI PUSH2 0x4D1 PUSH2 0x8E2 JUMP JUMPDEST JUMPDEST PUSH1 0x0 PUSH2 0x4E0 DUP5 DUP3 DUP6 ADD PUSH2 0x464 JUMP JUMPDEST SWAP2 POP POP SWAP3 SWAP2 POP POP JUMP JUMPDEST PUSH1 0x0 DUP1 PUSH1 0x0 PUSH1 0x60 DUP5 DUP7 SUB SLT ISZERO PUSH2 0x502 JUMPI PUSH2 0x501 PUSH2 0x8E2 JUMP JUMPDEST JUMPDEST PUSH1 0x0 DUP5 ADD CALLDATALOAD PUSH8 0xFFFFFFFFFFFFFFFF DUP2 GT ISZERO PUSH2 0x520 JUMPI PUSH2 0x51F PUSH2 0x8DD JUMP JUMPDEST JUMPDEST PUSH2 0x52C DUP7 DUP3 DUP8 ADD PUSH2 0x479 JUMP JUMPDEST SWAP4 POP POP PUSH1 0x20 DUP5 ADD CALLDATALOAD PUSH8 0xFFFFFFFFFFFFFFFF DUP2 GT ISZERO PUSH2 0x54D JUMPI PUSH2 0x54C PUSH2 0x8DD JUMP JUMPDEST JUMPDEST PUSH2 0x559 DUP7 DUP3 DUP8 ADD PUSH2 0x479 JUMP JUMPDEST SWAP3 POP POP PUSH1 0x40 PUSH2 0x56A DUP7 DUP3 DUP8 ADD PUSH2 0x4A7 JUMP JUMPDEST SWAP2 POP POP SWAP3 POP SWAP3 POP SWAP3 JUMP JUMPDEST PUSH1 0x0 PUSH1 0x20 DUP3 DUP5 SUB SLT ISZERO PUSH2 0x58A JUMPI PUSH2 0x589 PUSH2 0x8E2 JUMP JUMPDEST JUMPDEST PUSH1 0x0 PUSH2 0x598 DUP5 DUP3 DUP6 ADD PUSH2 0x4A7 JUMP JUMPDEST SWAP2 POP POP SWAP3 SWAP2 POP POP JUMP JUMPDEST PUSH2 0x5AA DUP2 PUSH2 0x765 JUMP JUMPDEST DUP3 MSTORE POP POP JUMP JUMPDEST PUSH1 0x0 PUSH2 0x5BB DUP3 PUSH2 0x6F3 JUMP JUMPDEST PUSH2 0x5C5 DUP2 DUP6 PUSH2 0x6FE JUMP JUMPDEST SWAP4 POP PUSH2 0x5D5 DUP2 DUP6 PUSH1 0x20 DUP7 ADD PUSH2 0x7B0 JUMP JUMPDEST PUSH2 0x5DE DUP2 PUSH2 0x8E7 JUMP JUMPDEST DUP5 ADD SWAP2 POP POP SWAP3 SWAP2 POP POP JUMP JUMPDEST PUSH2 0x5F2 DUP2 PUSH2 0x797 JUMP JUMPDEST DUP3 MSTORE POP POP JUMP JUMPDEST PUSH1 0x0 PUSH1 0x80 DUP3 ADD SWAP1 POP PUSH2 0x60D PUSH1 0x0 DUP4 ADD DUP8 PUSH2 0x5A1 JUMP JUMPDEST DUP2 DUP2 SUB PUSH1 0x20 DUP4 ADD MSTORE PUSH2 0x61F DUP2 DUP7 PUSH2 0x5B0 JUMP JUMPDEST SWAP1 POP DUP2 DUP2 SUB PUSH1 0x40 DUP4 ADD MSTORE PUSH2 0x633 DUP2 DUP6 PUSH2 0x5B0 JUMP JUMPDEST SWAP1 POP PUSH2 0x642 PUSH1 0x60 DUP4 ADD DUP5 PUSH2 0x5E9 JUMP JUMPDEST SWAP6 SWAP5 POP POP POP POP POP JUMP JUMPDEST PUSH1 0x0 PUSH1 0x40 DUP3 ADD SWAP1 POP DUP2 DUP2 SUB PUSH1 0x0 DUP4 ADD MSTORE PUSH2 0x665 DUP2 DUP6 PUSH2 0x5B0 JUMP JUMPDEST SWAP1 POP DUP2 DUP2 SUB PUSH1 0x20 DUP4 ADD MSTORE PUSH2 0x679 DUP2 DUP5 PUSH2 0x5B0 JUMP JUMPDEST SWAP1 POP SWAP4 SWAP3 POP POP POP JUMP JUMPDEST PUSH1 0x0 PUSH1 0x20 DUP3 ADD SWAP1 POP PUSH2 0x697 PUSH1 0x0 DUP4 ADD DUP5 PUSH2 0x5E9 JUMP JUMPDEST SWAP3 SWAP2 POP POP JUMP JUMPDEST PUSH1 0x0 PUSH2 0x6A7 PUSH2 0x6B8 JUMP JUMPDEST SWAP1 POP PUSH2 0x6B3 DUP3 DUP3 PUSH2 0x815 JUMP JUMPDEST SWAP2 SWAP1 POP JUMP JUMPDEST PUSH1 0x0 PUSH1 0x40 MLOAD SWAP1 POP SWAP1 JUMP JUMPDEST PUSH1 0x0 PUSH8 0xFFFFFFFFFFFFFFFF DUP3 GT ISZERO PUSH2 0x6DD JUMPI PUSH2 0x6DC PUSH2 0x8A4 JUMP JUMPDEST JUMPDEST PUSH2 0x6E6 DUP3 PUSH2 0x8E7 JUMP JUMPDEST SWAP1 POP PUSH1 0x20 DUP2 ADD SWAP1 POP SWAP2 SWAP1 POP JUMP JUMPDEST PUSH1 0x0 DUP2 MLOAD SWAP1 POP SWAP2 SWAP1 POP JUMP JUMPDEST PUSH1 0x0 DUP3 DUP3 MSTORE PUSH1 0x20 DUP3 ADD SWAP1 POP SWAP3 SWAP2 POP POP JUMP JUMPDEST PUSH1 0x0 PUSH2 0x71A DUP3 PUSH2 0x797 JUMP JUMPDEST SWAP2 POP PUSH2 0x725 DUP4 PUSH2 0x797 JUMP JUMPDEST SWAP3 POP DUP3 PUSH32 0xFFFFFFFFFFFFFFFFFFFFFFFFFFFFFFFFFFFFFFFFFFFFFFFFFFFFFFFFFFFFFFFF SUB DUP3 GT ISZERO PUSH2 0x75A JUMPI PUSH2 0x759 PUSH2 0x846 JUMP JUMPDEST JUMPDEST DUP3 DUP3 ADD SWAP1 POP SWAP3 SWAP2 POP POP JUMP JUMPDEST PUSH1 0x0 PUSH2 0x770 DUP3 PUSH2 0x777 JUMP JUMPDEST SWAP1 POP SWAP2 SWAP1 POP JUMP JUMPDEST PUSH1 0x0 PUSH20 0xFFFFFFFFFFFFFFFFFFFFFFFFFFFFFFFFFFFFFFFF DUP3 AND SWAP1 POP SWAP2 SWAP1 POP JUMP JUMPDEST PUSH1 0x0 DUP2 SWAP1 POP SWAP2 SWAP1 POP JUMP JUMPDEST DUP3 DUP2 DUP4 CALLDATACOPY PUSH1 0x0 DUP4 DUP4 ADD MSTORE POP POP POP JUMP JUMPDEST PUSH1 0x0 JUMPDEST DUP4 DUP2 LT ISZERO PUSH2 0x7CE JUMPI DUP1 DUP3 ADD MLOAD DUP2 DUP5 ADD MSTORE PUSH1 0x20 DUP2 ADD SWAP1 POP PUSH2 0x7B3 JUMP JUMPDEST DUP4 DUP2 GT ISZERO PUSH2 0x7DD JUMPI PUSH1 0x0 DUP5 DUP5 ADD MSTORE JUMPDEST POP POP POP POP JUMP JUMPDEST PUSH1 0x0 PUSH1 0x2 DUP3 DIV SWAP1 POP PUSH1 0x1 DUP3 AND DUP1 PUSH2 0x7FB JUMPI PUSH1 0x7F DUP3 AND SWAP2 POP JUMPDEST PUSH1 0x20 DUP3 LT DUP2 EQ ISZERO PUSH2 0x80F JUMPI PUSH2 0x80E PUSH2 0x875 JUMP JUMPDEST JUMPDEST POP SWAP2 SWAP1 POP JUMP JUMPDEST PUSH2 0x81E DUP3 PUSH2 0x8E7 JUMP JUMPDEST DUP2 ADD DUP2 DUP2 LT PUSH8 0xFFFFFFFFFFFFFFFF DUP3 GT OR ISZERO PUSH2 0x83D JUMPI PUSH2 0x83C PUSH2 0x8A4 JUMP JUMPDEST JUMPDEST DUP1 PUSH1 0x40 MSTORE POP POP POP JUMP JUMPDEST PUSH32 0x4E487B7100000000000000000000000000000000000000000000000000000000 PUSH1 0x0 MSTORE PUSH1 0x11 PUSH1 0x4 MSTORE PUSH1 0x24 PUSH1 0x0 REVERT JUMPDEST PUSH32 0x4E487B7100000000000000000000000000000000000000000000000000000000 PUSH1 0x0 MSTORE PUSH1 0x22 PUSH1 0x4 MSTORE PUSH1 0x24 PUSH1 0x0 REVERT JUMPDEST PUSH32 0x4E487B7100000000000000000000000000000000000000000000000000000000 PUSH1 0x0 MSTORE PUSH1 0x41 PUSH1 0x4 MSTORE PUSH1 0x24 PUSH1 0x0 REVERT JUMPDEST PUSH1 0x0 DUP1 REVERT JUMPDEST PUSH1 0x0 DUP1 REVERT JUMPDEST PUSH1 0x0 DUP1 REVERT JUMPDEST PUSH1 0x0 DUP1 REVERT JUMPDEST PUSH1 0x0 PUSH1 0x1F NOT PUSH1 0x1F DUP4 ADD AND SWAP1 POP SWAP2 SWAP1 POP JUMP JUMPDEST PUSH2 0x901 DUP2 PUSH2 0x765 JUMP JUMPDEST DUP2 EQ PUSH2 0x90C JUMPI PUSH1 0x0 DUP1 REVERT JUMPDEST POP JUMP JUMPDEST PUSH2 0x918 DUP2 PUSH2 0x797 JUMP JUMPDEST DUP2 EQ PUSH2 0x923 JUMPI PUSH1 0x0 DUP1 REVERT JUMPDEST POP JUMP INVALID LOG2 PUSH5 0x6970667358 0x22 SLT KECCAK256 DUP6 SWAP5 0xE0 CHAINID 0xED MOD 0xD7 MULMOD SGT EQ DUP16 0xD5 0xB3 CALLDATACOPY 0xCE 0xEA 0xCC SWAP10 0xEC EXTCODESIZE RETURNDATACOPY OR 0x1E DUP16 0xAA 0xCC SWAP4 DELEGATECALL 0xC6 PUSH30 0x8B3764736F6C634300080700330000000000000000000000000000000000 "
				},
				"gasEstimates": {
					"creation": {
						"codeDepositCost": "479200",
						"executionCost": "5517",
						"totalCost": "484717"
					},
					"external": {
						"addStudent(string,string,uint256)": "infinite",
						"getStudent(uint256)": "infinite",
						"studentCount()": "2473",
						"students(address)": "infinite"
					}
				},
				"methodIdentifiers": {
					"addStudent(string,string,uint256)": "9cc8f139",
					"getStudent(uint256)": "642f9163",
					"studentCount()": "e581f9ee",
					"students(address)": "a6c807a9"
				}
			},
			"storageLayout": {
				"storage": [
					{
						"astId": 4,
						"contract": "contracts/students.sol:myStudent",
						"label": "studentCount",
						"offset": 0,
						"slot": "0",
						"type": "t_uint256"
					},
					{
						"astId": 9,
						"contract": "contracts/students.sol:myStudent",
						"label": "students",
						"offset": 0,
						"slot": "1",
						"type": "t_mapping(t_address,t_struct(Student)18_storage)"
					}
				],
				"types": {
					"t_address": {
						"encoding": "inplace",
						"label": "address",
						"numberOfBytes": "20"
					},
					"t_mapping(t_address,t_struct(Student)18_storage)": {
						"encoding": "mapping",
						"key": "t_address",
						"label": "mapping(address => struct myStudent.Student)",
						"numberOfBytes": "32",
						"value": "t_struct(Student)18_storage"
					},
					"t_string_storage": {
						"encoding": "bytes",
						"label": "string",
						"numberOfBytes": "32"
					},
					"t_struct(Student)18_storage": {
						"encoding": "inplace",
						"label": "struct myStudent.Student",
						"members": [
							{
								"astId": 11,
								"contract": "contracts/students.sol:myStudent",
								"label": "StudentAddress",
								"offset": 0,
								"slot": "0",
								"type": "t_address"
							},
							{
								"astId": 13,
								"contract": "contracts/students.sol:myStudent",
								"label": "firstName",
								"offset": 0,
								"slot": "1",
								"type": "t_string_storage"
							},
							{
								"astId": 15,
								"contract": "contracts/students.sol:myStudent",
								"label": "lastName",
								"offset": 0,
								"slot": "2",
								"type": "t_string_storage"
							},
							{
								"astId": 17,
								"contract": "contracts/students.sol:myStudent",
								"label": "_regNo",
								"offset": 0,
								"slot": "3",
								"type": "t_uint256"
							}
						],
						"numberOfBytes": "128"
					},
					"t_uint256": {
						"encoding": "inplace",
						"label": "uint256",
						"numberOfBytes": "32"
					}
				}
			},
			"userdoc": {
				"kind": "user",
				"methods": {},
				"version": 1
			}
		}
	}
}