{
	"contracts/students.sol": {
		"myStudent": {
			"abi": [
				{
					"inputs": [
						{
							"internalType": "string",
							"name": "firstName",
							"type": "string"
						},
						{
							"internalType": "string",
							"name": "lastName",
							"type": "string"
						},
						{
							"internalType": "uint256",
							"name": "_regNo",
							"type": "uint256"
						}
					],
					"name": "addStudent",
					"outputs": [],
					"stateMutability": "nonpayable",
					"type": "function"
				},
				{
					"inputs": [],
					"name": "studentCount",
					"outputs": [
						{
							"internalType": "uint256",
							"name": "",
							"type": "uint256"
						}
					],
					"stateMutability": "view",
					"type": "function"
				},
				{
					"inputs": [
						{
							"internalType": "address",
							"name": "",
							"type": "address"
						}
					],
					"name": "students",
					"outputs": [
						{
							"internalType": "address",
							"name": "StudentAddress",
							"type": "address"
						},
						{
							"internalType": "string",
							"name": "firstName",
							"type": "string"
						},
						{
							"internalType": "string",
							"name": "lastName",
							"type": "string"
						},
						{
							"internalType": "uint256",
							"name": "_regNo",
							"type": "uint256"
						}
					],
					"stateMutability": "view",
					"type": "function"
				}
			],
			"devdoc": {
				"kind": "dev",
				"methods": {},
				"version": 1
			},
			"evm": {
				"assembly": "    /* \"contracts/students.sol\":70:544  contract myStudent{\r... */\n  mstore(0x40, 0x80)\n    /* \"contracts/students.sol\":122:123  0 */\n  0x00\n    /* \"contracts/students.sol\":95:123  uint public studentCount = 0 */\n  dup1\n  sstore\n    /* \"contracts/students.sol\":70:544  contract myStudent{\r... */\n  callvalue\n  dup1\n  iszero\n  tag_1\n  jumpi\n  0x00\n  dup1\n  revert\ntag_1:\n  pop\n  dataSize(sub_0)\n  dup1\n  dataOffset(sub_0)\n  0x00\n  codecopy\n  0x00\n  return\nstop\n\nsub_0: assembly {\n        /* \"contracts/students.sol\":70:544  contract myStudent{\r... */\n      mstore(0x40, 0x80)\n      callvalue\n      dup1\n      iszero\n      tag_1\n      jumpi\n      0x00\n      dup1\n      revert\n    tag_1:\n      pop\n      jumpi(tag_2, lt(calldatasize, 0x04))\n      shr(0xe0, calldataload(0x00))\n      dup1\n      0x9cc8f139\n      eq\n      tag_3\n      jumpi\n      dup1\n      0xa6c807a9\n      eq\n      tag_4\n      jumpi\n      dup1\n      0xe581f9ee\n      eq\n      tag_5\n      jumpi\n    tag_2:\n      0x00\n      dup1\n      revert\n        /* \"contracts/students.sol\":326:533  function addStudent(string memory firstName, string memory lastName, uint _regNo) public {\r... */\n    tag_3:\n      tag_6\n      0x04\n      dup1\n      calldatasize\n      sub\n      dup2\n      add\n      swap1\n      tag_7\n      swap2\n      swap1\n      tag_8\n      jump\t// in\n    tag_7:\n      tag_9\n      jump\t// in\n    tag_6:\n      stop\n        /* \"contracts/students.sol\":130:174  mapping (address => Student) public students */\n    tag_4:\n      tag_10\n      0x04\n      dup1\n      calldatasize\n      sub\n      dup2\n      add\n      swap1\n      tag_11\n      swap2\n      swap1\n      tag_12\n      jump\t// in\n    tag_11:\n      tag_13\n      jump\t// in\n    tag_10:\n      mload(0x40)\n      tag_14\n      swap5\n      swap4\n      swap3\n      swap2\n      swap1\n      tag_15\n      jump\t// in\n    tag_14:\n      mload(0x40)\n      dup1\n      swap2\n      sub\n      swap1\n      return\n        /* \"contracts/students.sol\":95:123  uint public studentCount = 0 */\n    tag_5:\n      tag_16\n      tag_17\n      jump\t// in\n    tag_16:\n      mload(0x40)\n      tag_18\n      swap2\n      swap1\n      tag_19\n      jump\t// in\n    tag_18:\n      mload(0x40)\n      dup1\n      swap2\n      sub\n      swap1\n      return\n        /* \"contracts/students.sol\":326:533  function addStudent(string memory firstName, string memory lastName, uint _regNo) public {\r... */\n    tag_9:\n        /* \"contracts/students.sol\":449:497  Student(msg.sender, firstName, lastName, _regNo) */\n      mload(0x40)\n      dup1\n      0x80\n      add\n      0x40\n      mstore\n      dup1\n        /* \"contracts/students.sol\":457:467  msg.sender */\n      caller\n        /* \"contracts/students.sol\":449:497  Student(msg.sender, firstName, lastName, _regNo) */\n      0xffffffffffffffffffffffffffffffffffffffff\n      and\n      dup2\n      mstore\n      0x20\n      add\n        /* \"contracts/students.sol\":469:478  firstName */\n      dup5\n        /* \"contracts/students.sol\":449:497  Student(msg.sender, firstName, lastName, _regNo) */\n      dup2\n      mstore\n      0x20\n      add\n        /* \"contracts/students.sol\":480:488  lastName */\n      dup4\n        /* \"contracts/students.sol\":449:497  Student(msg.sender, firstName, lastName, _regNo) */\n      dup2\n      mstore\n      0x20\n      add\n        /* \"contracts/students.sol\":490:496  _regNo */\n      dup3\n        /* \"contracts/students.sol\":449:497  Student(msg.sender, firstName, lastName, _regNo) */\n      dup2\n      mstore\n      pop\n        /* \"contracts/students.sol\":426:434  students */\n      0x01\n        /* \"contracts/students.sol\":426:446  students[msg.sender] */\n      0x00\n        /* \"contracts/students.sol\":435:445  msg.sender */\n      caller\n        /* \"contracts/students.sol\":426:446  students[msg.sender] */\n      0xffffffffffffffffffffffffffffffffffffffff\n      and\n      0xffffffffffffffffffffffffffffffffffffffff\n      and\n      dup2\n      mstore\n      0x20\n      add\n      swap1\n      dup2\n      mstore\n      0x20\n      add\n      0x00\n      keccak256\n        /* \"contracts/students.sol\":426:497  students[msg.sender] = Student(msg.sender, firstName, lastName, _regNo) */\n      0x00\n      dup3\n      add\n      mload\n      dup2\n      0x00\n      add\n      exp(0x0100, 0x00)\n      dup2\n      sload\n      dup2\n      0xffffffffffffffffffffffffffffffffffffffff\n      mul\n      not\n      and\n      swap1\n      dup4\n      0xffffffffffffffffffffffffffffffffffffffff\n      and\n      mul\n      or\n      swap1\n      sstore\n      pop\n      0x20\n      dup3\n      add\n      mload\n      dup2\n      0x01\n      add\n      swap1\n      dup1\n      mload\n      swap1\n      0x20\n      add\n      swap1\n      tag_21\n      swap3\n      swap2\n      swap1\n      tag_22\n      jump\t// in\n    tag_21:\n      pop\n      0x40\n      dup3\n      add\n      mload\n      dup2\n      0x02\n      add\n      swap1\n      dup1\n      mload\n      swap1\n      0x20\n      add\n      swap1\n      tag_23\n      swap3\n      swap2\n      swap1\n      tag_22\n      jump\t// in\n    tag_23:\n      pop\n      0x60\n      dup3\n      add\n      mload\n      dup2\n      0x03\n      add\n      sstore\n      swap1\n      pop\n      pop\n        /* \"contracts/students.sol\":524:525  1 */\n      0x01\n        /* \"contracts/students.sol\":508:520  studentCount */\n      0x00\n      dup1\n        /* \"contracts/students.sol\":508:525  studentCount += 1 */\n      dup3\n      dup3\n      sload\n      tag_24\n      swap2\n      swap1\n      tag_25\n      jump\t// in\n    tag_24:\n      swap3\n      pop\n      pop\n      dup2\n      swap1\n      sstore\n      pop\n        /* \"contracts/students.sol\":326:533  function addStudent(string memory firstName, string memory lastName, uint _regNo) public {\r... */\n      pop\n      pop\n      pop\n      jump\t// out\n        /* \"contracts/students.sol\":130:174  mapping (address => Student) public students */\n    tag_13:\n      mstore(0x20, 0x01)\n      dup1\n      0x00\n      mstore\n      keccak256(0x00, 0x40)\n      0x00\n      swap2\n      pop\n      swap1\n      pop\n      dup1\n      0x00\n      add\n      0x00\n      swap1\n      sload\n      swap1\n      0x0100\n      exp\n      swap1\n      div\n      0xffffffffffffffffffffffffffffffffffffffff\n      and\n      swap1\n      dup1\n      0x01\n      add\n      dup1\n      sload\n      tag_26\n      swap1\n      tag_27\n      jump\t// in\n    tag_26:\n      dup1\n      0x1f\n      add\n      0x20\n      dup1\n      swap2\n      div\n      mul\n      0x20\n      add\n      mload(0x40)\n      swap1\n      dup2\n      add\n      0x40\n      mstore\n      dup1\n      swap3\n      swap2\n      swap1\n      dup2\n      dup2\n      mstore\n      0x20\n      add\n      dup3\n      dup1\n      sload\n      tag_28\n      swap1\n      tag_27\n      jump\t// in\n    tag_28:\n      dup1\n      iszero\n      tag_29\n      jumpi\n      dup1\n      0x1f\n      lt\n      tag_30\n      jumpi\n      0x0100\n      dup1\n      dup4\n      sload\n      div\n      mul\n      dup4\n      mstore\n      swap2\n      0x20\n      add\n      swap2\n      jump(tag_29)\n    tag_30:\n      dup3\n      add\n      swap2\n      swap1\n      0x00\n      mstore\n      keccak256(0x00, 0x20)\n      swap1\n    tag_31:\n      dup2\n      sload\n      dup2\n      mstore\n      swap1\n      0x01\n      add\n      swap1\n      0x20\n      add\n      dup1\n      dup4\n      gt\n      tag_31\n      jumpi\n      dup3\n      swap1\n      sub\n      0x1f\n      and\n      dup3\n      add\n      swap2\n    tag_29:\n      pop\n      pop\n      pop\n      pop\n      pop\n      swap1\n      dup1\n      0x02\n      add\n      dup1\n      sload\n      tag_32\n      swap1\n      tag_27\n      jump\t// in\n    tag_32:\n      dup1\n      0x1f\n      add\n      0x20\n      dup1\n      swap2\n      div\n      mul\n      0x20\n      add\n      mload(0x40)\n      swap1\n      dup2\n      add\n      0x40\n      mstore\n      dup1\n      swap3\n      swap2\n      swap1\n      dup2\n      dup2\n      mstore\n      0x20\n      add\n      dup3\n      dup1\n      sload\n      tag_33\n      swap1\n      tag_27\n      jump\t// in\n    tag_33:\n      dup1\n      iszero\n      tag_34\n      jumpi\n      dup1\n      0x1f\n      lt\n      tag_35\n      jumpi\n      0x0100\n      dup1\n      dup4\n      sload\n      div\n      mul\n      dup4\n      mstore\n      swap2\n      0x20\n      add\n      swap2\n      jump(tag_34)\n    tag_35:\n      dup3\n      add\n      swap2\n      swap1\n      0x00\n      mstore\n      keccak256(0x00, 0x20)\n      swap1\n    tag_36:\n      dup2\n      sload\n      dup2\n      mstore\n      swap1\n      0x01\n      add\n      swap1\n      0x20\n      add\n      dup1\n      dup4\n      gt\n      tag_36\n      jumpi\n      dup3\n      swap1\n      sub\n      0x1f\n      and\n      dup3\n      add\n      swap2\n    tag_34:\n      pop\n      pop\n      pop\n      pop\n      pop\n      swap1\n      dup1\n      0x03\n      add\n      sload\n      swap1\n      pop\n      dup5\n      jump\t// out\n        /* \"contracts/students.sol\":95:123  uint public studentCount = 0 */\n    tag_17:\n      sload(0x00)\n      dup2\n      jump\t// out\n    tag_22:\n      dup3\n      dup1\n      sload\n      tag_37\n      swap1\n      tag_27\n      jump\t// in\n    tag_37:\n      swap1\n      0x00\n      mstore\n      keccak256(0x00, 0x20)\n      swap1\n      0x1f\n      add\n      0x20\n      swap1\n      div\n      dup2\n      add\n      swap3\n      dup3\n      tag_39\n      jumpi\n      0x00\n      dup6\n      sstore\n      jump(tag_38)\n    tag_39:\n      dup3\n      0x1f\n      lt\n      tag_40\n      jumpi\n      dup1\n      mload\n      not(0xff)\n      and\n      dup4\n      dup1\n      add\n      or\n      dup6\n      sstore\n      jump(tag_38)\n    tag_40:\n      dup3\n      dup1\n      add\n      0x01\n      add\n      dup6\n      sstore\n      dup3\n      iszero\n      tag_38\n      jumpi\n      swap2\n      dup3\n      add\n    tag_41:\n      dup3\n      dup2\n      gt\n      iszero\n      tag_42\n      jumpi\n      dup3\n      mload\n      dup3\n      sstore\n      swap2\n      0x20\n      add\n      swap2\n      swap1\n      0x01\n      add\n      swap1\n      jump(tag_41)\n    tag_42:\n    tag_38:\n      pop\n      swap1\n      pop\n      tag_43\n      swap2\n      swap1\n      tag_44\n      jump\t// in\n    tag_43:\n      pop\n      swap1\n      jump\t// out\n    tag_44:\n    tag_45:\n      dup1\n      dup3\n      gt\n      iszero\n      tag_46\n      jumpi\n      0x00\n      dup2\n      0x00\n      swap1\n      sstore\n      pop\n      0x01\n      add\n      jump(tag_45)\n    tag_46:\n      pop\n      swap1\n      jump\t// out\n        /* \"#utility.yul\":7:419   */\n    tag_48:\n        /* \"#utility.yul\":85:90   */\n      0x00\n        /* \"#utility.yul\":110:176   */\n      tag_50\n        /* \"#utility.yul\":126:175   */\n      tag_51\n        /* \"#utility.yul\":168:174   */\n      dup5\n        /* \"#utility.yul\":126:175   */\n      tag_52\n      jump\t// in\n    tag_51:\n        /* \"#utility.yul\":110:176   */\n      tag_53\n      jump\t// in\n    tag_50:\n        /* \"#utility.yul\":101:176   */\n      swap1\n      pop\n        /* \"#utility.yul\":199:205   */\n      dup3\n        /* \"#utility.yul\":192:197   */\n      dup2\n        /* \"#utility.yul\":185:206   */\n      mstore\n        /* \"#utility.yul\":237:241   */\n      0x20\n        /* \"#utility.yul\":230:235   */\n      dup2\n        /* \"#utility.yul\":226:242   */\n      add\n        /* \"#utility.yul\":275:278   */\n      dup5\n        /* \"#utility.yul\":266:272   */\n      dup5\n        /* \"#utility.yul\":261:264   */\n      dup5\n        /* \"#utility.yul\":257:273   */\n      add\n        /* \"#utility.yul\":254:279   */\n      gt\n        /* \"#utility.yul\":251:363   */\n      iszero\n      tag_54\n      jumpi\n        /* \"#utility.yul\":282:361   */\n      tag_55\n      tag_56\n      jump\t// in\n    tag_55:\n        /* \"#utility.yul\":251:363   */\n    tag_54:\n        /* \"#utility.yul\":372:413   */\n      tag_57\n        /* \"#utility.yul\":406:412   */\n      dup5\n        /* \"#utility.yul\":401:404   */\n      dup3\n        /* \"#utility.yul\":396:399   */\n      dup6\n        /* \"#utility.yul\":372:413   */\n      tag_58\n      jump\t// in\n    tag_57:\n        /* \"#utility.yul\":91:419   */\n      pop\n        /* \"#utility.yul\":7:419   */\n      swap4\n      swap3\n      pop\n      pop\n      pop\n      jump\t// out\n        /* \"#utility.yul\":425:564   */\n    tag_59:\n        /* \"#utility.yul\":471:476   */\n      0x00\n        /* \"#utility.yul\":509:515   */\n      dup2\n        /* \"#utility.yul\":496:516   */\n      calldataload\n        /* \"#utility.yul\":487:516   */\n      swap1\n      pop\n        /* \"#utility.yul\":525:558   */\n      tag_61\n        /* \"#utility.yul\":552:557   */\n      dup2\n        /* \"#utility.yul\":525:558   */\n      tag_62\n      jump\t// in\n    tag_61:\n        /* \"#utility.yul\":425:564   */\n      swap3\n      swap2\n      pop\n      pop\n      jump\t// out\n        /* \"#utility.yul\":584:924   */\n    tag_63:\n        /* \"#utility.yul\":640:645   */\n      0x00\n        /* \"#utility.yul\":689:692   */\n      dup3\n        /* \"#utility.yul\":682:686   */\n      0x1f\n        /* \"#utility.yul\":674:680   */\n      dup4\n        /* \"#utility.yul\":670:687   */\n      add\n        /* \"#utility.yul\":666:693   */\n      slt\n        /* \"#utility.yul\":656:778   */\n      tag_65\n      jumpi\n        /* \"#utility.yul\":697:776   */\n      tag_66\n      tag_67\n      jump\t// in\n    tag_66:\n        /* \"#utility.yul\":656:778   */\n    tag_65:\n        /* \"#utility.yul\":814:820   */\n      dup2\n        /* \"#utility.yul\":801:821   */\n      calldataload\n        /* \"#utility.yul\":839:918   */\n      tag_68\n        /* \"#utility.yul\":914:917   */\n      dup5\n        /* \"#utility.yul\":906:912   */\n      dup3\n        /* \"#utility.yul\":899:903   */\n      0x20\n        /* \"#utility.yul\":891:897   */\n      dup7\n        /* \"#utility.yul\":887:904   */\n      add\n        /* \"#utility.yul\":839:918   */\n      tag_48\n      jump\t// in\n    tag_68:\n        /* \"#utility.yul\":830:918   */\n      swap2\n      pop\n        /* \"#utility.yul\":646:924   */\n      pop\n        /* \"#utility.yul\":584:924   */\n      swap3\n      swap2\n      pop\n      pop\n      jump\t// out\n        /* \"#utility.yul\":930:1069   */\n    tag_69:\n        /* \"#utility.yul\":976:981   */\n      0x00\n        /* \"#utility.yul\":1014:1020   */\n      dup2\n        /* \"#utility.yul\":1001:1021   */\n      calldataload\n        /* \"#utility.yul\":992:1021   */\n      swap1\n      pop\n        /* \"#utility.yul\":1030:1063   */\n      tag_71\n        /* \"#utility.yul\":1057:1062   */\n      dup2\n        /* \"#utility.yul\":1030:1063   */\n      tag_72\n      jump\t// in\n    tag_71:\n        /* \"#utility.yul\":930:1069   */\n      swap3\n      swap2\n      pop\n      pop\n      jump\t// out\n        /* \"#utility.yul\":1075:1404   */\n    tag_12:\n        /* \"#utility.yul\":1134:1140   */\n      0x00\n        /* \"#utility.yul\":1183:1185   */\n      0x20\n        /* \"#utility.yul\":1171:1180   */\n      dup3\n        /* \"#utility.yul\":1162:1169   */\n      dup5\n        /* \"#utility.yul\":1158:1181   */\n      sub\n        /* \"#utility.yul\":1154:1186   */\n      slt\n        /* \"#utility.yul\":1151:1270   */\n      iszero\n      tag_74\n      jumpi\n        /* \"#utility.yul\":1189:1268   */\n      tag_75\n      tag_76\n      jump\t// in\n    tag_75:\n        /* \"#utility.yul\":1151:1270   */\n    tag_74:\n        /* \"#utility.yul\":1309:1310   */\n      0x00\n        /* \"#utility.yul\":1334:1387   */\n      tag_77\n        /* \"#utility.yul\":1379:1386   */\n      dup5\n        /* \"#utility.yul\":1370:1376   */\n      dup3\n        /* \"#utility.yul\":1359:1368   */\n      dup6\n        /* \"#utility.yul\":1355:1377   */\n      add\n        /* \"#utility.yul\":1334:1387   */\n      tag_59\n      jump\t// in\n    tag_77:\n        /* \"#utility.yul\":1324:1387   */\n      swap2\n      pop\n        /* \"#utility.yul\":1280:1397   */\n      pop\n        /* \"#utility.yul\":1075:1404   */\n      swap3\n      swap2\n      pop\n      pop\n      jump\t// out\n        /* \"#utility.yul\":1410:2389   */\n    tag_8:\n        /* \"#utility.yul\":1507:1513   */\n      0x00\n        /* \"#utility.yul\":1515:1521   */\n      dup1\n        /* \"#utility.yul\":1523:1529   */\n      0x00\n        /* \"#utility.yul\":1572:1574   */\n      0x60\n        /* \"#utility.yul\":1560:1569   */\n      dup5\n        /* \"#utility.yul\":1551:1558   */\n      dup7\n        /* \"#utility.yul\":1547:1570   */\n      sub\n        /* \"#utility.yul\":1543:1575   */\n      slt\n        /* \"#utility.yul\":1540:1659   */\n      iszero\n      tag_79\n      jumpi\n        /* \"#utility.yul\":1578:1657   */\n      tag_80\n      tag_76\n      jump\t// in\n    tag_80:\n        /* \"#utility.yul\":1540:1659   */\n    tag_79:\n        /* \"#utility.yul\":1726:1727   */\n      0x00\n        /* \"#utility.yul\":1715:1724   */\n      dup5\n        /* \"#utility.yul\":1711:1728   */\n      add\n        /* \"#utility.yul\":1698:1729   */\n      calldataload\n        /* \"#utility.yul\":1756:1774   */\n      0xffffffffffffffff\n        /* \"#utility.yul\":1748:1754   */\n      dup2\n        /* \"#utility.yul\":1745:1775   */\n      gt\n        /* \"#utility.yul\":1742:1859   */\n      iszero\n      tag_81\n      jumpi\n        /* \"#utility.yul\":1778:1857   */\n      tag_82\n      tag_83\n      jump\t// in\n    tag_82:\n        /* \"#utility.yul\":1742:1859   */\n    tag_81:\n        /* \"#utility.yul\":1883:1946   */\n      tag_84\n        /* \"#utility.yul\":1938:1945   */\n      dup7\n        /* \"#utility.yul\":1929:1935   */\n      dup3\n        /* \"#utility.yul\":1918:1927   */\n      dup8\n        /* \"#utility.yul\":1914:1936   */\n      add\n        /* \"#utility.yul\":1883:1946   */\n      tag_63\n      jump\t// in\n    tag_84:\n        /* \"#utility.yul\":1873:1946   */\n      swap4\n      pop\n        /* \"#utility.yul\":1669:1956   */\n      pop\n        /* \"#utility.yul\":2023:2025   */\n      0x20\n        /* \"#utility.yul\":2012:2021   */\n      dup5\n        /* \"#utility.yul\":2008:2026   */\n      add\n        /* \"#utility.yul\":1995:2027   */\n      calldataload\n        /* \"#utility.yul\":2054:2072   */\n      0xffffffffffffffff\n        /* \"#utility.yul\":2046:2052   */\n      dup2\n        /* \"#utility.yul\":2043:2073   */\n      gt\n        /* \"#utility.yul\":2040:2157   */\n      iszero\n      tag_85\n      jumpi\n        /* \"#utility.yul\":2076:2155   */\n      tag_86\n      tag_83\n      jump\t// in\n    tag_86:\n        /* \"#utility.yul\":2040:2157   */\n    tag_85:\n        /* \"#utility.yul\":2181:2244   */\n      tag_87\n        /* \"#utility.yul\":2236:2243   */\n      dup7\n        /* \"#utility.yul\":2227:2233   */\n      dup3\n        /* \"#utility.yul\":2216:2225   */\n      dup8\n        /* \"#utility.yul\":2212:2234   */\n      add\n        /* \"#utility.yul\":2181:2244   */\n      tag_63\n      jump\t// in\n    tag_87:\n        /* \"#utility.yul\":2171:2244   */\n      swap3\n      pop\n        /* \"#utility.yul\":1966:2254   */\n      pop\n        /* \"#utility.yul\":2293:2295   */\n      0x40\n        /* \"#utility.yul\":2319:2372   */\n      tag_88\n        /* \"#utility.yul\":2364:2371   */\n      dup7\n        /* \"#utility.yul\":2355:2361   */\n      dup3\n        /* \"#utility.yul\":2344:2353   */\n      dup8\n        /* \"#utility.yul\":2340:2362   */\n      add\n        /* \"#utility.yul\":2319:2372   */\n      tag_69\n      jump\t// in\n    tag_88:\n        /* \"#utility.yul\":2309:2372   */\n      swap2\n      pop\n        /* \"#utility.yul\":2264:2382   */\n      pop\n        /* \"#utility.yul\":1410:2389   */\n      swap3\n      pop\n      swap3\n      pop\n      swap3\n      jump\t// out\n        /* \"#utility.yul\":2395:2513   */\n    tag_89:\n        /* \"#utility.yul\":2482:2506   */\n      tag_91\n        /* \"#utility.yul\":2500:2505   */\n      dup2\n        /* \"#utility.yul\":2482:2506   */\n      tag_92\n      jump\t// in\n    tag_91:\n        /* \"#utility.yul\":2477:2480   */\n      dup3\n        /* \"#utility.yul\":2470:2507   */\n      mstore\n        /* \"#utility.yul\":2395:2513   */\n      pop\n      pop\n      jump\t// out\n        /* \"#utility.yul\":2519:2883   */\n    tag_93:\n        /* \"#utility.yul\":2607:2610   */\n      0x00\n        /* \"#utility.yul\":2635:2674   */\n      tag_95\n        /* \"#utility.yul\":2668:2673   */\n      dup3\n        /* \"#utility.yul\":2635:2674   */\n      tag_96\n      jump\t// in\n    tag_95:\n        /* \"#utility.yul\":2690:2761   */\n      tag_97\n        /* \"#utility.yul\":2754:2760   */\n      dup2\n        /* \"#utility.yul\":2749:2752   */\n      dup6\n        /* \"#utility.yul\":2690:2761   */\n      tag_98\n      jump\t// in\n    tag_97:\n        /* \"#utility.yul\":2683:2761   */\n      swap4\n      pop\n        /* \"#utility.yul\":2770:2822   */\n      tag_99\n        /* \"#utility.yul\":2815:2821   */\n      dup2\n        /* \"#utility.yul\":2810:2813   */\n      dup6\n        /* \"#utility.yul\":2803:2807   */\n      0x20\n        /* \"#utility.yul\":2796:2801   */\n      dup7\n        /* \"#utility.yul\":2792:2808   */\n      add\n        /* \"#utility.yul\":2770:2822   */\n      tag_100\n      jump\t// in\n    tag_99:\n        /* \"#utility.yul\":2847:2876   */\n      tag_101\n        /* \"#utility.yul\":2869:2875   */\n      dup2\n        /* \"#utility.yul\":2847:2876   */\n      tag_102\n      jump\t// in\n    tag_101:\n        /* \"#utility.yul\":2842:2845   */\n      dup5\n        /* \"#utility.yul\":2838:2877   */\n      add\n        /* \"#utility.yul\":2831:2877   */\n      swap2\n      pop\n        /* \"#utility.yul\":2611:2883   */\n      pop\n        /* \"#utility.yul\":2519:2883   */\n      swap3\n      swap2\n      pop\n      pop\n      jump\t// out\n        /* \"#utility.yul\":2889:3007   */\n    tag_103:\n        /* \"#utility.yul\":2976:3000   */\n      tag_105\n        /* \"#utility.yul\":2994:2999   */\n      dup2\n        /* \"#utility.yul\":2976:3000   */\n      tag_106\n      jump\t// in\n    tag_105:\n        /* \"#utility.yul\":2971:2974   */\n      dup3\n        /* \"#utility.yul\":2964:3001   */\n      mstore\n        /* \"#utility.yul\":2889:3007   */\n      pop\n      pop\n      jump\t// out\n        /* \"#utility.yul\":3013:3748   */\n    tag_15:\n        /* \"#utility.yul\":3230:3234   */\n      0x00\n        /* \"#utility.yul\":3268:3271   */\n      0x80\n        /* \"#utility.yul\":3257:3266   */\n      dup3\n        /* \"#utility.yul\":3253:3272   */\n      add\n        /* \"#utility.yul\":3245:3272   */\n      swap1\n      pop\n        /* \"#utility.yul\":3282:3353   */\n      tag_108\n        /* \"#utility.yul\":3350:3351   */\n      0x00\n        /* \"#utility.yul\":3339:3348   */\n      dup4\n        /* \"#utility.yul\":3335:3352   */\n      add\n        /* \"#utility.yul\":3326:3332   */\n      dup8\n        /* \"#utility.yul\":3282:3353   */\n      tag_89\n      jump\t// in\n    tag_108:\n        /* \"#utility.yul\":3400:3409   */\n      dup2\n        /* \"#utility.yul\":3394:3398   */\n      dup2\n        /* \"#utility.yul\":3390:3410   */\n      sub\n        /* \"#utility.yul\":3385:3387   */\n      0x20\n        /* \"#utility.yul\":3374:3383   */\n      dup4\n        /* \"#utility.yul\":3370:3388   */\n      add\n        /* \"#utility.yul\":3363:3411   */\n      mstore\n        /* \"#utility.yul\":3428:3506   */\n      tag_109\n        /* \"#utility.yul\":3501:3505   */\n      dup2\n        /* \"#utility.yul\":3492:3498   */\n      dup7\n        /* \"#utility.yul\":3428:3506   */\n      tag_93\n      jump\t// in\n    tag_109:\n        /* \"#utility.yul\":3420:3506   */\n      swap1\n      pop\n        /* \"#utility.yul\":3553:3562   */\n      dup2\n        /* \"#utility.yul\":3547:3551   */\n      dup2\n        /* \"#utility.yul\":3543:3563   */\n      sub\n        /* \"#utility.yul\":3538:3540   */\n      0x40\n        /* \"#utility.yul\":3527:3536   */\n      dup4\n        /* \"#utility.yul\":3523:3541   */\n      add\n        /* \"#utility.yul\":3516:3564   */\n      mstore\n        /* \"#utility.yul\":3581:3659   */\n      tag_110\n        /* \"#utility.yul\":3654:3658   */\n      dup2\n        /* \"#utility.yul\":3645:3651   */\n      dup6\n        /* \"#utility.yul\":3581:3659   */\n      tag_93\n      jump\t// in\n    tag_110:\n        /* \"#utility.yul\":3573:3659   */\n      swap1\n      pop\n        /* \"#utility.yul\":3669:3741   */\n      tag_111\n        /* \"#utility.yul\":3737:3739   */\n      0x60\n        /* \"#utility.yul\":3726:3735   */\n      dup4\n        /* \"#utility.yul\":3722:3740   */\n      add\n        /* \"#utility.yul\":3713:3719   */\n      dup5\n        /* \"#utility.yul\":3669:3741   */\n      tag_103\n      jump\t// in\n    tag_111:\n        /* \"#utility.yul\":3013:3748   */\n      swap6\n      swap5\n      pop\n      pop\n      pop\n      pop\n      pop\n      jump\t// out\n        /* \"#utility.yul\":3754:3976   */\n    tag_19:\n        /* \"#utility.yul\":3847:3851   */\n      0x00\n        /* \"#utility.yul\":3885:3887   */\n      0x20\n        /* \"#utility.yul\":3874:3883   */\n      dup3\n        /* \"#utility.yul\":3870:3888   */\n      add\n        /* \"#utility.yul\":3862:3888   */\n      swap1\n      pop\n        /* \"#utility.yul\":3898:3969   */\n      tag_113\n        /* \"#utility.yul\":3966:3967   */\n      0x00\n        /* \"#utility.yul\":3955:3964   */\n      dup4\n        /* \"#utility.yul\":3951:3968   */\n      add\n        /* \"#utility.yul\":3942:3948   */\n      dup5\n        /* \"#utility.yul\":3898:3969   */\n      tag_103\n      jump\t// in\n    tag_113:\n        /* \"#utility.yul\":3754:3976   */\n      swap3\n      swap2\n      pop\n      pop\n      jump\t// out\n        /* \"#utility.yul\":3982:4111   */\n    tag_53:\n        /* \"#utility.yul\":4016:4022   */\n      0x00\n        /* \"#utility.yul\":4043:4063   */\n      tag_115\n      tag_116\n      jump\t// in\n    tag_115:\n        /* \"#utility.yul\":4033:4063   */\n      swap1\n      pop\n        /* \"#utility.yul\":4072:4105   */\n      tag_117\n        /* \"#utility.yul\":4100:4104   */\n      dup3\n        /* \"#utility.yul\":4092:4098   */\n      dup3\n        /* \"#utility.yul\":4072:4105   */\n      tag_118\n      jump\t// in\n    tag_117:\n        /* \"#utility.yul\":3982:4111   */\n      swap2\n      swap1\n      pop\n      jump\t// out\n        /* \"#utility.yul\":4117:4192   */\n    tag_116:\n        /* \"#utility.yul\":4150:4156   */\n      0x00\n        /* \"#utility.yul\":4183:4185   */\n      0x40\n        /* \"#utility.yul\":4177:4186   */\n      mload\n        /* \"#utility.yul\":4167:4186   */\n      swap1\n      pop\n        /* \"#utility.yul\":4117:4192   */\n      swap1\n      jump\t// out\n        /* \"#utility.yul\":4198:4506   */\n    tag_52:\n        /* \"#utility.yul\":4260:4264   */\n      0x00\n        /* \"#utility.yul\":4350:4368   */\n      0xffffffffffffffff\n        /* \"#utility.yul\":4342:4348   */\n      dup3\n        /* \"#utility.yul\":4339:4369   */\n      gt\n        /* \"#utility.yul\":4336:4392   */\n      iszero\n      tag_121\n      jumpi\n        /* \"#utility.yul\":4372:4390   */\n      tag_122\n      tag_123\n      jump\t// in\n    tag_122:\n        /* \"#utility.yul\":4336:4392   */\n    tag_121:\n        /* \"#utility.yul\":4410:4439   */\n      tag_124\n        /* \"#utility.yul\":4432:4438   */\n      dup3\n        /* \"#utility.yul\":4410:4439   */\n      tag_102\n      jump\t// in\n    tag_124:\n        /* \"#utility.yul\":4402:4439   */\n      swap1\n      pop\n        /* \"#utility.yul\":4494:4498   */\n      0x20\n        /* \"#utility.yul\":4488:4492   */\n      dup2\n        /* \"#utility.yul\":4484:4499   */\n      add\n        /* \"#utility.yul\":4476:4499   */\n      swap1\n      pop\n        /* \"#utility.yul\":4198:4506   */\n      swap2\n      swap1\n      pop\n      jump\t// out\n        /* \"#utility.yul\":4512:4611   */\n    tag_96:\n        /* \"#utility.yul\":4564:4570   */\n      0x00\n        /* \"#utility.yul\":4598:4603   */\n      dup2\n        /* \"#utility.yul\":4592:4604   */\n      mload\n        /* \"#utility.yul\":4582:4604   */\n      swap1\n      pop\n        /* \"#utility.yul\":4512:4611   */\n      swap2\n      swap1\n      pop\n      jump\t// out\n        /* \"#utility.yul\":4617:4786   */\n    tag_98:\n        /* \"#utility.yul\":4701:4712   */\n      0x00\n        /* \"#utility.yul\":4735:4741   */\n      dup3\n        /* \"#utility.yul\":4730:4733   */\n      dup3\n        /* \"#utility.yul\":4723:4742   */\n      mstore\n        /* \"#utility.yul\":4775:4779   */\n      0x20\n        /* \"#utility.yul\":4770:4773   */\n      dup3\n        /* \"#utility.yul\":4766:4780   */\n      add\n        /* \"#utility.yul\":4751:4780   */\n      swap1\n      pop\n        /* \"#utility.yul\":4617:4786   */\n      swap3\n      swap2\n      pop\n      pop\n      jump\t// out\n        /* \"#utility.yul\":4792:5097   */\n    tag_25:\n        /* \"#utility.yul\":4832:4835   */\n      0x00\n        /* \"#utility.yul\":4851:4871   */\n      tag_128\n        /* \"#utility.yul\":4869:4870   */\n      dup3\n        /* \"#utility.yul\":4851:4871   */\n      tag_106\n      jump\t// in\n    tag_128:\n        /* \"#utility.yul\":4846:4871   */\n      swap2\n      pop\n        /* \"#utility.yul\":4885:4905   */\n      tag_129\n        /* \"#utility.yul\":4903:4904   */\n      dup4\n        /* \"#utility.yul\":4885:4905   */\n      tag_106\n      jump\t// in\n    tag_129:\n        /* \"#utility.yul\":4880:4905   */\n      swap3\n      pop\n        /* \"#utility.yul\":5039:5040   */\n      dup3\n        /* \"#utility.yul\":4971:5037   */\n      0xffffffffffffffffffffffffffffffffffffffffffffffffffffffffffffffff\n        /* \"#utility.yul\":4967:5041   */\n      sub\n        /* \"#utility.yul\":4964:4965   */\n      dup3\n        /* \"#utility.yul\":4961:5042   */\n      gt\n        /* \"#utility.yul\":4958:5065   */\n      iszero\n      tag_130\n      jumpi\n        /* \"#utility.yul\":5045:5063   */\n      tag_131\n      tag_132\n      jump\t// in\n    tag_131:\n        /* \"#utility.yul\":4958:5065   */\n    tag_130:\n        /* \"#utility.yul\":5089:5090   */\n      dup3\n        /* \"#utility.yul\":5086:5087   */\n      dup3\n        /* \"#utility.yul\":5082:5091   */\n      add\n        /* \"#utility.yul\":5075:5091   */\n      swap1\n      pop\n        /* \"#utility.yul\":4792:5097   */\n      swap3\n      swap2\n      pop\n      pop\n      jump\t// out\n        /* \"#utility.yul\":5103:5199   */\n    tag_92:\n        /* \"#utility.yul\":5140:5147   */\n      0x00\n        /* \"#utility.yul\":5169:5193   */\n      tag_134\n        /* \"#utility.yul\":5187:5192   */\n      dup3\n        /* \"#utility.yul\":5169:5193   */\n      tag_135\n      jump\t// in\n    tag_134:\n        /* \"#utility.yul\":5158:5193   */\n      swap1\n      pop\n        /* \"#utility.yul\":5103:5199   */\n      swap2\n      swap1\n      pop\n      jump\t// out\n        /* \"#utility.yul\":5205:5331   */\n    tag_135:\n        /* \"#utility.yul\":5242:5249   */\n      0x00\n        /* \"#utility.yul\":5282:5324   */\n      0xffffffffffffffffffffffffffffffffffffffff\n        /* \"#utility.yul\":5275:5280   */\n      dup3\n        /* \"#utility.yul\":5271:5325   */\n      and\n        /* \"#utility.yul\":5260:5325   */\n      swap1\n      pop\n        /* \"#utility.yul\":5205:5331   */\n      swap2\n      swap1\n      pop\n      jump\t// out\n        /* \"#utility.yul\":5337:5414   */\n    tag_106:\n        /* \"#utility.yul\":5374:5381   */\n      0x00\n        /* \"#utility.yul\":5403:5408   */\n      dup2\n        /* \"#utility.yul\":5392:5408   */\n      swap1\n      pop\n        /* \"#utility.yul\":5337:5414   */\n      swap2\n      swap1\n      pop\n      jump\t// out\n        /* \"#utility.yul\":5420:5574   */\n    tag_58:\n        /* \"#utility.yul\":5504:5510   */\n      dup3\n        /* \"#utility.yul\":5499:5502   */\n      dup2\n        /* \"#utility.yul\":5494:5497   */\n      dup4\n        /* \"#utility.yul\":5481:5511   */\n      calldatacopy\n        /* \"#utility.yul\":5566:5567   */\n      0x00\n        /* \"#utility.yul\":5557:5563   */\n      dup4\n        /* \"#utility.yul\":5552:5555   */\n      dup4\n        /* \"#utility.yul\":5548:5564   */\n      add\n        /* \"#utility.yul\":5541:5568   */\n      mstore\n        /* \"#utility.yul\":5420:5574   */\n      pop\n      pop\n      pop\n      jump\t// out\n        /* \"#utility.yul\":5580:5887   */\n    tag_100:\n        /* \"#utility.yul\":5648:5649   */\n      0x00\n        /* \"#utility.yul\":5658:5771   */\n    tag_140:\n        /* \"#utility.yul\":5672:5678   */\n      dup4\n        /* \"#utility.yul\":5669:5670   */\n      dup2\n        /* \"#utility.yul\":5666:5679   */\n      lt\n        /* \"#utility.yul\":5658:5771   */\n      iszero\n      tag_142\n      jumpi\n        /* \"#utility.yul\":5757:5758   */\n      dup1\n        /* \"#utility.yul\":5752:5755   */\n      dup3\n        /* \"#utility.yul\":5748:5759   */\n      add\n        /* \"#utility.yul\":5742:5760   */\n      mload\n        /* \"#utility.yul\":5738:5739   */\n      dup2\n        /* \"#utility.yul\":5733:5736   */\n      dup5\n        /* \"#utility.yul\":5729:5740   */\n      add\n        /* \"#utility.yul\":5722:5761   */\n      mstore\n        /* \"#utility.yul\":5694:5696   */\n      0x20\n        /* \"#utility.yul\":5691:5692   */\n      dup2\n        /* \"#utility.yul\":5687:5697   */\n      add\n        /* \"#utility.yul\":5682:5697   */\n      swap1\n      pop\n        /* \"#utility.yul\":5658:5771   */\n      jump(tag_140)\n    tag_142:\n        /* \"#utility.yul\":5789:5795   */\n      dup4\n        /* \"#utility.yul\":5786:5787   */\n      dup2\n        /* \"#utility.yul\":5783:5796   */\n      gt\n        /* \"#utility.yul\":5780:5881   */\n      iszero\n      tag_143\n      jumpi\n        /* \"#utility.yul\":5869:5870   */\n      0x00\n        /* \"#utility.yul\":5860:5866   */\n      dup5\n        /* \"#utility.yul\":5855:5858   */\n      dup5\n        /* \"#utility.yul\":5851:5867   */\n      add\n        /* \"#utility.yul\":5844:5871   */\n      mstore\n        /* \"#utility.yul\":5780:5881   */\n    tag_143:\n        /* \"#utility.yul\":5629:5887   */\n      pop\n        /* \"#utility.yul\":5580:5887   */\n      pop\n      pop\n      pop\n      jump\t// out\n        /* \"#utility.yul\":5893:6213   */\n    tag_27:\n        /* \"#utility.yul\":5937:5943   */\n      0x00\n        /* \"#utility.yul\":5974:5975   */\n      0x02\n        /* \"#utility.yul\":5968:5972   */\n      dup3\n        /* \"#utility.yul\":5964:5976   */\n      div\n        /* \"#utility.yul\":5954:5976   */\n      swap1\n      pop\n        /* \"#utility.yul\":6021:6022   */\n      0x01\n        /* \"#utility.yul\":6015:6019   */\n      dup3\n        /* \"#utility.yul\":6011:6023   */\n      and\n        /* \"#utility.yul\":6042:6060   */\n      dup1\n        /* \"#utility.yul\":6032:6113   */\n      tag_145\n      jumpi\n        /* \"#utility.yul\":6098:6102   */\n      0x7f\n        /* \"#utility.yul\":6090:6096   */\n      dup3\n        /* \"#utility.yul\":6086:6103   */\n      and\n        /* \"#utility.yul\":6076:6103   */\n      swap2\n      pop\n        /* \"#utility.yul\":6032:6113   */\n    tag_145:\n        /* \"#utility.yul\":6160:6162   */\n      0x20\n        /* \"#utility.yul\":6152:6158   */\n      dup3\n        /* \"#utility.yul\":6149:6163   */\n      lt\n        /* \"#utility.yul\":6129:6147   */\n      dup2\n        /* \"#utility.yul\":6126:6164   */\n      eq\n        /* \"#utility.yul\":6123:6207   */\n      iszero\n      tag_146\n      jumpi\n        /* \"#utility.yul\":6179:6197   */\n      tag_147\n      tag_148\n      jump\t// in\n    tag_147:\n        /* \"#utility.yul\":6123:6207   */\n    tag_146:\n        /* \"#utility.yul\":5944:6213   */\n      pop\n        /* \"#utility.yul\":5893:6213   */\n      swap2\n      swap1\n      pop\n      jump\t// out\n        /* \"#utility.yul\":6219:6500   */\n    tag_118:\n        /* \"#utility.yul\":6302:6329   */\n      tag_150\n        /* \"#utility.yul\":6324:6328   */\n      dup3\n        /* \"#utility.yul\":6302:6329   */\n      tag_102\n      jump\t// in\n    tag_150:\n        /* \"#utility.yul\":6294:6300   */\n      dup2\n        /* \"#utility.yul\":6290:6330   */\n      add\n        /* \"#utility.yul\":6432:6438   */\n      dup2\n        /* \"#utility.yul\":6420:6430   */\n      dup2\n        /* \"#utility.yul\":6417:6439   */\n      lt\n        /* \"#utility.yul\":6396:6414   */\n      0xffffffffffffffff\n        /* \"#utility.yul\":6384:6394   */\n      dup3\n        /* \"#utility.yul\":6381:6415   */\n      gt\n        /* \"#utility.yul\":6378:6440   */\n      or\n        /* \"#utility.yul\":6375:6463   */\n      iszero\n      tag_151\n      jumpi\n        /* \"#utility.yul\":6443:6461   */\n      tag_152\n      tag_123\n      jump\t// in\n    tag_152:\n        /* \"#utility.yul\":6375:6463   */\n    tag_151:\n        /* \"#utility.yul\":6483:6493   */\n      dup1\n        /* \"#utility.yul\":6479:6481   */\n      0x40\n        /* \"#utility.yul\":6472:6494   */\n      mstore\n        /* \"#utility.yul\":6262:6500   */\n      pop\n        /* \"#utility.yul\":6219:6500   */\n      pop\n      pop\n      jump\t// out\n        /* \"#utility.yul\":6506:6686   */\n    tag_132:\n        /* \"#utility.yul\":6554:6631   */\n      0x4e487b7100000000000000000000000000000000000000000000000000000000\n        /* \"#utility.yul\":6551:6552   */\n      0x00\n        /* \"#utility.yul\":6544:6632   */\n      mstore\n        /* \"#utility.yul\":6651:6655   */\n      0x11\n        /* \"#utility.yul\":6648:6649   */\n      0x04\n        /* \"#utility.yul\":6641:6656   */\n      mstore\n        /* \"#utility.yul\":6675:6679   */\n      0x24\n        /* \"#utility.yul\":6672:6673   */\n      0x00\n        /* \"#utility.yul\":6665:6680   */\n      revert\n        /* \"#utility.yul\":6692:6872   */\n    tag_148:\n        /* \"#utility.yul\":6740:6817   */\n      0x4e487b7100000000000000000000000000000000000000000000000000000000\n        /* \"#utility.yul\":6737:6738   */\n      0x00\n        /* \"#utility.yul\":6730:6818   */\n      mstore\n        /* \"#utility.yul\":6837:6841   */\n      0x22\n        /* \"#utility.yul\":6834:6835   */\n      0x04\n        /* \"#utility.yul\":6827:6842   */\n      mstore\n        /* \"#utility.yul\":6861:6865   */\n      0x24\n        /* \"#utility.yul\":6858:6859   */\n      0x00\n        /* \"#utility.yul\":6851:6866   */\n      revert\n        /* \"#utility.yul\":6878:7058   */\n    tag_123:\n        /* \"#utility.yul\":6926:7003   */\n      0x4e487b7100000000000000000000000000000000000000000000000000000000\n        /* \"#utility.yul\":6923:6924   */\n      0x00\n        /* \"#utility.yul\":6916:7004   */\n      mstore\n        /* \"#utility.yul\":7023:7027   */\n      0x41\n        /* \"#utility.yul\":7020:7021   */\n      0x04\n        /* \"#utility.yul\":7013:7028   */\n      mstore\n        /* \"#utility.yul\":7047:7051   */\n      0x24\n        /* \"#utility.yul\":7044:7045   */\n      0x00\n        /* \"#utility.yul\":7037:7052   */\n      revert\n        /* \"#utility.yul\":7064:7181   */\n    tag_67:\n        /* \"#utility.yul\":7173:7174   */\n      0x00\n        /* \"#utility.yul\":7170:7171   */\n      dup1\n        /* \"#utility.yul\":7163:7175   */\n      revert\n        /* \"#utility.yul\":7187:7304   */\n    tag_56:\n        /* \"#utility.yul\":7296:7297   */\n      0x00\n        /* \"#utility.yul\":7293:7294   */\n      dup1\n        /* \"#utility.yul\":7286:7298   */\n      revert\n        /* \"#utility.yul\":7310:7427   */\n    tag_83:\n        /* \"#utility.yul\":7419:7420   */\n      0x00\n        /* \"#utility.yul\":7416:7417   */\n      dup1\n        /* \"#utility.yul\":7409:7421   */\n      revert\n        /* \"#utility.yul\":7433:7550   */\n    tag_76:\n        /* \"#utility.yul\":7542:7543   */\n      0x00\n        /* \"#utility.yul\":7539:7540   */\n      dup1\n        /* \"#utility.yul\":7532:7544   */\n      revert\n        /* \"#utility.yul\":7556:7658   */\n    tag_102:\n        /* \"#utility.yul\":7597:7603   */\n      0x00\n        /* \"#utility.yul\":7648:7650   */\n      0x1f\n        /* \"#utility.yul\":7644:7651   */\n      not\n        /* \"#utility.yul\":7639:7641   */\n      0x1f\n        /* \"#utility.yul\":7632:7637   */\n      dup4\n        /* \"#utility.yul\":7628:7642   */\n      add\n        /* \"#utility.yul\":7624:7652   */\n      and\n        /* \"#utility.yul\":7614:7652   */\n      swap1\n      pop\n        /* \"#utility.yul\":7556:7658   */\n      swap2\n      swap1\n      pop\n      jump\t// out\n        /* \"#utility.yul\":7664:7786   */\n    tag_62:\n        /* \"#utility.yul\":7737:7761   */\n      tag_162\n        /* \"#utility.yul\":7755:7760   */\n      dup2\n        /* \"#utility.yul\":7737:7761   */\n      tag_92\n      jump\t// in\n    tag_162:\n        /* \"#utility.yul\":7730:7735   */\n      dup2\n        /* \"#utility.yul\":7727:7762   */\n      eq\n        /* \"#utility.yul\":7717:7780   */\n      tag_163\n      jumpi\n        /* \"#utility.yul\":7776:7777   */\n      0x00\n        /* \"#utility.yul\":7773:7774   */\n      dup1\n        /* \"#utility.yul\":7766:7778   */\n      revert\n        /* \"#utility.yul\":7717:7780   */\n    tag_163:\n        /* \"#utility.yul\":7664:7786   */\n      pop\n      jump\t// out\n        /* \"#utility.yul\":7792:7914   */\n    tag_72:\n        /* \"#utility.yul\":7865:7889   */\n      tag_165\n        /* \"#utility.yul\":7883:7888   */\n      dup2\n        /* \"#utility.yul\":7865:7889   */\n      tag_106\n      jump\t// in\n    tag_165:\n        /* \"#utility.yul\":7858:7863   */\n      dup2\n        /* \"#utility.yul\":7855:7890   */\n      eq\n        /* \"#utility.yul\":7845:7908   */\n      tag_166\n      jumpi\n        /* \"#utility.yul\":7904:7905   */\n      0x00\n        /* \"#utility.yul\":7901:7902   */\n      dup1\n        /* \"#utility.yul\":7894:7906   */\n      revert\n        /* \"#utility.yul\":7845:7908   */\n    tag_166:\n        /* \"#utility.yul\":7792:7914   */\n      pop\n      jump\t// out\n\n    auxdata: 0xa2646970667358221220d911616313f235b751ca5ce98b647c83240c95d9c6e779113e766d020f0ba4fb64736f6c63430008070033\n}\n",
				"bytecode": {
					"linkReferences": {},
					"object": "60806040526000805534801561001457600080fd5b506108b4806100246000396000f3fe608060405234801561001057600080fd5b50600436106100415760003560e01c80639cc8f13914610046578063a6c807a914610062578063e581f9ee14610095575b600080fd5b610060600480360381019061005b91906104a5565b6100b3565b005b61007c60048036038101906100779190610478565b6101d5565b60405161008c9493929190610587565b60405180910390f35b61009d610335565b6040516100aa91906105da565b60405180910390f35b60405180608001604052803373ffffffffffffffffffffffffffffffffffffffff16815260200184815260200183815260200182815250600160003373ffffffffffffffffffffffffffffffffffffffff1673ffffffffffffffffffffffffffffffffffffffff16815260200190815260200160002060008201518160000160006101000a81548173ffffffffffffffffffffffffffffffffffffffff021916908373ffffffffffffffffffffffffffffffffffffffff160217905550602082015181600101908051906020019061018c92919061033b565b5060408201518160020190805190602001906101a992919061033b565b506060820151816003015590505060016000808282546101c99190610667565b92505081905550505050565b60016020528060005260406000206000915090508060000160009054906101000a900473ffffffffffffffffffffffffffffffffffffffff169080600101805461021e9061073b565b80601f016020809104026020016040519081016040528092919081815260200182805461024a9061073b565b80156102975780601f1061026c57610100808354040283529160200191610297565b820191906000526020600020905b81548152906001019060200180831161027a57829003601f168201915b5050505050908060020180546102ac9061073b565b80601f01602080910402602001604051908101604052809291908181526020018280546102d89061073b565b80156103255780601f106102fa57610100808354040283529160200191610325565b820191906000526020600020905b81548152906001019060200180831161030857829003601f168201915b5050505050908060030154905084565b60005481565b8280546103479061073b565b90600052602060002090601f01602090048101928261036957600085556103b0565b82601f1061038257805160ff19168380011785556103b0565b828001600101855582156103b0579182015b828111156103af578251825591602001919060010190610394565b5b5090506103bd91906103c1565b5090565b5b808211156103da5760008160009055506001016103c2565b5090565b60006103f16103ec8461061a565b6105f5565b90508281526020810184848401111561040d5761040c610830565b5b6104188482856106f9565b509392505050565b60008135905061042f81610850565b92915050565b600082601f83011261044a5761044961082b565b5b813561045a8482602086016103de565b91505092915050565b60008135905061047281610867565b92915050565b60006020828403121561048e5761048d61083a565b5b600061049c84828501610420565b91505092915050565b6000806000606084860312156104be576104bd61083a565b5b600084013567ffffffffffffffff8111156104dc576104db610835565b5b6104e886828701610435565b935050602084013567ffffffffffffffff81111561050957610508610835565b5b61051586828701610435565b925050604061052686828701610463565b9150509250925092565b610539816106bd565b82525050565b600061054a8261064b565b6105548185610656565b9350610564818560208601610708565b61056d8161083f565b840191505092915050565b610581816106ef565b82525050565b600060808201905061059c6000830187610530565b81810360208301526105ae818661053f565b905081810360408301526105c2818561053f565b90506105d16060830184610578565b95945050505050565b60006020820190506105ef6000830184610578565b92915050565b60006105ff610610565b905061060b828261076d565b919050565b6000604051905090565b600067ffffffffffffffff821115610635576106346107fc565b5b61063e8261083f565b9050602081019050919050565b600081519050919050565b600082825260208201905092915050565b6000610672826106ef565b915061067d836106ef565b9250827fffffffffffffffffffffffffffffffffffffffffffffffffffffffffffffffff038211156106b2576106b161079e565b5b828201905092915050565b60006106c8826106cf565b9050919050565b600073ffffffffffffffffffffffffffffffffffffffff82169050919050565b6000819050919050565b82818337600083830152505050565b60005b8381101561072657808201518184015260208101905061070b565b83811115610735576000848401525b50505050565b6000600282049050600182168061075357607f821691505b60208210811415610767576107666107cd565b5b50919050565b6107768261083f565b810181811067ffffffffffffffff82111715610795576107946107fc565b5b80604052505050565b7f4e487b7100000000000000000000000000000000000000000000000000000000600052601160045260246000fd5b7f4e487b7100000000000000000000000000000000000000000000000000000000600052602260045260246000fd5b7f4e487b7100000000000000000000000000000000000000000000000000000000600052604160045260246000fd5b600080fd5b600080fd5b600080fd5b600080fd5b6000601f19601f8301169050919050565b610859816106bd565b811461086457600080fd5b50565b610870816106ef565b811461087b57600080fd5b5056fea2646970667358221220d911616313f235b751ca5ce98b647c83240c95d9c6e779113e766d020f0ba4fb64736f6c63430008070033",
					"opcodes": "PUSH1 0x80 PUSH1 0x40 MSTORE PUSH1 0x0 DUP1 SSTORE CALLVALUE DUP1 ISZERO PUSH2 0x14 JUMPI PUSH1 0x0 DUP1 REVERT JUMPDEST POP PUSH2 0x8B4 DUP1 PUSH2 0x24 PUSH1 0x0 CODECOPY PUSH1 0x0 RETURN INVALID PUSH1 0x80 PUSH1 0x40 MSTORE CALLVALUE DUP1 ISZERO PUSH2 0x10 JUMPI PUSH1 0x0 DUP1 REVERT JUMPDEST POP PUSH1 0x4 CALLDATASIZE LT PUSH2 0x41 JUMPI PUSH1 0x0 CALLDATALOAD PUSH1 0xE0 SHR DUP1 PUSH4 0x9CC8F139 EQ PUSH2 0x46 JUMPI DUP1 PUSH4 0xA6C807A9 EQ PUSH2 0x62 JUMPI DUP1 PUSH4 0xE581F9EE EQ PUSH2 0x95 JUMPI JUMPDEST PUSH1 0x0 DUP1 REVERT JUMPDEST PUSH2 0x60 PUSH1 0x4 DUP1 CALLDATASIZE SUB DUP2 ADD SWAP1 PUSH2 0x5B SWAP2 SWAP1 PUSH2 0x4A5 JUMP JUMPDEST PUSH2 0xB3 JUMP JUMPDEST STOP JUMPDEST PUSH2 0x7C PUSH1 0x4 DUP1 CALLDATASIZE SUB DUP2 ADD SWAP1 PUSH2 0x77 SWAP2 SWAP1 PUSH2 0x478 JUMP JUMPDEST PUSH2 0x1D5 JUMP JUMPDEST PUSH1 0x40 MLOAD PUSH2 0x8C SWAP5 SWAP4 SWAP3 SWAP2 SWAP1 PUSH2 0x587 JUMP JUMPDEST PUSH1 0x40 MLOAD DUP1 SWAP2 SUB SWAP1 RETURN JUMPDEST PUSH2 0x9D PUSH2 0x335 JUMP JUMPDEST PUSH1 0x40 MLOAD PUSH2 0xAA SWAP2 SWAP1 PUSH2 0x5DA JUMP JUMPDEST PUSH1 0x40 MLOAD DUP1 SWAP2 SUB SWAP1 RETURN JUMPDEST PUSH1 0x40 MLOAD DUP1 PUSH1 0x80 ADD PUSH1 0x40 MSTORE DUP1 CALLER PUSH20 0xFFFFFFFFFFFFFFFFFFFFFFFFFFFFFFFFFFFFFFFF AND DUP2 MSTORE PUSH1 0x20 ADD DUP5 DUP2 MSTORE PUSH1 0x20 ADD DUP4 DUP2 MSTORE PUSH1 0x20 ADD DUP3 DUP2 MSTORE POP PUSH1 0x1 PUSH1 0x0 CALLER PUSH20 0xFFFFFFFFFFFFFFFFFFFFFFFFFFFFFFFFFFFFFFFF AND PUSH20 0xFFFFFFFFFFFFFFFFFFFFFFFFFFFFFFFFFFFFFFFF AND DUP2 MSTORE PUSH1 0x20 ADD SWAP1 DUP2 MSTORE PUSH1 0x20 ADD PUSH1 0x0 KECCAK256 PUSH1 0x0 DUP3 ADD MLOAD DUP2 PUSH1 0x0 ADD PUSH1 0x0 PUSH2 0x100 EXP DUP2 SLOAD DUP2 PUSH20 0xFFFFFFFFFFFFFFFFFFFFFFFFFFFFFFFFFFFFFFFF MUL NOT AND SWAP1 DUP4 PUSH20 0xFFFFFFFFFFFFFFFFFFFFFFFFFFFFFFFFFFFFFFFF AND MUL OR SWAP1 SSTORE POP PUSH1 0x20 DUP3 ADD MLOAD DUP2 PUSH1 0x1 ADD SWAP1 DUP1 MLOAD SWAP1 PUSH1 0x20 ADD SWAP1 PUSH2 0x18C SWAP3 SWAP2 SWAP1 PUSH2 0x33B JUMP JUMPDEST POP PUSH1 0x40 DUP3 ADD MLOAD DUP2 PUSH1 0x2 ADD SWAP1 DUP1 MLOAD SWAP1 PUSH1 0x20 ADD SWAP1 PUSH2 0x1A9 SWAP3 SWAP2 SWAP1 PUSH2 0x33B JUMP JUMPDEST POP PUSH1 0x60 DUP3 ADD MLOAD DUP2 PUSH1 0x3 ADD SSTORE SWAP1 POP POP PUSH1 0x1 PUSH1 0x0 DUP1 DUP3 DUP3 SLOAD PUSH2 0x1C9 SWAP2 SWAP1 PUSH2 0x667 JUMP JUMPDEST SWAP3 POP POP DUP2 SWAP1 SSTORE POP POP POP POP JUMP JUMPDEST PUSH1 0x1 PUSH1 0x20 MSTORE DUP1 PUSH1 0x0 MSTORE PUSH1 0x40 PUSH1 0x0 KECCAK256 PUSH1 0x0 SWAP2 POP SWAP1 POP DUP1 PUSH1 0x0 ADD PUSH1 0x0 SWAP1 SLOAD SWAP1 PUSH2 0x100 EXP SWAP1 DIV PUSH20 0xFFFFFFFFFFFFFFFFFFFFFFFFFFFFFFFFFFFFFFFF AND SWAP1 DUP1 PUSH1 0x1 ADD DUP1 SLOAD PUSH2 0x21E SWAP1 PUSH2 0x73B JUMP JUMPDEST DUP1 PUSH1 0x1F ADD PUSH1 0x20 DUP1 SWAP2 DIV MUL PUSH1 0x20 ADD PUSH1 0x40 MLOAD SWAP1 DUP2 ADD PUSH1 0x40 MSTORE DUP1 SWAP3 SWAP2 SWAP1 DUP2 DUP2 MSTORE PUSH1 0x20 ADD DUP3 DUP1 SLOAD PUSH2 0x24A SWAP1 PUSH2 0x73B JUMP JUMPDEST DUP1 ISZERO PUSH2 0x297 JUMPI DUP1 PUSH1 0x1F LT PUSH2 0x26C JUMPI PUSH2 0x100 DUP1 DUP4 SLOAD DIV MUL DUP4 MSTORE SWAP2 PUSH1 0x20 ADD SWAP2 PUSH2 0x297 JUMP JUMPDEST DUP3 ADD SWAP2 SWAP1 PUSH1 0x0 MSTORE PUSH1 0x20 PUSH1 0x0 KECCAK256 SWAP1 JUMPDEST DUP2 SLOAD DUP2 MSTORE SWAP1 PUSH1 0x1 ADD SWAP1 PUSH1 0x20 ADD DUP1 DUP4 GT PUSH2 0x27A JUMPI DUP3 SWAP1 SUB PUSH1 0x1F AND DUP3 ADD SWAP2 JUMPDEST POP POP POP POP POP SWAP1 DUP1 PUSH1 0x2 ADD DUP1 SLOAD PUSH2 0x2AC SWAP1 PUSH2 0x73B JUMP JUMPDEST DUP1 PUSH1 0x1F ADD PUSH1 0x20 DUP1 SWAP2 DIV MUL PUSH1 0x20 ADD PUSH1 0x40 MLOAD SWAP1 DUP2 ADD PUSH1 0x40 MSTORE DUP1 SWAP3 SWAP2 SWAP1 DUP2 DUP2 MSTORE PUSH1 0x20 ADD DUP3 DUP1 SLOAD PUSH2 0x2D8 SWAP1 PUSH2 0x73B JUMP JUMPDEST DUP1 ISZERO PUSH2 0x325 JUMPI DUP1 PUSH1 0x1F LT PUSH2 0x2FA JUMPI PUSH2 0x100 DUP1 DUP4 SLOAD DIV MUL DUP4 MSTORE SWAP2 PUSH1 0x20 ADD SWAP2 PUSH2 0x325 JUMP JUMPDEST DUP3 ADD SWAP2 SWAP1 PUSH1 0x0 MSTORE PUSH1 0x20 PUSH1 0x0 KECCAK256 SWAP1 JUMPDEST DUP2 SLOAD DUP2 MSTORE SWAP1 PUSH1 0x1 ADD SWAP1 PUSH1 0x20 ADD DUP1 DUP4 GT PUSH2 0x308 JUMPI DUP3 SWAP1 SUB PUSH1 0x1F AND DUP3 ADD SWAP2 JUMPDEST POP POP POP POP POP SWAP1 DUP1 PUSH1 0x3 ADD SLOAD SWAP1 POP DUP5 JUMP JUMPDEST PUSH1 0x0 SLOAD DUP2 JUMP JUMPDEST DUP3 DUP1 SLOAD PUSH2 0x347 SWAP1 PUSH2 0x73B JUMP JUMPDEST SWAP1 PUSH1 0x0 MSTORE PUSH1 0x20 PUSH1 0x0 KECCAK256 SWAP1 PUSH1 0x1F ADD PUSH1 0x20 SWAP1 DIV DUP2 ADD SWAP3 DUP3 PUSH2 0x369 JUMPI PUSH1 0x0 DUP6 SSTORE PUSH2 0x3B0 JUMP JUMPDEST DUP3 PUSH1 0x1F LT PUSH2 0x382 JUMPI DUP1 MLOAD PUSH1 0xFF NOT AND DUP4 DUP1 ADD OR DUP6 SSTORE PUSH2 0x3B0 JUMP JUMPDEST DUP3 DUP1 ADD PUSH1 0x1 ADD DUP6 SSTORE DUP3 ISZERO PUSH2 0x3B0 JUMPI SWAP2 DUP3 ADD JUMPDEST DUP3 DUP2 GT ISZERO PUSH2 0x3AF JUMPI DUP3 MLOAD DUP3 SSTORE SWAP2 PUSH1 0x20 ADD SWAP2 SWAP1 PUSH1 0x1 ADD SWAP1 PUSH2 0x394 JUMP JUMPDEST JUMPDEST POP SWAP1 POP PUSH2 0x3BD SWAP2 SWAP1 PUSH2 0x3C1 JUMP JUMPDEST POP SWAP1 JUMP JUMPDEST JUMPDEST DUP1 DUP3 GT ISZERO PUSH2 0x3DA JUMPI PUSH1 0x0 DUP2 PUSH1 0x0 SWAP1 SSTORE POP PUSH1 0x1 ADD PUSH2 0x3C2 JUMP JUMPDEST POP SWAP1 JUMP JUMPDEST PUSH1 0x0 PUSH2 0x3F1 PUSH2 0x3EC DUP5 PUSH2 0x61A JUMP JUMPDEST PUSH2 0x5F5 JUMP JUMPDEST SWAP1 POP DUP3 DUP2 MSTORE PUSH1 0x20 DUP2 ADD DUP5 DUP5 DUP5 ADD GT ISZERO PUSH2 0x40D JUMPI PUSH2 0x40C PUSH2 0x830 JUMP JUMPDEST JUMPDEST PUSH2 0x418 DUP5 DUP3 DUP6 PUSH2 0x6F9 JUMP JUMPDEST POP SWAP4 SWAP3 POP POP POP JUMP JUMPDEST PUSH1 0x0 DUP2 CALLDATALOAD SWAP1 POP PUSH2 0x42F DUP2 PUSH2 0x850 JUMP JUMPDEST SWAP3 SWAP2 POP POP JUMP JUMPDEST PUSH1 0x0 DUP3 PUSH1 0x1F DUP4 ADD SLT PUSH2 0x44A JUMPI PUSH2 0x449 PUSH2 0x82B JUMP JUMPDEST JUMPDEST DUP2 CALLDATALOAD PUSH2 0x45A DUP5 DUP3 PUSH1 0x20 DUP7 ADD PUSH2 0x3DE JUMP JUMPDEST SWAP2 POP POP SWAP3 SWAP2 POP POP JUMP JUMPDEST PUSH1 0x0 DUP2 CALLDATALOAD SWAP1 POP PUSH2 0x472 DUP2 PUSH2 0x867 JUMP JUMPDEST SWAP3 SWAP2 POP POP JUMP JUMPDEST PUSH1 0x0 PUSH1 0x20 DUP3 DUP5 SUB SLT ISZERO PUSH2 0x48E JUMPI PUSH2 0x48D PUSH2 0x83A JUMP JUMPDEST JUMPDEST PUSH1 0x0 PUSH2 0x49C DUP5 DUP3 DUP6 ADD PUSH2 0x420 JUMP JUMPDEST SWAP2 POP POP SWAP3 SWAP2 POP POP JUMP JUMPDEST PUSH1 0x0 DUP1 PUSH1 0x0 PUSH1 0x60 DUP5 DUP7 SUB SLT ISZERO PUSH2 0x4BE JUMPI PUSH2 0x4BD PUSH2 0x83A JUMP JUMPDEST JUMPDEST PUSH1 0x0 DUP5 ADD CALLDATALOAD PUSH8 0xFFFFFFFFFFFFFFFF DUP2 GT ISZERO PUSH2 0x4DC JUMPI PUSH2 0x4DB PUSH2 0x835 JUMP JUMPDEST JUMPDEST PUSH2 0x4E8 DUP7 DUP3 DUP8 ADD PUSH2 0x435 JUMP JUMPDEST SWAP4 POP POP PUSH1 0x20 DUP5 ADD CALLDATALOAD PUSH8 0xFFFFFFFFFFFFFFFF DUP2 GT ISZERO PUSH2 0x509 JUMPI PUSH2 0x508 PUSH2 0x835 JUMP JUMPDEST JUMPDEST PUSH2 0x515 DUP7 DUP3 DUP8 ADD PUSH2 0x435 JUMP JUMPDEST SWAP3 POP POP PUSH1 0x40 PUSH2 0x526 DUP7 DUP3 DUP8 ADD PUSH2 0x463 JUMP JUMPDEST SWAP2 POP POP SWAP3 POP SWAP3 POP SWAP3 JUMP JUMPDEST PUSH2 0x539 DUP2 PUSH2 0x6BD JUMP JUMPDEST DUP3 MSTORE POP POP JUMP JUMPDEST PUSH1 0x0 PUSH2 0x54A DUP3 PUSH2 0x64B JUMP JUMPDEST PUSH2 0x554 DUP2 DUP6 PUSH2 0x656 JUMP JUMPDEST SWAP4 POP PUSH2 0x564 DUP2 DUP6 PUSH1 0x20 DUP7 ADD PUSH2 0x708 JUMP JUMPDEST PUSH2 0x56D DUP2 PUSH2 0x83F JUMP JUMPDEST DUP5 ADD SWAP2 POP POP SWAP3 SWAP2 POP POP JUMP JUMPDEST PUSH2 0x581 DUP2 PUSH2 0x6EF JUMP JUMPDEST DUP3 MSTORE POP POP JUMP JUMPDEST PUSH1 0x0 PUSH1 0x80 DUP3 ADD SWAP1 POP PUSH2 0x59C PUSH1 0x0 DUP4 ADD DUP8 PUSH2 0x530 JUMP JUMPDEST DUP2 DUP2 SUB PUSH1 0x20 DUP4 ADD MSTORE PUSH2 0x5AE DUP2 DUP7 PUSH2 0x53F JUMP JUMPDEST SWAP1 POP DUP2 DUP2 SUB PUSH1 0x40 DUP4 ADD MSTORE PUSH2 0x5C2 DUP2 DUP6 PUSH2 0x53F JUMP JUMPDEST SWAP1 POP PUSH2 0x5D1 PUSH1 0x60 DUP4 ADD DUP5 PUSH2 0x578 JUMP JUMPDEST SWAP6 SWAP5 POP POP POP POP POP JUMP JUMPDEST PUSH1 0x0 PUSH1 0x20 DUP3 ADD SWAP1 POP PUSH2 0x5EF PUSH1 0x0 DUP4 ADD DUP5 PUSH2 0x578 JUMP JUMPDEST SWAP3 SWAP2 POP POP JUMP JUMPDEST PUSH1 0x0 PUSH2 0x5FF PUSH2 0x610 JUMP JUMPDEST SWAP1 POP PUSH2 0x60B DUP3 DUP3 PUSH2 0x76D JUMP JUMPDEST SWAP2 SWAP1 POP JUMP JUMPDEST PUSH1 0x0 PUSH1 0x40 MLOAD SWAP1 POP SWAP1 JUMP JUMPDEST PUSH1 0x0 PUSH8 0xFFFFFFFFFFFFFFFF DUP3 GT ISZERO PUSH2 0x635 JUMPI PUSH2 0x634 PUSH2 0x7FC JUMP JUMPDEST JUMPDEST PUSH2 0x63E DUP3 PUSH2 0x83F JUMP JUMPDEST SWAP1 POP PUSH1 0x20 DUP2 ADD SWAP1 POP SWAP2 SWAP1 POP JUMP JUMPDEST PUSH1 0x0 DUP2 MLOAD SWAP1 POP SWAP2 SWAP1 POP JUMP JUMPDEST PUSH1 0x0 DUP3 DUP3 MSTORE PUSH1 0x20 DUP3 ADD SWAP1 POP SWAP3 SWAP2 POP POP JUMP JUMPDEST PUSH1 0x0 PUSH2 0x672 DUP3 PUSH2 0x6EF JUMP JUMPDEST SWAP2 POP PUSH2 0x67D DUP4 PUSH2 0x6EF JUMP JUMPDEST SWAP3 POP DUP3 PUSH32 0xFFFFFFFFFFFFFFFFFFFFFFFFFFFFFFFFFFFFFFFFFFFFFFFFFFFFFFFFFFFFFFFF SUB DUP3 GT ISZERO PUSH2 0x6B2 JUMPI PUSH2 0x6B1 PUSH2 0x79E JUMP JUMPDEST JUMPDEST DUP3 DUP3 ADD SWAP1 POP SWAP3 SWAP2 POP POP JUMP JUMPDEST PUSH1 0x0 PUSH2 0x6C8 DUP3 PUSH2 0x6CF JUMP JUMPDEST SWAP1 POP SWAP2 SWAP1 POP JUMP JUMPDEST PUSH1 0x0 PUSH20 0xFFFFFFFFFFFFFFFFFFFFFFFFFFFFFFFFFFFFFFFF DUP3 AND SWAP1 POP SWAP2 SWAP1 POP JUMP JUMPDEST PUSH1 0x0 DUP2 SWAP1 POP SWAP2 SWAP1 POP JUMP JUMPDEST DUP3 DUP2 DUP4 CALLDATACOPY PUSH1 0x0 DUP4 DUP4 ADD MSTORE POP POP POP JUMP JUMPDEST PUSH1 0x0 JUMPDEST DUP4 DUP2 LT ISZERO PUSH2 0x726 JUMPI DUP1 DUP3 ADD MLOAD DUP2 DUP5 ADD MSTORE PUSH1 0x20 DUP2 ADD SWAP1 POP PUSH2 0x70B JUMP JUMPDEST DUP4 DUP2 GT ISZERO PUSH2 0x735 JUMPI PUSH1 0x0 DUP5 DUP5 ADD MSTORE JUMPDEST POP POP POP POP JUMP JUMPDEST PUSH1 0x0 PUSH1 0x2 DUP3 DIV SWAP1 POP PUSH1 0x1 DUP3 AND DUP1 PUSH2 0x753 JUMPI PUSH1 0x7F DUP3 AND SWAP2 POP JUMPDEST PUSH1 0x20 DUP3 LT DUP2 EQ ISZERO PUSH2 0x767 JUMPI PUSH2 0x766 PUSH2 0x7CD JUMP JUMPDEST JUMPDEST POP SWAP2 SWAP1 POP JUMP JUMPDEST PUSH2 0x776 DUP3 PUSH2 0x83F JUMP JUMPDEST DUP2 ADD DUP2 DUP2 LT PUSH8 0xFFFFFFFFFFFFFFFF DUP3 GT OR ISZERO PUSH2 0x795 JUMPI PUSH2 0x794 PUSH2 0x7FC JUMP JUMPDEST JUMPDEST DUP1 PUSH1 0x40 MSTORE POP POP POP JUMP JUMPDEST PUSH32 0x4E487B7100000000000000000000000000000000000000000000000000000000 PUSH1 0x0 MSTORE PUSH1 0x11 PUSH1 0x4 MSTORE PUSH1 0x24 PUSH1 0x0 REVERT JUMPDEST PUSH32 0x4E487B7100000000000000000000000000000000000000000000000000000000 PUSH1 0x0 MSTORE PUSH1 0x22 PUSH1 0x4 MSTORE PUSH1 0x24 PUSH1 0x0 REVERT JUMPDEST PUSH32 0x4E487B7100000000000000000000000000000000000000000000000000000000 PUSH1 0x0 MSTORE PUSH1 0x41 PUSH1 0x4 MSTORE PUSH1 0x24 PUSH1 0x0 REVERT JUMPDEST PUSH1 0x0 DUP1 REVERT JUMPDEST PUSH1 0x0 DUP1 REVERT JUMPDEST PUSH1 0x0 DUP1 REVERT JUMPDEST PUSH1 0x0 DUP1 REVERT JUMPDEST PUSH1 0x0 PUSH1 0x1F NOT PUSH1 0x1F DUP4 ADD AND SWAP1 POP SWAP2 SWAP1 POP JUMP JUMPDEST PUSH2 0x859 DUP2 PUSH2 0x6BD JUMP JUMPDEST DUP2 EQ PUSH2 0x864 JUMPI PUSH1 0x0 DUP1 REVERT JUMPDEST POP JUMP JUMPDEST PUSH2 0x870 DUP2 PUSH2 0x6EF JUMP JUMPDEST DUP2 EQ PUSH2 0x87B JUMPI PUSH1 0x0 DUP1 REVERT JUMPDEST POP JUMP INVALID LOG2 PUSH5 0x6970667358 0x22 SLT KECCAK256 0xD9 GT PUSH2 0x6313 CALLCODE CALLDATALOAD 0xB7 MLOAD 0xCA 0x5C 0xE9 DUP12 PUSH5 0x7C83240C95 0xD9 0xC6 0xE7 PUSH26 0x113E766D020F0BA4FB64736F6C63430008070033000000000000 "
				},
				"gasEstimates": {
					"creation": {
						"codeDepositCost": "445600",
						"executionCost": "5486",
						"totalCost": "451086"
					},
					"external": {
						"addStudent(string,string,uint256)": "infinite",
						"studentCount()": "2451",
						"students(address)": "infinite"
					}
				},
				"methodIdentifiers": {
					"addStudent(string,string,uint256)": "9cc8f139",
					"studentCount()": "e581f9ee",
					"students(address)": "a6c807a9"
				}
			},
			"storageLayout": {
				"storage": [
					{
						"astId": 4,
						"contract": "contracts/students.sol:myStudent",
						"label": "studentCount",
						"offset": 0,
						"slot": "0",
						"type": "t_uint256"
					},
					{
						"astId": 9,
						"contract": "contracts/students.sol:myStudent",
						"label": "students",
						"offset": 0,
						"slot": "1",
						"type": "t_mapping(t_address,t_struct(Student)18_storage)"
					}
				],
				"types": {
					"t_address": {
						"encoding": "inplace",
						"label": "address",
						"numberOfBytes": "20"
					},
					"t_mapping(t_address,t_struct(Student)18_storage)": {
						"encoding": "mapping",
						"key": "t_address",
						"label": "mapping(address => struct myStudent.Student)",
						"numberOfBytes": "32",
						"value": "t_struct(Student)18_storage"
					},
					"t_string_storage": {
						"encoding": "bytes",
						"label": "string",
						"numberOfBytes": "32"
					},
					"t_struct(Student)18_storage": {
						"encoding": "inplace",
						"label": "struct myStudent.Student",
						"members": [
							{
								"astId": 11,
								"contract": "contracts/students.sol:myStudent",
								"label": "StudentAddress",
								"offset": 0,
								"slot": "0",
								"type": "t_address"
							},
							{
								"astId": 13,
								"contract": "contracts/students.sol:myStudent",
								"label": "firstName",
								"offset": 0,
								"slot": "1",
								"type": "t_string_storage"
							},
							{
								"astId": 15,
								"contract": "contracts/students.sol:myStudent",
								"label": "lastName",
								"offset": 0,
								"slot": "2",
								"type": "t_string_storage"
							},
							{
								"astId": 17,
								"contract": "contracts/students.sol:myStudent",
								"label": "_regNo",
								"offset": 0,
								"slot": "3",
								"type": "t_uint256"
							}
						],
						"numberOfBytes": "128"
					},
					"t_uint256": {
						"encoding": "inplace",
						"label": "uint256",
						"numberOfBytes": "32"
					}
				}
			},
			"userdoc": {
				"kind": "user",
				"methods": {},
				"version": 1
			}
		}
	}
}